{
	"Giftmoji.sol": {
		"EmojiGift": {
			"abi": [
				{
					"inputs": [
						{
							"internalType": "uint8",
							"name": "_fee",
							"type": "uint8"
						}
					],
					"stateMutability": "nonpayable",
					"type": "constructor"
				},
				{
					"inputs": [],
					"name": "EnforcedPause",
					"type": "error"
				},
				{
					"inputs": [],
					"name": "ExpectedPause",
					"type": "error"
				},
				{
					"inputs": [
						{
							"internalType": "uint256",
							"name": "",
							"type": "uint256"
						}
					],
					"name": "InsufficientBalance",
					"type": "error"
				},
				{
					"inputs": [
						{
							"internalType": "address",
							"name": "owner",
							"type": "address"
						}
					],
					"name": "OwnableInvalidOwner",
					"type": "error"
				},
				{
					"inputs": [
						{
							"internalType": "address",
							"name": "account",
							"type": "address"
						}
					],
					"name": "OwnableUnauthorizedAccount",
					"type": "error"
				},
				{
					"anonymous": false,
					"inputs": [
						{
							"indexed": true,
							"internalType": "bytes32",
							"name": "emojiId",
							"type": "bytes32"
						},
						{
							"indexed": false,
							"internalType": "string",
							"name": "metadata",
							"type": "string"
						},
						{
							"indexed": true,
							"internalType": "string",
							"name": "name",
							"type": "string"
						},
						{
							"indexed": true,
							"internalType": "string",
							"name": "emoji",
							"type": "string"
						},
						{
							"indexed": false,
							"internalType": "uint256",
							"name": "price",
							"type": "uint256"
						},
						{
							"indexed": false,
							"internalType": "bool",
							"name": "status",
							"type": "bool"
						}
					],
					"name": "EmojiAdded",
					"type": "event"
				},
				{
					"anonymous": false,
					"inputs": [
						{
							"indexed": true,
							"internalType": "bytes32",
							"name": "emojiId",
							"type": "bytes32"
						},
						{
							"indexed": true,
							"internalType": "string",
							"name": "name",
							"type": "string"
						},
						{
							"indexed": true,
							"internalType": "string",
							"name": "emoji",
							"type": "string"
						},
						{
							"indexed": false,
							"internalType": "uint256",
							"name": "price",
							"type": "uint256"
						}
					],
					"name": "EmojiUpdated",
					"type": "event"
				},
				{
					"anonymous": false,
					"inputs": [
						{
							"indexed": false,
							"internalType": "uint8",
							"name": "",
							"type": "uint8"
						}
					],
					"name": "FeeUpdated",
					"type": "event"
				},
				{
					"anonymous": false,
					"inputs": [
						{
							"indexed": true,
							"internalType": "address",
							"name": "previousOwner",
							"type": "address"
						},
						{
							"indexed": true,
							"internalType": "address",
							"name": "newOwner",
							"type": "address"
						}
					],
					"name": "OwnershipTransferred",
					"type": "event"
				},
				{
					"anonymous": false,
					"inputs": [
						{
							"indexed": false,
							"internalType": "address",
							"name": "account",
							"type": "address"
						}
					],
					"name": "Paused",
					"type": "event"
				},
				{
					"anonymous": false,
					"inputs": [
						{
							"indexed": true,
							"internalType": "bytes32",
							"name": "emojiId",
							"type": "bytes32"
						},
						{
							"indexed": true,
							"internalType": "address",
							"name": "from",
							"type": "address"
						},
						{
							"indexed": true,
							"internalType": "address",
							"name": "to",
							"type": "address"
						},
						{
							"indexed": false,
							"internalType": "uint256",
							"name": "price",
							"type": "uint256"
						},
						{
							"indexed": false,
							"internalType": "uint256",
							"name": "dt",
							"type": "uint256"
						}
					],
					"name": "Reacted",
					"type": "event"
				},
				{
					"anonymous": false,
					"inputs": [
						{
							"indexed": false,
							"internalType": "address",
							"name": "account",
							"type": "address"
						}
					],
					"name": "Unpaused",
					"type": "event"
				},
				{
					"inputs": [],
					"name": "_emojiCounter",
					"outputs": [
						{
							"internalType": "uint256",
							"name": "_value",
							"type": "uint256"
						}
					],
					"stateMutability": "view",
					"type": "function"
				},
				{
					"inputs": [],
					"name": "_reactionCounter",
					"outputs": [
						{
							"internalType": "uint256",
							"name": "_value",
							"type": "uint256"
						}
					],
					"stateMutability": "view",
					"type": "function"
				},
				{
					"inputs": [
						{
							"internalType": "string",
							"name": "_metadata",
							"type": "string"
						},
						{
							"internalType": "string",
							"name": "_name",
							"type": "string"
						},
						{
							"internalType": "string",
							"name": "_emoji",
							"type": "string"
						},
						{
							"internalType": "uint256",
							"name": "_price",
							"type": "uint256"
						}
					],
					"name": "addEmoji",
					"outputs": [
						{
							"internalType": "bytes32",
							"name": "lastEmojiId",
							"type": "bytes32"
						}
					],
					"stateMutability": "nonpayable",
					"type": "function"
				},
				{
					"inputs": [
						{
							"internalType": "uint256",
							"name": "",
							"type": "uint256"
						}
					],
					"name": "emojiPool",
					"outputs": [
						{
							"internalType": "bytes32",
							"name": "emojiId",
							"type": "bytes32"
						},
						{
							"internalType": "string",
							"name": "metadata",
							"type": "string"
						},
						{
							"internalType": "string",
							"name": "name",
							"type": "string"
						},
						{
							"internalType": "string",
							"name": "emoji",
							"type": "string"
						},
						{
							"internalType": "uint256",
							"name": "price",
							"type": "uint256"
						},
						{
							"internalType": "bool",
							"name": "status",
							"type": "bool"
						}
					],
					"stateMutability": "view",
					"type": "function"
				},
				{
					"inputs": [],
					"name": "fee",
					"outputs": [
						{
							"internalType": "uint8",
							"name": "",
							"type": "uint8"
						}
					],
					"stateMutability": "view",
					"type": "function"
				},
				{
					"inputs": [],
					"name": "getAllEmoji",
					"outputs": [
						{
							"components": [
								{
									"internalType": "bytes32",
									"name": "emojiId",
									"type": "bytes32"
								},
								{
									"internalType": "string",
									"name": "metadata",
									"type": "string"
								},
								{
									"internalType": "string",
									"name": "name",
									"type": "string"
								},
								{
									"internalType": "string",
									"name": "emoji",
									"type": "string"
								},
								{
									"internalType": "uint256",
									"name": "price",
									"type": "uint256"
								},
								{
									"internalType": "bool",
									"name": "status",
									"type": "bool"
								}
							],
							"internalType": "struct EmojiGift.EmojiStruct[]",
							"name": "",
							"type": "tuple[]"
						}
					],
					"stateMutability": "view",
					"type": "function"
				},
				{
					"inputs": [
						{
							"internalType": "address",
							"name": "_addr",
							"type": "address"
						}
					],
					"name": "getAllUserReaction",
					"outputs": [
						{
							"components": [
								{
									"internalType": "address",
									"name": "sender",
									"type": "address"
								},
								{
									"internalType": "bytes32",
									"name": "emojiId",
									"type": "bytes32"
								},
								{
									"internalType": "uint256",
									"name": "price",
									"type": "uint256"
								},
								{
									"internalType": "bytes",
									"name": "message",
									"type": "bytes"
								},
								{
									"internalType": "uint256",
									"name": "dt",
									"type": "uint256"
								}
							],
							"internalType": "struct EmojiGift.ReactStruct[]",
							"name": "",
							"type": "tuple[]"
						}
					],
					"stateMutability": "view",
					"type": "function"
				},
				{
					"inputs": [],
					"name": "getBalance",
					"outputs": [
						{
							"internalType": "uint256",
							"name": "",
							"type": "uint256"
						}
					],
					"stateMutability": "view",
					"type": "function"
				},
				{
					"inputs": [],
					"name": "owner",
					"outputs": [
						{
							"internalType": "address",
							"name": "",
							"type": "address"
						}
					],
					"stateMutability": "view",
					"type": "function"
				},
				{
					"inputs": [],
					"name": "pause",
					"outputs": [],
					"stateMutability": "nonpayable",
					"type": "function"
				},
				{
					"inputs": [],
					"name": "paused",
					"outputs": [
						{
							"internalType": "bool",
							"name": "",
							"type": "bool"
						}
					],
					"stateMutability": "view",
					"type": "function"
				},
				{
					"inputs": [
						{
							"internalType": "address",
							"name": "_addr",
							"type": "address"
						},
						{
							"internalType": "bytes32",
							"name": "_emojiId",
							"type": "bytes32"
						},
						{
							"internalType": "bytes",
							"name": "_message",
							"type": "bytes"
						}
					],
					"name": "react",
					"outputs": [
						{
							"internalType": "bool",
							"name": "",
							"type": "bool"
						}
					],
					"stateMutability": "payable",
					"type": "function"
				},
				{
					"inputs": [
						{
							"internalType": "address",
							"name": "",
							"type": "address"
						},
						{
							"internalType": "uint256",
							"name": "",
							"type": "uint256"
						}
					],
					"name": "reactPool",
					"outputs": [
						{
							"internalType": "address",
							"name": "sender",
							"type": "address"
						},
						{
							"internalType": "bytes32",
							"name": "emojiId",
							"type": "bytes32"
						},
						{
							"internalType": "uint256",
							"name": "price",
							"type": "uint256"
						},
						{
							"internalType": "bytes",
							"name": "message",
							"type": "bytes"
						},
						{
							"internalType": "uint256",
							"name": "dt",
							"type": "uint256"
						}
					],
					"stateMutability": "view",
					"type": "function"
				},
				{
					"inputs": [],
					"name": "renounceOwnership",
					"outputs": [],
					"stateMutability": "nonpayable",
					"type": "function"
				},
				{
					"inputs": [
						{
							"internalType": "address",
							"name": "_addr",
							"type": "address"
						},
						{
							"internalType": "bytes32",
							"name": "_emojiId",
							"type": "bytes32"
						}
					],
					"name": "totalOfEmojiReaction",
					"outputs": [
						{
							"internalType": "uint256",
							"name": "",
							"type": "uint256"
						}
					],
					"stateMutability": "view",
					"type": "function"
				},
				{
					"inputs": [
						{
							"internalType": "address payable",
							"name": "_to",
							"type": "address"
						},
						{
							"internalType": "uint256",
							"name": "_amount",
							"type": "uint256"
						}
					],
					"name": "transferBalance",
					"outputs": [],
					"stateMutability": "nonpayable",
					"type": "function"
				},
				{
					"inputs": [
						{
							"internalType": "address",
							"name": "newOwner",
							"type": "address"
						}
					],
					"name": "transferOwnership",
					"outputs": [],
					"stateMutability": "nonpayable",
					"type": "function"
				},
				{
					"inputs": [],
					"name": "unpause",
					"outputs": [],
					"stateMutability": "nonpayable",
					"type": "function"
				},
				{
					"inputs": [
						{
							"internalType": "bytes32",
							"name": "_emojiId",
							"type": "bytes32"
						},
						{
							"internalType": "string",
							"name": "_metadata",
							"type": "string"
						},
						{
							"internalType": "string",
							"name": "_name",
							"type": "string"
						},
						{
							"internalType": "string",
							"name": "_emoji",
							"type": "string"
						},
						{
							"internalType": "uint256",
							"name": "_price",
							"type": "uint256"
						},
						{
							"internalType": "bool",
							"name": "_status",
							"type": "bool"
						}
					],
					"name": "updateEmoji",
					"outputs": [
						{
							"internalType": "bytes32",
							"name": "updatedId",
							"type": "bytes32"
						}
					],
					"stateMutability": "nonpayable",
					"type": "function"
				},
				{
					"inputs": [
						{
							"internalType": "uint8",
							"name": "_fee",
							"type": "uint8"
						}
					],
					"name": "updateFee",
					"outputs": [],
					"stateMutability": "nonpayable",
					"type": "function"
				},
				{
					"inputs": [],
					"name": "withdraw",
					"outputs": [],
					"stateMutability": "nonpayable",
					"type": "function"
				}
			],
			"devdoc": {
				"author": "Aratta Labs",
				"custom:emoji": "🆙💋🦾✨",
				"custom:security-contact": "atenyun@gmail.com",
				"details": "You will find the deployed contract addresses in the repo",
				"errors": {
					"EnforcedPause()": [
						{
							"details": "The operation failed because the contract is paused."
						}
					],
					"ExpectedPause()": [
						{
							"details": "The operation failed because the contract is not paused."
						}
					],
					"OwnableInvalidOwner(address)": [
						{
							"details": "The owner is not a valid owner account. (eg. `address(0)`)"
						}
					],
					"OwnableUnauthorizedAccount(address)": [
						{
							"details": "The caller account is not authorized to perform an operation."
						}
					]
				},
				"events": {
					"Paused(address)": {
						"details": "Emitted when the pause is triggered by `account`."
					},
					"Unpaused(address)": {
						"details": "Emitted when the pause is lifted by `account`."
					}
				},
				"kind": "dev",
				"methods": {
					"owner()": {
						"details": "Returns the address of the current owner."
					},
					"paused()": {
						"details": "Returns true if the contract is paused, and false otherwise."
					},
					"renounceOwnership()": {
						"details": "Leaves the contract without owner. It will not be possible to call `onlyOwner` functions. Can only be called by the current owner. NOTE: Renouncing ownership will leave the contract without an owner, thereby disabling any functionality that is only available to the owner."
					},
					"transferOwnership(address)": {
						"details": "Transfers ownership of the contract to a new account (`newOwner`). Can only be called by the current owner."
					},
					"updateFee(uint8)": {
						"details": "Fee can be 0-100",
						"params": {
							"_fee": "new value"
						}
					}
				},
				"title": "Giftmoji",
				"version": 1
			},
			"evm": {
				"assembly": "    /* \"Giftmoji.sol\":490:6028  contract EmojiGift is Ownable(msg.sender), Pausable {... */\n  mstore(0x40, 0x80)\n    /* \"Giftmoji.sol\":1122:1173  constructor(uint8 _fee) {... */\n  callvalue\n  dup1\n  iszero\n  tag_1\n  jumpi\n  revert(0x00, 0x00)\ntag_1:\n  pop\n  mload(0x40)\n  sub(codesize, bytecodeSize)\n  dup1\n  bytecodeSize\n  dup4\n  codecopy\n  dup2\n  dup2\n  add\n  0x40\n  mstore\n  dup2\n  add\n  swap1\n  tag_2\n  swap2\n  swap1\n  tag_3\n  jump\t// in\ntag_2:\n    /* \"Giftmoji.sol\":520:530  msg.sender */\n  caller\n    /* \"_ownable.sol\":1318:1319  0 */\n  0x00\n    /* \"_ownable.sol\":1294:1320  initialOwner == address(0) */\n  0xffffffffffffffffffffffffffffffffffffffff\n  and\n    /* \"_ownable.sol\":1294:1306  initialOwner */\n  dup2\n    /* \"_ownable.sol\":1294:1320  initialOwner == address(0) */\n  0xffffffffffffffffffffffffffffffffffffffff\n  and\n  sub\n    /* \"_ownable.sol\":1290:1385  if (initialOwner == address(0)) {... */\n  tag_8\n  jumpi\n    /* \"_ownable.sol\":1371:1372  0 */\n  0x00\n    /* \"_ownable.sol\":1343:1374  OwnableInvalidOwner(address(0)) */\n  mload(0x40)\n  0x1e4fbdf700000000000000000000000000000000000000000000000000000000\n  dup2\n  mstore\n  0x04\n  add\n  tag_9\n  swap2\n  swap1\n  tag_10\n  jump\t// in\ntag_9:\n  mload(0x40)\n  dup1\n  swap2\n  sub\n  swap1\n  revert\n    /* \"_ownable.sol\":1290:1385  if (initialOwner == address(0)) {... */\ntag_8:\n    /* \"_ownable.sol\":1394:1426  _transferOwnership(initialOwner) */\n  tag_11\n    /* \"_ownable.sol\":1413:1425  initialOwner */\n  dup2\n    /* \"_ownable.sol\":1394:1412  _transferOwnership */\n  shl(0x20, tag_12)\n    /* \"_ownable.sol\":1394:1426  _transferOwnership(initialOwner) */\n  0x20\n  shr\n  jump\t// in\ntag_11:\n    /* \"_ownable.sol\":1246:1433  constructor(address initialOwner) {... */\n  pop\n    /* \"_pausable.sol\":1262:1267  false */\n  0x00\n    /* \"_pausable.sol\":1252:1259  _paused */\n  0x00\n  0x14\n    /* \"_pausable.sol\":1252:1267  _paused = false */\n  0x0100\n  exp\n  dup2\n  sload\n  dup2\n  0xff\n  mul\n  not\n  and\n  swap1\n  dup4\n  iszero\n  iszero\n  mul\n  or\n  swap1\n  sstore\n  pop\n    /* \"Giftmoji.sol\":1162:1166  _fee */\n  dup1\n    /* \"Giftmoji.sol\":1156:1159  fee */\n  0x03\n  0x00\n    /* \"Giftmoji.sol\":1156:1166  fee = _fee */\n  0x0100\n  exp\n  dup2\n  sload\n  dup2\n  0xff\n  mul\n  not\n  and\n  swap1\n  dup4\n  0xff\n  and\n  mul\n  or\n  swap1\n  sstore\n  pop\n    /* \"Giftmoji.sol\":1122:1173  constructor(uint8 _fee) {... */\n  pop\n    /* \"Giftmoji.sol\":490:6028  contract EmojiGift is Ownable(msg.sender), Pausable {... */\n  jump(tag_15)\n    /* \"_ownable.sol\":2933:3120  function _transferOwnership(address newOwner) internal virtual {... */\ntag_12:\n    /* \"_ownable.sol\":3006:3022  address oldOwner */\n  0x00\n    /* \"_ownable.sol\":3025:3031  _owner */\n  0x00\n  0x00\n  swap1\n  sload\n  swap1\n  0x0100\n  exp\n  swap1\n  div\n  0xffffffffffffffffffffffffffffffffffffffff\n  and\n    /* \"_ownable.sol\":3006:3031  address oldOwner = _owner */\n  swap1\n  pop\n    /* \"_ownable.sol\":3050:3058  newOwner */\n  dup2\n    /* \"_ownable.sol\":3041:3047  _owner */\n  0x00\n  0x00\n    /* \"_ownable.sol\":3041:3058  _owner = newOwner */\n  0x0100\n  exp\n  dup2\n  sload\n  dup2\n  0xffffffffffffffffffffffffffffffffffffffff\n  mul\n  not\n  and\n  swap1\n  dup4\n  0xffffffffffffffffffffffffffffffffffffffff\n  and\n  mul\n  or\n  swap1\n  sstore\n  pop\n    /* \"_ownable.sol\":3104:3112  newOwner */\n  dup2\n    /* \"_ownable.sol\":3073:3113  OwnershipTransferred(oldOwner, newOwner) */\n  0xffffffffffffffffffffffffffffffffffffffff\n  and\n    /* \"_ownable.sol\":3094:3102  oldOwner */\n  dup2\n    /* \"_ownable.sol\":3073:3113  OwnershipTransferred(oldOwner, newOwner) */\n  0xffffffffffffffffffffffffffffffffffffffff\n  and\n  0x8be0079c531659141344cd1fd0a4f28419497f9722a3daafe3b4186f6b6457e0\n  mload(0x40)\n  mload(0x40)\n  dup1\n  swap2\n  sub\n  swap1\n  log3\n    /* \"_ownable.sol\":2996:3120  {... */\n  pop\n    /* \"_ownable.sol\":2933:3120  function _transferOwnership(address newOwner) internal virtual {... */\n  pop\n  jump\t// out\n    /* \"#utility.yul\":88:205   */\ntag_18:\n    /* \"#utility.yul\":197:198   */\n  0x00\n    /* \"#utility.yul\":194:195   */\n  0x00\n    /* \"#utility.yul\":187:199   */\n  revert\n    /* \"#utility.yul\":334:420   */\ntag_20:\n    /* \"#utility.yul\":369:376   */\n  0x00\n    /* \"#utility.yul\":409:413   */\n  0xff\n    /* \"#utility.yul\":402:407   */\n  dup3\n    /* \"#utility.yul\":398:414   */\n  and\n    /* \"#utility.yul\":387:414   */\n  swap1\n  pop\n    /* \"#utility.yul\":334:420   */\n  swap2\n  swap1\n  pop\n  jump\t// out\n    /* \"#utility.yul\":426:544   */\ntag_21:\n    /* \"#utility.yul\":497:519   */\n  tag_32\n    /* \"#utility.yul\":513:518   */\n  dup2\n    /* \"#utility.yul\":497:519   */\n  tag_20\n  jump\t// in\ntag_32:\n    /* \"#utility.yul\":490:495   */\n  dup2\n    /* \"#utility.yul\":487:520   */\n  eq\n    /* \"#utility.yul\":477:538   */\n  tag_33\n  jumpi\n    /* \"#utility.yul\":534:535   */\n  0x00\n    /* \"#utility.yul\":531:532   */\n  0x00\n    /* \"#utility.yul\":524:536   */\n  revert\n    /* \"#utility.yul\":477:538   */\ntag_33:\n    /* \"#utility.yul\":426:544   */\n  pop\n  jump\t// out\n    /* \"#utility.yul\":550:689   */\ntag_22:\n    /* \"#utility.yul\":605:610   */\n  0x00\n    /* \"#utility.yul\":636:642   */\n  dup2\n    /* \"#utility.yul\":630:643   */\n  mload\n    /* \"#utility.yul\":621:643   */\n  swap1\n  pop\n    /* \"#utility.yul\":652:683   */\n  tag_35\n    /* \"#utility.yul\":677:682   */\n  dup2\n    /* \"#utility.yul\":652:683   */\n  tag_21\n  jump\t// in\ntag_35:\n    /* \"#utility.yul\":550:689   */\n  swap3\n  swap2\n  pop\n  pop\n  jump\t// out\n    /* \"#utility.yul\":695:1042   */\ntag_3:\n    /* \"#utility.yul\":763:769   */\n  0x00\n    /* \"#utility.yul\":812:814   */\n  0x20\n    /* \"#utility.yul\":800:809   */\n  dup3\n    /* \"#utility.yul\":791:798   */\n  dup5\n    /* \"#utility.yul\":787:810   */\n  sub\n    /* \"#utility.yul\":783:815   */\n  slt\n    /* \"#utility.yul\":780:899   */\n  iszero\n  tag_37\n  jumpi\n    /* \"#utility.yul\":818:897   */\n  tag_38\n  tag_18\n  jump\t// in\ntag_38:\n    /* \"#utility.yul\":780:899   */\ntag_37:\n    /* \"#utility.yul\":938:939   */\n  0x00\n    /* \"#utility.yul\":963:1025   */\n  tag_39\n    /* \"#utility.yul\":1017:1024   */\n  dup5\n    /* \"#utility.yul\":1008:1014   */\n  dup3\n    /* \"#utility.yul\":997:1006   */\n  dup6\n    /* \"#utility.yul\":993:1015   */\n  add\n    /* \"#utility.yul\":963:1025   */\n  tag_22\n  jump\t// in\ntag_39:\n    /* \"#utility.yul\":953:1025   */\n  swap2\n  pop\n    /* \"#utility.yul\":909:1035   */\n  pop\n    /* \"#utility.yul\":695:1042   */\n  swap3\n  swap2\n  pop\n  pop\n  jump\t// out\n    /* \"#utility.yul\":1048:1174   */\ntag_23:\n    /* \"#utility.yul\":1085:1092   */\n  0x00\n    /* \"#utility.yul\":1125:1167   */\n  0xffffffffffffffffffffffffffffffffffffffff\n    /* \"#utility.yul\":1118:1123   */\n  dup3\n    /* \"#utility.yul\":1114:1168   */\n  and\n    /* \"#utility.yul\":1103:1168   */\n  swap1\n  pop\n    /* \"#utility.yul\":1048:1174   */\n  swap2\n  swap1\n  pop\n  jump\t// out\n    /* \"#utility.yul\":1180:1276   */\ntag_24:\n    /* \"#utility.yul\":1217:1224   */\n  0x00\n    /* \"#utility.yul\":1246:1270   */\n  tag_42\n    /* \"#utility.yul\":1264:1269   */\n  dup3\n    /* \"#utility.yul\":1246:1270   */\n  tag_23\n  jump\t// in\ntag_42:\n    /* \"#utility.yul\":1235:1270   */\n  swap1\n  pop\n    /* \"#utility.yul\":1180:1276   */\n  swap2\n  swap1\n  pop\n  jump\t// out\n    /* \"#utility.yul\":1282:1400   */\ntag_25:\n    /* \"#utility.yul\":1369:1393   */\n  tag_44\n    /* \"#utility.yul\":1387:1392   */\n  dup2\n    /* \"#utility.yul\":1369:1393   */\n  tag_24\n  jump\t// in\ntag_44:\n    /* \"#utility.yul\":1364:1367   */\n  dup3\n    /* \"#utility.yul\":1357:1394   */\n  mstore\n    /* \"#utility.yul\":1282:1400   */\n  pop\n  pop\n  jump\t// out\n    /* \"#utility.yul\":1406:1628   */\ntag_10:\n    /* \"#utility.yul\":1499:1503   */\n  0x00\n    /* \"#utility.yul\":1537:1539   */\n  0x20\n    /* \"#utility.yul\":1526:1535   */\n  dup3\n    /* \"#utility.yul\":1522:1540   */\n  add\n    /* \"#utility.yul\":1514:1540   */\n  swap1\n  pop\n    /* \"#utility.yul\":1550:1621   */\n  tag_46\n    /* \"#utility.yul\":1618:1619   */\n  0x00\n    /* \"#utility.yul\":1607:1616   */\n  dup4\n    /* \"#utility.yul\":1603:1620   */\n  add\n    /* \"#utility.yul\":1594:1600   */\n  dup5\n    /* \"#utility.yul\":1550:1621   */\n  tag_25\n  jump\t// in\ntag_46:\n    /* \"#utility.yul\":1406:1628   */\n  swap3\n  swap2\n  pop\n  pop\n  jump\t// out\n    /* \"Giftmoji.sol\":490:6028  contract EmojiGift is Ownable(msg.sender), Pausable {... */\ntag_15:\n  dataSize(sub_0)\n  dup1\n  dataOffset(sub_0)\n  0x00\n  codecopy\n  0x00\n  return\nstop\n\nsub_0: assembly {\n        /* \"Giftmoji.sol\":490:6028  contract EmojiGift is Ownable(msg.sender), Pausable {... */\n      mstore(0x40, 0x80)\n      jumpi(tag_1, lt(calldatasize, 0x04))\n      shr(0xe0, calldataload(0x00))\n      dup1\n      0x80de0ea7\n      gt\n      tag_23\n      jumpi\n      dup1\n      0xc019e859\n      gt\n      tag_24\n      jumpi\n      dup1\n      0xc019e859\n      eq\n      tag_17\n      jumpi\n      dup1\n      0xc4299885\n      eq\n      tag_18\n      jumpi\n      dup1\n      0xd2d41c2c\n      eq\n      tag_19\n      jumpi\n      dup1\n      0xddca3f43\n      eq\n      tag_20\n      jumpi\n      dup1\n      0xe0a1be30\n      eq\n      tag_21\n      jumpi\n      dup1\n      0xf2fde38b\n      eq\n      tag_22\n      jumpi\n      jump(tag_1)\n    tag_24:\n      dup1\n      0x80de0ea7\n      eq\n      tag_12\n      jumpi\n      dup1\n      0x8456cb59\n      eq\n      tag_13\n      jumpi\n      dup1\n      0x8da5cb5b\n      eq\n      tag_14\n      jumpi\n      dup1\n      0x949c09b8\n      eq\n      tag_15\n      jumpi\n      dup1\n      0xaf75c2e5\n      eq\n      tag_16\n      jumpi\n      jump(tag_1)\n    tag_23:\n      dup1\n      0x56a6d9ef\n      gt\n      tag_25\n      jumpi\n      dup1\n      0x56a6d9ef\n      eq\n      tag_7\n      jumpi\n      dup1\n      0x5c975abb\n      eq\n      tag_8\n      jumpi\n      dup1\n      0x5da18d22\n      eq\n      tag_9\n      jumpi\n      dup1\n      0x715018a6\n      eq\n      tag_10\n      jumpi\n      dup1\n      0x78b963e0\n      eq\n      tag_11\n      jumpi\n      jump(tag_1)\n    tag_25:\n      dup1\n      0x12065fe0\n      eq\n      tag_2\n      jumpi\n      dup1\n      0x1f15a20b\n      eq\n      tag_3\n      jumpi\n      dup1\n      0x3ccfd60b\n      eq\n      tag_4\n      jumpi\n      dup1\n      0x3f4ba83a\n      eq\n      tag_5\n      jumpi\n      dup1\n      0x4bc34927\n      eq\n      tag_6\n      jumpi\n    tag_1:\n      revert(0x00, 0x00)\n        /* \"Giftmoji.sol\":5729:5836  function getBalance() public view onlyOwner returns (uint256) {... */\n    tag_2:\n      callvalue\n      dup1\n      iszero\n      tag_26\n      jumpi\n      revert(0x00, 0x00)\n    tag_26:\n      pop\n      tag_27\n      tag_28\n      jump\t// in\n    tag_27:\n      mload(0x40)\n      tag_29\n      swap2\n      swap1\n      tag_30\n      jump\t// in\n    tag_29:\n      mload(0x40)\n      dup1\n      swap2\n      sub\n      swap1\n      return\n        /* \"Giftmoji.sol\":3619:4774  function react(... */\n    tag_3:\n      tag_31\n      0x04\n      dup1\n      calldatasize\n      sub\n      dup2\n      add\n      swap1\n      tag_32\n      swap2\n      swap1\n      tag_33\n      jump\t// in\n    tag_32:\n      tag_34\n      jump\t// in\n    tag_31:\n      mload(0x40)\n      tag_35\n      swap2\n      swap1\n      tag_36\n      jump\t// in\n    tag_35:\n      mload(0x40)\n      dup1\n      swap2\n      sub\n      swap1\n      return\n        /* \"Giftmoji.sol\":5180:5368  function withdraw() public onlyOwner {... */\n    tag_4:\n      callvalue\n      dup1\n      iszero\n      tag_37\n      jumpi\n      revert(0x00, 0x00)\n    tag_37:\n      pop\n      tag_38\n      tag_39\n      jump\t// in\n    tag_38:\n      stop\n        /* \"Giftmoji.sol\":5963:6026  function unpause() public onlyOwner {... */\n    tag_5:\n      callvalue\n      dup1\n      iszero\n      tag_40\n      jumpi\n      revert(0x00, 0x00)\n    tag_40:\n      pop\n      tag_41\n      tag_42\n      jump\t// in\n    tag_41:\n      stop\n        /* \"Giftmoji.sol\":859:909  mapping(address => ReactStruct[]) public reactPool */\n    tag_6:\n      callvalue\n      dup1\n      iszero\n      tag_43\n      jumpi\n      revert(0x00, 0x00)\n    tag_43:\n      pop\n      tag_44\n      0x04\n      dup1\n      calldatasize\n      sub\n      dup2\n      add\n      swap1\n      tag_45\n      swap2\n      swap1\n      tag_46\n      jump\t// in\n    tag_45:\n      tag_47\n      jump\t// in\n    tag_44:\n      mload(0x40)\n      tag_48\n      swap6\n      swap5\n      swap4\n      swap3\n      swap2\n      swap1\n      tag_49\n      jump\t// in\n    tag_48:\n      mload(0x40)\n      dup1\n      swap2\n      sub\n      swap1\n      return\n        /* \"Giftmoji.sol\":5442:5671  function transferBalance(address payable _to, uint256 _amount) public onlyOwner {... */\n    tag_7:\n      callvalue\n      dup1\n      iszero\n      tag_50\n      jumpi\n      revert(0x00, 0x00)\n    tag_50:\n      pop\n      tag_51\n      0x04\n      dup1\n      calldatasize\n      sub\n      dup2\n      add\n      swap1\n      tag_52\n      swap2\n      swap1\n      tag_53\n      jump\t// in\n    tag_52:\n      tag_54\n      jump\t// in\n    tag_51:\n      stop\n        /* \"_pausable.sol\":1871:1955  function paused() public view virtual returns (bool) {... */\n    tag_8:\n      callvalue\n      dup1\n      iszero\n      tag_55\n      jumpi\n      revert(0x00, 0x00)\n    tag_55:\n      pop\n      tag_56\n      tag_57\n      jump\t// in\n    tag_56:\n      mload(0x40)\n      tag_58\n      swap2\n      swap1\n      tag_36\n      jump\t// in\n    tag_58:\n      mload(0x40)\n      dup1\n      swap2\n      sub\n      swap1\n      return\n        /* \"Giftmoji.sol\":1595:2074  function addEmoji(... */\n    tag_9:\n      callvalue\n      dup1\n      iszero\n      tag_59\n      jumpi\n      revert(0x00, 0x00)\n    tag_59:\n      pop\n      tag_60\n      0x04\n      dup1\n      calldatasize\n      sub\n      dup2\n      add\n      swap1\n      tag_61\n      swap2\n      swap1\n      tag_62\n      jump\t// in\n    tag_61:\n      tag_63\n      jump\t// in\n    tag_60:\n      mload(0x40)\n      tag_64\n      swap2\n      swap1\n      tag_65\n      jump\t// in\n    tag_64:\n      mload(0x40)\n      dup1\n      swap2\n      sub\n      swap1\n      return\n        /* \"_ownable.sol\":2314:2415  function renounceOwnership() public virtual onlyOwner {... */\n    tag_10:\n      callvalue\n      dup1\n      iszero\n      tag_66\n      jumpi\n      revert(0x00, 0x00)\n    tag_66:\n      pop\n      tag_67\n      tag_68\n      jump\t// in\n    tag_67:\n      stop\n        /* \"Giftmoji.sol\":3001:3127  function getAllUserReaction(address _addr) public view returns (ReactStruct[] memory) {... */\n    tag_11:\n      callvalue\n      dup1\n      iszero\n      tag_69\n      jumpi\n      revert(0x00, 0x00)\n    tag_69:\n      pop\n      tag_70\n      0x04\n      dup1\n      calldatasize\n      sub\n      dup2\n      add\n      swap1\n      tag_71\n      swap2\n      swap1\n      tag_72\n      jump\t// in\n    tag_71:\n      tag_73\n      jump\t// in\n    tag_70:\n      mload(0x40)\n      tag_74\n      swap2\n      swap1\n      tag_75\n      jump\t// in\n    tag_74:\n      mload(0x40)\n      dup1\n      swap2\n      sub\n      swap1\n      return\n        /* \"Giftmoji.sol\":589:626  Counters.Counter public _emojiCounter */\n    tag_12:\n      callvalue\n      dup1\n      iszero\n      tag_76\n      jumpi\n      revert(0x00, 0x00)\n    tag_76:\n      pop\n      tag_77\n      tag_78\n      jump\t// in\n    tag_77:\n      mload(0x40)\n      tag_79\n      swap2\n      swap1\n      tag_30\n      jump\t// in\n    tag_79:\n      mload(0x40)\n      dup1\n      swap2\n      sub\n      swap1\n      return\n        /* \"Giftmoji.sol\":5869:5928  function pause() public onlyOwner {... */\n    tag_13:\n      callvalue\n      dup1\n      iszero\n      tag_80\n      jumpi\n      revert(0x00, 0x00)\n    tag_80:\n      pop\n      tag_81\n      tag_82\n      jump\t// in\n    tag_81:\n      stop\n        /* \"_ownable.sol\":1659:1744  function owner() public view virtual returns (address) {... */\n    tag_14:\n      callvalue\n      dup1\n      iszero\n      tag_83\n      jumpi\n      revert(0x00, 0x00)\n    tag_83:\n      pop\n      tag_84\n      tag_85\n      jump\t// in\n    tag_84:\n      mload(0x40)\n      tag_86\n      swap2\n      swap1\n      tag_87\n      jump\t// in\n    tag_86:\n      mload(0x40)\n      dup1\n      swap2\n      sub\n      swap1\n      return\n        /* \"Giftmoji.sol\":2823:2956  function updateFee(uint8 _fee) public onlyOwner {... */\n    tag_15:\n      callvalue\n      dup1\n      iszero\n      tag_88\n      jumpi\n      revert(0x00, 0x00)\n    tag_88:\n      pop\n      tag_89\n      0x04\n      dup1\n      calldatasize\n      sub\n      dup2\n      add\n      swap1\n      tag_90\n      swap2\n      swap1\n      tag_91\n      jump\t// in\n    tag_90:\n      tag_92\n      jump\t// in\n    tag_89:\n      stop\n        /* \"Giftmoji.sol\":3487:3586  function getAllEmoji() public view returns (EmojiStruct[] memory) {... */\n    tag_16:\n      callvalue\n      dup1\n      iszero\n      tag_93\n      jumpi\n      revert(0x00, 0x00)\n    tag_93:\n      pop\n      tag_94\n      tag_95\n      jump\t// in\n    tag_94:\n      mload(0x40)\n      tag_96\n      swap2\n      swap1\n      tag_97\n      jump\t// in\n    tag_96:\n      mload(0x40)\n      dup1\n      swap2\n      sub\n      swap1\n      return\n        /* \"Giftmoji.sol\":632:672  Counters.Counter public _reactionCounter */\n    tag_17:\n      callvalue\n      dup1\n      iszero\n      tag_98\n      jumpi\n      revert(0x00, 0x00)\n    tag_98:\n      pop\n      tag_99\n      tag_100\n      jump\t// in\n    tag_99:\n      mload(0x40)\n      tag_101\n      swap2\n      swap1\n      tag_30\n      jump\t// in\n    tag_101:\n      mload(0x40)\n      dup1\n      swap2\n      sub\n      swap1\n      return\n        /* \"Giftmoji.sol\":2108:2730  function updateEmoji(... */\n    tag_18:\n      callvalue\n      dup1\n      iszero\n      tag_102\n      jumpi\n      revert(0x00, 0x00)\n    tag_102:\n      pop\n      tag_103\n      0x04\n      dup1\n      calldatasize\n      sub\n      dup2\n      add\n      swap1\n      tag_104\n      swap2\n      swap1\n      tag_105\n      jump\t// in\n    tag_104:\n      tag_106\n      jump\t// in\n    tag_103:\n      mload(0x40)\n      tag_107\n      swap2\n      swap1\n      tag_65\n      jump\t// in\n    tag_107:\n      mload(0x40)\n      dup1\n      swap2\n      sub\n      swap1\n      return\n        /* \"Giftmoji.sol\":3178:3449  function totalOfEmojiReaction(address _addr, bytes32 _emojiId) public view returns (uint256) {... */\n    tag_19:\n      callvalue\n      dup1\n      iszero\n      tag_108\n      jumpi\n      revert(0x00, 0x00)\n    tag_108:\n      pop\n      tag_109\n      0x04\n      dup1\n      calldatasize\n      sub\n      dup2\n      add\n      swap1\n      tag_110\n      swap2\n      swap1\n      tag_111\n      jump\t// in\n    tag_110:\n      tag_112\n      jump\t// in\n    tag_109:\n      mload(0x40)\n      tag_113\n      swap2\n      swap1\n      tag_30\n      jump\t// in\n    tag_113:\n      mload(0x40)\n      dup1\n      swap2\n      sub\n      swap1\n      return\n        /* \"Giftmoji.sol\":689:705  uint8 public fee */\n    tag_20:\n      callvalue\n      dup1\n      iszero\n      tag_114\n      jumpi\n      revert(0x00, 0x00)\n    tag_114:\n      pop\n      tag_115\n      tag_116\n      jump\t// in\n    tag_115:\n      mload(0x40)\n      tag_117\n      swap2\n      swap1\n      tag_118\n      jump\t// in\n    tag_117:\n      mload(0x40)\n      dup1\n      swap2\n      sub\n      swap1\n      return\n        /* \"Giftmoji.sol\":1085:1115  EmojiStruct[] public emojiPool */\n    tag_21:\n      callvalue\n      dup1\n      iszero\n      tag_119\n      jumpi\n      revert(0x00, 0x00)\n    tag_119:\n      pop\n      tag_120\n      0x04\n      dup1\n      calldatasize\n      sub\n      dup2\n      add\n      swap1\n      tag_121\n      swap2\n      swap1\n      tag_122\n      jump\t// in\n    tag_121:\n      tag_123\n      jump\t// in\n    tag_120:\n      mload(0x40)\n      tag_124\n      swap7\n      swap6\n      swap5\n      swap4\n      swap3\n      swap2\n      swap1\n      tag_125\n      jump\t// in\n    tag_124:\n      mload(0x40)\n      dup1\n      swap2\n      sub\n      swap1\n      return\n        /* \"_ownable.sol\":2564:2779  function transferOwnership(address newOwner) public virtual onlyOwner {... */\n    tag_22:\n      callvalue\n      dup1\n      iszero\n      tag_126\n      jumpi\n      revert(0x00, 0x00)\n    tag_126:\n      pop\n      tag_127\n      0x04\n      dup1\n      calldatasize\n      sub\n      dup2\n      add\n      swap1\n      tag_128\n      swap2\n      swap1\n      tag_72\n      jump\t// in\n    tag_128:\n      tag_129\n      jump\t// in\n    tag_127:\n      stop\n        /* \"Giftmoji.sol\":5729:5836  function getBalance() public view onlyOwner returns (uint256) {... */\n    tag_28:\n        /* \"Giftmoji.sol\":5782:5789  uint256 */\n      0x00\n        /* \"_ownable.sol\":1552:1565  _checkOwner() */\n      tag_131\n        /* \"_ownable.sol\":1552:1563  _checkOwner */\n      tag_132\n        /* \"_ownable.sol\":1552:1565  _checkOwner() */\n      jump\t// in\n    tag_131:\n        /* \"Giftmoji.sol\":5808:5829  address(this).balance */\n      selfbalance\n        /* \"Giftmoji.sol\":5801:5829  return address(this).balance */\n      swap1\n      pop\n        /* \"Giftmoji.sol\":5729:5836  function getBalance() public view onlyOwner returns (uint256) {... */\n      swap1\n      jump\t// out\n        /* \"Giftmoji.sol\":3619:4774  function react(... */\n    tag_34:\n        /* \"Giftmoji.sol\":3758:3762  bool */\n      0x00\n        /* \"_pausable.sol\":1495:1514  _requireNotPaused() */\n      tag_135\n        /* \"_pausable.sol\":1495:1512  _requireNotPaused */\n      tag_136\n        /* \"_pausable.sol\":1495:1514  _requireNotPaused() */\n      jump\t// in\n    tag_135:\n        /* \"Giftmoji.sol\":3860:3865  _addr */\n      dup4\n        /* \"Giftmoji.sol\":3844:3865  _msgSender() != _addr */\n      0xffffffffffffffffffffffffffffffffffffffff\n      and\n        /* \"Giftmoji.sol\":3844:3856  _msgSender() */\n      tag_138\n        /* \"Giftmoji.sol\":3844:3854  _msgSender */\n      tag_139\n        /* \"Giftmoji.sol\":3844:3856  _msgSender() */\n      jump\t// in\n    tag_138:\n        /* \"Giftmoji.sol\":3844:3865  _msgSender() != _addr */\n      0xffffffffffffffffffffffffffffffffffffffff\n      and\n      sub\n        /* \"Giftmoji.sol\":3837:3866  assert(_msgSender() != _addr) */\n      tag_140\n      jumpi\n      tag_141\n      tag_142\n      jump\t// in\n    tag_141:\n    tag_140:\n        /* \"Giftmoji.sol\":3877:3895  uint256 emojiIndex */\n      0x00\n        /* \"Giftmoji.sol\":3898:3923  _getEmojiDetail(_emojiId) */\n      tag_143\n        /* \"Giftmoji.sol\":3914:3922  _emojiId */\n      dup5\n        /* \"Giftmoji.sol\":3898:3913  _getEmojiDetail */\n      tag_144\n        /* \"Giftmoji.sol\":3898:3923  _getEmojiDetail(_emojiId) */\n      jump\t// in\n    tag_143:\n        /* \"Giftmoji.sol\":3877:3923  uint256 emojiIndex = _getEmojiDetail(_emojiId) */\n      swap1\n      pop\n        /* \"Giftmoji.sol\":3933:3957  EmojiStruct memory emoji */\n      0x00\n        /* \"Giftmoji.sol\":3960:3969  emojiPool */\n      0x05\n        /* \"Giftmoji.sol\":3970:3980  emojiIndex */\n      dup3\n        /* \"Giftmoji.sol\":3960:3981  emojiPool[emojiIndex] */\n      dup2\n      sload\n      dup2\n      lt\n      tag_145\n      jumpi\n      tag_146\n      tag_147\n      jump\t// in\n    tag_146:\n    tag_145:\n      swap1\n      0x00\n      mstore\n      keccak256(0x00, 0x20)\n      swap1\n      0x06\n      mul\n      add\n        /* \"Giftmoji.sol\":3933:3981  EmojiStruct memory emoji = emojiPool[emojiIndex] */\n      mload(0x40)\n      dup1\n      0xc0\n      add\n      0x40\n      mstore\n      swap1\n      dup2\n      0x00\n      dup3\n      add\n      sload\n      dup2\n      mstore\n      0x20\n      add\n      0x01\n      dup3\n      add\n      dup1\n      sload\n      tag_149\n      swap1\n      tag_150\n      jump\t// in\n    tag_149:\n      dup1\n      0x1f\n      add\n      0x20\n      dup1\n      swap2\n      div\n      mul\n      0x20\n      add\n      mload(0x40)\n      swap1\n      dup2\n      add\n      0x40\n      mstore\n      dup1\n      swap3\n      swap2\n      swap1\n      dup2\n      dup2\n      mstore\n      0x20\n      add\n      dup3\n      dup1\n      sload\n      tag_151\n      swap1\n      tag_150\n      jump\t// in\n    tag_151:\n      dup1\n      iszero\n      tag_152\n      jumpi\n      dup1\n      0x1f\n      lt\n      tag_153\n      jumpi\n      0x0100\n      dup1\n      dup4\n      sload\n      div\n      mul\n      dup4\n      mstore\n      swap2\n      0x20\n      add\n      swap2\n      jump(tag_152)\n    tag_153:\n      dup3\n      add\n      swap2\n      swap1\n      0x00\n      mstore\n      keccak256(0x00, 0x20)\n      swap1\n    tag_154:\n      dup2\n      sload\n      dup2\n      mstore\n      swap1\n      0x01\n      add\n      swap1\n      0x20\n      add\n      dup1\n      dup4\n      gt\n      tag_154\n      jumpi\n      dup3\n      swap1\n      sub\n      0x1f\n      and\n      dup3\n      add\n      swap2\n    tag_152:\n      pop\n      pop\n      pop\n      pop\n      pop\n      dup2\n      mstore\n      0x20\n      add\n      0x02\n      dup3\n      add\n      dup1\n      sload\n      tag_155\n      swap1\n      tag_150\n      jump\t// in\n    tag_155:\n      dup1\n      0x1f\n      add\n      0x20\n      dup1\n      swap2\n      div\n      mul\n      0x20\n      add\n      mload(0x40)\n      swap1\n      dup2\n      add\n      0x40\n      mstore\n      dup1\n      swap3\n      swap2\n      swap1\n      dup2\n      dup2\n      mstore\n      0x20\n      add\n      dup3\n      dup1\n      sload\n      tag_156\n      swap1\n      tag_150\n      jump\t// in\n    tag_156:\n      dup1\n      iszero\n      tag_157\n      jumpi\n      dup1\n      0x1f\n      lt\n      tag_158\n      jumpi\n      0x0100\n      dup1\n      dup4\n      sload\n      div\n      mul\n      dup4\n      mstore\n      swap2\n      0x20\n      add\n      swap2\n      jump(tag_157)\n    tag_158:\n      dup3\n      add\n      swap2\n      swap1\n      0x00\n      mstore\n      keccak256(0x00, 0x20)\n      swap1\n    tag_159:\n      dup2\n      sload\n      dup2\n      mstore\n      swap1\n      0x01\n      add\n      swap1\n      0x20\n      add\n      dup1\n      dup4\n      gt\n      tag_159\n      jumpi\n      dup3\n      swap1\n      sub\n      0x1f\n      and\n      dup3\n      add\n      swap2\n    tag_157:\n      pop\n      pop\n      pop\n      pop\n      pop\n      dup2\n      mstore\n      0x20\n      add\n      0x03\n      dup3\n      add\n      dup1\n      sload\n      tag_160\n      swap1\n      tag_150\n      jump\t// in\n    tag_160:\n      dup1\n      0x1f\n      add\n      0x20\n      dup1\n      swap2\n      div\n      mul\n      0x20\n      add\n      mload(0x40)\n      swap1\n      dup2\n      add\n      0x40\n      mstore\n      dup1\n      swap3\n      swap2\n      swap1\n      dup2\n      dup2\n      mstore\n      0x20\n      add\n      dup3\n      dup1\n      sload\n      tag_161\n      swap1\n      tag_150\n      jump\t// in\n    tag_161:\n      dup1\n      iszero\n      tag_162\n      jumpi\n      dup1\n      0x1f\n      lt\n      tag_163\n      jumpi\n      0x0100\n      dup1\n      dup4\n      sload\n      div\n      mul\n      dup4\n      mstore\n      swap2\n      0x20\n      add\n      swap2\n      jump(tag_162)\n    tag_163:\n      dup3\n      add\n      swap2\n      swap1\n      0x00\n      mstore\n      keccak256(0x00, 0x20)\n      swap1\n    tag_164:\n      dup2\n      sload\n      dup2\n      mstore\n      swap1\n      0x01\n      add\n      swap1\n      0x20\n      add\n      dup1\n      dup4\n      gt\n      tag_164\n      jumpi\n      dup3\n      swap1\n      sub\n      0x1f\n      and\n      dup3\n      add\n      swap2\n    tag_162:\n      pop\n      pop\n      pop\n      pop\n      pop\n      dup2\n      mstore\n      0x20\n      add\n      0x04\n      dup3\n      add\n      sload\n      dup2\n      mstore\n      0x20\n      add\n      0x05\n      dup3\n      add\n      0x00\n      swap1\n      sload\n      swap1\n      0x0100\n      exp\n      swap1\n      div\n      0xff\n      and\n      iszero\n      iszero\n      iszero\n      iszero\n      dup2\n      mstore\n      pop\n      pop\n      swap1\n      pop\n        /* \"Giftmoji.sol\":4010:4011  0 */\n      0x00\n        /* \"Giftmoji.sol\":3996:4001  emoji */\n      dup2\n        /* \"Giftmoji.sol\":3996:4007  emoji.price */\n      0x80\n      add\n      mload\n        /* \"Giftmoji.sol\":3996:4011  emoji.price > 0 */\n      gt\n        /* \"Giftmoji.sol\":3992:4519  if (emoji.price > 0) {... */\n      iszero\n      tag_165\n      jumpi\n        /* \"Giftmoji.sol\":4107:4112  emoji */\n      dup1\n        /* \"Giftmoji.sol\":4107:4118  emoji.price */\n      0x80\n      add\n      mload\n        /* \"Giftmoji.sol\":4095:4104  msg.value */\n      callvalue\n        /* \"Giftmoji.sol\":4095:4118  msg.value < emoji.price */\n      lt\n        /* \"Giftmoji.sol\":4091:4157  if (msg.value < emoji.price) revert InsufficientBalance(msg.value) */\n      iszero\n      tag_166\n      jumpi\n        /* \"Giftmoji.sol\":4147:4156  msg.value */\n      callvalue\n        /* \"Giftmoji.sol\":4127:4157  InsufficientBalance(msg.value) */\n      mload(0x40)\n      0x9266535100000000000000000000000000000000000000000000000000000000\n      dup2\n      mstore\n      0x04\n      add\n      tag_167\n      swap2\n      swap1\n      tag_30\n      jump\t// in\n    tag_167:\n      mload(0x40)\n      dup1\n      swap2\n      sub\n      swap1\n      revert\n        /* \"Giftmoji.sol\":4091:4157  if (msg.value < emoji.price) revert InsufficientBalance(msg.value) */\n    tag_166:\n        /* \"Giftmoji.sol\":4172:4184  bool success */\n      0x00\n        /* \"Giftmoji.sol\":4190:4195  _addr */\n      dup7\n        /* \"Giftmoji.sol\":4190:4200  _addr.call */\n      0xffffffffffffffffffffffffffffffffffffffff\n      and\n        /* \"Giftmoji.sol\":4208:4244  calcPercentage(msg.value, 100 - fee) */\n      tag_168\n        /* \"Giftmoji.sol\":4223:4232  msg.value */\n      callvalue\n        /* \"Giftmoji.sol\":4240:4243  fee */\n      0x03\n      0x00\n      swap1\n      sload\n      swap1\n      0x0100\n      exp\n      swap1\n      div\n      0xff\n      and\n        /* \"Giftmoji.sol\":4234:4237  100 */\n      0x64\n        /* \"Giftmoji.sol\":4234:4243  100 - fee */\n      tag_169\n      swap2\n      swap1\n      tag_170\n      jump\t// in\n    tag_169:\n        /* \"Giftmoji.sol\":4208:4244  calcPercentage(msg.value, 100 - fee) */\n      0xff\n      and\n        /* \"Giftmoji.sol\":4208:4222  calcPercentage */\n      tag_171\n        /* \"Giftmoji.sol\":4208:4244  calcPercentage(msg.value, 100 - fee) */\n      jump\t// in\n    tag_168:\n        /* \"Giftmoji.sol\":4190:4249  _addr.call{value: calcPercentage(msg.value, 100 - fee)}(\"\") */\n      mload(0x40)\n      tag_172\n      swap1\n      tag_173\n      jump\t// in\n    tag_172:\n      0x00\n      mload(0x40)\n      dup1\n      dup4\n      sub\n      dup2\n      dup6\n      dup8\n      gas\n      call\n      swap3\n      pop\n      pop\n      pop\n      returndatasize\n      dup1\n      0x00\n      dup2\n      eq\n      tag_176\n      jumpi\n      mload(0x40)\n      swap2\n      pop\n      and(add(returndatasize, 0x3f), not(0x1f))\n      dup3\n      add\n      0x40\n      mstore\n      returndatasize\n      dup3\n      mstore\n      returndatasize\n      0x00\n      0x20\n      dup5\n      add\n      returndatacopy\n      jump(tag_175)\n    tag_176:\n      0x60\n      swap2\n      pop\n    tag_175:\n      pop\n        /* \"Giftmoji.sol\":4171:4249  (bool success, ) = _addr.call{value: calcPercentage(msg.value, 100 - fee)}(\"\") */\n      pop\n      swap1\n      pop\n        /* \"Giftmoji.sol\":4271:4278  success */\n      dup1\n        /* \"Giftmoji.sol\":4263:4316  require(success, \"Failed to send Ether to the user!\") */\n      tag_177\n      jumpi\n      mload(0x40)\n      0x08c379a000000000000000000000000000000000000000000000000000000000\n      dup2\n      mstore\n      0x04\n      add\n      tag_178\n      swap1\n      tag_179\n      jump\t// in\n    tag_178:\n      mload(0x40)\n      dup1\n      swap2\n      sub\n      swap1\n      revert\n    tag_177:\n        /* \"Giftmoji.sol\":4365:4378  bool success2 */\n      0x00\n        /* \"Giftmoji.sol\":4384:4391  owner() */\n      tag_180\n        /* \"Giftmoji.sol\":4384:4389  owner */\n      tag_85\n        /* \"Giftmoji.sol\":4384:4391  owner() */\n      jump\t// in\n    tag_180:\n        /* \"Giftmoji.sol\":4384:4396  owner().call */\n      0xffffffffffffffffffffffffffffffffffffffff\n      and\n        /* \"Giftmoji.sol\":4404:4434  calcPercentage(msg.value, fee) */\n      tag_181\n        /* \"Giftmoji.sol\":4419:4428  msg.value */\n      callvalue\n        /* \"Giftmoji.sol\":4430:4433  fee */\n      0x03\n      0x00\n      swap1\n      sload\n      swap1\n      0x0100\n      exp\n      swap1\n      div\n      0xff\n      and\n        /* \"Giftmoji.sol\":4404:4434  calcPercentage(msg.value, fee) */\n      0xff\n      and\n        /* \"Giftmoji.sol\":4404:4418  calcPercentage */\n      tag_171\n        /* \"Giftmoji.sol\":4404:4434  calcPercentage(msg.value, fee) */\n      jump\t// in\n    tag_181:\n        /* \"Giftmoji.sol\":4384:4439  owner().call{value: calcPercentage(msg.value, fee)}(\"\") */\n      mload(0x40)\n      tag_182\n      swap1\n      tag_173\n      jump\t// in\n    tag_182:\n      0x00\n      mload(0x40)\n      dup1\n      dup4\n      sub\n      dup2\n      dup6\n      dup8\n      gas\n      call\n      swap3\n      pop\n      pop\n      pop\n      returndatasize\n      dup1\n      0x00\n      dup2\n      eq\n      tag_185\n      jumpi\n      mload(0x40)\n      swap2\n      pop\n      and(add(returndatasize, 0x3f), not(0x1f))\n      dup3\n      add\n      0x40\n      mstore\n      returndatasize\n      dup3\n      mstore\n      returndatasize\n      0x00\n      0x20\n      dup5\n      add\n      returndatacopy\n      jump(tag_184)\n    tag_185:\n      0x60\n      swap2\n      pop\n    tag_184:\n      pop\n        /* \"Giftmoji.sol\":4364:4439  (bool success2, ) = owner().call{value: calcPercentage(msg.value, fee)}(\"\") */\n      pop\n      swap1\n      pop\n        /* \"Giftmoji.sol\":4461:4469  success2 */\n      dup1\n        /* \"Giftmoji.sol\":4453:4508  require(success2, \"Failed to send Ether to the owner!\") */\n      tag_186\n      jumpi\n      mload(0x40)\n      0x08c379a000000000000000000000000000000000000000000000000000000000\n      dup2\n      mstore\n      0x04\n      add\n      tag_187\n      swap1\n      tag_188\n      jump\t// in\n    tag_187:\n      mload(0x40)\n      dup1\n      swap2\n      sub\n      swap1\n      revert\n    tag_186:\n        /* \"Giftmoji.sol\":4013:4519  {... */\n      pop\n      pop\n        /* \"Giftmoji.sol\":3992:4519  if (emoji.price > 0) {... */\n    tag_165:\n        /* \"Giftmoji.sol\":4529:4538  reactPool */\n      0x04\n        /* \"Giftmoji.sol\":4529:4545  reactPool[_addr] */\n      0x00\n        /* \"Giftmoji.sol\":4539:4544  _addr */\n      dup8\n        /* \"Giftmoji.sol\":4529:4545  reactPool[_addr] */\n      0xffffffffffffffffffffffffffffffffffffffff\n      and\n      0xffffffffffffffffffffffffffffffffffffffff\n      and\n      dup2\n      mstore\n      0x20\n      add\n      swap1\n      dup2\n      mstore\n      0x20\n      add\n      0x00\n      keccak256\n        /* \"Giftmoji.sol\":4551:4624  ReactStruct(_msgSender(), _emojiId, msg.value, _message, block.timestamp) */\n      mload(0x40)\n      dup1\n      0xa0\n      add\n      0x40\n      mstore\n      dup1\n        /* \"Giftmoji.sol\":4563:4575  _msgSender() */\n      tag_189\n        /* \"Giftmoji.sol\":4563:4573  _msgSender */\n      tag_139\n        /* \"Giftmoji.sol\":4563:4575  _msgSender() */\n      jump\t// in\n    tag_189:\n        /* \"Giftmoji.sol\":4551:4624  ReactStruct(_msgSender(), _emojiId, msg.value, _message, block.timestamp) */\n      0xffffffffffffffffffffffffffffffffffffffff\n      and\n      dup2\n      mstore\n      0x20\n      add\n        /* \"Giftmoji.sol\":4577:4585  _emojiId */\n      dup8\n        /* \"Giftmoji.sol\":4551:4624  ReactStruct(_msgSender(), _emojiId, msg.value, _message, block.timestamp) */\n      dup2\n      mstore\n      0x20\n      add\n        /* \"Giftmoji.sol\":4587:4596  msg.value */\n      callvalue\n        /* \"Giftmoji.sol\":4551:4624  ReactStruct(_msgSender(), _emojiId, msg.value, _message, block.timestamp) */\n      dup2\n      mstore\n      0x20\n      add\n        /* \"Giftmoji.sol\":4598:4606  _message */\n      dup7\n        /* \"Giftmoji.sol\":4551:4624  ReactStruct(_msgSender(), _emojiId, msg.value, _message, block.timestamp) */\n      dup2\n      mstore\n      0x20\n      add\n        /* \"Giftmoji.sol\":4608:4623  block.timestamp */\n      timestamp\n        /* \"Giftmoji.sol\":4551:4624  ReactStruct(_msgSender(), _emojiId, msg.value, _message, block.timestamp) */\n      dup2\n      mstore\n      pop\n        /* \"Giftmoji.sol\":4529:4625  reactPool[_addr].push(ReactStruct(_msgSender(), _emojiId, msg.value, _message, block.timestamp)) */\n      swap1\n      dup1\n      0x01\n      dup2\n      sload\n      add\n      dup1\n      dup3\n      sstore\n      dup1\n      swap2\n      pop\n      pop\n      0x01\n      swap1\n      sub\n      swap1\n      0x00\n      mstore\n      keccak256(0x00, 0x20)\n      swap1\n      0x05\n      mul\n      add\n      0x00\n      swap1\n      swap2\n      swap1\n      swap2\n      swap1\n      swap2\n      pop\n      0x00\n      dup3\n      add\n      mload\n      dup2\n      0x00\n      add\n      exp(0x0100, 0x00)\n      dup2\n      sload\n      dup2\n      0xffffffffffffffffffffffffffffffffffffffff\n      mul\n      not\n      and\n      swap1\n      dup4\n      0xffffffffffffffffffffffffffffffffffffffff\n      and\n      mul\n      or\n      swap1\n      sstore\n      pop\n      0x20\n      dup3\n      add\n      mload\n      dup2\n      0x01\n      add\n      sstore\n      0x40\n      dup3\n      add\n      mload\n      dup2\n      0x02\n      add\n      sstore\n      0x60\n      dup3\n      add\n      mload\n      dup2\n      0x03\n      add\n      swap1\n      dup2\n      tag_191\n      swap2\n      swap1\n      tag_192\n      jump\t// in\n    tag_191:\n      pop\n      0x80\n      dup3\n      add\n      mload\n      dup2\n      0x04\n      add\n      sstore\n      pop\n      pop\n        /* \"Giftmoji.sol\":4636:4664  _reactionCounter.increment() */\n      tag_193\n        /* \"Giftmoji.sol\":4636:4652  _reactionCounter */\n      0x02\n        /* \"Giftmoji.sol\":4636:4662  _reactionCounter.increment */\n      tag_194\n        /* \"Giftmoji.sol\":4636:4664  _reactionCounter.increment() */\n      jump\t// in\n    tag_193:\n        /* \"Giftmoji.sol\":4712:4717  _addr */\n      dup6\n        /* \"Giftmoji.sol\":4680:4746  Reacted(_emojiId, _msgSender(), _addr, msg.value, block.timestamp) */\n      0xffffffffffffffffffffffffffffffffffffffff\n      and\n        /* \"Giftmoji.sol\":4698:4710  _msgSender() */\n      tag_195\n        /* \"Giftmoji.sol\":4698:4708  _msgSender */\n      tag_139\n        /* \"Giftmoji.sol\":4698:4710  _msgSender() */\n      jump\t// in\n    tag_195:\n        /* \"Giftmoji.sol\":4680:4746  Reacted(_emojiId, _msgSender(), _addr, msg.value, block.timestamp) */\n      0xffffffffffffffffffffffffffffffffffffffff\n      and\n        /* \"Giftmoji.sol\":4688:4696  _emojiId */\n      dup7\n        /* \"Giftmoji.sol\":4680:4746  Reacted(_emojiId, _msgSender(), _addr, msg.value, block.timestamp) */\n      0xf7715e8651944fa7bb83dfa9c05d60953e1f5c39aa950c22ae6028b75c58fc7d\n        /* \"Giftmoji.sol\":4719:4728  msg.value */\n      callvalue\n        /* \"Giftmoji.sol\":4730:4745  block.timestamp */\n      timestamp\n        /* \"Giftmoji.sol\":4680:4746  Reacted(_emojiId, _msgSender(), _addr, msg.value, block.timestamp) */\n      mload(0x40)\n      tag_196\n      swap3\n      swap2\n      swap1\n      tag_197\n      jump\t// in\n    tag_196:\n      mload(0x40)\n      dup1\n      swap2\n      sub\n      swap1\n      log4\n        /* \"Giftmoji.sol\":4763:4767  true */\n      0x01\n        /* \"Giftmoji.sol\":4756:4767  return true */\n      swap3\n      pop\n      pop\n      pop\n        /* \"Giftmoji.sol\":3619:4774  function react(... */\n      swap4\n      swap3\n      pop\n      pop\n      pop\n      jump\t// out\n        /* \"Giftmoji.sol\":5180:5368  function withdraw() public onlyOwner {... */\n    tag_39:\n        /* \"_ownable.sol\":1552:1565  _checkOwner() */\n      tag_199\n        /* \"_ownable.sol\":1552:1563  _checkOwner */\n      tag_132\n        /* \"_ownable.sol\":1552:1565  _checkOwner() */\n      jump\t// in\n    tag_199:\n        /* \"Giftmoji.sol\":5227:5241  uint256 amount */\n      0x00\n        /* \"Giftmoji.sol\":5244:5265  address(this).balance */\n      selfbalance\n        /* \"Giftmoji.sol\":5227:5265  uint256 amount = address(this).balance */\n      swap1\n      pop\n        /* \"Giftmoji.sol\":5276:5288  bool success */\n      0x00\n        /* \"Giftmoji.sol\":5294:5301  owner() */\n      tag_201\n        /* \"Giftmoji.sol\":5294:5299  owner */\n      tag_85\n        /* \"Giftmoji.sol\":5294:5301  owner() */\n      jump\t// in\n    tag_201:\n        /* \"Giftmoji.sol\":5294:5306  owner().call */\n      0xffffffffffffffffffffffffffffffffffffffff\n      and\n        /* \"Giftmoji.sol\":5314:5320  amount */\n      dup3\n        /* \"Giftmoji.sol\":5294:5325  owner().call{value: amount}(\"\") */\n      mload(0x40)\n      tag_202\n      swap1\n      tag_173\n      jump\t// in\n    tag_202:\n      0x00\n      mload(0x40)\n      dup1\n      dup4\n      sub\n      dup2\n      dup6\n      dup8\n      gas\n      call\n      swap3\n      pop\n      pop\n      pop\n      returndatasize\n      dup1\n      0x00\n      dup2\n      eq\n      tag_205\n      jumpi\n      mload(0x40)\n      swap2\n      pop\n      and(add(returndatasize, 0x3f), not(0x1f))\n      dup3\n      add\n      0x40\n      mstore\n      returndatasize\n      dup3\n      mstore\n      returndatasize\n      0x00\n      0x20\n      dup5\n      add\n      returndatacopy\n      jump(tag_204)\n    tag_205:\n      0x60\n      swap2\n      pop\n    tag_204:\n      pop\n        /* \"Giftmoji.sol\":5275:5325  (bool success, ) = owner().call{value: amount}(\"\") */\n      pop\n      swap1\n      pop\n        /* \"Giftmoji.sol\":5343:5350  success */\n      dup1\n        /* \"Giftmoji.sol\":5335:5361  require(success, \"Failed\") */\n      tag_206\n      jumpi\n      mload(0x40)\n      0x08c379a000000000000000000000000000000000000000000000000000000000\n      dup2\n      mstore\n      0x04\n      add\n      tag_207\n      swap1\n      tag_208\n      jump\t// in\n    tag_207:\n      mload(0x40)\n      dup1\n      swap2\n      sub\n      swap1\n      revert\n    tag_206:\n        /* \"Giftmoji.sol\":5217:5368  {... */\n      pop\n      pop\n        /* \"Giftmoji.sol\":5180:5368  function withdraw() public onlyOwner {... */\n      jump\t// out\n        /* \"Giftmoji.sol\":5963:6026  function unpause() public onlyOwner {... */\n    tag_42:\n        /* \"_ownable.sol\":1552:1565  _checkOwner() */\n      tag_210\n        /* \"_ownable.sol\":1552:1563  _checkOwner */\n      tag_132\n        /* \"_ownable.sol\":1552:1565  _checkOwner() */\n      jump\t// in\n    tag_210:\n        /* \"Giftmoji.sol\":6009:6019  _unpause() */\n      tag_212\n        /* \"Giftmoji.sol\":6009:6017  _unpause */\n      tag_213\n        /* \"Giftmoji.sol\":6009:6019  _unpause() */\n      jump\t// in\n    tag_212:\n        /* \"Giftmoji.sol\":5963:6026  function unpause() public onlyOwner {... */\n      jump\t// out\n        /* \"Giftmoji.sol\":859:909  mapping(address => ReactStruct[]) public reactPool */\n    tag_47:\n      mstore(0x20, 0x04)\n      dup2\n      0x00\n      mstore\n      keccak256(0x00, 0x40)\n      dup2\n      dup2\n      sload\n      dup2\n      lt\n      tag_214\n      jumpi\n      0x00\n      dup1\n      revert\n    tag_214:\n      swap1\n      0x00\n      mstore\n      keccak256(0x00, 0x20)\n      swap1\n      0x05\n      mul\n      add\n      0x00\n      swap2\n      pop\n      swap2\n      pop\n      pop\n      dup1\n      0x00\n      add\n      0x00\n      swap1\n      sload\n      swap1\n      0x0100\n      exp\n      swap1\n      div\n      0xffffffffffffffffffffffffffffffffffffffff\n      and\n      swap1\n      dup1\n      0x01\n      add\n      sload\n      swap1\n      dup1\n      0x02\n      add\n      sload\n      swap1\n      dup1\n      0x03\n      add\n      dup1\n      sload\n      tag_216\n      swap1\n      tag_150\n      jump\t// in\n    tag_216:\n      dup1\n      0x1f\n      add\n      0x20\n      dup1\n      swap2\n      div\n      mul\n      0x20\n      add\n      mload(0x40)\n      swap1\n      dup2\n      add\n      0x40\n      mstore\n      dup1\n      swap3\n      swap2\n      swap1\n      dup2\n      dup2\n      mstore\n      0x20\n      add\n      dup3\n      dup1\n      sload\n      tag_217\n      swap1\n      tag_150\n      jump\t// in\n    tag_217:\n      dup1\n      iszero\n      tag_218\n      jumpi\n      dup1\n      0x1f\n      lt\n      tag_219\n      jumpi\n      0x0100\n      dup1\n      dup4\n      sload\n      div\n      mul\n      dup4\n      mstore\n      swap2\n      0x20\n      add\n      swap2\n      jump(tag_218)\n    tag_219:\n      dup3\n      add\n      swap2\n      swap1\n      0x00\n      mstore\n      keccak256(0x00, 0x20)\n      swap1\n    tag_220:\n      dup2\n      sload\n      dup2\n      mstore\n      swap1\n      0x01\n      add\n      swap1\n      0x20\n      add\n      dup1\n      dup4\n      gt\n      tag_220\n      jumpi\n      dup3\n      swap1\n      sub\n      0x1f\n      and\n      dup3\n      add\n      swap2\n    tag_218:\n      pop\n      pop\n      pop\n      pop\n      pop\n      swap1\n      dup1\n      0x04\n      add\n      sload\n      swap1\n      pop\n      dup6\n      jump\t// out\n        /* \"Giftmoji.sol\":5442:5671  function transferBalance(address payable _to, uint256 _amount) public onlyOwner {... */\n    tag_54:\n        /* \"_ownable.sol\":1552:1565  _checkOwner() */\n      tag_222\n        /* \"_ownable.sol\":1552:1563  _checkOwner */\n      tag_132\n        /* \"_ownable.sol\":1552:1565  _checkOwner() */\n      jump\t// in\n    tag_222:\n        /* \"Giftmoji.sol\":5582:5594  bool success */\n      0x00\n        /* \"Giftmoji.sol\":5600:5603  _to */\n      dup3\n        /* \"Giftmoji.sol\":5600:5608  _to.call */\n      0xffffffffffffffffffffffffffffffffffffffff\n      and\n        /* \"Giftmoji.sol\":5616:5623  _amount */\n      dup3\n        /* \"Giftmoji.sol\":5600:5628  _to.call{value: _amount}(\"\") */\n      mload(0x40)\n      tag_224\n      swap1\n      tag_173\n      jump\t// in\n    tag_224:\n      0x00\n      mload(0x40)\n      dup1\n      dup4\n      sub\n      dup2\n      dup6\n      dup8\n      gas\n      call\n      swap3\n      pop\n      pop\n      pop\n      returndatasize\n      dup1\n      0x00\n      dup2\n      eq\n      tag_227\n      jumpi\n      mload(0x40)\n      swap2\n      pop\n      and(add(returndatasize, 0x3f), not(0x1f))\n      dup3\n      add\n      0x40\n      mstore\n      returndatasize\n      dup3\n      mstore\n      returndatasize\n      0x00\n      0x20\n      dup5\n      add\n      returndatacopy\n      jump(tag_226)\n    tag_227:\n      0x60\n      swap2\n      pop\n    tag_226:\n      pop\n        /* \"Giftmoji.sol\":5581:5628  (bool success, ) = _to.call{value: _amount}(\"\") */\n      pop\n      swap1\n      pop\n        /* \"Giftmoji.sol\":5646:5653  success */\n      dup1\n        /* \"Giftmoji.sol\":5638:5664  require(success, \"Failed\") */\n      tag_228\n      jumpi\n      mload(0x40)\n      0x08c379a000000000000000000000000000000000000000000000000000000000\n      dup2\n      mstore\n      0x04\n      add\n      tag_229\n      swap1\n      tag_208\n      jump\t// in\n    tag_229:\n      mload(0x40)\n      dup1\n      swap2\n      sub\n      swap1\n      revert\n    tag_228:\n        /* \"Giftmoji.sol\":5522:5671  {... */\n      pop\n        /* \"Giftmoji.sol\":5442:5671  function transferBalance(address payable _to, uint256 _amount) public onlyOwner {... */\n      pop\n      pop\n      jump\t// out\n        /* \"_pausable.sol\":1871:1955  function paused() public view virtual returns (bool) {... */\n    tag_57:\n        /* \"_pausable.sol\":1918:1922  bool */\n      0x00\n        /* \"_pausable.sol\":1941:1948  _paused */\n      0x00\n      0x14\n      swap1\n      sload\n      swap1\n      0x0100\n      exp\n      swap1\n      div\n      0xff\n      and\n        /* \"_pausable.sol\":1934:1948  return _paused */\n      swap1\n      pop\n        /* \"_pausable.sol\":1871:1955  function paused() public view virtual returns (bool) {... */\n      swap1\n      jump\t// out\n        /* \"Giftmoji.sol\":1595:2074  function addEmoji(... */\n    tag_63:\n        /* \"Giftmoji.sol\":1761:1780  bytes32 lastEmojiId */\n      0x00\n        /* \"_ownable.sol\":1552:1565  _checkOwner() */\n      tag_232\n        /* \"_ownable.sol\":1552:1563  _checkOwner */\n      tag_132\n        /* \"_ownable.sol\":1552:1565  _checkOwner() */\n      jump\t// in\n    tag_232:\n        /* \"Giftmoji.sol\":1792:1808  bytes32 _emojiId */\n      0x00\n        /* \"Giftmoji.sol\":1819:1842  _emojiCounter.current() */\n      tag_234\n        /* \"Giftmoji.sol\":1819:1832  _emojiCounter */\n      0x01\n        /* \"Giftmoji.sol\":1819:1840  _emojiCounter.current */\n      tag_235\n        /* \"Giftmoji.sol\":1819:1842  _emojiCounter.current() */\n      jump\t// in\n    tag_234:\n        /* \"Giftmoji.sol\":1811:1843  bytes32(_emojiCounter.current()) */\n      0x00\n      shl\n        /* \"Giftmoji.sol\":1792:1843  bytes32 _emojiId = bytes32(_emojiCounter.current()) */\n      swap1\n      pop\n        /* \"Giftmoji.sol\":1854:1863  emojiPool */\n      0x05\n        /* \"Giftmoji.sol\":1869:1930  EmojiStruct(_emojiId, _metadata, _name, _emoji, _price, true) */\n      mload(0x40)\n      dup1\n      0xc0\n      add\n      0x40\n      mstore\n      dup1\n        /* \"Giftmoji.sol\":1881:1889  _emojiId */\n      dup4\n        /* \"Giftmoji.sol\":1869:1930  EmojiStruct(_emojiId, _metadata, _name, _emoji, _price, true) */\n      dup2\n      mstore\n      0x20\n      add\n        /* \"Giftmoji.sol\":1891:1900  _metadata */\n      dup9\n        /* \"Giftmoji.sol\":1869:1930  EmojiStruct(_emojiId, _metadata, _name, _emoji, _price, true) */\n      dup2\n      mstore\n      0x20\n      add\n        /* \"Giftmoji.sol\":1902:1907  _name */\n      dup8\n        /* \"Giftmoji.sol\":1869:1930  EmojiStruct(_emojiId, _metadata, _name, _emoji, _price, true) */\n      dup2\n      mstore\n      0x20\n      add\n        /* \"Giftmoji.sol\":1909:1915  _emoji */\n      dup7\n        /* \"Giftmoji.sol\":1869:1930  EmojiStruct(_emojiId, _metadata, _name, _emoji, _price, true) */\n      dup2\n      mstore\n      0x20\n      add\n        /* \"Giftmoji.sol\":1917:1923  _price */\n      dup6\n        /* \"Giftmoji.sol\":1869:1930  EmojiStruct(_emojiId, _metadata, _name, _emoji, _price, true) */\n      dup2\n      mstore\n      0x20\n      add\n        /* \"Giftmoji.sol\":1925:1929  true */\n      0x01\n        /* \"Giftmoji.sol\":1869:1930  EmojiStruct(_emojiId, _metadata, _name, _emoji, _price, true) */\n      iszero\n      iszero\n      dup2\n      mstore\n      pop\n        /* \"Giftmoji.sol\":1854:1931  emojiPool.push(EmojiStruct(_emojiId, _metadata, _name, _emoji, _price, true)) */\n      swap1\n      dup1\n      0x01\n      dup2\n      sload\n      add\n      dup1\n      dup3\n      sstore\n      dup1\n      swap2\n      pop\n      pop\n      0x01\n      swap1\n      sub\n      swap1\n      0x00\n      mstore\n      keccak256(0x00, 0x20)\n      swap1\n      0x06\n      mul\n      add\n      0x00\n      swap1\n      swap2\n      swap1\n      swap2\n      swap1\n      swap2\n      pop\n      0x00\n      dup3\n      add\n      mload\n      dup2\n      0x00\n      add\n      sstore\n      0x20\n      dup3\n      add\n      mload\n      dup2\n      0x01\n      add\n      swap1\n      dup2\n      tag_237\n      swap2\n      swap1\n      tag_238\n      jump\t// in\n    tag_237:\n      pop\n      0x40\n      dup3\n      add\n      mload\n      dup2\n      0x02\n      add\n      swap1\n      dup2\n      tag_239\n      swap2\n      swap1\n      tag_238\n      jump\t// in\n    tag_239:\n      pop\n      0x60\n      dup3\n      add\n      mload\n      dup2\n      0x03\n      add\n      swap1\n      dup2\n      tag_240\n      swap2\n      swap1\n      tag_238\n      jump\t// in\n    tag_240:\n      pop\n      0x80\n      dup3\n      add\n      mload\n      dup2\n      0x04\n      add\n      sstore\n      0xa0\n      dup3\n      add\n      mload\n      dup2\n      0x05\n      add\n      exp(0x0100, 0x00)\n      dup2\n      sload\n      dup2\n      0xff\n      mul\n      not\n      and\n      swap1\n      dup4\n      iszero\n      iszero\n      mul\n      or\n      swap1\n      sstore\n      pop\n      pop\n      pop\n        /* \"Giftmoji.sol\":1941:1966  _emojiCounter.increment() */\n      tag_241\n        /* \"Giftmoji.sol\":1941:1954  _emojiCounter */\n      0x01\n        /* \"Giftmoji.sol\":1941:1964  _emojiCounter.increment */\n      tag_194\n        /* \"Giftmoji.sol\":1941:1966  _emojiCounter.increment() */\n      jump\t// in\n    tag_241:\n        /* \"Giftmoji.sol\":2021:2027  _emoji */\n      dup4\n        /* \"Giftmoji.sol\":1982:2042  EmojiAdded(_emojiId, _metadata, _name, _emoji, _price, true) */\n      mload(0x40)\n      tag_242\n      swap2\n      swap1\n      tag_243\n      jump\t// in\n    tag_242:\n      mload(0x40)\n      dup1\n      swap2\n      sub\n      swap1\n      keccak256\n        /* \"Giftmoji.sol\":2014:2019  _name */\n      dup6\n        /* \"Giftmoji.sol\":1982:2042  EmojiAdded(_emojiId, _metadata, _name, _emoji, _price, true) */\n      mload(0x40)\n      tag_244\n      swap2\n      swap1\n      tag_243\n      jump\t// in\n    tag_244:\n      mload(0x40)\n      dup1\n      swap2\n      sub\n      swap1\n      keccak256\n        /* \"Giftmoji.sol\":1993:2001  _emojiId */\n      dup3\n        /* \"Giftmoji.sol\":1982:2042  EmojiAdded(_emojiId, _metadata, _name, _emoji, _price, true) */\n      0x7f2c4a7e55c1d8e93ba4e1329a979e15cb06b5d3974df147d3b338ce84dd9cd9\n        /* \"Giftmoji.sol\":2003:2012  _metadata */\n      dup10\n        /* \"Giftmoji.sol\":2029:2035  _price */\n      dup8\n        /* \"Giftmoji.sol\":2037:2041  true */\n      0x01\n        /* \"Giftmoji.sol\":1982:2042  EmojiAdded(_emojiId, _metadata, _name, _emoji, _price, true) */\n      mload(0x40)\n      tag_245\n      swap4\n      swap3\n      swap2\n      swap1\n      tag_246\n      jump\t// in\n    tag_245:\n      mload(0x40)\n      dup1\n      swap2\n      sub\n      swap1\n      log4\n        /* \"Giftmoji.sol\":2059:2067  _emojiId */\n      dup1\n        /* \"Giftmoji.sol\":2052:2067  return _emojiId */\n      swap2\n      pop\n      pop\n        /* \"Giftmoji.sol\":1595:2074  function addEmoji(... */\n      swap5\n      swap4\n      pop\n      pop\n      pop\n      pop\n      jump\t// out\n        /* \"_ownable.sol\":2314:2415  function renounceOwnership() public virtual onlyOwner {... */\n    tag_68:\n        /* \"_ownable.sol\":1552:1565  _checkOwner() */\n      tag_248\n        /* \"_ownable.sol\":1552:1563  _checkOwner */\n      tag_132\n        /* \"_ownable.sol\":1552:1565  _checkOwner() */\n      jump\t// in\n    tag_248:\n        /* \"_ownable.sol\":2378:2408  _transferOwnership(address(0)) */\n      tag_250\n        /* \"_ownable.sol\":2405:2406  0 */\n      0x00\n        /* \"_ownable.sol\":2378:2396  _transferOwnership */\n      tag_251\n        /* \"_ownable.sol\":2378:2408  _transferOwnership(address(0)) */\n      jump\t// in\n    tag_250:\n        /* \"_ownable.sol\":2314:2415  function renounceOwnership() public virtual onlyOwner {... */\n      jump\t// out\n        /* \"Giftmoji.sol\":3001:3127  function getAllUserReaction(address _addr) public view returns (ReactStruct[] memory) {... */\n    tag_73:\n        /* \"Giftmoji.sol\":3065:3085  ReactStruct[] memory */\n      0x60\n        /* \"Giftmoji.sol\":3104:3113  reactPool */\n      0x04\n        /* \"Giftmoji.sol\":3104:3120  reactPool[_addr] */\n      0x00\n        /* \"Giftmoji.sol\":3114:3119  _addr */\n      dup4\n        /* \"Giftmoji.sol\":3104:3120  reactPool[_addr] */\n      0xffffffffffffffffffffffffffffffffffffffff\n      and\n      0xffffffffffffffffffffffffffffffffffffffff\n      and\n      dup2\n      mstore\n      0x20\n      add\n      swap1\n      dup2\n      mstore\n      0x20\n      add\n      0x00\n      keccak256\n        /* \"Giftmoji.sol\":3097:3120  return reactPool[_addr] */\n      dup1\n      sload\n      dup1\n      0x20\n      mul\n      0x20\n      add\n      mload(0x40)\n      swap1\n      dup2\n      add\n      0x40\n      mstore\n      dup1\n      swap3\n      swap2\n      swap1\n      dup2\n      dup2\n      mstore\n      0x20\n      add\n      0x00\n      swap1\n    tag_253:\n      dup3\n      dup3\n      lt\n      iszero\n      tag_254\n      jumpi\n      dup4\n      dup3\n      swap1\n      0x00\n      mstore\n      keccak256(0x00, 0x20)\n      swap1\n      0x05\n      mul\n      add\n      mload(0x40)\n      dup1\n      0xa0\n      add\n      0x40\n      mstore\n      swap1\n      dup2\n      0x00\n      dup3\n      add\n      0x00\n      swap1\n      sload\n      swap1\n      0x0100\n      exp\n      swap1\n      div\n      0xffffffffffffffffffffffffffffffffffffffff\n      and\n      0xffffffffffffffffffffffffffffffffffffffff\n      and\n      0xffffffffffffffffffffffffffffffffffffffff\n      and\n      dup2\n      mstore\n      0x20\n      add\n      0x01\n      dup3\n      add\n      sload\n      dup2\n      mstore\n      0x20\n      add\n      0x02\n      dup3\n      add\n      sload\n      dup2\n      mstore\n      0x20\n      add\n      0x03\n      dup3\n      add\n      dup1\n      sload\n      tag_256\n      swap1\n      tag_150\n      jump\t// in\n    tag_256:\n      dup1\n      0x1f\n      add\n      0x20\n      dup1\n      swap2\n      div\n      mul\n      0x20\n      add\n      mload(0x40)\n      swap1\n      dup2\n      add\n      0x40\n      mstore\n      dup1\n      swap3\n      swap2\n      swap1\n      dup2\n      dup2\n      mstore\n      0x20\n      add\n      dup3\n      dup1\n      sload\n      tag_257\n      swap1\n      tag_150\n      jump\t// in\n    tag_257:\n      dup1\n      iszero\n      tag_258\n      jumpi\n      dup1\n      0x1f\n      lt\n      tag_259\n      jumpi\n      0x0100\n      dup1\n      dup4\n      sload\n      div\n      mul\n      dup4\n      mstore\n      swap2\n      0x20\n      add\n      swap2\n      jump(tag_258)\n    tag_259:\n      dup3\n      add\n      swap2\n      swap1\n      0x00\n      mstore\n      keccak256(0x00, 0x20)\n      swap1\n    tag_260:\n      dup2\n      sload\n      dup2\n      mstore\n      swap1\n      0x01\n      add\n      swap1\n      0x20\n      add\n      dup1\n      dup4\n      gt\n      tag_260\n      jumpi\n      dup3\n      swap1\n      sub\n      0x1f\n      and\n      dup3\n      add\n      swap2\n    tag_258:\n      pop\n      pop\n      pop\n      pop\n      pop\n      dup2\n      mstore\n      0x20\n      add\n      0x04\n      dup3\n      add\n      sload\n      dup2\n      mstore\n      pop\n      pop\n      dup2\n      mstore\n      0x20\n      add\n      swap1\n      0x01\n      add\n      swap1\n      jump(tag_253)\n    tag_254:\n      pop\n      pop\n      pop\n      pop\n      swap1\n      pop\n        /* \"Giftmoji.sol\":3001:3127  function getAllUserReaction(address _addr) public view returns (ReactStruct[] memory) {... */\n      swap2\n      swap1\n      pop\n      jump\t// out\n        /* \"Giftmoji.sol\":589:626  Counters.Counter public _emojiCounter */\n    tag_78:\n      0x01\n      dup1\n      0x00\n      add\n      sload\n      swap1\n      pop\n      dup2\n      jump\t// out\n        /* \"Giftmoji.sol\":5869:5928  function pause() public onlyOwner {... */\n    tag_82:\n        /* \"_ownable.sol\":1552:1565  _checkOwner() */\n      tag_262\n        /* \"_ownable.sol\":1552:1563  _checkOwner */\n      tag_132\n        /* \"_ownable.sol\":1552:1565  _checkOwner() */\n      jump\t// in\n    tag_262:\n        /* \"Giftmoji.sol\":5913:5921  _pause() */\n      tag_264\n        /* \"Giftmoji.sol\":5913:5919  _pause */\n      tag_265\n        /* \"Giftmoji.sol\":5913:5921  _pause() */\n      jump\t// in\n    tag_264:\n        /* \"Giftmoji.sol\":5869:5928  function pause() public onlyOwner {... */\n      jump\t// out\n        /* \"_ownable.sol\":1659:1744  function owner() public view virtual returns (address) {... */\n    tag_85:\n        /* \"_ownable.sol\":1705:1712  address */\n      0x00\n        /* \"_ownable.sol\":1731:1737  _owner */\n      0x00\n      0x00\n      swap1\n      sload\n      swap1\n      0x0100\n      exp\n      swap1\n      div\n      0xffffffffffffffffffffffffffffffffffffffff\n      and\n        /* \"_ownable.sol\":1724:1737  return _owner */\n      swap1\n      pop\n        /* \"_ownable.sol\":1659:1744  function owner() public view virtual returns (address) {... */\n      swap1\n      jump\t// out\n        /* \"Giftmoji.sol\":2823:2956  function updateFee(uint8 _fee) public onlyOwner {... */\n    tag_92:\n        /* \"_ownable.sol\":1552:1565  _checkOwner() */\n      tag_268\n        /* \"_ownable.sol\":1552:1563  _checkOwner */\n      tag_132\n        /* \"_ownable.sol\":1552:1565  _checkOwner() */\n      jump\t// in\n    tag_268:\n        /* \"Giftmoji.sol\":2894:2897  100 */\n      0x64\n        /* \"Giftmoji.sol\":2888:2891  fee */\n      0x03\n      0x00\n      swap1\n      sload\n      swap1\n      0x0100\n      exp\n      swap1\n      div\n      0xff\n      and\n        /* \"Giftmoji.sol\":2888:2897  fee < 100 */\n      0xff\n      and\n      lt\n        /* \"Giftmoji.sol\":2881:2898  assert(fee < 100) */\n      tag_270\n      jumpi\n      tag_271\n      tag_142\n      jump\t// in\n    tag_271:\n    tag_270:\n        /* \"Giftmoji.sol\":2914:2918  _fee */\n      dup1\n        /* \"Giftmoji.sol\":2908:2911  fee */\n      0x03\n      0x00\n        /* \"Giftmoji.sol\":2908:2918  fee = _fee */\n      0x0100\n      exp\n      dup2\n      sload\n      dup2\n      0xff\n      mul\n      not\n      and\n      swap1\n      dup4\n      0xff\n      and\n      mul\n      or\n      swap1\n      sstore\n      pop\n        /* \"Giftmoji.sol\":2933:2949  FeeUpdated(_fee) */\n      0x3417887ae5fbc941092ff601511bc0f4e3f14ae835bb881189b4c8148c651269\n        /* \"Giftmoji.sol\":2944:2948  _fee */\n      dup2\n        /* \"Giftmoji.sol\":2933:2949  FeeUpdated(_fee) */\n      mload(0x40)\n      tag_272\n      swap2\n      swap1\n      tag_118\n      jump\t// in\n    tag_272:\n      mload(0x40)\n      dup1\n      swap2\n      sub\n      swap1\n      log1\n        /* \"Giftmoji.sol\":2823:2956  function updateFee(uint8 _fee) public onlyOwner {... */\n      pop\n      jump\t// out\n        /* \"Giftmoji.sol\":3487:3586  function getAllEmoji() public view returns (EmojiStruct[] memory) {... */\n    tag_95:\n        /* \"Giftmoji.sol\":3531:3551  EmojiStruct[] memory */\n      0x60\n        /* \"Giftmoji.sol\":3570:3579  emojiPool */\n      0x05\n        /* \"Giftmoji.sol\":3563:3579  return emojiPool */\n      dup1\n      sload\n      dup1\n      0x20\n      mul\n      0x20\n      add\n      mload(0x40)\n      swap1\n      dup2\n      add\n      0x40\n      mstore\n      dup1\n      swap3\n      swap2\n      swap1\n      dup2\n      dup2\n      mstore\n      0x20\n      add\n      0x00\n      swap1\n    tag_274:\n      dup3\n      dup3\n      lt\n      iszero\n      tag_275\n      jumpi\n      dup4\n      dup3\n      swap1\n      0x00\n      mstore\n      keccak256(0x00, 0x20)\n      swap1\n      0x06\n      mul\n      add\n      mload(0x40)\n      dup1\n      0xc0\n      add\n      0x40\n      mstore\n      swap1\n      dup2\n      0x00\n      dup3\n      add\n      sload\n      dup2\n      mstore\n      0x20\n      add\n      0x01\n      dup3\n      add\n      dup1\n      sload\n      tag_277\n      swap1\n      tag_150\n      jump\t// in\n    tag_277:\n      dup1\n      0x1f\n      add\n      0x20\n      dup1\n      swap2\n      div\n      mul\n      0x20\n      add\n      mload(0x40)\n      swap1\n      dup2\n      add\n      0x40\n      mstore\n      dup1\n      swap3\n      swap2\n      swap1\n      dup2\n      dup2\n      mstore\n      0x20\n      add\n      dup3\n      dup1\n      sload\n      tag_278\n      swap1\n      tag_150\n      jump\t// in\n    tag_278:\n      dup1\n      iszero\n      tag_279\n      jumpi\n      dup1\n      0x1f\n      lt\n      tag_280\n      jumpi\n      0x0100\n      dup1\n      dup4\n      sload\n      div\n      mul\n      dup4\n      mstore\n      swap2\n      0x20\n      add\n      swap2\n      jump(tag_279)\n    tag_280:\n      dup3\n      add\n      swap2\n      swap1\n      0x00\n      mstore\n      keccak256(0x00, 0x20)\n      swap1\n    tag_281:\n      dup2\n      sload\n      dup2\n      mstore\n      swap1\n      0x01\n      add\n      swap1\n      0x20\n      add\n      dup1\n      dup4\n      gt\n      tag_281\n      jumpi\n      dup3\n      swap1\n      sub\n      0x1f\n      and\n      dup3\n      add\n      swap2\n    tag_279:\n      pop\n      pop\n      pop\n      pop\n      pop\n      dup2\n      mstore\n      0x20\n      add\n      0x02\n      dup3\n      add\n      dup1\n      sload\n      tag_282\n      swap1\n      tag_150\n      jump\t// in\n    tag_282:\n      dup1\n      0x1f\n      add\n      0x20\n      dup1\n      swap2\n      div\n      mul\n      0x20\n      add\n      mload(0x40)\n      swap1\n      dup2\n      add\n      0x40\n      mstore\n      dup1\n      swap3\n      swap2\n      swap1\n      dup2\n      dup2\n      mstore\n      0x20\n      add\n      dup3\n      dup1\n      sload\n      tag_283\n      swap1\n      tag_150\n      jump\t// in\n    tag_283:\n      dup1\n      iszero\n      tag_284\n      jumpi\n      dup1\n      0x1f\n      lt\n      tag_285\n      jumpi\n      0x0100\n      dup1\n      dup4\n      sload\n      div\n      mul\n      dup4\n      mstore\n      swap2\n      0x20\n      add\n      swap2\n      jump(tag_284)\n    tag_285:\n      dup3\n      add\n      swap2\n      swap1\n      0x00\n      mstore\n      keccak256(0x00, 0x20)\n      swap1\n    tag_286:\n      dup2\n      sload\n      dup2\n      mstore\n      swap1\n      0x01\n      add\n      swap1\n      0x20\n      add\n      dup1\n      dup4\n      gt\n      tag_286\n      jumpi\n      dup3\n      swap1\n      sub\n      0x1f\n      and\n      dup3\n      add\n      swap2\n    tag_284:\n      pop\n      pop\n      pop\n      pop\n      pop\n      dup2\n      mstore\n      0x20\n      add\n      0x03\n      dup3\n      add\n      dup1\n      sload\n      tag_287\n      swap1\n      tag_150\n      jump\t// in\n    tag_287:\n      dup1\n      0x1f\n      add\n      0x20\n      dup1\n      swap2\n      div\n      mul\n      0x20\n      add\n      mload(0x40)\n      swap1\n      dup2\n      add\n      0x40\n      mstore\n      dup1\n      swap3\n      swap2\n      swap1\n      dup2\n      dup2\n      mstore\n      0x20\n      add\n      dup3\n      dup1\n      sload\n      tag_288\n      swap1\n      tag_150\n      jump\t// in\n    tag_288:\n      dup1\n      iszero\n      tag_289\n      jumpi\n      dup1\n      0x1f\n      lt\n      tag_290\n      jumpi\n      0x0100\n      dup1\n      dup4\n      sload\n      div\n      mul\n      dup4\n      mstore\n      swap2\n      0x20\n      add\n      swap2\n      jump(tag_289)\n    tag_290:\n      dup3\n      add\n      swap2\n      swap1\n      0x00\n      mstore\n      keccak256(0x00, 0x20)\n      swap1\n    tag_291:\n      dup2\n      sload\n      dup2\n      mstore\n      swap1\n      0x01\n      add\n      swap1\n      0x20\n      add\n      dup1\n      dup4\n      gt\n      tag_291\n      jumpi\n      dup3\n      swap1\n      sub\n      0x1f\n      and\n      dup3\n      add\n      swap2\n    tag_289:\n      pop\n      pop\n      pop\n      pop\n      pop\n      dup2\n      mstore\n      0x20\n      add\n      0x04\n      dup3\n      add\n      sload\n      dup2\n      mstore\n      0x20\n      add\n      0x05\n      dup3\n      add\n      0x00\n      swap1\n      sload\n      swap1\n      0x0100\n      exp\n      swap1\n      div\n      0xff\n      and\n      iszero\n      iszero\n      iszero\n      iszero\n      dup2\n      mstore\n      pop\n      pop\n      dup2\n      mstore\n      0x20\n      add\n      swap1\n      0x01\n      add\n      swap1\n      jump(tag_274)\n    tag_275:\n      pop\n      pop\n      pop\n      pop\n      swap1\n      pop\n        /* \"Giftmoji.sol\":3487:3586  function getAllEmoji() public view returns (EmojiStruct[] memory) {... */\n      swap1\n      jump\t// out\n        /* \"Giftmoji.sol\":632:672  Counters.Counter public _reactionCounter */\n    tag_100:\n      0x02\n      dup1\n      0x00\n      add\n      sload\n      swap1\n      pop\n      dup2\n      jump\t// out\n        /* \"Giftmoji.sol\":2108:2730  function updateEmoji(... */\n    tag_106:\n        /* \"Giftmoji.sol\":2325:2342  bytes32 updatedId */\n      0x00\n        /* \"_ownable.sol\":1552:1565  _checkOwner() */\n      tag_293\n        /* \"_ownable.sol\":1552:1563  _checkOwner */\n      tag_132\n        /* \"_ownable.sol\":1552:1565  _checkOwner() */\n      jump\t// in\n    tag_293:\n        /* \"Giftmoji.sol\":2354:2372  uint256 emojiIndex */\n      0x00\n        /* \"Giftmoji.sol\":2375:2400  _getEmojiDetail(_emojiId) */\n      tag_295\n        /* \"Giftmoji.sol\":2391:2399  _emojiId */\n      dup9\n        /* \"Giftmoji.sol\":2375:2390  _getEmojiDetail */\n      tag_144\n        /* \"Giftmoji.sol\":2375:2400  _getEmojiDetail(_emojiId) */\n      jump\t// in\n    tag_295:\n        /* \"Giftmoji.sol\":2354:2400  uint256 emojiIndex = _getEmojiDetail(_emojiId) */\n      swap1\n      pop\n        /* \"Giftmoji.sol\":2444:2453  _metadata */\n      dup7\n        /* \"Giftmoji.sol\":2411:2420  emojiPool */\n      0x05\n        /* \"Giftmoji.sol\":2421:2431  emojiIndex */\n      dup3\n        /* \"Giftmoji.sol\":2411:2432  emojiPool[emojiIndex] */\n      dup2\n      sload\n      dup2\n      lt\n      tag_296\n      jumpi\n      tag_297\n      tag_147\n      jump\t// in\n    tag_297:\n    tag_296:\n      swap1\n      0x00\n      mstore\n      keccak256(0x00, 0x20)\n      swap1\n      0x06\n      mul\n      add\n        /* \"Giftmoji.sol\":2411:2441  emojiPool[emojiIndex].metadata */\n      0x01\n      add\n        /* \"Giftmoji.sol\":2411:2453  emojiPool[emojiIndex].metadata = _metadata */\n      swap1\n      dup2\n      tag_299\n      swap2\n      swap1\n      tag_238\n      jump\t// in\n    tag_299:\n      pop\n        /* \"Giftmoji.sol\":2492:2497  _name */\n      dup6\n        /* \"Giftmoji.sol\":2463:2472  emojiPool */\n      0x05\n        /* \"Giftmoji.sol\":2473:2483  emojiIndex */\n      dup3\n        /* \"Giftmoji.sol\":2463:2484  emojiPool[emojiIndex] */\n      dup2\n      sload\n      dup2\n      lt\n      tag_300\n      jumpi\n      tag_301\n      tag_147\n      jump\t// in\n    tag_301:\n    tag_300:\n      swap1\n      0x00\n      mstore\n      keccak256(0x00, 0x20)\n      swap1\n      0x06\n      mul\n      add\n        /* \"Giftmoji.sol\":2463:2489  emojiPool[emojiIndex].name */\n      0x02\n      add\n        /* \"Giftmoji.sol\":2463:2497  emojiPool[emojiIndex].name = _name */\n      swap1\n      dup2\n      tag_303\n      swap2\n      swap1\n      tag_238\n      jump\t// in\n    tag_303:\n      pop\n        /* \"Giftmoji.sol\":2537:2543  _emoji */\n      dup5\n        /* \"Giftmoji.sol\":2507:2516  emojiPool */\n      0x05\n        /* \"Giftmoji.sol\":2517:2527  emojiIndex */\n      dup3\n        /* \"Giftmoji.sol\":2507:2528  emojiPool[emojiIndex] */\n      dup2\n      sload\n      dup2\n      lt\n      tag_304\n      jumpi\n      tag_305\n      tag_147\n      jump\t// in\n    tag_305:\n    tag_304:\n      swap1\n      0x00\n      mstore\n      keccak256(0x00, 0x20)\n      swap1\n      0x06\n      mul\n      add\n        /* \"Giftmoji.sol\":2507:2534  emojiPool[emojiIndex].emoji */\n      0x03\n      add\n        /* \"Giftmoji.sol\":2507:2543  emojiPool[emojiIndex].emoji = _emoji */\n      swap1\n      dup2\n      tag_307\n      swap2\n      swap1\n      tag_238\n      jump\t// in\n    tag_307:\n      pop\n        /* \"Giftmoji.sol\":2583:2589  _price */\n      dup4\n        /* \"Giftmoji.sol\":2553:2562  emojiPool */\n      0x05\n        /* \"Giftmoji.sol\":2563:2573  emojiIndex */\n      dup3\n        /* \"Giftmoji.sol\":2553:2574  emojiPool[emojiIndex] */\n      dup2\n      sload\n      dup2\n      lt\n      tag_308\n      jumpi\n      tag_309\n      tag_147\n      jump\t// in\n    tag_309:\n    tag_308:\n      swap1\n      0x00\n      mstore\n      keccak256(0x00, 0x20)\n      swap1\n      0x06\n      mul\n      add\n        /* \"Giftmoji.sol\":2553:2580  emojiPool[emojiIndex].price */\n      0x04\n      add\n        /* \"Giftmoji.sol\":2553:2589  emojiPool[emojiIndex].price = _price */\n      dup2\n      swap1\n      sstore\n      pop\n        /* \"Giftmoji.sol\":2630:2637  _status */\n      dup3\n        /* \"Giftmoji.sol\":2599:2608  emojiPool */\n      0x05\n        /* \"Giftmoji.sol\":2609:2619  emojiIndex */\n      dup3\n        /* \"Giftmoji.sol\":2599:2620  emojiPool[emojiIndex] */\n      dup2\n      sload\n      dup2\n      lt\n      tag_311\n      jumpi\n      tag_312\n      tag_147\n      jump\t// in\n    tag_312:\n    tag_311:\n      swap1\n      0x00\n      mstore\n      keccak256(0x00, 0x20)\n      swap1\n      0x06\n      mul\n      add\n        /* \"Giftmoji.sol\":2599:2627  emojiPool[emojiIndex].status */\n      0x05\n      add\n      0x00\n        /* \"Giftmoji.sol\":2599:2637  emojiPool[emojiIndex].status = _status */\n      0x0100\n      exp\n      dup2\n      sload\n      dup2\n      0xff\n      mul\n      not\n      and\n      swap1\n      dup4\n      iszero\n      iszero\n      mul\n      or\n      swap1\n      sstore\n      pop\n        /* \"Giftmoji.sol\":2683:2689  _emoji */\n      dup5\n        /* \"Giftmoji.sol\":2653:2698  EmojiUpdated(_emojiId, _name, _emoji, _price) */\n      mload(0x40)\n      tag_314\n      swap2\n      swap1\n      tag_243\n      jump\t// in\n    tag_314:\n      mload(0x40)\n      dup1\n      swap2\n      sub\n      swap1\n      keccak256\n        /* \"Giftmoji.sol\":2676:2681  _name */\n      dup7\n        /* \"Giftmoji.sol\":2653:2698  EmojiUpdated(_emojiId, _name, _emoji, _price) */\n      mload(0x40)\n      tag_315\n      swap2\n      swap1\n      tag_243\n      jump\t// in\n    tag_315:\n      mload(0x40)\n      dup1\n      swap2\n      sub\n      swap1\n      keccak256\n        /* \"Giftmoji.sol\":2666:2674  _emojiId */\n      dup10\n        /* \"Giftmoji.sol\":2653:2698  EmojiUpdated(_emojiId, _name, _emoji, _price) */\n      0xbdff6d3212c3d1a7bee36a46dadc4a6ed6784717d4b4fad8247f2aaff5de598b\n        /* \"Giftmoji.sol\":2691:2697  _price */\n      dup8\n        /* \"Giftmoji.sol\":2653:2698  EmojiUpdated(_emojiId, _name, _emoji, _price) */\n      mload(0x40)\n      tag_316\n      swap2\n      swap1\n      tag_30\n      jump\t// in\n    tag_316:\n      mload(0x40)\n      dup1\n      swap2\n      sub\n      swap1\n      log4\n        /* \"Giftmoji.sol\":2715:2723  _emojiId */\n      dup8\n        /* \"Giftmoji.sol\":2708:2723  return _emojiId */\n      swap2\n      pop\n      pop\n        /* \"Giftmoji.sol\":2108:2730  function updateEmoji(... */\n      swap7\n      swap6\n      pop\n      pop\n      pop\n      pop\n      pop\n      pop\n      jump\t// out\n        /* \"Giftmoji.sol\":3178:3449  function totalOfEmojiReaction(address _addr, bytes32 _emojiId) public view returns (uint256) {... */\n    tag_112:\n        /* \"Giftmoji.sol\":3262:3269  uint256 */\n      0x00\n        /* \"Giftmoji.sol\":3281:3296  uint256 counter */\n      0x00\n        /* \"Giftmoji.sol\":3299:3300  0 */\n      0x00\n        /* \"Giftmoji.sol\":3281:3300  uint256 counter = 0 */\n      swap1\n      pop\n        /* \"Giftmoji.sol\":3315:3324  uint256 i */\n      0x00\n        /* \"Giftmoji.sol\":3327:3328  0 */\n      0x00\n        /* \"Giftmoji.sol\":3315:3328  uint256 i = 0 */\n      swap1\n      pop\n        /* \"Giftmoji.sol\":3310:3418  for (uint256 i = 0; i < reactPool[_addr].length; i++) if (reactPool[_addr][i].emojiId == _emojiId) counter++ */\n    tag_318:\n        /* \"Giftmoji.sol\":3334:3343  reactPool */\n      0x04\n        /* \"Giftmoji.sol\":3334:3350  reactPool[_addr] */\n      0x00\n        /* \"Giftmoji.sol\":3344:3349  _addr */\n      dup7\n        /* \"Giftmoji.sol\":3334:3350  reactPool[_addr] */\n      0xffffffffffffffffffffffffffffffffffffffff\n      and\n      0xffffffffffffffffffffffffffffffffffffffff\n      and\n      dup2\n      mstore\n      0x20\n      add\n      swap1\n      dup2\n      mstore\n      0x20\n      add\n      0x00\n      keccak256\n        /* \"Giftmoji.sol\":3334:3357  reactPool[_addr].length */\n      dup1\n      sload\n      swap1\n      pop\n        /* \"Giftmoji.sol\":3330:3331  i */\n      dup2\n        /* \"Giftmoji.sol\":3330:3357  i < reactPool[_addr].length */\n      lt\n        /* \"Giftmoji.sol\":3310:3418  for (uint256 i = 0; i < reactPool[_addr].length; i++) if (reactPool[_addr][i].emojiId == _emojiId) counter++ */\n      iszero\n      tag_319\n      jumpi\n        /* \"Giftmoji.sol\":3399:3407  _emojiId */\n      dup4\n        /* \"Giftmoji.sol\":3368:3377  reactPool */\n      0x04\n        /* \"Giftmoji.sol\":3368:3384  reactPool[_addr] */\n      0x00\n        /* \"Giftmoji.sol\":3378:3383  _addr */\n      dup8\n        /* \"Giftmoji.sol\":3368:3384  reactPool[_addr] */\n      0xffffffffffffffffffffffffffffffffffffffff\n      and\n      0xffffffffffffffffffffffffffffffffffffffff\n      and\n      dup2\n      mstore\n      0x20\n      add\n      swap1\n      dup2\n      mstore\n      0x20\n      add\n      0x00\n      keccak256\n        /* \"Giftmoji.sol\":3385:3386  i */\n      dup3\n        /* \"Giftmoji.sol\":3368:3387  reactPool[_addr][i] */\n      dup2\n      sload\n      dup2\n      lt\n      tag_321\n      jumpi\n      tag_322\n      tag_147\n      jump\t// in\n    tag_322:\n    tag_321:\n      swap1\n      0x00\n      mstore\n      keccak256(0x00, 0x20)\n      swap1\n      0x05\n      mul\n      add\n        /* \"Giftmoji.sol\":3368:3395  reactPool[_addr][i].emojiId */\n      0x01\n      add\n      sload\n        /* \"Giftmoji.sol\":3368:3407  reactPool[_addr][i].emojiId == _emojiId */\n      sub\n        /* \"Giftmoji.sol\":3364:3418  if (reactPool[_addr][i].emojiId == _emojiId) counter++ */\n      tag_324\n      jumpi\n        /* \"Giftmoji.sol\":3409:3418  counter++ */\n      dup2\n      dup1\n      tag_325\n      swap1\n      tag_326\n      jump\t// in\n    tag_325:\n      swap3\n      pop\n      pop\n        /* \"Giftmoji.sol\":3364:3418  if (reactPool[_addr][i].emojiId == _emojiId) counter++ */\n    tag_324:\n        /* \"Giftmoji.sol\":3359:3362  i++ */\n      dup1\n      dup1\n      0x01\n      add\n      swap2\n      pop\n      pop\n        /* \"Giftmoji.sol\":3310:3418  for (uint256 i = 0; i < reactPool[_addr].length; i++) if (reactPool[_addr][i].emojiId == _emojiId) counter++ */\n      jump(tag_318)\n    tag_319:\n      pop\n        /* \"Giftmoji.sol\":3435:3442  counter */\n      dup1\n        /* \"Giftmoji.sol\":3428:3442  return counter */\n      swap2\n      pop\n      pop\n        /* \"Giftmoji.sol\":3178:3449  function totalOfEmojiReaction(address _addr, bytes32 _emojiId) public view returns (uint256) {... */\n      swap3\n      swap2\n      pop\n      pop\n      jump\t// out\n        /* \"Giftmoji.sol\":689:705  uint8 public fee */\n    tag_116:\n      0x03\n      0x00\n      swap1\n      sload\n      swap1\n      0x0100\n      exp\n      swap1\n      div\n      0xff\n      and\n      dup2\n      jump\t// out\n        /* \"Giftmoji.sol\":1085:1115  EmojiStruct[] public emojiPool */\n    tag_123:\n      0x05\n      dup2\n      dup2\n      sload\n      dup2\n      lt\n      tag_327\n      jumpi\n      0x00\n      dup1\n      revert\n    tag_327:\n      swap1\n      0x00\n      mstore\n      keccak256(0x00, 0x20)\n      swap1\n      0x06\n      mul\n      add\n      0x00\n      swap2\n      pop\n      swap1\n      pop\n      dup1\n      0x00\n      add\n      sload\n      swap1\n      dup1\n      0x01\n      add\n      dup1\n      sload\n      tag_329\n      swap1\n      tag_150\n      jump\t// in\n    tag_329:\n      dup1\n      0x1f\n      add\n      0x20\n      dup1\n      swap2\n      div\n      mul\n      0x20\n      add\n      mload(0x40)\n      swap1\n      dup2\n      add\n      0x40\n      mstore\n      dup1\n      swap3\n      swap2\n      swap1\n      dup2\n      dup2\n      mstore\n      0x20\n      add\n      dup3\n      dup1\n      sload\n      tag_330\n      swap1\n      tag_150\n      jump\t// in\n    tag_330:\n      dup1\n      iszero\n      tag_331\n      jumpi\n      dup1\n      0x1f\n      lt\n      tag_332\n      jumpi\n      0x0100\n      dup1\n      dup4\n      sload\n      div\n      mul\n      dup4\n      mstore\n      swap2\n      0x20\n      add\n      swap2\n      jump(tag_331)\n    tag_332:\n      dup3\n      add\n      swap2\n      swap1\n      0x00\n      mstore\n      keccak256(0x00, 0x20)\n      swap1\n    tag_333:\n      dup2\n      sload\n      dup2\n      mstore\n      swap1\n      0x01\n      add\n      swap1\n      0x20\n      add\n      dup1\n      dup4\n      gt\n      tag_333\n      jumpi\n      dup3\n      swap1\n      sub\n      0x1f\n      and\n      dup3\n      add\n      swap2\n    tag_331:\n      pop\n      pop\n      pop\n      pop\n      pop\n      swap1\n      dup1\n      0x02\n      add\n      dup1\n      sload\n      tag_334\n      swap1\n      tag_150\n      jump\t// in\n    tag_334:\n      dup1\n      0x1f\n      add\n      0x20\n      dup1\n      swap2\n      div\n      mul\n      0x20\n      add\n      mload(0x40)\n      swap1\n      dup2\n      add\n      0x40\n      mstore\n      dup1\n      swap3\n      swap2\n      swap1\n      dup2\n      dup2\n      mstore\n      0x20\n      add\n      dup3\n      dup1\n      sload\n      tag_335\n      swap1\n      tag_150\n      jump\t// in\n    tag_335:\n      dup1\n      iszero\n      tag_336\n      jumpi\n      dup1\n      0x1f\n      lt\n      tag_337\n      jumpi\n      0x0100\n      dup1\n      dup4\n      sload\n      div\n      mul\n      dup4\n      mstore\n      swap2\n      0x20\n      add\n      swap2\n      jump(tag_336)\n    tag_337:\n      dup3\n      add\n      swap2\n      swap1\n      0x00\n      mstore\n      keccak256(0x00, 0x20)\n      swap1\n    tag_338:\n      dup2\n      sload\n      dup2\n      mstore\n      swap1\n      0x01\n      add\n      swap1\n      0x20\n      add\n      dup1\n      dup4\n      gt\n      tag_338\n      jumpi\n      dup3\n      swap1\n      sub\n      0x1f\n      and\n      dup3\n      add\n      swap2\n    tag_336:\n      pop\n      pop\n      pop\n      pop\n      pop\n      swap1\n      dup1\n      0x03\n      add\n      dup1\n      sload\n      tag_339\n      swap1\n      tag_150\n      jump\t// in\n    tag_339:\n      dup1\n      0x1f\n      add\n      0x20\n      dup1\n      swap2\n      div\n      mul\n      0x20\n      add\n      mload(0x40)\n      swap1\n      dup2\n      add\n      0x40\n      mstore\n      dup1\n      swap3\n      swap2\n      swap1\n      dup2\n      dup2\n      mstore\n      0x20\n      add\n      dup3\n      dup1\n      sload\n      tag_340\n      swap1\n      tag_150\n      jump\t// in\n    tag_340:\n      dup1\n      iszero\n      tag_341\n      jumpi\n      dup1\n      0x1f\n      lt\n      tag_342\n      jumpi\n      0x0100\n      dup1\n      dup4\n      sload\n      div\n      mul\n      dup4\n      mstore\n      swap2\n      0x20\n      add\n      swap2\n      jump(tag_341)\n    tag_342:\n      dup3\n      add\n      swap2\n      swap1\n      0x00\n      mstore\n      keccak256(0x00, 0x20)\n      swap1\n    tag_343:\n      dup2\n      sload\n      dup2\n      mstore\n      swap1\n      0x01\n      add\n      swap1\n      0x20\n      add\n      dup1\n      dup4\n      gt\n      tag_343\n      jumpi\n      dup3\n      swap1\n      sub\n      0x1f\n      and\n      dup3\n      add\n      swap2\n    tag_341:\n      pop\n      pop\n      pop\n      pop\n      pop\n      swap1\n      dup1\n      0x04\n      add\n      sload\n      swap1\n      dup1\n      0x05\n      add\n      0x00\n      swap1\n      sload\n      swap1\n      0x0100\n      exp\n      swap1\n      div\n      0xff\n      and\n      swap1\n      pop\n      dup7\n      jump\t// out\n        /* \"_ownable.sol\":2564:2779  function transferOwnership(address newOwner) public virtual onlyOwner {... */\n    tag_129:\n        /* \"_ownable.sol\":1552:1565  _checkOwner() */\n      tag_345\n        /* \"_ownable.sol\":1552:1563  _checkOwner */\n      tag_132\n        /* \"_ownable.sol\":1552:1565  _checkOwner() */\n      jump\t// in\n    tag_345:\n        /* \"_ownable.sol\":2668:2669  0 */\n      0x00\n        /* \"_ownable.sol\":2648:2670  newOwner == address(0) */\n      0xffffffffffffffffffffffffffffffffffffffff\n      and\n        /* \"_ownable.sol\":2648:2656  newOwner */\n      dup2\n        /* \"_ownable.sol\":2648:2670  newOwner == address(0) */\n      0xffffffffffffffffffffffffffffffffffffffff\n      and\n      sub\n        /* \"_ownable.sol\":2644:2735  if (newOwner == address(0)) {... */\n      tag_347\n      jumpi\n        /* \"_ownable.sol\":2721:2722  0 */\n      0x00\n        /* \"_ownable.sol\":2693:2724  OwnableInvalidOwner(address(0)) */\n      mload(0x40)\n      0x1e4fbdf700000000000000000000000000000000000000000000000000000000\n      dup2\n      mstore\n      0x04\n      add\n      tag_348\n      swap2\n      swap1\n      tag_87\n      jump\t// in\n    tag_348:\n      mload(0x40)\n      dup1\n      swap2\n      sub\n      swap1\n      revert\n        /* \"_ownable.sol\":2644:2735  if (newOwner == address(0)) {... */\n    tag_347:\n        /* \"_ownable.sol\":2744:2772  _transferOwnership(newOwner) */\n      tag_349\n        /* \"_ownable.sol\":2763:2771  newOwner */\n      dup2\n        /* \"_ownable.sol\":2744:2762  _transferOwnership */\n      tag_251\n        /* \"_ownable.sol\":2744:2772  _transferOwnership(newOwner) */\n      jump\t// in\n    tag_349:\n        /* \"_ownable.sol\":2564:2779  function transferOwnership(address newOwner) public virtual onlyOwner {... */\n      pop\n      jump\t// out\n        /* \"_ownable.sol\":1817:1979  function _checkOwner() internal view virtual {... */\n    tag_132:\n        /* \"_ownable.sol\":1887:1899  _msgSender() */\n      tag_351\n        /* \"_ownable.sol\":1887:1897  _msgSender */\n      tag_139\n        /* \"_ownable.sol\":1887:1899  _msgSender() */\n      jump\t// in\n    tag_351:\n        /* \"_ownable.sol\":1876:1899  owner() != _msgSender() */\n      0xffffffffffffffffffffffffffffffffffffffff\n      and\n        /* \"_ownable.sol\":1876:1883  owner() */\n      tag_352\n        /* \"_ownable.sol\":1876:1881  owner */\n      tag_85\n        /* \"_ownable.sol\":1876:1883  owner() */\n      jump\t// in\n    tag_352:\n        /* \"_ownable.sol\":1876:1899  owner() != _msgSender() */\n      0xffffffffffffffffffffffffffffffffffffffff\n      and\n      eq\n        /* \"_ownable.sol\":1872:1973  if (owner() != _msgSender()) {... */\n      tag_353\n      jumpi\n        /* \"_ownable.sol\":1949:1961  _msgSender() */\n      tag_354\n        /* \"_ownable.sol\":1949:1959  _msgSender */\n      tag_139\n        /* \"_ownable.sol\":1949:1961  _msgSender() */\n      jump\t// in\n    tag_354:\n        /* \"_ownable.sol\":1922:1962  OwnableUnauthorizedAccount(_msgSender()) */\n      mload(0x40)\n      0x118cdaa700000000000000000000000000000000000000000000000000000000\n      dup2\n      mstore\n      0x04\n      add\n      tag_355\n      swap2\n      swap1\n      tag_87\n      jump\t// in\n    tag_355:\n      mload(0x40)\n      dup1\n      swap2\n      sub\n      swap1\n      revert\n        /* \"_ownable.sol\":1872:1973  if (owner() != _msgSender()) {... */\n    tag_353:\n        /* \"_ownable.sol\":1817:1979  function _checkOwner() internal view virtual {... */\n      jump\t// out\n        /* \"_pausable.sol\":2023:2151  function _requireNotPaused() internal view virtual {... */\n    tag_136:\n        /* \"_pausable.sol\":2088:2096  paused() */\n      tag_357\n        /* \"_pausable.sol\":2088:2094  paused */\n      tag_57\n        /* \"_pausable.sol\":2088:2096  paused() */\n      jump\t// in\n    tag_357:\n        /* \"_pausable.sol\":2084:2145  if (paused()) {... */\n      iszero\n      tag_358\n      jumpi\n        /* \"_pausable.sol\":2119:2134  EnforcedPause() */\n      mload(0x40)\n      0xd93c066500000000000000000000000000000000000000000000000000000000\n      dup2\n      mstore\n      0x04\n      add\n      mload(0x40)\n      dup1\n      swap2\n      sub\n      swap1\n      revert\n        /* \"_pausable.sol\":2084:2145  if (paused()) {... */\n    tag_358:\n        /* \"_pausable.sol\":2023:2151  function _requireNotPaused() internal view virtual {... */\n      jump\t// out\n        /* \"@openzeppelin/contracts/utils/Context.sol\":655:751  function _msgSender() internal view virtual returns (address) {... */\n    tag_139:\n        /* \"@openzeppelin/contracts/utils/Context.sol\":708:715  address */\n      0x00\n        /* \"@openzeppelin/contracts/utils/Context.sol\":734:744  msg.sender */\n      caller\n        /* \"@openzeppelin/contracts/utils/Context.sol\":727:744  return msg.sender */\n      swap1\n      pop\n        /* \"@openzeppelin/contracts/utils/Context.sol\":655:751  function _msgSender() internal view virtual returns (address) {... */\n      swap1\n      jump\t// out\n        /* \"Giftmoji.sol\":1339:1560  function _getEmojiDetail(bytes32 _emojiId) internal view returns (uint256) {... */\n    tag_144:\n        /* \"Giftmoji.sol\":1405:1412  uint256 */\n      0x00\n        /* \"Giftmoji.sol\":1429:1438  uint256 i */\n      0x00\n        /* \"Giftmoji.sol\":1441:1442  0 */\n      0x00\n        /* \"Giftmoji.sol\":1429:1442  uint256 i = 0 */\n      swap1\n      pop\n        /* \"Giftmoji.sol\":1424:1517  for (uint256 i = 0; i < emojiPool.length; i++) if (emojiPool[i].emojiId == _emojiId) return i */\n    tag_361:\n        /* \"Giftmoji.sol\":1448:1457  emojiPool */\n      0x05\n        /* \"Giftmoji.sol\":1448:1464  emojiPool.length */\n      dup1\n      sload\n      swap1\n      pop\n        /* \"Giftmoji.sol\":1444:1445  i */\n      dup2\n        /* \"Giftmoji.sol\":1444:1464  i < emojiPool.length */\n      lt\n        /* \"Giftmoji.sol\":1424:1517  for (uint256 i = 0; i < emojiPool.length; i++) if (emojiPool[i].emojiId == _emojiId) return i */\n      iszero\n      tag_362\n      jumpi\n        /* \"Giftmoji.sol\":1499:1507  _emojiId */\n      dup3\n        /* \"Giftmoji.sol\":1475:1484  emojiPool */\n      0x05\n        /* \"Giftmoji.sol\":1485:1486  i */\n      dup3\n        /* \"Giftmoji.sol\":1475:1487  emojiPool[i] */\n      dup2\n      sload\n      dup2\n      lt\n      tag_364\n      jumpi\n      tag_365\n      tag_147\n      jump\t// in\n    tag_365:\n    tag_364:\n      swap1\n      0x00\n      mstore\n      keccak256(0x00, 0x20)\n      swap1\n      0x06\n      mul\n      add\n        /* \"Giftmoji.sol\":1475:1495  emojiPool[i].emojiId */\n      0x00\n      add\n      sload\n        /* \"Giftmoji.sol\":1475:1507  emojiPool[i].emojiId == _emojiId */\n      sub\n        /* \"Giftmoji.sol\":1471:1517  if (emojiPool[i].emojiId == _emojiId) return i */\n      tag_367\n      jumpi\n        /* \"Giftmoji.sol\":1516:1517  i */\n      dup1\n        /* \"Giftmoji.sol\":1509:1517  return i */\n      swap2\n      pop\n      pop\n      jump(tag_360)\n        /* \"Giftmoji.sol\":1471:1517  if (emojiPool[i].emojiId == _emojiId) return i */\n    tag_367:\n        /* \"Giftmoji.sol\":1466:1469  i++ */\n      dup1\n      dup1\n      0x01\n      add\n      swap2\n      pop\n      pop\n        /* \"Giftmoji.sol\":1424:1517  for (uint256 i = 0; i < emojiPool.length; i++) if (emojiPool[i].emojiId == _emojiId) return i */\n      jump(tag_361)\n    tag_362:\n      pop\n        /* \"Giftmoji.sol\":1527:1553  revert(\"App Id Not Found\") */\n      mload(0x40)\n      0x08c379a000000000000000000000000000000000000000000000000000000000\n      dup2\n      mstore\n      0x04\n      add\n      tag_368\n      swap1\n      tag_369\n      jump\t// in\n    tag_368:\n      mload(0x40)\n      dup1\n      swap2\n      sub\n      swap1\n      revert\n        /* \"Giftmoji.sol\":1339:1560  function _getEmojiDetail(bytes32 _emojiId) internal view returns (uint256) {... */\n    tag_360:\n      swap2\n      swap1\n      pop\n      jump\t// out\n        /* \"Giftmoji.sol\":4922:5096  function calcPercentage(uint256 _amount, uint256 _bps) private pure returns (uint256) {... */\n    tag_171:\n        /* \"Giftmoji.sol\":4999:5006  uint256 */\n      0x00\n        /* \"Giftmoji.sol\":5046:5049  100 */\n      0x64\n        /* \"Giftmoji.sol\":5037:5041  _bps */\n      dup3\n        /* \"Giftmoji.sol\":5027:5034  _amount */\n      dup5\n        /* \"Giftmoji.sol\":5027:5041  _amount * _bps */\n      tag_371\n      swap2\n      swap1\n      tag_372\n      jump\t// in\n    tag_371:\n        /* \"Giftmoji.sol\":5026:5049  (_amount * _bps) >= 100 */\n      lt\n      iszero\n        /* \"Giftmoji.sol\":5018:5050  require((_amount * _bps) >= 100) */\n      tag_373\n      jumpi\n      revert(0x00, 0x00)\n    tag_373:\n        /* \"Giftmoji.sol\":5086:5089  100 */\n      0x64\n        /* \"Giftmoji.sol\":5078:5082  _bps */\n      dup3\n        /* \"Giftmoji.sol\":5068:5075  _amount */\n      dup5\n        /* \"Giftmoji.sol\":5068:5082  _amount * _bps */\n      tag_374\n      swap2\n      swap1\n      tag_372\n      jump\t// in\n    tag_374:\n        /* \"Giftmoji.sol\":5067:5089  (_amount * _bps) / 100 */\n      tag_375\n      swap2\n      swap1\n      tag_376\n      jump\t// in\n    tag_375:\n        /* \"Giftmoji.sol\":5060:5089  return (_amount * _bps) / 100 */\n      swap1\n      pop\n        /* \"Giftmoji.sol\":4922:5096  function calcPercentage(uint256 _amount, uint256 _bps) private pure returns (uint256) {... */\n      swap3\n      swap2\n      pop\n      pop\n      jump\t// out\n        /* \"@openzeppelin/contracts/utils/Counters.sol\":945:1068  function increment(Counter storage counter) internal {... */\n    tag_194:\n        /* \"@openzeppelin/contracts/utils/Counters.sol\":1050:1051  1 */\n      0x01\n        /* \"@openzeppelin/contracts/utils/Counters.sol\":1032:1039  counter */\n      dup2\n        /* \"@openzeppelin/contracts/utils/Counters.sol\":1032:1046  counter._value */\n      0x00\n      add\n      0x00\n        /* \"@openzeppelin/contracts/utils/Counters.sol\":1032:1051  counter._value += 1 */\n      dup3\n      dup3\n      sload\n      add\n      swap3\n      pop\n      pop\n      dup2\n      swap1\n      sstore\n      pop\n        /* \"@openzeppelin/contracts/utils/Counters.sol\":945:1068  function increment(Counter storage counter) internal {... */\n      pop\n      jump\t// out\n        /* \"_pausable.sol\":2731:2848  function _unpause() internal virtual whenPaused {... */\n    tag_213:\n        /* \"_pausable.sol\":1742:1758  _requirePaused() */\n      tag_379\n        /* \"_pausable.sol\":1742:1756  _requirePaused */\n      tag_380\n        /* \"_pausable.sol\":1742:1758  _requirePaused() */\n      jump\t// in\n    tag_379:\n        /* \"_pausable.sol\":2799:2804  false */\n      0x00\n        /* \"_pausable.sol\":2789:2796  _paused */\n      0x00\n      0x14\n        /* \"_pausable.sol\":2789:2804  _paused = false */\n      0x0100\n      exp\n      dup2\n      sload\n      dup2\n      0xff\n      mul\n      not\n      and\n      swap1\n      dup4\n      iszero\n      iszero\n      mul\n      or\n      swap1\n      sstore\n      pop\n        /* \"_pausable.sol\":2819:2841  Unpaused(_msgSender()) */\n      0x5db9ee0a495bf2e6ff9c91a7834c1ba4fdd244a5e8aa4e537bd38aeae4b073aa\n        /* \"_pausable.sol\":2828:2840  _msgSender() */\n      tag_382\n        /* \"_pausable.sol\":2828:2838  _msgSender */\n      tag_139\n        /* \"_pausable.sol\":2828:2840  _msgSender() */\n      jump\t// in\n    tag_382:\n        /* \"_pausable.sol\":2819:2841  Unpaused(_msgSender()) */\n      mload(0x40)\n      tag_383\n      swap2\n      swap1\n      tag_87\n      jump\t// in\n    tag_383:\n      mload(0x40)\n      dup1\n      swap2\n      sub\n      swap1\n      log1\n        /* \"_pausable.sol\":2731:2848  function _unpause() internal virtual whenPaused {... */\n      jump\t// out\n        /* \"@openzeppelin/contracts/utils/Counters.sol\":827:939  function current(Counter storage counter) internal view returns (uint256) {... */\n    tag_235:\n        /* \"@openzeppelin/contracts/utils/Counters.sol\":892:899  uint256 */\n      0x00\n        /* \"@openzeppelin/contracts/utils/Counters.sol\":918:925  counter */\n      dup2\n        /* \"@openzeppelin/contracts/utils/Counters.sol\":918:932  counter._value */\n      0x00\n      add\n      sload\n        /* \"@openzeppelin/contracts/utils/Counters.sol\":911:932  return counter._value */\n      swap1\n      pop\n        /* \"@openzeppelin/contracts/utils/Counters.sol\":827:939  function current(Counter storage counter) internal view returns (uint256) {... */\n      swap2\n      swap1\n      pop\n      jump\t// out\n        /* \"_ownable.sol\":2933:3120  function _transferOwnership(address newOwner) internal virtual {... */\n    tag_251:\n        /* \"_ownable.sol\":3006:3022  address oldOwner */\n      0x00\n        /* \"_ownable.sol\":3025:3031  _owner */\n      0x00\n      0x00\n      swap1\n      sload\n      swap1\n      0x0100\n      exp\n      swap1\n      div\n      0xffffffffffffffffffffffffffffffffffffffff\n      and\n        /* \"_ownable.sol\":3006:3031  address oldOwner = _owner */\n      swap1\n      pop\n        /* \"_ownable.sol\":3050:3058  newOwner */\n      dup2\n        /* \"_ownable.sol\":3041:3047  _owner */\n      0x00\n      0x00\n        /* \"_ownable.sol\":3041:3058  _owner = newOwner */\n      0x0100\n      exp\n      dup2\n      sload\n      dup2\n      0xffffffffffffffffffffffffffffffffffffffff\n      mul\n      not\n      and\n      swap1\n      dup4\n      0xffffffffffffffffffffffffffffffffffffffff\n      and\n      mul\n      or\n      swap1\n      sstore\n      pop\n        /* \"_ownable.sol\":3104:3112  newOwner */\n      dup2\n        /* \"_ownable.sol\":3073:3113  OwnershipTransferred(oldOwner, newOwner) */\n      0xffffffffffffffffffffffffffffffffffffffff\n      and\n        /* \"_ownable.sol\":3094:3102  oldOwner */\n      dup2\n        /* \"_ownable.sol\":3073:3113  OwnershipTransferred(oldOwner, newOwner) */\n      0xffffffffffffffffffffffffffffffffffffffff\n      and\n      0x8be0079c531659141344cd1fd0a4f28419497f9722a3daafe3b4186f6b6457e0\n      mload(0x40)\n      mload(0x40)\n      dup1\n      swap2\n      sub\n      swap1\n      log3\n        /* \"_ownable.sol\":2996:3120  {... */\n      pop\n        /* \"_ownable.sol\":2933:3120  function _transferOwnership(address newOwner) internal virtual {... */\n      pop\n      jump\t// out\n        /* \"_pausable.sol\":2484:2599  function _pause() internal virtual whenNotPaused {... */\n    tag_265:\n        /* \"_pausable.sol\":1495:1514  _requireNotPaused() */\n      tag_387\n        /* \"_pausable.sol\":1495:1512  _requireNotPaused */\n      tag_136\n        /* \"_pausable.sol\":1495:1514  _requireNotPaused() */\n      jump\t// in\n    tag_387:\n        /* \"_pausable.sol\":2553:2557  true */\n      0x01\n        /* \"_pausable.sol\":2543:2550  _paused */\n      0x00\n      0x14\n        /* \"_pausable.sol\":2543:2557  _paused = true */\n      0x0100\n      exp\n      dup2\n      sload\n      dup2\n      0xff\n      mul\n      not\n      and\n      swap1\n      dup4\n      iszero\n      iszero\n      mul\n      or\n      swap1\n      sstore\n      pop\n        /* \"_pausable.sol\":2572:2592  Paused(_msgSender()) */\n      0x62e78cea01bee320cd4e420270b5ea74000d11b0c9f74754ebdbfc544b05a258\n        /* \"_pausable.sol\":2579:2591  _msgSender() */\n      tag_389\n        /* \"_pausable.sol\":2579:2589  _msgSender */\n      tag_139\n        /* \"_pausable.sol\":2579:2591  _msgSender() */\n      jump\t// in\n    tag_389:\n        /* \"_pausable.sol\":2572:2592  Paused(_msgSender()) */\n      mload(0x40)\n      tag_390\n      swap2\n      swap1\n      tag_87\n      jump\t// in\n    tag_390:\n      mload(0x40)\n      dup1\n      swap2\n      sub\n      swap1\n      log1\n        /* \"_pausable.sol\":2484:2599  function _pause() internal virtual whenNotPaused {... */\n      jump\t// out\n        /* \"_pausable.sol\":2223:2349  function _requirePaused() internal view virtual {... */\n    tag_380:\n        /* \"_pausable.sol\":2286:2294  paused() */\n      tag_392\n        /* \"_pausable.sol\":2286:2292  paused */\n      tag_57\n        /* \"_pausable.sol\":2286:2294  paused() */\n      jump\t// in\n    tag_392:\n        /* \"_pausable.sol\":2281:2343  if (!paused()) {... */\n      tag_393\n      jumpi\n        /* \"_pausable.sol\":2317:2332  ExpectedPause() */\n      mload(0x40)\n      0x8dfc202b00000000000000000000000000000000000000000000000000000000\n      dup2\n      mstore\n      0x04\n      add\n      mload(0x40)\n      dup1\n      swap2\n      sub\n      swap1\n      revert\n        /* \"_pausable.sol\":2281:2343  if (!paused()) {... */\n    tag_393:\n        /* \"_pausable.sol\":2223:2349  function _requirePaused() internal view virtual {... */\n      jump\t// out\n        /* \"#utility.yul\":7:84   */\n    tag_394:\n        /* \"#utility.yul\":44:51   */\n      0x00\n        /* \"#utility.yul\":73:78   */\n      dup2\n        /* \"#utility.yul\":62:78   */\n      swap1\n      pop\n        /* \"#utility.yul\":7:84   */\n      swap2\n      swap1\n      pop\n      jump\t// out\n        /* \"#utility.yul\":90:208   */\n    tag_395:\n        /* \"#utility.yul\":177:201   */\n      tag_499\n        /* \"#utility.yul\":195:200   */\n      dup2\n        /* \"#utility.yul\":177:201   */\n      tag_394\n      jump\t// in\n    tag_499:\n        /* \"#utility.yul\":172:175   */\n      dup3\n        /* \"#utility.yul\":165:202   */\n      mstore\n        /* \"#utility.yul\":90:208   */\n      pop\n      pop\n      jump\t// out\n        /* \"#utility.yul\":214:436   */\n    tag_30:\n        /* \"#utility.yul\":307:311   */\n      0x00\n        /* \"#utility.yul\":345:347   */\n      0x20\n        /* \"#utility.yul\":334:343   */\n      dup3\n        /* \"#utility.yul\":330:348   */\n      add\n        /* \"#utility.yul\":322:348   */\n      swap1\n      pop\n        /* \"#utility.yul\":358:429   */\n      tag_501\n        /* \"#utility.yul\":426:427   */\n      0x00\n        /* \"#utility.yul\":415:424   */\n      dup4\n        /* \"#utility.yul\":411:428   */\n      add\n        /* \"#utility.yul\":402:408   */\n      dup5\n        /* \"#utility.yul\":358:429   */\n      tag_395\n      jump\t// in\n    tag_501:\n        /* \"#utility.yul\":214:436   */\n      swap3\n      swap2\n      pop\n      pop\n      jump\t// out\n        /* \"#utility.yul\":442:517   */\n    tag_396:\n        /* \"#utility.yul\":475:481   */\n      0x00\n        /* \"#utility.yul\":508:510   */\n      0x40\n        /* \"#utility.yul\":502:511   */\n      mload\n        /* \"#utility.yul\":492:511   */\n      swap1\n      pop\n        /* \"#utility.yul\":442:517   */\n      swap1\n      jump\t// out\n        /* \"#utility.yul\":523:640   */\n    tag_397:\n        /* \"#utility.yul\":632:633   */\n      0x00\n        /* \"#utility.yul\":629:630   */\n      0x00\n        /* \"#utility.yul\":622:634   */\n      revert\n        /* \"#utility.yul\":646:763   */\n    tag_398:\n        /* \"#utility.yul\":755:756   */\n      0x00\n        /* \"#utility.yul\":752:753   */\n      0x00\n        /* \"#utility.yul\":745:757   */\n      revert\n        /* \"#utility.yul\":769:895   */\n    tag_399:\n        /* \"#utility.yul\":806:813   */\n      0x00\n        /* \"#utility.yul\":846:888   */\n      0xffffffffffffffffffffffffffffffffffffffff\n        /* \"#utility.yul\":839:844   */\n      dup3\n        /* \"#utility.yul\":835:889   */\n      and\n        /* \"#utility.yul\":824:889   */\n      swap1\n      pop\n        /* \"#utility.yul\":769:895   */\n      swap2\n      swap1\n      pop\n      jump\t// out\n        /* \"#utility.yul\":901:997   */\n    tag_400:\n        /* \"#utility.yul\":938:945   */\n      0x00\n        /* \"#utility.yul\":967:991   */\n      tag_507\n        /* \"#utility.yul\":985:990   */\n      dup3\n        /* \"#utility.yul\":967:991   */\n      tag_399\n      jump\t// in\n    tag_507:\n        /* \"#utility.yul\":956:991   */\n      swap1\n      pop\n        /* \"#utility.yul\":901:997   */\n      swap2\n      swap1\n      pop\n      jump\t// out\n        /* \"#utility.yul\":1003:1125   */\n    tag_401:\n        /* \"#utility.yul\":1076:1100   */\n      tag_509\n        /* \"#utility.yul\":1094:1099   */\n      dup2\n        /* \"#utility.yul\":1076:1100   */\n      tag_400\n      jump\t// in\n    tag_509:\n        /* \"#utility.yul\":1069:1074   */\n      dup2\n        /* \"#utility.yul\":1066:1101   */\n      eq\n        /* \"#utility.yul\":1056:1119   */\n      tag_510\n      jumpi\n        /* \"#utility.yul\":1115:1116   */\n      0x00\n        /* \"#utility.yul\":1112:1113   */\n      0x00\n        /* \"#utility.yul\":1105:1117   */\n      revert\n        /* \"#utility.yul\":1056:1119   */\n    tag_510:\n        /* \"#utility.yul\":1003:1125   */\n      pop\n      jump\t// out\n        /* \"#utility.yul\":1131:1270   */\n    tag_402:\n        /* \"#utility.yul\":1177:1182   */\n      0x00\n        /* \"#utility.yul\":1215:1221   */\n      dup2\n        /* \"#utility.yul\":1202:1222   */\n      calldataload\n        /* \"#utility.yul\":1193:1222   */\n      swap1\n      pop\n        /* \"#utility.yul\":1231:1264   */\n      tag_512\n        /* \"#utility.yul\":1258:1263   */\n      dup2\n        /* \"#utility.yul\":1231:1264   */\n      tag_401\n      jump\t// in\n    tag_512:\n        /* \"#utility.yul\":1131:1270   */\n      swap3\n      swap2\n      pop\n      pop\n      jump\t// out\n        /* \"#utility.yul\":1276:1353   */\n    tag_403:\n        /* \"#utility.yul\":1313:1320   */\n      0x00\n        /* \"#utility.yul\":1342:1347   */\n      dup2\n        /* \"#utility.yul\":1331:1347   */\n      swap1\n      pop\n        /* \"#utility.yul\":1276:1353   */\n      swap2\n      swap1\n      pop\n      jump\t// out\n        /* \"#utility.yul\":1359:1481   */\n    tag_404:\n        /* \"#utility.yul\":1432:1456   */\n      tag_515\n        /* \"#utility.yul\":1450:1455   */\n      dup2\n        /* \"#utility.yul\":1432:1456   */\n      tag_403\n      jump\t// in\n    tag_515:\n        /* \"#utility.yul\":1425:1430   */\n      dup2\n        /* \"#utility.yul\":1422:1457   */\n      eq\n        /* \"#utility.yul\":1412:1475   */\n      tag_516\n      jumpi\n        /* \"#utility.yul\":1471:1472   */\n      0x00\n        /* \"#utility.yul\":1468:1469   */\n      0x00\n        /* \"#utility.yul\":1461:1473   */\n      revert\n        /* \"#utility.yul\":1412:1475   */\n    tag_516:\n        /* \"#utility.yul\":1359:1481   */\n      pop\n      jump\t// out\n        /* \"#utility.yul\":1487:1626   */\n    tag_405:\n        /* \"#utility.yul\":1533:1538   */\n      0x00\n        /* \"#utility.yul\":1571:1577   */\n      dup2\n        /* \"#utility.yul\":1558:1578   */\n      calldataload\n        /* \"#utility.yul\":1549:1578   */\n      swap1\n      pop\n        /* \"#utility.yul\":1587:1620   */\n      tag_518\n        /* \"#utility.yul\":1614:1619   */\n      dup2\n        /* \"#utility.yul\":1587:1620   */\n      tag_404\n      jump\t// in\n    tag_518:\n        /* \"#utility.yul\":1487:1626   */\n      swap3\n      swap2\n      pop\n      pop\n      jump\t// out\n        /* \"#utility.yul\":1632:1749   */\n    tag_406:\n        /* \"#utility.yul\":1741:1742   */\n      0x00\n        /* \"#utility.yul\":1738:1739   */\n      0x00\n        /* \"#utility.yul\":1731:1743   */\n      revert\n        /* \"#utility.yul\":1755:1872   */\n    tag_407:\n        /* \"#utility.yul\":1864:1865   */\n      0x00\n        /* \"#utility.yul\":1861:1862   */\n      0x00\n        /* \"#utility.yul\":1854:1866   */\n      revert\n        /* \"#utility.yul\":1878:1980   */\n    tag_408:\n        /* \"#utility.yul\":1919:1925   */\n      0x00\n        /* \"#utility.yul\":1970:1972   */\n      0x1f\n        /* \"#utility.yul\":1966:1973   */\n      not\n        /* \"#utility.yul\":1961:1963   */\n      0x1f\n        /* \"#utility.yul\":1954:1959   */\n      dup4\n        /* \"#utility.yul\":1950:1964   */\n      add\n        /* \"#utility.yul\":1946:1974   */\n      and\n        /* \"#utility.yul\":1936:1974   */\n      swap1\n      pop\n        /* \"#utility.yul\":1878:1980   */\n      swap2\n      swap1\n      pop\n      jump\t// out\n        /* \"#utility.yul\":1986:2166   */\n    tag_409:\n        /* \"#utility.yul\":2034:2111   */\n      0x4e487b7100000000000000000000000000000000000000000000000000000000\n        /* \"#utility.yul\":2031:2032   */\n      0x00\n        /* \"#utility.yul\":2024:2112   */\n      mstore\n        /* \"#utility.yul\":2131:2135   */\n      0x41\n        /* \"#utility.yul\":2128:2129   */\n      0x04\n        /* \"#utility.yul\":2121:2136   */\n      mstore\n        /* \"#utility.yul\":2155:2159   */\n      0x24\n        /* \"#utility.yul\":2152:2153   */\n      0x00\n        /* \"#utility.yul\":2145:2160   */\n      revert\n        /* \"#utility.yul\":2172:2453   */\n    tag_410:\n        /* \"#utility.yul\":2255:2282   */\n      tag_524\n        /* \"#utility.yul\":2277:2281   */\n      dup3\n        /* \"#utility.yul\":2255:2282   */\n      tag_408\n      jump\t// in\n    tag_524:\n        /* \"#utility.yul\":2247:2253   */\n      dup2\n        /* \"#utility.yul\":2243:2283   */\n      add\n        /* \"#utility.yul\":2385:2391   */\n      dup2\n        /* \"#utility.yul\":2373:2383   */\n      dup2\n        /* \"#utility.yul\":2370:2392   */\n      lt\n        /* \"#utility.yul\":2349:2367   */\n      0xffffffffffffffff\n        /* \"#utility.yul\":2337:2347   */\n      dup3\n        /* \"#utility.yul\":2334:2368   */\n      gt\n        /* \"#utility.yul\":2331:2393   */\n      or\n        /* \"#utility.yul\":2328:2416   */\n      iszero\n      tag_525\n      jumpi\n        /* \"#utility.yul\":2396:2414   */\n      tag_526\n      tag_409\n      jump\t// in\n    tag_526:\n        /* \"#utility.yul\":2328:2416   */\n    tag_525:\n        /* \"#utility.yul\":2436:2446   */\n      dup1\n        /* \"#utility.yul\":2432:2434   */\n      0x40\n        /* \"#utility.yul\":2425:2447   */\n      mstore\n        /* \"#utility.yul\":2215:2453   */\n      pop\n        /* \"#utility.yul\":2172:2453   */\n      pop\n      pop\n      jump\t// out\n        /* \"#utility.yul\":2459:2588   */\n    tag_411:\n        /* \"#utility.yul\":2493:2499   */\n      0x00\n        /* \"#utility.yul\":2520:2540   */\n      tag_528\n      tag_396\n      jump\t// in\n    tag_528:\n        /* \"#utility.yul\":2510:2540   */\n      swap1\n      pop\n        /* \"#utility.yul\":2549:2582   */\n      tag_529\n        /* \"#utility.yul\":2577:2581   */\n      dup3\n        /* \"#utility.yul\":2569:2575   */\n      dup3\n        /* \"#utility.yul\":2549:2582   */\n      tag_410\n      jump\t// in\n    tag_529:\n        /* \"#utility.yul\":2459:2588   */\n      swap2\n      swap1\n      pop\n      jump\t// out\n        /* \"#utility.yul\":2594:2901   */\n    tag_412:\n        /* \"#utility.yul\":2655:2659   */\n      0x00\n        /* \"#utility.yul\":2745:2763   */\n      0xffffffffffffffff\n        /* \"#utility.yul\":2737:2743   */\n      dup3\n        /* \"#utility.yul\":2734:2764   */\n      gt\n        /* \"#utility.yul\":2731:2787   */\n      iszero\n      tag_531\n      jumpi\n        /* \"#utility.yul\":2767:2785   */\n      tag_532\n      tag_409\n      jump\t// in\n    tag_532:\n        /* \"#utility.yul\":2731:2787   */\n    tag_531:\n        /* \"#utility.yul\":2805:2834   */\n      tag_533\n        /* \"#utility.yul\":2827:2833   */\n      dup3\n        /* \"#utility.yul\":2805:2834   */\n      tag_408\n      jump\t// in\n    tag_533:\n        /* \"#utility.yul\":2797:2834   */\n      swap1\n      pop\n        /* \"#utility.yul\":2889:2893   */\n      0x20\n        /* \"#utility.yul\":2883:2887   */\n      dup2\n        /* \"#utility.yul\":2879:2894   */\n      add\n        /* \"#utility.yul\":2871:2894   */\n      swap1\n      pop\n        /* \"#utility.yul\":2594:2901   */\n      swap2\n      swap1\n      pop\n      jump\t// out\n        /* \"#utility.yul\":2907:3055   */\n    tag_413:\n        /* \"#utility.yul\":3005:3011   */\n      dup3\n        /* \"#utility.yul\":3000:3003   */\n      dup2\n        /* \"#utility.yul\":2995:2998   */\n      dup4\n        /* \"#utility.yul\":2982:3012   */\n      calldatacopy\n        /* \"#utility.yul\":3046:3047   */\n      0x00\n        /* \"#utility.yul\":3037:3043   */\n      dup4\n        /* \"#utility.yul\":3032:3035   */\n      dup4\n        /* \"#utility.yul\":3028:3044   */\n      add\n        /* \"#utility.yul\":3021:3048   */\n      mstore\n        /* \"#utility.yul\":2907:3055   */\n      pop\n      pop\n      pop\n      jump\t// out\n        /* \"#utility.yul\":3061:3484   */\n    tag_414:\n        /* \"#utility.yul\":3138:3143   */\n      0x00\n        /* \"#utility.yul\":3163:3228   */\n      tag_536\n        /* \"#utility.yul\":3179:3227   */\n      tag_537\n        /* \"#utility.yul\":3220:3226   */\n      dup5\n        /* \"#utility.yul\":3179:3227   */\n      tag_412\n      jump\t// in\n    tag_537:\n        /* \"#utility.yul\":3163:3228   */\n      tag_411\n      jump\t// in\n    tag_536:\n        /* \"#utility.yul\":3154:3228   */\n      swap1\n      pop\n        /* \"#utility.yul\":3251:3257   */\n      dup3\n        /* \"#utility.yul\":3244:3249   */\n      dup2\n        /* \"#utility.yul\":3237:3258   */\n      mstore\n        /* \"#utility.yul\":3289:3293   */\n      0x20\n        /* \"#utility.yul\":3282:3287   */\n      dup2\n        /* \"#utility.yul\":3278:3294   */\n      add\n        /* \"#utility.yul\":3327:3330   */\n      dup5\n        /* \"#utility.yul\":3318:3324   */\n      dup5\n        /* \"#utility.yul\":3313:3316   */\n      dup5\n        /* \"#utility.yul\":3309:3325   */\n      add\n        /* \"#utility.yul\":3306:3331   */\n      gt\n        /* \"#utility.yul\":3303:3415   */\n      iszero\n      tag_538\n      jumpi\n        /* \"#utility.yul\":3334:3413   */\n      tag_539\n      tag_407\n      jump\t// in\n    tag_539:\n        /* \"#utility.yul\":3303:3415   */\n    tag_538:\n        /* \"#utility.yul\":3424:3478   */\n      tag_540\n        /* \"#utility.yul\":3471:3477   */\n      dup5\n        /* \"#utility.yul\":3466:3469   */\n      dup3\n        /* \"#utility.yul\":3461:3464   */\n      dup6\n        /* \"#utility.yul\":3424:3478   */\n      tag_413\n      jump\t// in\n    tag_540:\n        /* \"#utility.yul\":3144:3484   */\n      pop\n        /* \"#utility.yul\":3061:3484   */\n      swap4\n      swap3\n      pop\n      pop\n      pop\n      jump\t// out\n        /* \"#utility.yul\":3503:3841   */\n    tag_415:\n        /* \"#utility.yul\":3558:3563   */\n      0x00\n        /* \"#utility.yul\":3607:3610   */\n      dup3\n        /* \"#utility.yul\":3600:3604   */\n      0x1f\n        /* \"#utility.yul\":3592:3598   */\n      dup4\n        /* \"#utility.yul\":3588:3605   */\n      add\n        /* \"#utility.yul\":3584:3611   */\n      slt\n        /* \"#utility.yul\":3574:3696   */\n      tag_542\n      jumpi\n        /* \"#utility.yul\":3615:3694   */\n      tag_543\n      tag_406\n      jump\t// in\n    tag_543:\n        /* \"#utility.yul\":3574:3696   */\n    tag_542:\n        /* \"#utility.yul\":3732:3738   */\n      dup2\n        /* \"#utility.yul\":3719:3739   */\n      calldataload\n        /* \"#utility.yul\":3757:3835   */\n      tag_544\n        /* \"#utility.yul\":3831:3834   */\n      dup5\n        /* \"#utility.yul\":3823:3829   */\n      dup3\n        /* \"#utility.yul\":3816:3820   */\n      0x20\n        /* \"#utility.yul\":3808:3814   */\n      dup7\n        /* \"#utility.yul\":3804:3821   */\n      add\n        /* \"#utility.yul\":3757:3835   */\n      tag_414\n      jump\t// in\n    tag_544:\n        /* \"#utility.yul\":3748:3835   */\n      swap2\n      pop\n        /* \"#utility.yul\":3564:3841   */\n      pop\n        /* \"#utility.yul\":3503:3841   */\n      swap3\n      swap2\n      pop\n      pop\n      jump\t// out\n        /* \"#utility.yul\":3847:4644   */\n    tag_33:\n        /* \"#utility.yul\":3933:3939   */\n      0x00\n        /* \"#utility.yul\":3941:3947   */\n      0x00\n        /* \"#utility.yul\":3949:3955   */\n      0x00\n        /* \"#utility.yul\":3998:4000   */\n      0x60\n        /* \"#utility.yul\":3986:3995   */\n      dup5\n        /* \"#utility.yul\":3977:3984   */\n      dup7\n        /* \"#utility.yul\":3973:3996   */\n      sub\n        /* \"#utility.yul\":3969:4001   */\n      slt\n        /* \"#utility.yul\":3966:4085   */\n      iszero\n      tag_546\n      jumpi\n        /* \"#utility.yul\":4004:4083   */\n      tag_547\n      tag_397\n      jump\t// in\n    tag_547:\n        /* \"#utility.yul\":3966:4085   */\n    tag_546:\n        /* \"#utility.yul\":4124:4125   */\n      0x00\n        /* \"#utility.yul\":4149:4202   */\n      tag_548\n        /* \"#utility.yul\":4194:4201   */\n      dup7\n        /* \"#utility.yul\":4185:4191   */\n      dup3\n        /* \"#utility.yul\":4174:4183   */\n      dup8\n        /* \"#utility.yul\":4170:4192   */\n      add\n        /* \"#utility.yul\":4149:4202   */\n      tag_402\n      jump\t// in\n    tag_548:\n        /* \"#utility.yul\":4139:4202   */\n      swap4\n      pop\n        /* \"#utility.yul\":4095:4212   */\n      pop\n        /* \"#utility.yul\":4251:4253   */\n      0x20\n        /* \"#utility.yul\":4277:4330   */\n      tag_549\n        /* \"#utility.yul\":4322:4329   */\n      dup7\n        /* \"#utility.yul\":4313:4319   */\n      dup3\n        /* \"#utility.yul\":4302:4311   */\n      dup8\n        /* \"#utility.yul\":4298:4320   */\n      add\n        /* \"#utility.yul\":4277:4330   */\n      tag_405\n      jump\t// in\n    tag_549:\n        /* \"#utility.yul\":4267:4330   */\n      swap3\n      pop\n        /* \"#utility.yul\":4222:4340   */\n      pop\n        /* \"#utility.yul\":4407:4409   */\n      0x40\n        /* \"#utility.yul\":4396:4405   */\n      dup5\n        /* \"#utility.yul\":4392:4410   */\n      add\n        /* \"#utility.yul\":4379:4411   */\n      calldataload\n        /* \"#utility.yul\":4438:4456   */\n      0xffffffffffffffff\n        /* \"#utility.yul\":4430:4436   */\n      dup2\n        /* \"#utility.yul\":4427:4457   */\n      gt\n        /* \"#utility.yul\":4424:4541   */\n      iszero\n      tag_550\n      jumpi\n        /* \"#utility.yul\":4460:4539   */\n      tag_551\n      tag_398\n      jump\t// in\n    tag_551:\n        /* \"#utility.yul\":4424:4541   */\n    tag_550:\n        /* \"#utility.yul\":4565:4627   */\n      tag_552\n        /* \"#utility.yul\":4619:4626   */\n      dup7\n        /* \"#utility.yul\":4610:4616   */\n      dup3\n        /* \"#utility.yul\":4599:4608   */\n      dup8\n        /* \"#utility.yul\":4595:4617   */\n      add\n        /* \"#utility.yul\":4565:4627   */\n      tag_415\n      jump\t// in\n    tag_552:\n        /* \"#utility.yul\":4555:4627   */\n      swap2\n      pop\n        /* \"#utility.yul\":4350:4637   */\n      pop\n        /* \"#utility.yul\":3847:4644   */\n      swap3\n      pop\n      swap3\n      pop\n      swap3\n      jump\t// out\n        /* \"#utility.yul\":4650:4740   */\n    tag_416:\n        /* \"#utility.yul\":4684:4691   */\n      0x00\n        /* \"#utility.yul\":4727:4732   */\n      dup2\n        /* \"#utility.yul\":4720:4733   */\n      iszero\n        /* \"#utility.yul\":4713:4734   */\n      iszero\n        /* \"#utility.yul\":4702:4734   */\n      swap1\n      pop\n        /* \"#utility.yul\":4650:4740   */\n      swap2\n      swap1\n      pop\n      jump\t// out\n        /* \"#utility.yul\":4746:4855   */\n    tag_417:\n        /* \"#utility.yul\":4827:4848   */\n      tag_555\n        /* \"#utility.yul\":4842:4847   */\n      dup2\n        /* \"#utility.yul\":4827:4848   */\n      tag_416\n      jump\t// in\n    tag_555:\n        /* \"#utility.yul\":4822:4825   */\n      dup3\n        /* \"#utility.yul\":4815:4849   */\n      mstore\n        /* \"#utility.yul\":4746:4855   */\n      pop\n      pop\n      jump\t// out\n        /* \"#utility.yul\":4861:5071   */\n    tag_36:\n        /* \"#utility.yul\":4948:4952   */\n      0x00\n        /* \"#utility.yul\":4986:4988   */\n      0x20\n        /* \"#utility.yul\":4975:4984   */\n      dup3\n        /* \"#utility.yul\":4971:4989   */\n      add\n        /* \"#utility.yul\":4963:4989   */\n      swap1\n      pop\n        /* \"#utility.yul\":4999:5064   */\n      tag_557\n        /* \"#utility.yul\":5061:5062   */\n      0x00\n        /* \"#utility.yul\":5050:5059   */\n      dup4\n        /* \"#utility.yul\":5046:5063   */\n      add\n        /* \"#utility.yul\":5037:5043   */\n      dup5\n        /* \"#utility.yul\":4999:5064   */\n      tag_417\n      jump\t// in\n    tag_557:\n        /* \"#utility.yul\":4861:5071   */\n      swap3\n      swap2\n      pop\n      pop\n      jump\t// out\n        /* \"#utility.yul\":5077:5199   */\n    tag_418:\n        /* \"#utility.yul\":5150:5174   */\n      tag_559\n        /* \"#utility.yul\":5168:5173   */\n      dup2\n        /* \"#utility.yul\":5150:5174   */\n      tag_394\n      jump\t// in\n    tag_559:\n        /* \"#utility.yul\":5143:5148   */\n      dup2\n        /* \"#utility.yul\":5140:5175   */\n      eq\n        /* \"#utility.yul\":5130:5193   */\n      tag_560\n      jumpi\n        /* \"#utility.yul\":5189:5190   */\n      0x00\n        /* \"#utility.yul\":5186:5187   */\n      0x00\n        /* \"#utility.yul\":5179:5191   */\n      revert\n        /* \"#utility.yul\":5130:5193   */\n    tag_560:\n        /* \"#utility.yul\":5077:5199   */\n      pop\n      jump\t// out\n        /* \"#utility.yul\":5205:5344   */\n    tag_419:\n        /* \"#utility.yul\":5251:5256   */\n      0x00\n        /* \"#utility.yul\":5289:5295   */\n      dup2\n        /* \"#utility.yul\":5276:5296   */\n      calldataload\n        /* \"#utility.yul\":5267:5296   */\n      swap1\n      pop\n        /* \"#utility.yul\":5305:5338   */\n      tag_562\n        /* \"#utility.yul\":5332:5337   */\n      dup2\n        /* \"#utility.yul\":5305:5338   */\n      tag_418\n      jump\t// in\n    tag_562:\n        /* \"#utility.yul\":5205:5344   */\n      swap3\n      swap2\n      pop\n      pop\n      jump\t// out\n        /* \"#utility.yul\":5350:5824   */\n    tag_46:\n        /* \"#utility.yul\":5418:5424   */\n      0x00\n        /* \"#utility.yul\":5426:5432   */\n      0x00\n        /* \"#utility.yul\":5475:5477   */\n      0x40\n        /* \"#utility.yul\":5463:5472   */\n      dup4\n        /* \"#utility.yul\":5454:5461   */\n      dup6\n        /* \"#utility.yul\":5450:5473   */\n      sub\n        /* \"#utility.yul\":5446:5478   */\n      slt\n        /* \"#utility.yul\":5443:5562   */\n      iszero\n      tag_564\n      jumpi\n        /* \"#utility.yul\":5481:5560   */\n      tag_565\n      tag_397\n      jump\t// in\n    tag_565:\n        /* \"#utility.yul\":5443:5562   */\n    tag_564:\n        /* \"#utility.yul\":5601:5602   */\n      0x00\n        /* \"#utility.yul\":5626:5679   */\n      tag_566\n        /* \"#utility.yul\":5671:5678   */\n      dup6\n        /* \"#utility.yul\":5662:5668   */\n      dup3\n        /* \"#utility.yul\":5651:5660   */\n      dup7\n        /* \"#utility.yul\":5647:5669   */\n      add\n        /* \"#utility.yul\":5626:5679   */\n      tag_402\n      jump\t// in\n    tag_566:\n        /* \"#utility.yul\":5616:5679   */\n      swap3\n      pop\n        /* \"#utility.yul\":5572:5689   */\n      pop\n        /* \"#utility.yul\":5728:5730   */\n      0x20\n        /* \"#utility.yul\":5754:5807   */\n      tag_567\n        /* \"#utility.yul\":5799:5806   */\n      dup6\n        /* \"#utility.yul\":5790:5796   */\n      dup3\n        /* \"#utility.yul\":5779:5788   */\n      dup7\n        /* \"#utility.yul\":5775:5797   */\n      add\n        /* \"#utility.yul\":5754:5807   */\n      tag_419\n      jump\t// in\n    tag_567:\n        /* \"#utility.yul\":5744:5807   */\n      swap2\n      pop\n        /* \"#utility.yul\":5699:5817   */\n      pop\n        /* \"#utility.yul\":5350:5824   */\n      swap3\n      pop\n      swap3\n      swap1\n      pop\n      jump\t// out\n        /* \"#utility.yul\":5830:5948   */\n    tag_420:\n        /* \"#utility.yul\":5917:5941   */\n      tag_569\n        /* \"#utility.yul\":5935:5940   */\n      dup2\n        /* \"#utility.yul\":5917:5941   */\n      tag_400\n      jump\t// in\n    tag_569:\n        /* \"#utility.yul\":5912:5915   */\n      dup3\n        /* \"#utility.yul\":5905:5942   */\n      mstore\n        /* \"#utility.yul\":5830:5948   */\n      pop\n      pop\n      jump\t// out\n        /* \"#utility.yul\":5954:6072   */\n    tag_421:\n        /* \"#utility.yul\":6041:6065   */\n      tag_571\n        /* \"#utility.yul\":6059:6064   */\n      dup2\n        /* \"#utility.yul\":6041:6065   */\n      tag_403\n      jump\t// in\n    tag_571:\n        /* \"#utility.yul\":6036:6039   */\n      dup3\n        /* \"#utility.yul\":6029:6066   */\n      mstore\n        /* \"#utility.yul\":5954:6072   */\n      pop\n      pop\n      jump\t// out\n        /* \"#utility.yul\":6078:6176   */\n    tag_422:\n        /* \"#utility.yul\":6129:6135   */\n      0x00\n        /* \"#utility.yul\":6163:6168   */\n      dup2\n        /* \"#utility.yul\":6157:6169   */\n      mload\n        /* \"#utility.yul\":6147:6169   */\n      swap1\n      pop\n        /* \"#utility.yul\":6078:6176   */\n      swap2\n      swap1\n      pop\n      jump\t// out\n        /* \"#utility.yul\":6182:6350   */\n    tag_423:\n        /* \"#utility.yul\":6265:6276   */\n      0x00\n        /* \"#utility.yul\":6299:6305   */\n      dup3\n        /* \"#utility.yul\":6294:6297   */\n      dup3\n        /* \"#utility.yul\":6287:6306   */\n      mstore\n        /* \"#utility.yul\":6339:6343   */\n      0x20\n        /* \"#utility.yul\":6334:6337   */\n      dup3\n        /* \"#utility.yul\":6330:6344   */\n      add\n        /* \"#utility.yul\":6315:6344   */\n      swap1\n      pop\n        /* \"#utility.yul\":6182:6350   */\n      swap3\n      swap2\n      pop\n      pop\n      jump\t// out\n        /* \"#utility.yul\":6356:6495   */\n    tag_424:\n        /* \"#utility.yul\":6445:6451   */\n      dup3\n        /* \"#utility.yul\":6440:6443   */\n      dup2\n        /* \"#utility.yul\":6435:6438   */\n      dup4\n        /* \"#utility.yul\":6429:6452   */\n      mcopy\n        /* \"#utility.yul\":6486:6487   */\n      0x00\n        /* \"#utility.yul\":6477:6483   */\n      dup4\n        /* \"#utility.yul\":6472:6475   */\n      dup4\n        /* \"#utility.yul\":6468:6484   */\n      add\n        /* \"#utility.yul\":6461:6488   */\n      mstore\n        /* \"#utility.yul\":6356:6495   */\n      pop\n      pop\n      pop\n      jump\t// out\n        /* \"#utility.yul\":6501:6874   */\n    tag_425:\n        /* \"#utility.yul\":6587:6590   */\n      0x00\n        /* \"#utility.yul\":6615:6653   */\n      tag_576\n        /* \"#utility.yul\":6647:6652   */\n      dup3\n        /* \"#utility.yul\":6615:6653   */\n      tag_422\n      jump\t// in\n    tag_576:\n        /* \"#utility.yul\":6669:6739   */\n      tag_577\n        /* \"#utility.yul\":6732:6738   */\n      dup2\n        /* \"#utility.yul\":6727:6730   */\n      dup6\n        /* \"#utility.yul\":6669:6739   */\n      tag_423\n      jump\t// in\n    tag_577:\n        /* \"#utility.yul\":6662:6739   */\n      swap4\n      pop\n        /* \"#utility.yul\":6748:6813   */\n      tag_578\n        /* \"#utility.yul\":6806:6812   */\n      dup2\n        /* \"#utility.yul\":6801:6804   */\n      dup6\n        /* \"#utility.yul\":6794:6798   */\n      0x20\n        /* \"#utility.yul\":6787:6792   */\n      dup7\n        /* \"#utility.yul\":6783:6799   */\n      add\n        /* \"#utility.yul\":6748:6813   */\n      tag_424\n      jump\t// in\n    tag_578:\n        /* \"#utility.yul\":6838:6867   */\n      tag_579\n        /* \"#utility.yul\":6860:6866   */\n      dup2\n        /* \"#utility.yul\":6838:6867   */\n      tag_408\n      jump\t// in\n    tag_579:\n        /* \"#utility.yul\":6833:6836   */\n      dup5\n        /* \"#utility.yul\":6829:6868   */\n      add\n        /* \"#utility.yul\":6822:6868   */\n      swap2\n      pop\n        /* \"#utility.yul\":6591:6874   */\n      pop\n        /* \"#utility.yul\":6501:6874   */\n      swap3\n      swap2\n      pop\n      pop\n      jump\t// out\n        /* \"#utility.yul\":6880:7631   */\n    tag_49:\n        /* \"#utility.yul\":7103:7107   */\n      0x00\n        /* \"#utility.yul\":7141:7144   */\n      0xa0\n        /* \"#utility.yul\":7130:7139   */\n      dup3\n        /* \"#utility.yul\":7126:7145   */\n      add\n        /* \"#utility.yul\":7118:7145   */\n      swap1\n      pop\n        /* \"#utility.yul\":7155:7226   */\n      tag_581\n        /* \"#utility.yul\":7223:7224   */\n      0x00\n        /* \"#utility.yul\":7212:7221   */\n      dup4\n        /* \"#utility.yul\":7208:7225   */\n      add\n        /* \"#utility.yul\":7199:7205   */\n      dup9\n        /* \"#utility.yul\":7155:7226   */\n      tag_420\n      jump\t// in\n    tag_581:\n        /* \"#utility.yul\":7236:7308   */\n      tag_582\n        /* \"#utility.yul\":7304:7306   */\n      0x20\n        /* \"#utility.yul\":7293:7302   */\n      dup4\n        /* \"#utility.yul\":7289:7307   */\n      add\n        /* \"#utility.yul\":7280:7286   */\n      dup8\n        /* \"#utility.yul\":7236:7308   */\n      tag_421\n      jump\t// in\n    tag_582:\n        /* \"#utility.yul\":7318:7390   */\n      tag_583\n        /* \"#utility.yul\":7386:7388   */\n      0x40\n        /* \"#utility.yul\":7375:7384   */\n      dup4\n        /* \"#utility.yul\":7371:7389   */\n      add\n        /* \"#utility.yul\":7362:7368   */\n      dup7\n        /* \"#utility.yul\":7318:7390   */\n      tag_395\n      jump\t// in\n    tag_583:\n        /* \"#utility.yul\":7437:7446   */\n      dup2\n        /* \"#utility.yul\":7431:7435   */\n      dup2\n        /* \"#utility.yul\":7427:7447   */\n      sub\n        /* \"#utility.yul\":7422:7424   */\n      0x60\n        /* \"#utility.yul\":7411:7420   */\n      dup4\n        /* \"#utility.yul\":7407:7425   */\n      add\n        /* \"#utility.yul\":7400:7448   */\n      mstore\n        /* \"#utility.yul\":7465:7541   */\n      tag_584\n        /* \"#utility.yul\":7536:7540   */\n      dup2\n        /* \"#utility.yul\":7527:7533   */\n      dup6\n        /* \"#utility.yul\":7465:7541   */\n      tag_425\n      jump\t// in\n    tag_584:\n        /* \"#utility.yul\":7457:7541   */\n      swap1\n      pop\n        /* \"#utility.yul\":7551:7624   */\n      tag_585\n        /* \"#utility.yul\":7619:7622   */\n      0x80\n        /* \"#utility.yul\":7608:7617   */\n      dup4\n        /* \"#utility.yul\":7604:7623   */\n      add\n        /* \"#utility.yul\":7595:7601   */\n      dup5\n        /* \"#utility.yul\":7551:7624   */\n      tag_395\n      jump\t// in\n    tag_585:\n        /* \"#utility.yul\":6880:7631   */\n      swap7\n      swap6\n      pop\n      pop\n      pop\n      pop\n      pop\n      pop\n      jump\t// out\n        /* \"#utility.yul\":7637:7741   */\n    tag_426:\n        /* \"#utility.yul\":7682:7689   */\n      0x00\n        /* \"#utility.yul\":7711:7735   */\n      tag_587\n        /* \"#utility.yul\":7729:7734   */\n      dup3\n        /* \"#utility.yul\":7711:7735   */\n      tag_399\n      jump\t// in\n    tag_587:\n        /* \"#utility.yul\":7700:7735   */\n      swap1\n      pop\n        /* \"#utility.yul\":7637:7741   */\n      swap2\n      swap1\n      pop\n      jump\t// out\n        /* \"#utility.yul\":7747:7885   */\n    tag_427:\n        /* \"#utility.yul\":7828:7860   */\n      tag_589\n        /* \"#utility.yul\":7854:7859   */\n      dup2\n        /* \"#utility.yul\":7828:7860   */\n      tag_426\n      jump\t// in\n    tag_589:\n        /* \"#utility.yul\":7821:7826   */\n      dup2\n        /* \"#utility.yul\":7818:7861   */\n      eq\n        /* \"#utility.yul\":7808:7879   */\n      tag_590\n      jumpi\n        /* \"#utility.yul\":7875:7876   */\n      0x00\n        /* \"#utility.yul\":7872:7873   */\n      0x00\n        /* \"#utility.yul\":7865:7877   */\n      revert\n        /* \"#utility.yul\":7808:7879   */\n    tag_590:\n        /* \"#utility.yul\":7747:7885   */\n      pop\n      jump\t// out\n        /* \"#utility.yul\":7891:8046   */\n    tag_428:\n        /* \"#utility.yul\":7945:7950   */\n      0x00\n        /* \"#utility.yul\":7983:7989   */\n      dup2\n        /* \"#utility.yul\":7970:7990   */\n      calldataload\n        /* \"#utility.yul\":7961:7990   */\n      swap1\n      pop\n        /* \"#utility.yul\":7999:8040   */\n      tag_592\n        /* \"#utility.yul\":8034:8039   */\n      dup2\n        /* \"#utility.yul\":7999:8040   */\n      tag_427\n      jump\t// in\n    tag_592:\n        /* \"#utility.yul\":7891:8046   */\n      swap3\n      swap2\n      pop\n      pop\n      jump\t// out\n        /* \"#utility.yul\":8052:8542   */\n    tag_53:\n        /* \"#utility.yul\":8128:8134   */\n      0x00\n        /* \"#utility.yul\":8136:8142   */\n      0x00\n        /* \"#utility.yul\":8185:8187   */\n      0x40\n        /* \"#utility.yul\":8173:8182   */\n      dup4\n        /* \"#utility.yul\":8164:8171   */\n      dup6\n        /* \"#utility.yul\":8160:8183   */\n      sub\n        /* \"#utility.yul\":8156:8188   */\n      slt\n        /* \"#utility.yul\":8153:8272   */\n      iszero\n      tag_594\n      jumpi\n        /* \"#utility.yul\":8191:8270   */\n      tag_595\n      tag_397\n      jump\t// in\n    tag_595:\n        /* \"#utility.yul\":8153:8272   */\n    tag_594:\n        /* \"#utility.yul\":8311:8312   */\n      0x00\n        /* \"#utility.yul\":8336:8397   */\n      tag_596\n        /* \"#utility.yul\":8389:8396   */\n      dup6\n        /* \"#utility.yul\":8380:8386   */\n      dup3\n        /* \"#utility.yul\":8369:8378   */\n      dup7\n        /* \"#utility.yul\":8365:8387   */\n      add\n        /* \"#utility.yul\":8336:8397   */\n      tag_428\n      jump\t// in\n    tag_596:\n        /* \"#utility.yul\":8326:8397   */\n      swap3\n      pop\n        /* \"#utility.yul\":8282:8407   */\n      pop\n        /* \"#utility.yul\":8446:8448   */\n      0x20\n        /* \"#utility.yul\":8472:8525   */\n      tag_597\n        /* \"#utility.yul\":8517:8524   */\n      dup6\n        /* \"#utility.yul\":8508:8514   */\n      dup3\n        /* \"#utility.yul\":8497:8506   */\n      dup7\n        /* \"#utility.yul\":8493:8515   */\n      add\n        /* \"#utility.yul\":8472:8525   */\n      tag_419\n      jump\t// in\n    tag_597:\n        /* \"#utility.yul\":8462:8525   */\n      swap2\n      pop\n        /* \"#utility.yul\":8417:8535   */\n      pop\n        /* \"#utility.yul\":8052:8542   */\n      swap3\n      pop\n      swap3\n      swap1\n      pop\n      jump\t// out\n        /* \"#utility.yul\":8548:8856   */\n    tag_429:\n        /* \"#utility.yul\":8610:8614   */\n      0x00\n        /* \"#utility.yul\":8700:8718   */\n      0xffffffffffffffff\n        /* \"#utility.yul\":8692:8698   */\n      dup3\n        /* \"#utility.yul\":8689:8719   */\n      gt\n        /* \"#utility.yul\":8686:8742   */\n      iszero\n      tag_599\n      jumpi\n        /* \"#utility.yul\":8722:8740   */\n      tag_600\n      tag_409\n      jump\t// in\n    tag_600:\n        /* \"#utility.yul\":8686:8742   */\n    tag_599:\n        /* \"#utility.yul\":8760:8789   */\n      tag_601\n        /* \"#utility.yul\":8782:8788   */\n      dup3\n        /* \"#utility.yul\":8760:8789   */\n      tag_408\n      jump\t// in\n    tag_601:\n        /* \"#utility.yul\":8752:8789   */\n      swap1\n      pop\n        /* \"#utility.yul\":8844:8848   */\n      0x20\n        /* \"#utility.yul\":8838:8842   */\n      dup2\n        /* \"#utility.yul\":8834:8849   */\n      add\n        /* \"#utility.yul\":8826:8849   */\n      swap1\n      pop\n        /* \"#utility.yul\":8548:8856   */\n      swap2\n      swap1\n      pop\n      jump\t// out\n        /* \"#utility.yul\":8862:9287   */\n    tag_430:\n        /* \"#utility.yul\":8940:8945   */\n      0x00\n        /* \"#utility.yul\":8965:9031   */\n      tag_603\n        /* \"#utility.yul\":8981:9030   */\n      tag_604\n        /* \"#utility.yul\":9023:9029   */\n      dup5\n        /* \"#utility.yul\":8981:9030   */\n      tag_429\n      jump\t// in\n    tag_604:\n        /* \"#utility.yul\":8965:9031   */\n      tag_411\n      jump\t// in\n    tag_603:\n        /* \"#utility.yul\":8956:9031   */\n      swap1\n      pop\n        /* \"#utility.yul\":9054:9060   */\n      dup3\n        /* \"#utility.yul\":9047:9052   */\n      dup2\n        /* \"#utility.yul\":9040:9061   */\n      mstore\n        /* \"#utility.yul\":9092:9096   */\n      0x20\n        /* \"#utility.yul\":9085:9090   */\n      dup2\n        /* \"#utility.yul\":9081:9097   */\n      add\n        /* \"#utility.yul\":9130:9133   */\n      dup5\n        /* \"#utility.yul\":9121:9127   */\n      dup5\n        /* \"#utility.yul\":9116:9119   */\n      dup5\n        /* \"#utility.yul\":9112:9128   */\n      add\n        /* \"#utility.yul\":9109:9134   */\n      gt\n        /* \"#utility.yul\":9106:9218   */\n      iszero\n      tag_605\n      jumpi\n        /* \"#utility.yul\":9137:9216   */\n      tag_606\n      tag_407\n      jump\t// in\n    tag_606:\n        /* \"#utility.yul\":9106:9218   */\n    tag_605:\n        /* \"#utility.yul\":9227:9281   */\n      tag_607\n        /* \"#utility.yul\":9274:9280   */\n      dup5\n        /* \"#utility.yul\":9269:9272   */\n      dup3\n        /* \"#utility.yul\":9264:9267   */\n      dup6\n        /* \"#utility.yul\":9227:9281   */\n      tag_413\n      jump\t// in\n    tag_607:\n        /* \"#utility.yul\":8946:9287   */\n      pop\n        /* \"#utility.yul\":8862:9287   */\n      swap4\n      swap3\n      pop\n      pop\n      pop\n      jump\t// out\n        /* \"#utility.yul\":9307:9647   */\n    tag_431:\n        /* \"#utility.yul\":9363:9368   */\n      0x00\n        /* \"#utility.yul\":9412:9415   */\n      dup3\n        /* \"#utility.yul\":9405:9409   */\n      0x1f\n        /* \"#utility.yul\":9397:9403   */\n      dup4\n        /* \"#utility.yul\":9393:9410   */\n      add\n        /* \"#utility.yul\":9389:9416   */\n      slt\n        /* \"#utility.yul\":9379:9501   */\n      tag_609\n      jumpi\n        /* \"#utility.yul\":9420:9499   */\n      tag_610\n      tag_406\n      jump\t// in\n    tag_610:\n        /* \"#utility.yul\":9379:9501   */\n    tag_609:\n        /* \"#utility.yul\":9537:9543   */\n      dup2\n        /* \"#utility.yul\":9524:9544   */\n      calldataload\n        /* \"#utility.yul\":9562:9641   */\n      tag_611\n        /* \"#utility.yul\":9637:9640   */\n      dup5\n        /* \"#utility.yul\":9629:9635   */\n      dup3\n        /* \"#utility.yul\":9622:9626   */\n      0x20\n        /* \"#utility.yul\":9614:9620   */\n      dup7\n        /* \"#utility.yul\":9610:9627   */\n      add\n        /* \"#utility.yul\":9562:9641   */\n      tag_430\n      jump\t// in\n    tag_611:\n        /* \"#utility.yul\":9553:9641   */\n      swap2\n      pop\n        /* \"#utility.yul\":9369:9647   */\n      pop\n        /* \"#utility.yul\":9307:9647   */\n      swap3\n      swap2\n      pop\n      pop\n      jump\t// out\n        /* \"#utility.yul\":9653:10958   */\n    tag_62:\n        /* \"#utility.yul\":9769:9775   */\n      0x00\n        /* \"#utility.yul\":9777:9783   */\n      0x00\n        /* \"#utility.yul\":9785:9791   */\n      0x00\n        /* \"#utility.yul\":9793:9799   */\n      0x00\n        /* \"#utility.yul\":9842:9845   */\n      0x80\n        /* \"#utility.yul\":9830:9839   */\n      dup6\n        /* \"#utility.yul\":9821:9828   */\n      dup8\n        /* \"#utility.yul\":9817:9840   */\n      sub\n        /* \"#utility.yul\":9813:9846   */\n      slt\n        /* \"#utility.yul\":9810:9930   */\n      iszero\n      tag_613\n      jumpi\n        /* \"#utility.yul\":9849:9928   */\n      tag_614\n      tag_397\n      jump\t// in\n    tag_614:\n        /* \"#utility.yul\":9810:9930   */\n    tag_613:\n        /* \"#utility.yul\":9997:9998   */\n      0x00\n        /* \"#utility.yul\":9986:9995   */\n      dup6\n        /* \"#utility.yul\":9982:9999   */\n      add\n        /* \"#utility.yul\":9969:10000   */\n      calldataload\n        /* \"#utility.yul\":10027:10045   */\n      0xffffffffffffffff\n        /* \"#utility.yul\":10019:10025   */\n      dup2\n        /* \"#utility.yul\":10016:10046   */\n      gt\n        /* \"#utility.yul\":10013:10130   */\n      iszero\n      tag_615\n      jumpi\n        /* \"#utility.yul\":10049:10128   */\n      tag_616\n      tag_398\n      jump\t// in\n    tag_616:\n        /* \"#utility.yul\":10013:10130   */\n    tag_615:\n        /* \"#utility.yul\":10154:10217   */\n      tag_617\n        /* \"#utility.yul\":10209:10216   */\n      dup8\n        /* \"#utility.yul\":10200:10206   */\n      dup3\n        /* \"#utility.yul\":10189:10198   */\n      dup9\n        /* \"#utility.yul\":10185:10207   */\n      add\n        /* \"#utility.yul\":10154:10217   */\n      tag_431\n      jump\t// in\n    tag_617:\n        /* \"#utility.yul\":10144:10217   */\n      swap5\n      pop\n        /* \"#utility.yul\":9940:10227   */\n      pop\n        /* \"#utility.yul\":10294:10296   */\n      0x20\n        /* \"#utility.yul\":10283:10292   */\n      dup6\n        /* \"#utility.yul\":10279:10297   */\n      add\n        /* \"#utility.yul\":10266:10298   */\n      calldataload\n        /* \"#utility.yul\":10325:10343   */\n      0xffffffffffffffff\n        /* \"#utility.yul\":10317:10323   */\n      dup2\n        /* \"#utility.yul\":10314:10344   */\n      gt\n        /* \"#utility.yul\":10311:10428   */\n      iszero\n      tag_618\n      jumpi\n        /* \"#utility.yul\":10347:10426   */\n      tag_619\n      tag_398\n      jump\t// in\n    tag_619:\n        /* \"#utility.yul\":10311:10428   */\n    tag_618:\n        /* \"#utility.yul\":10452:10515   */\n      tag_620\n        /* \"#utility.yul\":10507:10514   */\n      dup8\n        /* \"#utility.yul\":10498:10504   */\n      dup3\n        /* \"#utility.yul\":10487:10496   */\n      dup9\n        /* \"#utility.yul\":10483:10505   */\n      add\n        /* \"#utility.yul\":10452:10515   */\n      tag_431\n      jump\t// in\n    tag_620:\n        /* \"#utility.yul\":10442:10515   */\n      swap4\n      pop\n        /* \"#utility.yul\":10237:10525   */\n      pop\n        /* \"#utility.yul\":10592:10594   */\n      0x40\n        /* \"#utility.yul\":10581:10590   */\n      dup6\n        /* \"#utility.yul\":10577:10595   */\n      add\n        /* \"#utility.yul\":10564:10596   */\n      calldataload\n        /* \"#utility.yul\":10623:10641   */\n      0xffffffffffffffff\n        /* \"#utility.yul\":10615:10621   */\n      dup2\n        /* \"#utility.yul\":10612:10642   */\n      gt\n        /* \"#utility.yul\":10609:10726   */\n      iszero\n      tag_621\n      jumpi\n        /* \"#utility.yul\":10645:10724   */\n      tag_622\n      tag_398\n      jump\t// in\n    tag_622:\n        /* \"#utility.yul\":10609:10726   */\n    tag_621:\n        /* \"#utility.yul\":10750:10813   */\n      tag_623\n        /* \"#utility.yul\":10805:10812   */\n      dup8\n        /* \"#utility.yul\":10796:10802   */\n      dup3\n        /* \"#utility.yul\":10785:10794   */\n      dup9\n        /* \"#utility.yul\":10781:10803   */\n      add\n        /* \"#utility.yul\":10750:10813   */\n      tag_431\n      jump\t// in\n    tag_623:\n        /* \"#utility.yul\":10740:10813   */\n      swap3\n      pop\n        /* \"#utility.yul\":10535:10823   */\n      pop\n        /* \"#utility.yul\":10862:10864   */\n      0x60\n        /* \"#utility.yul\":10888:10941   */\n      tag_624\n        /* \"#utility.yul\":10933:10940   */\n      dup8\n        /* \"#utility.yul\":10924:10930   */\n      dup3\n        /* \"#utility.yul\":10913:10922   */\n      dup9\n        /* \"#utility.yul\":10909:10931   */\n      add\n        /* \"#utility.yul\":10888:10941   */\n      tag_419\n      jump\t// in\n    tag_624:\n        /* \"#utility.yul\":10878:10941   */\n      swap2\n      pop\n        /* \"#utility.yul\":10833:10951   */\n      pop\n        /* \"#utility.yul\":9653:10958   */\n      swap3\n      swap6\n      swap2\n      swap5\n      pop\n      swap3\n      pop\n      jump\t// out\n        /* \"#utility.yul\":10964:11186   */\n    tag_65:\n        /* \"#utility.yul\":11057:11061   */\n      0x00\n        /* \"#utility.yul\":11095:11097   */\n      0x20\n        /* \"#utility.yul\":11084:11093   */\n      dup3\n        /* \"#utility.yul\":11080:11098   */\n      add\n        /* \"#utility.yul\":11072:11098   */\n      swap1\n      pop\n        /* \"#utility.yul\":11108:11179   */\n      tag_626\n        /* \"#utility.yul\":11176:11177   */\n      0x00\n        /* \"#utility.yul\":11165:11174   */\n      dup4\n        /* \"#utility.yul\":11161:11178   */\n      add\n        /* \"#utility.yul\":11152:11158   */\n      dup5\n        /* \"#utility.yul\":11108:11179   */\n      tag_421\n      jump\t// in\n    tag_626:\n        /* \"#utility.yul\":10964:11186   */\n      swap3\n      swap2\n      pop\n      pop\n      jump\t// out\n        /* \"#utility.yul\":11192:11521   */\n    tag_72:\n        /* \"#utility.yul\":11251:11257   */\n      0x00\n        /* \"#utility.yul\":11300:11302   */\n      0x20\n        /* \"#utility.yul\":11288:11297   */\n      dup3\n        /* \"#utility.yul\":11279:11286   */\n      dup5\n        /* \"#utility.yul\":11275:11298   */\n      sub\n        /* \"#utility.yul\":11271:11303   */\n      slt\n        /* \"#utility.yul\":11268:11387   */\n      iszero\n      tag_628\n      jumpi\n        /* \"#utility.yul\":11306:11385   */\n      tag_629\n      tag_397\n      jump\t// in\n    tag_629:\n        /* \"#utility.yul\":11268:11387   */\n    tag_628:\n        /* \"#utility.yul\":11426:11427   */\n      0x00\n        /* \"#utility.yul\":11451:11504   */\n      tag_630\n        /* \"#utility.yul\":11496:11503   */\n      dup5\n        /* \"#utility.yul\":11487:11493   */\n      dup3\n        /* \"#utility.yul\":11476:11485   */\n      dup6\n        /* \"#utility.yul\":11472:11494   */\n      add\n        /* \"#utility.yul\":11451:11504   */\n      tag_402\n      jump\t// in\n    tag_630:\n        /* \"#utility.yul\":11441:11504   */\n      swap2\n      pop\n        /* \"#utility.yul\":11397:11514   */\n      pop\n        /* \"#utility.yul\":11192:11521   */\n      swap3\n      swap2\n      pop\n      pop\n      jump\t// out\n        /* \"#utility.yul\":11527:11670   */\n    tag_432:\n        /* \"#utility.yul\":11623:11629   */\n      0x00\n        /* \"#utility.yul\":11657:11662   */\n      dup2\n        /* \"#utility.yul\":11651:11663   */\n      mload\n        /* \"#utility.yul\":11641:11663   */\n      swap1\n      pop\n        /* \"#utility.yul\":11527:11670   */\n      swap2\n      swap1\n      pop\n      jump\t// out\n        /* \"#utility.yul\":11676:11889   */\n    tag_433:\n        /* \"#utility.yul\":11804:11815   */\n      0x00\n        /* \"#utility.yul\":11838:11844   */\n      dup3\n        /* \"#utility.yul\":11833:11836   */\n      dup3\n        /* \"#utility.yul\":11826:11845   */\n      mstore\n        /* \"#utility.yul\":11878:11882   */\n      0x20\n        /* \"#utility.yul\":11873:11876   */\n      dup3\n        /* \"#utility.yul\":11869:11883   */\n      add\n        /* \"#utility.yul\":11854:11883   */\n      swap1\n      pop\n        /* \"#utility.yul\":11676:11889   */\n      swap3\n      swap2\n      pop\n      pop\n      jump\t// out\n        /* \"#utility.yul\":11895:12056   */\n    tag_434:\n        /* \"#utility.yul\":11991:11995   */\n      0x00\n        /* \"#utility.yul\":12014:12017   */\n      dup2\n        /* \"#utility.yul\":12006:12017   */\n      swap1\n      pop\n        /* \"#utility.yul\":12044:12048   */\n      0x20\n        /* \"#utility.yul\":12039:12042   */\n      dup3\n        /* \"#utility.yul\":12035:12049   */\n      add\n        /* \"#utility.yul\":12027:12049   */\n      swap1\n      pop\n        /* \"#utility.yul\":11895:12056   */\n      swap2\n      swap1\n      pop\n      jump\t// out\n        /* \"#utility.yul\":12062:12170   */\n    tag_435:\n        /* \"#utility.yul\":12139:12163   */\n      tag_635\n        /* \"#utility.yul\":12157:12162   */\n      dup2\n        /* \"#utility.yul\":12139:12163   */\n      tag_400\n      jump\t// in\n    tag_635:\n        /* \"#utility.yul\":12134:12137   */\n      dup3\n        /* \"#utility.yul\":12127:12164   */\n      mstore\n        /* \"#utility.yul\":12062:12170   */\n      pop\n      pop\n      jump\t// out\n        /* \"#utility.yul\":12176:12284   */\n    tag_436:\n        /* \"#utility.yul\":12253:12277   */\n      tag_637\n        /* \"#utility.yul\":12271:12276   */\n      dup2\n        /* \"#utility.yul\":12253:12277   */\n      tag_403\n      jump\t// in\n    tag_637:\n        /* \"#utility.yul\":12248:12251   */\n      dup3\n        /* \"#utility.yul\":12241:12278   */\n      mstore\n        /* \"#utility.yul\":12176:12284   */\n      pop\n      pop\n      jump\t// out\n        /* \"#utility.yul\":12290:12398   */\n    tag_437:\n        /* \"#utility.yul\":12367:12391   */\n      tag_639\n        /* \"#utility.yul\":12385:12390   */\n      dup2\n        /* \"#utility.yul\":12367:12391   */\n      tag_394\n      jump\t// in\n    tag_639:\n        /* \"#utility.yul\":12362:12365   */\n      dup3\n        /* \"#utility.yul\":12355:12392   */\n      mstore\n        /* \"#utility.yul\":12290:12398   */\n      pop\n      pop\n      jump\t// out\n        /* \"#utility.yul\":12404:12562   */\n    tag_438:\n        /* \"#utility.yul\":12477:12488   */\n      0x00\n        /* \"#utility.yul\":12511:12517   */\n      dup3\n        /* \"#utility.yul\":12506:12509   */\n      dup3\n        /* \"#utility.yul\":12499:12518   */\n      mstore\n        /* \"#utility.yul\":12551:12555   */\n      0x20\n        /* \"#utility.yul\":12546:12549   */\n      dup3\n        /* \"#utility.yul\":12542:12556   */\n      add\n        /* \"#utility.yul\":12527:12556   */\n      swap1\n      pop\n        /* \"#utility.yul\":12404:12562   */\n      swap3\n      swap2\n      pop\n      pop\n      jump\t// out\n        /* \"#utility.yul\":12568:12921   */\n    tag_439:\n        /* \"#utility.yul\":12644:12647   */\n      0x00\n        /* \"#utility.yul\":12672:12710   */\n      tag_642\n        /* \"#utility.yul\":12704:12709   */\n      dup3\n        /* \"#utility.yul\":12672:12710   */\n      tag_422\n      jump\t// in\n    tag_642:\n        /* \"#utility.yul\":12726:12786   */\n      tag_643\n        /* \"#utility.yul\":12779:12785   */\n      dup2\n        /* \"#utility.yul\":12774:12777   */\n      dup6\n        /* \"#utility.yul\":12726:12786   */\n      tag_438\n      jump\t// in\n    tag_643:\n        /* \"#utility.yul\":12719:12786   */\n      swap4\n      pop\n        /* \"#utility.yul\":12795:12860   */\n      tag_644\n        /* \"#utility.yul\":12853:12859   */\n      dup2\n        /* \"#utility.yul\":12848:12851   */\n      dup6\n        /* \"#utility.yul\":12841:12845   */\n      0x20\n        /* \"#utility.yul\":12834:12839   */\n      dup7\n        /* \"#utility.yul\":12830:12846   */\n      add\n        /* \"#utility.yul\":12795:12860   */\n      tag_424\n      jump\t// in\n    tag_644:\n        /* \"#utility.yul\":12885:12914   */\n      tag_645\n        /* \"#utility.yul\":12907:12913   */\n      dup2\n        /* \"#utility.yul\":12885:12914   */\n      tag_408\n      jump\t// in\n    tag_645:\n        /* \"#utility.yul\":12880:12883   */\n      dup5\n        /* \"#utility.yul\":12876:12915   */\n      add\n        /* \"#utility.yul\":12869:12915   */\n      swap2\n      pop\n        /* \"#utility.yul\":12648:12921   */\n      pop\n        /* \"#utility.yul\":12568:12921   */\n      swap3\n      swap2\n      pop\n      pop\n      jump\t// out\n        /* \"#utility.yul\":12995:14126   */\n    tag_440:\n        /* \"#utility.yul\":13112:13115   */\n      0x00\n        /* \"#utility.yul\":13148:13152   */\n      0xa0\n        /* \"#utility.yul\":13143:13146   */\n      dup4\n        /* \"#utility.yul\":13139:13153   */\n      add\n        /* \"#utility.yul\":13237:13241   */\n      0x00\n        /* \"#utility.yul\":13230:13235   */\n      dup4\n        /* \"#utility.yul\":13226:13242   */\n      add\n        /* \"#utility.yul\":13220:13243   */\n      mload\n        /* \"#utility.yul\":13256:13319   */\n      tag_647\n        /* \"#utility.yul\":13313:13317   */\n      0x00\n        /* \"#utility.yul\":13308:13311   */\n      dup7\n        /* \"#utility.yul\":13304:13318   */\n      add\n        /* \"#utility.yul\":13290:13302   */\n      dup3\n        /* \"#utility.yul\":13256:13319   */\n      tag_435\n      jump\t// in\n    tag_647:\n        /* \"#utility.yul\":13163:13329   */\n      pop\n        /* \"#utility.yul\":13414:13418   */\n      0x20\n        /* \"#utility.yul\":13407:13412   */\n      dup4\n        /* \"#utility.yul\":13403:13419   */\n      add\n        /* \"#utility.yul\":13397:13420   */\n      mload\n        /* \"#utility.yul\":13433:13496   */\n      tag_648\n        /* \"#utility.yul\":13490:13494   */\n      0x20\n        /* \"#utility.yul\":13485:13488   */\n      dup7\n        /* \"#utility.yul\":13481:13495   */\n      add\n        /* \"#utility.yul\":13467:13479   */\n      dup3\n        /* \"#utility.yul\":13433:13496   */\n      tag_436\n      jump\t// in\n    tag_648:\n        /* \"#utility.yul\":13339:13506   */\n      pop\n        /* \"#utility.yul\":13589:13593   */\n      0x40\n        /* \"#utility.yul\":13582:13587   */\n      dup4\n        /* \"#utility.yul\":13578:13594   */\n      add\n        /* \"#utility.yul\":13572:13595   */\n      mload\n        /* \"#utility.yul\":13608:13671   */\n      tag_649\n        /* \"#utility.yul\":13665:13669   */\n      0x40\n        /* \"#utility.yul\":13660:13663   */\n      dup7\n        /* \"#utility.yul\":13656:13670   */\n      add\n        /* \"#utility.yul\":13642:13654   */\n      dup3\n        /* \"#utility.yul\":13608:13671   */\n      tag_437\n      jump\t// in\n    tag_649:\n        /* \"#utility.yul\":13516:13681   */\n      pop\n        /* \"#utility.yul\":13766:13770   */\n      0x60\n        /* \"#utility.yul\":13759:13764   */\n      dup4\n        /* \"#utility.yul\":13755:13771   */\n      add\n        /* \"#utility.yul\":13749:13772   */\n      mload\n        /* \"#utility.yul\":13819:13822   */\n      dup5\n        /* \"#utility.yul\":13813:13817   */\n      dup3\n        /* \"#utility.yul\":13809:13823   */\n      sub\n        /* \"#utility.yul\":13802:13806   */\n      0x60\n        /* \"#utility.yul\":13797:13800   */\n      dup7\n        /* \"#utility.yul\":13793:13807   */\n      add\n        /* \"#utility.yul\":13786:13824   */\n      mstore\n        /* \"#utility.yul\":13845:13916   */\n      tag_650\n        /* \"#utility.yul\":13911:13915   */\n      dup3\n        /* \"#utility.yul\":13897:13909   */\n      dup3\n        /* \"#utility.yul\":13845:13916   */\n      tag_439\n      jump\t// in\n    tag_650:\n        /* \"#utility.yul\":13837:13916   */\n      swap2\n      pop\n        /* \"#utility.yul\":13691:13927   */\n      pop\n        /* \"#utility.yul\":14007:14011   */\n      0x80\n        /* \"#utility.yul\":14000:14005   */\n      dup4\n        /* \"#utility.yul\":13996:14012   */\n      add\n        /* \"#utility.yul\":13990:14013   */\n      mload\n        /* \"#utility.yul\":14026:14089   */\n      tag_651\n        /* \"#utility.yul\":14083:14087   */\n      0x80\n        /* \"#utility.yul\":14078:14081   */\n      dup7\n        /* \"#utility.yul\":14074:14088   */\n      add\n        /* \"#utility.yul\":14060:14072   */\n      dup3\n        /* \"#utility.yul\":14026:14089   */\n      tag_437\n      jump\t// in\n    tag_651:\n        /* \"#utility.yul\":13937:14099   */\n      pop\n        /* \"#utility.yul\":14116:14120   */\n      dup1\n        /* \"#utility.yul\":14109:14120   */\n      swap2\n      pop\n        /* \"#utility.yul\":13117:14126   */\n      pop\n        /* \"#utility.yul\":12995:14126   */\n      swap3\n      swap2\n      pop\n      pop\n      jump\t// out\n        /* \"#utility.yul\":14132:14404   */\n    tag_441:\n        /* \"#utility.yul\":14259:14269   */\n      0x00\n        /* \"#utility.yul\":14294:14398   */\n      tag_653\n        /* \"#utility.yul\":14394:14397   */\n      dup4\n        /* \"#utility.yul\":14386:14392   */\n      dup4\n        /* \"#utility.yul\":14294:14398   */\n      tag_440\n      jump\t// in\n    tag_653:\n        /* \"#utility.yul\":14280:14398   */\n      swap1\n      pop\n        /* \"#utility.yul\":14132:14404   */\n      swap3\n      swap2\n      pop\n      pop\n      jump\t// out\n        /* \"#utility.yul\":14410:14552   */\n    tag_442:\n        /* \"#utility.yul\":14509:14513   */\n      0x00\n        /* \"#utility.yul\":14541:14545   */\n      0x20\n        /* \"#utility.yul\":14536:14539   */\n      dup3\n        /* \"#utility.yul\":14532:14546   */\n      add\n        /* \"#utility.yul\":14524:14546   */\n      swap1\n      pop\n        /* \"#utility.yul\":14410:14552   */\n      swap2\n      swap1\n      pop\n      jump\t// out\n        /* \"#utility.yul\":14630:15773   */\n    tag_443:\n        /* \"#utility.yul\":14807:14810   */\n      0x00\n        /* \"#utility.yul\":14836:14919   */\n      tag_656\n        /* \"#utility.yul\":14913:14918   */\n      dup3\n        /* \"#utility.yul\":14836:14919   */\n      tag_432\n      jump\t// in\n    tag_656:\n        /* \"#utility.yul\":14935:15050   */\n      tag_657\n        /* \"#utility.yul\":15043:15049   */\n      dup2\n        /* \"#utility.yul\":15038:15041   */\n      dup6\n        /* \"#utility.yul\":14935:15050   */\n      tag_433\n      jump\t// in\n    tag_657:\n        /* \"#utility.yul\":14928:15050   */\n      swap4\n      pop\n        /* \"#utility.yul\":15076:15079   */\n      dup4\n        /* \"#utility.yul\":15121:15125   */\n      0x20\n        /* \"#utility.yul\":15113:15119   */\n      dup3\n        /* \"#utility.yul\":15109:15126   */\n      mul\n        /* \"#utility.yul\":15104:15107   */\n      dup6\n        /* \"#utility.yul\":15100:15127   */\n      add\n        /* \"#utility.yul\":15151:15236   */\n      tag_658\n        /* \"#utility.yul\":15230:15235   */\n      dup6\n        /* \"#utility.yul\":15151:15236   */\n      tag_434\n      jump\t// in\n    tag_658:\n        /* \"#utility.yul\":15259:15266   */\n      dup1\n        /* \"#utility.yul\":15290:15291   */\n      0x00\n        /* \"#utility.yul\":15275:15728   */\n    tag_659:\n        /* \"#utility.yul\":15300:15306   */\n      dup6\n        /* \"#utility.yul\":15297:15298   */\n      dup2\n        /* \"#utility.yul\":15294:15307   */\n      lt\n        /* \"#utility.yul\":15275:15728   */\n      iszero\n      tag_661\n      jumpi\n        /* \"#utility.yul\":15371:15380   */\n      dup5\n        /* \"#utility.yul\":15365:15369   */\n      dup5\n        /* \"#utility.yul\":15361:15381   */\n      sub\n        /* \"#utility.yul\":15356:15359   */\n      dup10\n        /* \"#utility.yul\":15349:15382   */\n      mstore\n        /* \"#utility.yul\":15422:15428   */\n      dup2\n        /* \"#utility.yul\":15416:15429   */\n      mload\n        /* \"#utility.yul\":15450:15572   */\n      tag_662\n        /* \"#utility.yul\":15567:15571   */\n      dup6\n        /* \"#utility.yul\":15552:15565   */\n      dup3\n        /* \"#utility.yul\":15450:15572   */\n      tag_441\n      jump\t// in\n    tag_662:\n        /* \"#utility.yul\":15442:15572   */\n      swap5\n      pop\n        /* \"#utility.yul\":15595:15684   */\n      tag_663\n        /* \"#utility.yul\":15677:15683   */\n      dup4\n        /* \"#utility.yul\":15595:15684   */\n      tag_442\n      jump\t// in\n    tag_663:\n        /* \"#utility.yul\":15585:15684   */\n      swap3\n      pop\n        /* \"#utility.yul\":15713:15717   */\n      0x20\n        /* \"#utility.yul\":15708:15711   */\n      dup11\n        /* \"#utility.yul\":15704:15718   */\n      add\n        /* \"#utility.yul\":15697:15718   */\n      swap10\n      pop\n        /* \"#utility.yul\":15335:15728   */\n      pop\n        /* \"#utility.yul\":15322:15323   */\n      0x01\n        /* \"#utility.yul\":15319:15320   */\n      dup2\n        /* \"#utility.yul\":15315:15324   */\n      add\n        /* \"#utility.yul\":15310:15324   */\n      swap1\n      pop\n        /* \"#utility.yul\":15275:15728   */\n      jump(tag_659)\n    tag_661:\n        /* \"#utility.yul\":15279:15293   */\n      pop\n        /* \"#utility.yul\":15744:15748   */\n      dup3\n        /* \"#utility.yul\":15737:15748   */\n      swap8\n      pop\n        /* \"#utility.yul\":15764:15767   */\n      dup8\n        /* \"#utility.yul\":15757:15767   */\n      swap6\n      pop\n        /* \"#utility.yul\":14812:15773   */\n      pop\n      pop\n      pop\n      pop\n      pop\n        /* \"#utility.yul\":14630:15773   */\n      swap3\n      swap2\n      pop\n      pop\n      jump\t// out\n        /* \"#utility.yul\":15779:16268   */\n    tag_75:\n        /* \"#utility.yul\":15980:15984   */\n      0x00\n        /* \"#utility.yul\":16018:16020   */\n      0x20\n        /* \"#utility.yul\":16007:16016   */\n      dup3\n        /* \"#utility.yul\":16003:16021   */\n      add\n        /* \"#utility.yul\":15995:16021   */\n      swap1\n      pop\n        /* \"#utility.yul\":16067:16076   */\n      dup2\n        /* \"#utility.yul\":16061:16065   */\n      dup2\n        /* \"#utility.yul\":16057:16077   */\n      sub\n        /* \"#utility.yul\":16053:16054   */\n      0x00\n        /* \"#utility.yul\":16042:16051   */\n      dup4\n        /* \"#utility.yul\":16038:16055   */\n      add\n        /* \"#utility.yul\":16031:16078   */\n      mstore\n        /* \"#utility.yul\":16095:16261   */\n      tag_665\n        /* \"#utility.yul\":16256:16260   */\n      dup2\n        /* \"#utility.yul\":16247:16253   */\n      dup5\n        /* \"#utility.yul\":16095:16261   */\n      tag_443\n      jump\t// in\n    tag_665:\n        /* \"#utility.yul\":16087:16261   */\n      swap1\n      pop\n        /* \"#utility.yul\":15779:16268   */\n      swap3\n      swap2\n      pop\n      pop\n      jump\t// out\n        /* \"#utility.yul\":16274:16496   */\n    tag_87:\n        /* \"#utility.yul\":16367:16371   */\n      0x00\n        /* \"#utility.yul\":16405:16407   */\n      0x20\n        /* \"#utility.yul\":16394:16403   */\n      dup3\n        /* \"#utility.yul\":16390:16408   */\n      add\n        /* \"#utility.yul\":16382:16408   */\n      swap1\n      pop\n        /* \"#utility.yul\":16418:16489   */\n      tag_667\n        /* \"#utility.yul\":16486:16487   */\n      0x00\n        /* \"#utility.yul\":16475:16484   */\n      dup4\n        /* \"#utility.yul\":16471:16488   */\n      add\n        /* \"#utility.yul\":16462:16468   */\n      dup5\n        /* \"#utility.yul\":16418:16489   */\n      tag_420\n      jump\t// in\n    tag_667:\n        /* \"#utility.yul\":16274:16496   */\n      swap3\n      swap2\n      pop\n      pop\n      jump\t// out\n        /* \"#utility.yul\":16502:16588   */\n    tag_444:\n        /* \"#utility.yul\":16537:16544   */\n      0x00\n        /* \"#utility.yul\":16577:16581   */\n      0xff\n        /* \"#utility.yul\":16570:16575   */\n      dup3\n        /* \"#utility.yul\":16566:16582   */\n      and\n        /* \"#utility.yul\":16555:16582   */\n      swap1\n      pop\n        /* \"#utility.yul\":16502:16588   */\n      swap2\n      swap1\n      pop\n      jump\t// out\n        /* \"#utility.yul\":16594:16712   */\n    tag_445:\n        /* \"#utility.yul\":16665:16687   */\n      tag_670\n        /* \"#utility.yul\":16681:16686   */\n      dup2\n        /* \"#utility.yul\":16665:16687   */\n      tag_444\n      jump\t// in\n    tag_670:\n        /* \"#utility.yul\":16658:16663   */\n      dup2\n        /* \"#utility.yul\":16655:16688   */\n      eq\n        /* \"#utility.yul\":16645:16706   */\n      tag_671\n      jumpi\n        /* \"#utility.yul\":16702:16703   */\n      0x00\n        /* \"#utility.yul\":16699:16700   */\n      0x00\n        /* \"#utility.yul\":16692:16704   */\n      revert\n        /* \"#utility.yul\":16645:16706   */\n    tag_671:\n        /* \"#utility.yul\":16594:16712   */\n      pop\n      jump\t// out\n        /* \"#utility.yul\":16718:16853   */\n    tag_446:\n        /* \"#utility.yul\":16762:16767   */\n      0x00\n        /* \"#utility.yul\":16800:16806   */\n      dup2\n        /* \"#utility.yul\":16787:16807   */\n      calldataload\n        /* \"#utility.yul\":16778:16807   */\n      swap1\n      pop\n        /* \"#utility.yul\":16816:16847   */\n      tag_673\n        /* \"#utility.yul\":16841:16846   */\n      dup2\n        /* \"#utility.yul\":16816:16847   */\n      tag_445\n      jump\t// in\n    tag_673:\n        /* \"#utility.yul\":16718:16853   */\n      swap3\n      swap2\n      pop\n      pop\n      jump\t// out\n        /* \"#utility.yul\":16859:17184   */\n    tag_91:\n        /* \"#utility.yul\":16916:16922   */\n      0x00\n        /* \"#utility.yul\":16965:16967   */\n      0x20\n        /* \"#utility.yul\":16953:16962   */\n      dup3\n        /* \"#utility.yul\":16944:16951   */\n      dup5\n        /* \"#utility.yul\":16940:16963   */\n      sub\n        /* \"#utility.yul\":16936:16968   */\n      slt\n        /* \"#utility.yul\":16933:17052   */\n      iszero\n      tag_675\n      jumpi\n        /* \"#utility.yul\":16971:17050   */\n      tag_676\n      tag_397\n      jump\t// in\n    tag_676:\n        /* \"#utility.yul\":16933:17052   */\n    tag_675:\n        /* \"#utility.yul\":17091:17092   */\n      0x00\n        /* \"#utility.yul\":17116:17167   */\n      tag_677\n        /* \"#utility.yul\":17159:17166   */\n      dup5\n        /* \"#utility.yul\":17150:17156   */\n      dup3\n        /* \"#utility.yul\":17139:17148   */\n      dup6\n        /* \"#utility.yul\":17135:17157   */\n      add\n        /* \"#utility.yul\":17116:17167   */\n      tag_446\n      jump\t// in\n    tag_677:\n        /* \"#utility.yul\":17106:17167   */\n      swap2\n      pop\n        /* \"#utility.yul\":17062:17177   */\n      pop\n        /* \"#utility.yul\":16859:17184   */\n      swap3\n      swap2\n      pop\n      pop\n      jump\t// out\n        /* \"#utility.yul\":17190:17333   */\n    tag_447:\n        /* \"#utility.yul\":17286:17292   */\n      0x00\n        /* \"#utility.yul\":17320:17325   */\n      dup2\n        /* \"#utility.yul\":17314:17326   */\n      mload\n        /* \"#utility.yul\":17304:17326   */\n      swap1\n      pop\n        /* \"#utility.yul\":17190:17333   */\n      swap2\n      swap1\n      pop\n      jump\t// out\n        /* \"#utility.yul\":17339:17552   */\n    tag_448:\n        /* \"#utility.yul\":17467:17478   */\n      0x00\n        /* \"#utility.yul\":17501:17507   */\n      dup3\n        /* \"#utility.yul\":17496:17499   */\n      dup3\n        /* \"#utility.yul\":17489:17508   */\n      mstore\n        /* \"#utility.yul\":17541:17545   */\n      0x20\n        /* \"#utility.yul\":17536:17539   */\n      dup3\n        /* \"#utility.yul\":17532:17546   */\n      add\n        /* \"#utility.yul\":17517:17546   */\n      swap1\n      pop\n        /* \"#utility.yul\":17339:17552   */\n      swap3\n      swap2\n      pop\n      pop\n      jump\t// out\n        /* \"#utility.yul\":17558:17719   */\n    tag_449:\n        /* \"#utility.yul\":17654:17658   */\n      0x00\n        /* \"#utility.yul\":17677:17680   */\n      dup2\n        /* \"#utility.yul\":17669:17680   */\n      swap1\n      pop\n        /* \"#utility.yul\":17707:17711   */\n      0x20\n        /* \"#utility.yul\":17702:17705   */\n      dup3\n        /* \"#utility.yul\":17698:17712   */\n      add\n        /* \"#utility.yul\":17690:17712   */\n      swap1\n      pop\n        /* \"#utility.yul\":17558:17719   */\n      swap2\n      swap1\n      pop\n      jump\t// out\n        /* \"#utility.yul\":17725:17824   */\n    tag_450:\n        /* \"#utility.yul\":17777:17783   */\n      0x00\n        /* \"#utility.yul\":17811:17816   */\n      dup2\n        /* \"#utility.yul\":17805:17817   */\n      mload\n        /* \"#utility.yul\":17795:17817   */\n      swap1\n      pop\n        /* \"#utility.yul\":17725:17824   */\n      swap2\n      swap1\n      pop\n      jump\t// out\n        /* \"#utility.yul\":17830:17989   */\n    tag_451:\n        /* \"#utility.yul\":17904:17915   */\n      0x00\n        /* \"#utility.yul\":17938:17944   */\n      dup3\n        /* \"#utility.yul\":17933:17936   */\n      dup3\n        /* \"#utility.yul\":17926:17945   */\n      mstore\n        /* \"#utility.yul\":17978:17982   */\n      0x20\n        /* \"#utility.yul\":17973:17976   */\n      dup3\n        /* \"#utility.yul\":17969:17983   */\n      add\n        /* \"#utility.yul\":17954:17983   */\n      swap1\n      pop\n        /* \"#utility.yul\":17830:17989   */\n      swap3\n      swap2\n      pop\n      pop\n      jump\t// out\n        /* \"#utility.yul\":17995:18352   */\n    tag_452:\n        /* \"#utility.yul\":18073:18076   */\n      0x00\n        /* \"#utility.yul\":18101:18140   */\n      tag_684\n        /* \"#utility.yul\":18134:18139   */\n      dup3\n        /* \"#utility.yul\":18101:18140   */\n      tag_450\n      jump\t// in\n    tag_684:\n        /* \"#utility.yul\":18156:18217   */\n      tag_685\n        /* \"#utility.yul\":18210:18216   */\n      dup2\n        /* \"#utility.yul\":18205:18208   */\n      dup6\n        /* \"#utility.yul\":18156:18217   */\n      tag_451\n      jump\t// in\n    tag_685:\n        /* \"#utility.yul\":18149:18217   */\n      swap4\n      pop\n        /* \"#utility.yul\":18226:18291   */\n      tag_686\n        /* \"#utility.yul\":18284:18290   */\n      dup2\n        /* \"#utility.yul\":18279:18282   */\n      dup6\n        /* \"#utility.yul\":18272:18276   */\n      0x20\n        /* \"#utility.yul\":18265:18270   */\n      dup7\n        /* \"#utility.yul\":18261:18277   */\n      add\n        /* \"#utility.yul\":18226:18291   */\n      tag_424\n      jump\t// in\n    tag_686:\n        /* \"#utility.yul\":18316:18345   */\n      tag_687\n        /* \"#utility.yul\":18338:18344   */\n      dup2\n        /* \"#utility.yul\":18316:18345   */\n      tag_408\n      jump\t// in\n    tag_687:\n        /* \"#utility.yul\":18311:18314   */\n      dup5\n        /* \"#utility.yul\":18307:18346   */\n      add\n        /* \"#utility.yul\":18300:18346   */\n      swap2\n      pop\n        /* \"#utility.yul\":18077:18352   */\n      pop\n        /* \"#utility.yul\":17995:18352   */\n      swap3\n      swap2\n      pop\n      pop\n      jump\t// out\n        /* \"#utility.yul\":18358:18457   */\n    tag_453:\n        /* \"#utility.yul\":18429:18450   */\n      tag_689\n        /* \"#utility.yul\":18444:18449   */\n      dup2\n        /* \"#utility.yul\":18429:18450   */\n      tag_416\n      jump\t// in\n    tag_689:\n        /* \"#utility.yul\":18424:18427   */\n      dup3\n        /* \"#utility.yul\":18417:18451   */\n      mstore\n        /* \"#utility.yul\":18358:18457   */\n      pop\n      pop\n      jump\t// out\n        /* \"#utility.yul\":18531:19978   */\n    tag_454:\n        /* \"#utility.yul\":18648:18651   */\n      0x00\n        /* \"#utility.yul\":18684:18688   */\n      0xc0\n        /* \"#utility.yul\":18679:18682   */\n      dup4\n        /* \"#utility.yul\":18675:18689   */\n      add\n        /* \"#utility.yul\":18774:18778   */\n      0x00\n        /* \"#utility.yul\":18767:18772   */\n      dup4\n        /* \"#utility.yul\":18763:18779   */\n      add\n        /* \"#utility.yul\":18757:18780   */\n      mload\n        /* \"#utility.yul\":18793:18856   */\n      tag_691\n        /* \"#utility.yul\":18850:18854   */\n      0x00\n        /* \"#utility.yul\":18845:18848   */\n      dup7\n        /* \"#utility.yul\":18841:18855   */\n      add\n        /* \"#utility.yul\":18827:18839   */\n      dup3\n        /* \"#utility.yul\":18793:18856   */\n      tag_436\n      jump\t// in\n    tag_691:\n        /* \"#utility.yul\":18699:18866   */\n      pop\n        /* \"#utility.yul\":18952:18956   */\n      0x20\n        /* \"#utility.yul\":18945:18950   */\n      dup4\n        /* \"#utility.yul\":18941:18957   */\n      add\n        /* \"#utility.yul\":18935:18958   */\n      mload\n        /* \"#utility.yul\":19005:19008   */\n      dup5\n        /* \"#utility.yul\":18999:19003   */\n      dup3\n        /* \"#utility.yul\":18995:19009   */\n      sub\n        /* \"#utility.yul\":18988:18992   */\n      0x20\n        /* \"#utility.yul\":18983:18986   */\n      dup7\n        /* \"#utility.yul\":18979:18993   */\n      add\n        /* \"#utility.yul\":18972:19010   */\n      mstore\n        /* \"#utility.yul\":19031:19104   */\n      tag_692\n        /* \"#utility.yul\":19099:19103   */\n      dup3\n        /* \"#utility.yul\":19085:19097   */\n      dup3\n        /* \"#utility.yul\":19031:19104   */\n      tag_452\n      jump\t// in\n    tag_692:\n        /* \"#utility.yul\":19023:19104   */\n      swap2\n      pop\n        /* \"#utility.yul\":18876:19115   */\n      pop\n        /* \"#utility.yul\":19197:19201   */\n      0x40\n        /* \"#utility.yul\":19190:19195   */\n      dup4\n        /* \"#utility.yul\":19186:19202   */\n      add\n        /* \"#utility.yul\":19180:19203   */\n      mload\n        /* \"#utility.yul\":19250:19253   */\n      dup5\n        /* \"#utility.yul\":19244:19248   */\n      dup3\n        /* \"#utility.yul\":19240:19254   */\n      sub\n        /* \"#utility.yul\":19233:19237   */\n      0x40\n        /* \"#utility.yul\":19228:19231   */\n      dup7\n        /* \"#utility.yul\":19224:19238   */\n      add\n        /* \"#utility.yul\":19217:19255   */\n      mstore\n        /* \"#utility.yul\":19276:19349   */\n      tag_693\n        /* \"#utility.yul\":19344:19348   */\n      dup3\n        /* \"#utility.yul\":19330:19342   */\n      dup3\n        /* \"#utility.yul\":19276:19349   */\n      tag_452\n      jump\t// in\n    tag_693:\n        /* \"#utility.yul\":19268:19349   */\n      swap2\n      pop\n        /* \"#utility.yul\":19125:19360   */\n      pop\n        /* \"#utility.yul\":19443:19447   */\n      0x60\n        /* \"#utility.yul\":19436:19441   */\n      dup4\n        /* \"#utility.yul\":19432:19448   */\n      add\n        /* \"#utility.yul\":19426:19449   */\n      mload\n        /* \"#utility.yul\":19496:19499   */\n      dup5\n        /* \"#utility.yul\":19490:19494   */\n      dup3\n        /* \"#utility.yul\":19486:19500   */\n      sub\n        /* \"#utility.yul\":19479:19483   */\n      0x60\n        /* \"#utility.yul\":19474:19477   */\n      dup7\n        /* \"#utility.yul\":19470:19484   */\n      add\n        /* \"#utility.yul\":19463:19501   */\n      mstore\n        /* \"#utility.yul\":19522:19595   */\n      tag_694\n        /* \"#utility.yul\":19590:19594   */\n      dup3\n        /* \"#utility.yul\":19576:19588   */\n      dup3\n        /* \"#utility.yul\":19522:19595   */\n      tag_452\n      jump\t// in\n    tag_694:\n        /* \"#utility.yul\":19514:19595   */\n      swap2\n      pop\n        /* \"#utility.yul\":19370:19606   */\n      pop\n        /* \"#utility.yul\":19689:19693   */\n      0x80\n        /* \"#utility.yul\":19682:19687   */\n      dup4\n        /* \"#utility.yul\":19678:19694   */\n      add\n        /* \"#utility.yul\":19672:19695   */\n      mload\n        /* \"#utility.yul\":19708:19771   */\n      tag_695\n        /* \"#utility.yul\":19765:19769   */\n      0x80\n        /* \"#utility.yul\":19760:19763   */\n      dup7\n        /* \"#utility.yul\":19756:19770   */\n      add\n        /* \"#utility.yul\":19742:19754   */\n      dup3\n        /* \"#utility.yul\":19708:19771   */\n      tag_437\n      jump\t// in\n    tag_695:\n        /* \"#utility.yul\":19616:19781   */\n      pop\n        /* \"#utility.yul\":19865:19869   */\n      0xa0\n        /* \"#utility.yul\":19858:19863   */\n      dup4\n        /* \"#utility.yul\":19854:19870   */\n      add\n        /* \"#utility.yul\":19848:19871   */\n      mload\n        /* \"#utility.yul\":19884:19941   */\n      tag_696\n        /* \"#utility.yul\":19935:19939   */\n      0xa0\n        /* \"#utility.yul\":19930:19933   */\n      dup7\n        /* \"#utility.yul\":19926:19940   */\n      add\n        /* \"#utility.yul\":19912:19924   */\n      dup3\n        /* \"#utility.yul\":19884:19941   */\n      tag_453\n      jump\t// in\n    tag_696:\n        /* \"#utility.yul\":19791:19951   */\n      pop\n        /* \"#utility.yul\":19968:19972   */\n      dup1\n        /* \"#utility.yul\":19961:19972   */\n      swap2\n      pop\n        /* \"#utility.yul\":18653:19978   */\n      pop\n        /* \"#utility.yul\":18531:19978   */\n      swap3\n      swap2\n      pop\n      pop\n      jump\t// out\n        /* \"#utility.yul\":19984:20256   */\n    tag_455:\n        /* \"#utility.yul\":20111:20121   */\n      0x00\n        /* \"#utility.yul\":20146:20250   */\n      tag_698\n        /* \"#utility.yul\":20246:20249   */\n      dup4\n        /* \"#utility.yul\":20238:20244   */\n      dup4\n        /* \"#utility.yul\":20146:20250   */\n      tag_454\n      jump\t// in\n    tag_698:\n        /* \"#utility.yul\":20132:20250   */\n      swap1\n      pop\n        /* \"#utility.yul\":19984:20256   */\n      swap3\n      swap2\n      pop\n      pop\n      jump\t// out\n        /* \"#utility.yul\":20262:20404   */\n    tag_456:\n        /* \"#utility.yul\":20361:20365   */\n      0x00\n        /* \"#utility.yul\":20393:20397   */\n      0x20\n        /* \"#utility.yul\":20388:20391   */\n      dup3\n        /* \"#utility.yul\":20384:20398   */\n      add\n        /* \"#utility.yul\":20376:20398   */\n      swap1\n      pop\n        /* \"#utility.yul\":20262:20404   */\n      swap2\n      swap1\n      pop\n      jump\t// out\n        /* \"#utility.yul\":20482:21625   */\n    tag_457:\n        /* \"#utility.yul\":20659:20662   */\n      0x00\n        /* \"#utility.yul\":20688:20771   */\n      tag_701\n        /* \"#utility.yul\":20765:20770   */\n      dup3\n        /* \"#utility.yul\":20688:20771   */\n      tag_447\n      jump\t// in\n    tag_701:\n        /* \"#utility.yul\":20787:20902   */\n      tag_702\n        /* \"#utility.yul\":20895:20901   */\n      dup2\n        /* \"#utility.yul\":20890:20893   */\n      dup6\n        /* \"#utility.yul\":20787:20902   */\n      tag_448\n      jump\t// in\n    tag_702:\n        /* \"#utility.yul\":20780:20902   */\n      swap4\n      pop\n        /* \"#utility.yul\":20928:20931   */\n      dup4\n        /* \"#utility.yul\":20973:20977   */\n      0x20\n        /* \"#utility.yul\":20965:20971   */\n      dup3\n        /* \"#utility.yul\":20961:20978   */\n      mul\n        /* \"#utility.yul\":20956:20959   */\n      dup6\n        /* \"#utility.yul\":20952:20979   */\n      add\n        /* \"#utility.yul\":21003:21088   */\n      tag_703\n        /* \"#utility.yul\":21082:21087   */\n      dup6\n        /* \"#utility.yul\":21003:21088   */\n      tag_449\n      jump\t// in\n    tag_703:\n        /* \"#utility.yul\":21111:21118   */\n      dup1\n        /* \"#utility.yul\":21142:21143   */\n      0x00\n        /* \"#utility.yul\":21127:21580   */\n    tag_704:\n        /* \"#utility.yul\":21152:21158   */\n      dup6\n        /* \"#utility.yul\":21149:21150   */\n      dup2\n        /* \"#utility.yul\":21146:21159   */\n      lt\n        /* \"#utility.yul\":21127:21580   */\n      iszero\n      tag_706\n      jumpi\n        /* \"#utility.yul\":21223:21232   */\n      dup5\n        /* \"#utility.yul\":21217:21221   */\n      dup5\n        /* \"#utility.yul\":21213:21233   */\n      sub\n        /* \"#utility.yul\":21208:21211   */\n      dup10\n        /* \"#utility.yul\":21201:21234   */\n      mstore\n        /* \"#utility.yul\":21274:21280   */\n      dup2\n        /* \"#utility.yul\":21268:21281   */\n      mload\n        /* \"#utility.yul\":21302:21424   */\n      tag_707\n        /* \"#utility.yul\":21419:21423   */\n      dup6\n        /* \"#utility.yul\":21404:21417   */\n      dup3\n        /* \"#utility.yul\":21302:21424   */\n      tag_455\n      jump\t// in\n    tag_707:\n        /* \"#utility.yul\":21294:21424   */\n      swap5\n      pop\n        /* \"#utility.yul\":21447:21536   */\n      tag_708\n        /* \"#utility.yul\":21529:21535   */\n      dup4\n        /* \"#utility.yul\":21447:21536   */\n      tag_456\n      jump\t// in\n    tag_708:\n        /* \"#utility.yul\":21437:21536   */\n      swap3\n      pop\n        /* \"#utility.yul\":21565:21569   */\n      0x20\n        /* \"#utility.yul\":21560:21563   */\n      dup11\n        /* \"#utility.yul\":21556:21570   */\n      add\n        /* \"#utility.yul\":21549:21570   */\n      swap10\n      pop\n        /* \"#utility.yul\":21187:21580   */\n      pop\n        /* \"#utility.yul\":21174:21175   */\n      0x01\n        /* \"#utility.yul\":21171:21172   */\n      dup2\n        /* \"#utility.yul\":21167:21176   */\n      add\n        /* \"#utility.yul\":21162:21176   */\n      swap1\n      pop\n        /* \"#utility.yul\":21127:21580   */\n      jump(tag_704)\n    tag_706:\n        /* \"#utility.yul\":21131:21145   */\n      pop\n        /* \"#utility.yul\":21596:21600   */\n      dup3\n        /* \"#utility.yul\":21589:21600   */\n      swap8\n      pop\n        /* \"#utility.yul\":21616:21619   */\n      dup8\n        /* \"#utility.yul\":21609:21619   */\n      swap6\n      pop\n        /* \"#utility.yul\":20664:21625   */\n      pop\n      pop\n      pop\n      pop\n      pop\n        /* \"#utility.yul\":20482:21625   */\n      swap3\n      swap2\n      pop\n      pop\n      jump\t// out\n        /* \"#utility.yul\":21631:22120   */\n    tag_97:\n        /* \"#utility.yul\":21832:21836   */\n      0x00\n        /* \"#utility.yul\":21870:21872   */\n      0x20\n        /* \"#utility.yul\":21859:21868   */\n      dup3\n        /* \"#utility.yul\":21855:21873   */\n      add\n        /* \"#utility.yul\":21847:21873   */\n      swap1\n      pop\n        /* \"#utility.yul\":21919:21928   */\n      dup2\n        /* \"#utility.yul\":21913:21917   */\n      dup2\n        /* \"#utility.yul\":21909:21929   */\n      sub\n        /* \"#utility.yul\":21905:21906   */\n      0x00\n        /* \"#utility.yul\":21894:21903   */\n      dup4\n        /* \"#utility.yul\":21890:21907   */\n      add\n        /* \"#utility.yul\":21883:21930   */\n      mstore\n        /* \"#utility.yul\":21947:22113   */\n      tag_710\n        /* \"#utility.yul\":22108:22112   */\n      dup2\n        /* \"#utility.yul\":22099:22105   */\n      dup5\n        /* \"#utility.yul\":21947:22113   */\n      tag_457\n      jump\t// in\n    tag_710:\n        /* \"#utility.yul\":21939:22113   */\n      swap1\n      pop\n        /* \"#utility.yul\":21631:22120   */\n      swap3\n      swap2\n      pop\n      pop\n      jump\t// out\n        /* \"#utility.yul\":22126:22242   */\n    tag_458:\n        /* \"#utility.yul\":22196:22217   */\n      tag_712\n        /* \"#utility.yul\":22211:22216   */\n      dup2\n        /* \"#utility.yul\":22196:22217   */\n      tag_416\n      jump\t// in\n    tag_712:\n        /* \"#utility.yul\":22189:22194   */\n      dup2\n        /* \"#utility.yul\":22186:22218   */\n      eq\n        /* \"#utility.yul\":22176:22236   */\n      tag_713\n      jumpi\n        /* \"#utility.yul\":22232:22233   */\n      0x00\n        /* \"#utility.yul\":22229:22230   */\n      0x00\n        /* \"#utility.yul\":22222:22234   */\n      revert\n        /* \"#utility.yul\":22176:22236   */\n    tag_713:\n        /* \"#utility.yul\":22126:22242   */\n      pop\n      jump\t// out\n        /* \"#utility.yul\":22248:22381   */\n    tag_459:\n        /* \"#utility.yul\":22291:22296   */\n      0x00\n        /* \"#utility.yul\":22329:22335   */\n      dup2\n        /* \"#utility.yul\":22316:22336   */\n      calldataload\n        /* \"#utility.yul\":22307:22336   */\n      swap1\n      pop\n        /* \"#utility.yul\":22345:22375   */\n      tag_715\n        /* \"#utility.yul\":22369:22374   */\n      dup2\n        /* \"#utility.yul\":22345:22375   */\n      tag_458\n      jump\t// in\n    tag_715:\n        /* \"#utility.yul\":22248:22381   */\n      swap3\n      swap2\n      pop\n      pop\n      jump\t// out\n        /* \"#utility.yul\":22387:23978   */\n    tag_105:\n        /* \"#utility.yul\":22518:22524   */\n      0x00\n        /* \"#utility.yul\":22526:22532   */\n      0x00\n        /* \"#utility.yul\":22534:22540   */\n      0x00\n        /* \"#utility.yul\":22542:22548   */\n      0x00\n        /* \"#utility.yul\":22550:22556   */\n      0x00\n        /* \"#utility.yul\":22558:22564   */\n      0x00\n        /* \"#utility.yul\":22607:22610   */\n      0xc0\n        /* \"#utility.yul\":22595:22604   */\n      dup8\n        /* \"#utility.yul\":22586:22593   */\n      dup10\n        /* \"#utility.yul\":22582:22605   */\n      sub\n        /* \"#utility.yul\":22578:22611   */\n      slt\n        /* \"#utility.yul\":22575:22695   */\n      iszero\n      tag_717\n      jumpi\n        /* \"#utility.yul\":22614:22693   */\n      tag_718\n      tag_397\n      jump\t// in\n    tag_718:\n        /* \"#utility.yul\":22575:22695   */\n    tag_717:\n        /* \"#utility.yul\":22734:22735   */\n      0x00\n        /* \"#utility.yul\":22759:22812   */\n      tag_719\n        /* \"#utility.yul\":22804:22811   */\n      dup10\n        /* \"#utility.yul\":22795:22801   */\n      dup3\n        /* \"#utility.yul\":22784:22793   */\n      dup11\n        /* \"#utility.yul\":22780:22802   */\n      add\n        /* \"#utility.yul\":22759:22812   */\n      tag_405\n      jump\t// in\n    tag_719:\n        /* \"#utility.yul\":22749:22812   */\n      swap7\n      pop\n        /* \"#utility.yul\":22705:22822   */\n      pop\n        /* \"#utility.yul\":22889:22891   */\n      0x20\n        /* \"#utility.yul\":22878:22887   */\n      dup8\n        /* \"#utility.yul\":22874:22892   */\n      add\n        /* \"#utility.yul\":22861:22893   */\n      calldataload\n        /* \"#utility.yul\":22920:22938   */\n      0xffffffffffffffff\n        /* \"#utility.yul\":22912:22918   */\n      dup2\n        /* \"#utility.yul\":22909:22939   */\n      gt\n        /* \"#utility.yul\":22906:23023   */\n      iszero\n      tag_720\n      jumpi\n        /* \"#utility.yul\":22942:23021   */\n      tag_721\n      tag_398\n      jump\t// in\n    tag_721:\n        /* \"#utility.yul\":22906:23023   */\n    tag_720:\n        /* \"#utility.yul\":23047:23110   */\n      tag_722\n        /* \"#utility.yul\":23102:23109   */\n      dup10\n        /* \"#utility.yul\":23093:23099   */\n      dup3\n        /* \"#utility.yul\":23082:23091   */\n      dup11\n        /* \"#utility.yul\":23078:23100   */\n      add\n        /* \"#utility.yul\":23047:23110   */\n      tag_431\n      jump\t// in\n    tag_722:\n        /* \"#utility.yul\":23037:23110   */\n      swap6\n      pop\n        /* \"#utility.yul\":22832:23120   */\n      pop\n        /* \"#utility.yul\":23187:23189   */\n      0x40\n        /* \"#utility.yul\":23176:23185   */\n      dup8\n        /* \"#utility.yul\":23172:23190   */\n      add\n        /* \"#utility.yul\":23159:23191   */\n      calldataload\n        /* \"#utility.yul\":23218:23236   */\n      0xffffffffffffffff\n        /* \"#utility.yul\":23210:23216   */\n      dup2\n        /* \"#utility.yul\":23207:23237   */\n      gt\n        /* \"#utility.yul\":23204:23321   */\n      iszero\n      tag_723\n      jumpi\n        /* \"#utility.yul\":23240:23319   */\n      tag_724\n      tag_398\n      jump\t// in\n    tag_724:\n        /* \"#utility.yul\":23204:23321   */\n    tag_723:\n        /* \"#utility.yul\":23345:23408   */\n      tag_725\n        /* \"#utility.yul\":23400:23407   */\n      dup10\n        /* \"#utility.yul\":23391:23397   */\n      dup3\n        /* \"#utility.yul\":23380:23389   */\n      dup11\n        /* \"#utility.yul\":23376:23398   */\n      add\n        /* \"#utility.yul\":23345:23408   */\n      tag_431\n      jump\t// in\n    tag_725:\n        /* \"#utility.yul\":23335:23408   */\n      swap5\n      pop\n        /* \"#utility.yul\":23130:23418   */\n      pop\n        /* \"#utility.yul\":23485:23487   */\n      0x60\n        /* \"#utility.yul\":23474:23483   */\n      dup8\n        /* \"#utility.yul\":23470:23488   */\n      add\n        /* \"#utility.yul\":23457:23489   */\n      calldataload\n        /* \"#utility.yul\":23516:23534   */\n      0xffffffffffffffff\n        /* \"#utility.yul\":23508:23514   */\n      dup2\n        /* \"#utility.yul\":23505:23535   */\n      gt\n        /* \"#utility.yul\":23502:23619   */\n      iszero\n      tag_726\n      jumpi\n        /* \"#utility.yul\":23538:23617   */\n      tag_727\n      tag_398\n      jump\t// in\n    tag_727:\n        /* \"#utility.yul\":23502:23619   */\n    tag_726:\n        /* \"#utility.yul\":23643:23706   */\n      tag_728\n        /* \"#utility.yul\":23698:23705   */\n      dup10\n        /* \"#utility.yul\":23689:23695   */\n      dup3\n        /* \"#utility.yul\":23678:23687   */\n      dup11\n        /* \"#utility.yul\":23674:23696   */\n      add\n        /* \"#utility.yul\":23643:23706   */\n      tag_431\n      jump\t// in\n    tag_728:\n        /* \"#utility.yul\":23633:23706   */\n      swap4\n      pop\n        /* \"#utility.yul\":23428:23716   */\n      pop\n        /* \"#utility.yul\":23755:23758   */\n      0x80\n        /* \"#utility.yul\":23782:23835   */\n      tag_729\n        /* \"#utility.yul\":23827:23834   */\n      dup10\n        /* \"#utility.yul\":23818:23824   */\n      dup3\n        /* \"#utility.yul\":23807:23816   */\n      dup11\n        /* \"#utility.yul\":23803:23825   */\n      add\n        /* \"#utility.yul\":23782:23835   */\n      tag_419\n      jump\t// in\n    tag_729:\n        /* \"#utility.yul\":23772:23835   */\n      swap3\n      pop\n        /* \"#utility.yul\":23726:23845   */\n      pop\n        /* \"#utility.yul\":23884:23887   */\n      0xa0\n        /* \"#utility.yul\":23911:23961   */\n      tag_730\n        /* \"#utility.yul\":23953:23960   */\n      dup10\n        /* \"#utility.yul\":23944:23950   */\n      dup3\n        /* \"#utility.yul\":23933:23942   */\n      dup11\n        /* \"#utility.yul\":23929:23951   */\n      add\n        /* \"#utility.yul\":23911:23961   */\n      tag_459\n      jump\t// in\n    tag_730:\n        /* \"#utility.yul\":23901:23961   */\n      swap2\n      pop\n        /* \"#utility.yul\":23855:23971   */\n      pop\n        /* \"#utility.yul\":22387:23978   */\n      swap3\n      swap6\n      pop\n      swap3\n      swap6\n      pop\n      swap3\n      swap6\n      jump\t// out\n        /* \"#utility.yul\":23984:24458   */\n    tag_111:\n        /* \"#utility.yul\":24052:24058   */\n      0x00\n        /* \"#utility.yul\":24060:24066   */\n      0x00\n        /* \"#utility.yul\":24109:24111   */\n      0x40\n        /* \"#utility.yul\":24097:24106   */\n      dup4\n        /* \"#utility.yul\":24088:24095   */\n      dup6\n        /* \"#utility.yul\":24084:24107   */\n      sub\n        /* \"#utility.yul\":24080:24112   */\n      slt\n        /* \"#utility.yul\":24077:24196   */\n      iszero\n      tag_732\n      jumpi\n        /* \"#utility.yul\":24115:24194   */\n      tag_733\n      tag_397\n      jump\t// in\n    tag_733:\n        /* \"#utility.yul\":24077:24196   */\n    tag_732:\n        /* \"#utility.yul\":24235:24236   */\n      0x00\n        /* \"#utility.yul\":24260:24313   */\n      tag_734\n        /* \"#utility.yul\":24305:24312   */\n      dup6\n        /* \"#utility.yul\":24296:24302   */\n      dup3\n        /* \"#utility.yul\":24285:24294   */\n      dup7\n        /* \"#utility.yul\":24281:24303   */\n      add\n        /* \"#utility.yul\":24260:24313   */\n      tag_402\n      jump\t// in\n    tag_734:\n        /* \"#utility.yul\":24250:24313   */\n      swap3\n      pop\n        /* \"#utility.yul\":24206:24323   */\n      pop\n        /* \"#utility.yul\":24362:24364   */\n      0x20\n        /* \"#utility.yul\":24388:24441   */\n      tag_735\n        /* \"#utility.yul\":24433:24440   */\n      dup6\n        /* \"#utility.yul\":24424:24430   */\n      dup3\n        /* \"#utility.yul\":24413:24422   */\n      dup7\n        /* \"#utility.yul\":24409:24431   */\n      add\n        /* \"#utility.yul\":24388:24441   */\n      tag_405\n      jump\t// in\n    tag_735:\n        /* \"#utility.yul\":24378:24441   */\n      swap2\n      pop\n        /* \"#utility.yul\":24333:24451   */\n      pop\n        /* \"#utility.yul\":23984:24458   */\n      swap3\n      pop\n      swap3\n      swap1\n      pop\n      jump\t// out\n        /* \"#utility.yul\":24464:24576   */\n    tag_460:\n        /* \"#utility.yul\":24547:24569   */\n      tag_737\n        /* \"#utility.yul\":24563:24568   */\n      dup2\n        /* \"#utility.yul\":24547:24569   */\n      tag_444\n      jump\t// in\n    tag_737:\n        /* \"#utility.yul\":24542:24545   */\n      dup3\n        /* \"#utility.yul\":24535:24570   */\n      mstore\n        /* \"#utility.yul\":24464:24576   */\n      pop\n      pop\n      jump\t// out\n        /* \"#utility.yul\":24582:24796   */\n    tag_118:\n        /* \"#utility.yul\":24671:24675   */\n      0x00\n        /* \"#utility.yul\":24709:24711   */\n      0x20\n        /* \"#utility.yul\":24698:24707   */\n      dup3\n        /* \"#utility.yul\":24694:24712   */\n      add\n        /* \"#utility.yul\":24686:24712   */\n      swap1\n      pop\n        /* \"#utility.yul\":24722:24789   */\n      tag_739\n        /* \"#utility.yul\":24786:24787   */\n      0x00\n        /* \"#utility.yul\":24775:24784   */\n      dup4\n        /* \"#utility.yul\":24771:24788   */\n      add\n        /* \"#utility.yul\":24762:24768   */\n      dup5\n        /* \"#utility.yul\":24722:24789   */\n      tag_460\n      jump\t// in\n    tag_739:\n        /* \"#utility.yul\":24582:24796   */\n      swap3\n      swap2\n      pop\n      pop\n      jump\t// out\n        /* \"#utility.yul\":24802:25131   */\n    tag_122:\n        /* \"#utility.yul\":24861:24867   */\n      0x00\n        /* \"#utility.yul\":24910:24912   */\n      0x20\n        /* \"#utility.yul\":24898:24907   */\n      dup3\n        /* \"#utility.yul\":24889:24896   */\n      dup5\n        /* \"#utility.yul\":24885:24908   */\n      sub\n        /* \"#utility.yul\":24881:24913   */\n      slt\n        /* \"#utility.yul\":24878:24997   */\n      iszero\n      tag_741\n      jumpi\n        /* \"#utility.yul\":24916:24995   */\n      tag_742\n      tag_397\n      jump\t// in\n    tag_742:\n        /* \"#utility.yul\":24878:24997   */\n    tag_741:\n        /* \"#utility.yul\":25036:25037   */\n      0x00\n        /* \"#utility.yul\":25061:25114   */\n      tag_743\n        /* \"#utility.yul\":25106:25113   */\n      dup5\n        /* \"#utility.yul\":25097:25103   */\n      dup3\n        /* \"#utility.yul\":25086:25095   */\n      dup6\n        /* \"#utility.yul\":25082:25104   */\n      add\n        /* \"#utility.yul\":25061:25114   */\n      tag_419\n      jump\t// in\n    tag_743:\n        /* \"#utility.yul\":25051:25114   */\n      swap2\n      pop\n        /* \"#utility.yul\":25007:25124   */\n      pop\n        /* \"#utility.yul\":24802:25131   */\n      swap3\n      swap2\n      pop\n      pop\n      jump\t// out\n        /* \"#utility.yul\":25137:25306   */\n    tag_461:\n        /* \"#utility.yul\":25221:25232   */\n      0x00\n        /* \"#utility.yul\":25255:25261   */\n      dup3\n        /* \"#utility.yul\":25250:25253   */\n      dup3\n        /* \"#utility.yul\":25243:25262   */\n      mstore\n        /* \"#utility.yul\":25295:25299   */\n      0x20\n        /* \"#utility.yul\":25290:25293   */\n      dup3\n        /* \"#utility.yul\":25286:25300   */\n      add\n        /* \"#utility.yul\":25271:25300   */\n      swap1\n      pop\n        /* \"#utility.yul\":25137:25306   */\n      swap3\n      swap2\n      pop\n      pop\n      jump\t// out\n        /* \"#utility.yul\":25312:25689   */\n    tag_462:\n        /* \"#utility.yul\":25400:25403   */\n      0x00\n        /* \"#utility.yul\":25428:25467   */\n      tag_746\n        /* \"#utility.yul\":25461:25466   */\n      dup3\n        /* \"#utility.yul\":25428:25467   */\n      tag_450\n      jump\t// in\n    tag_746:\n        /* \"#utility.yul\":25483:25554   */\n      tag_747\n        /* \"#utility.yul\":25547:25553   */\n      dup2\n        /* \"#utility.yul\":25542:25545   */\n      dup6\n        /* \"#utility.yul\":25483:25554   */\n      tag_461\n      jump\t// in\n    tag_747:\n        /* \"#utility.yul\":25476:25554   */\n      swap4\n      pop\n        /* \"#utility.yul\":25563:25628   */\n      tag_748\n        /* \"#utility.yul\":25621:25627   */\n      dup2\n        /* \"#utility.yul\":25616:25619   */\n      dup6\n        /* \"#utility.yul\":25609:25613   */\n      0x20\n        /* \"#utility.yul\":25602:25607   */\n      dup7\n        /* \"#utility.yul\":25598:25614   */\n      add\n        /* \"#utility.yul\":25563:25628   */\n      tag_424\n      jump\t// in\n    tag_748:\n        /* \"#utility.yul\":25653:25682   */\n      tag_749\n        /* \"#utility.yul\":25675:25681   */\n      dup2\n        /* \"#utility.yul\":25653:25682   */\n      tag_408\n      jump\t// in\n    tag_749:\n        /* \"#utility.yul\":25648:25651   */\n      dup5\n        /* \"#utility.yul\":25644:25683   */\n      add\n        /* \"#utility.yul\":25637:25683   */\n      swap2\n      pop\n        /* \"#utility.yul\":25404:25689   */\n      pop\n        /* \"#utility.yul\":25312:25689   */\n      swap3\n      swap2\n      pop\n      pop\n      jump\t// out\n        /* \"#utility.yul\":25695:26731   */\n    tag_125:\n        /* \"#utility.yul\":25982:25986   */\n      0x00\n        /* \"#utility.yul\":26020:26023   */\n      0xc0\n        /* \"#utility.yul\":26009:26018   */\n      dup3\n        /* \"#utility.yul\":26005:26024   */\n      add\n        /* \"#utility.yul\":25997:26024   */\n      swap1\n      pop\n        /* \"#utility.yul\":26034:26105   */\n      tag_751\n        /* \"#utility.yul\":26102:26103   */\n      0x00\n        /* \"#utility.yul\":26091:26100   */\n      dup4\n        /* \"#utility.yul\":26087:26104   */\n      add\n        /* \"#utility.yul\":26078:26084   */\n      dup10\n        /* \"#utility.yul\":26034:26105   */\n      tag_421\n      jump\t// in\n    tag_751:\n        /* \"#utility.yul\":26152:26161   */\n      dup2\n        /* \"#utility.yul\":26146:26150   */\n      dup2\n        /* \"#utility.yul\":26142:26162   */\n      sub\n        /* \"#utility.yul\":26137:26139   */\n      0x20\n        /* \"#utility.yul\":26126:26135   */\n      dup4\n        /* \"#utility.yul\":26122:26140   */\n      add\n        /* \"#utility.yul\":26115:26163   */\n      mstore\n        /* \"#utility.yul\":26180:26258   */\n      tag_752\n        /* \"#utility.yul\":26253:26257   */\n      dup2\n        /* \"#utility.yul\":26244:26250   */\n      dup9\n        /* \"#utility.yul\":26180:26258   */\n      tag_462\n      jump\t// in\n    tag_752:\n        /* \"#utility.yul\":26172:26258   */\n      swap1\n      pop\n        /* \"#utility.yul\":26305:26314   */\n      dup2\n        /* \"#utility.yul\":26299:26303   */\n      dup2\n        /* \"#utility.yul\":26295:26315   */\n      sub\n        /* \"#utility.yul\":26290:26292   */\n      0x40\n        /* \"#utility.yul\":26279:26288   */\n      dup4\n        /* \"#utility.yul\":26275:26293   */\n      add\n        /* \"#utility.yul\":26268:26316   */\n      mstore\n        /* \"#utility.yul\":26333:26411   */\n      tag_753\n        /* \"#utility.yul\":26406:26410   */\n      dup2\n        /* \"#utility.yul\":26397:26403   */\n      dup8\n        /* \"#utility.yul\":26333:26411   */\n      tag_462\n      jump\t// in\n    tag_753:\n        /* \"#utility.yul\":26325:26411   */\n      swap1\n      pop\n        /* \"#utility.yul\":26458:26467   */\n      dup2\n        /* \"#utility.yul\":26452:26456   */\n      dup2\n        /* \"#utility.yul\":26448:26468   */\n      sub\n        /* \"#utility.yul\":26443:26445   */\n      0x60\n        /* \"#utility.yul\":26432:26441   */\n      dup4\n        /* \"#utility.yul\":26428:26446   */\n      add\n        /* \"#utility.yul\":26421:26469   */\n      mstore\n        /* \"#utility.yul\":26486:26564   */\n      tag_754\n        /* \"#utility.yul\":26559:26563   */\n      dup2\n        /* \"#utility.yul\":26550:26556   */\n      dup7\n        /* \"#utility.yul\":26486:26564   */\n      tag_462\n      jump\t// in\n    tag_754:\n        /* \"#utility.yul\":26478:26564   */\n      swap1\n      pop\n        /* \"#utility.yul\":26574:26647   */\n      tag_755\n        /* \"#utility.yul\":26642:26645   */\n      0x80\n        /* \"#utility.yul\":26631:26640   */\n      dup4\n        /* \"#utility.yul\":26627:26646   */\n      add\n        /* \"#utility.yul\":26618:26624   */\n      dup6\n        /* \"#utility.yul\":26574:26647   */\n      tag_395\n      jump\t// in\n    tag_755:\n        /* \"#utility.yul\":26657:26724   */\n      tag_756\n        /* \"#utility.yul\":26719:26722   */\n      0xa0\n        /* \"#utility.yul\":26708:26717   */\n      dup4\n        /* \"#utility.yul\":26704:26723   */\n      add\n        /* \"#utility.yul\":26695:26701   */\n      dup5\n        /* \"#utility.yul\":26657:26724   */\n      tag_417\n      jump\t// in\n    tag_756:\n        /* \"#utility.yul\":25695:26731   */\n      swap8\n      swap7\n      pop\n      pop\n      pop\n      pop\n      pop\n      pop\n      pop\n      jump\t// out\n        /* \"#utility.yul\":26737:26917   */\n    tag_142:\n        /* \"#utility.yul\":26785:26862   */\n      0x4e487b7100000000000000000000000000000000000000000000000000000000\n        /* \"#utility.yul\":26782:26783   */\n      0x00\n        /* \"#utility.yul\":26775:26863   */\n      mstore\n        /* \"#utility.yul\":26882:26886   */\n      0x01\n        /* \"#utility.yul\":26879:26880   */\n      0x04\n        /* \"#utility.yul\":26872:26887   */\n      mstore\n        /* \"#utility.yul\":26906:26910   */\n      0x24\n        /* \"#utility.yul\":26903:26904   */\n      0x00\n        /* \"#utility.yul\":26896:26911   */\n      revert\n        /* \"#utility.yul\":26923:27103   */\n    tag_147:\n        /* \"#utility.yul\":26971:27048   */\n      0x4e487b7100000000000000000000000000000000000000000000000000000000\n        /* \"#utility.yul\":26968:26969   */\n      0x00\n        /* \"#utility.yul\":26961:27049   */\n      mstore\n        /* \"#utility.yul\":27068:27072   */\n      0x32\n        /* \"#utility.yul\":27065:27066   */\n      0x04\n        /* \"#utility.yul\":27058:27073   */\n      mstore\n        /* \"#utility.yul\":27092:27096   */\n      0x24\n        /* \"#utility.yul\":27089:27090   */\n      0x00\n        /* \"#utility.yul\":27082:27097   */\n      revert\n        /* \"#utility.yul\":27109:27289   */\n    tag_463:\n        /* \"#utility.yul\":27157:27234   */\n      0x4e487b7100000000000000000000000000000000000000000000000000000000\n        /* \"#utility.yul\":27154:27155   */\n      0x00\n        /* \"#utility.yul\":27147:27235   */\n      mstore\n        /* \"#utility.yul\":27254:27258   */\n      0x22\n        /* \"#utility.yul\":27251:27252   */\n      0x04\n        /* \"#utility.yul\":27244:27259   */\n      mstore\n        /* \"#utility.yul\":27278:27282   */\n      0x24\n        /* \"#utility.yul\":27275:27276   */\n      0x00\n        /* \"#utility.yul\":27268:27283   */\n      revert\n        /* \"#utility.yul\":27295:27615   */\n    tag_150:\n        /* \"#utility.yul\":27339:27345   */\n      0x00\n        /* \"#utility.yul\":27376:27377   */\n      0x02\n        /* \"#utility.yul\":27370:27374   */\n      dup3\n        /* \"#utility.yul\":27366:27378   */\n      div\n        /* \"#utility.yul\":27356:27378   */\n      swap1\n      pop\n        /* \"#utility.yul\":27423:27424   */\n      0x01\n        /* \"#utility.yul\":27417:27421   */\n      dup3\n        /* \"#utility.yul\":27413:27425   */\n      and\n        /* \"#utility.yul\":27444:27462   */\n      dup1\n        /* \"#utility.yul\":27434:27515   */\n      tag_761\n      jumpi\n        /* \"#utility.yul\":27500:27504   */\n      0x7f\n        /* \"#utility.yul\":27492:27498   */\n      dup3\n        /* \"#utility.yul\":27488:27505   */\n      and\n        /* \"#utility.yul\":27478:27505   */\n      swap2\n      pop\n        /* \"#utility.yul\":27434:27515   */\n    tag_761:\n        /* \"#utility.yul\":27562:27564   */\n      0x20\n        /* \"#utility.yul\":27554:27560   */\n      dup3\n        /* \"#utility.yul\":27551:27565   */\n      lt\n        /* \"#utility.yul\":27531:27549   */\n      dup2\n        /* \"#utility.yul\":27528:27566   */\n      sub\n        /* \"#utility.yul\":27525:27609   */\n      tag_762\n      jumpi\n        /* \"#utility.yul\":27581:27599   */\n      tag_763\n      tag_463\n      jump\t// in\n    tag_763:\n        /* \"#utility.yul\":27525:27609   */\n    tag_762:\n        /* \"#utility.yul\":27346:27615   */\n      pop\n        /* \"#utility.yul\":27295:27615   */\n      swap2\n      swap1\n      pop\n      jump\t// out\n        /* \"#utility.yul\":27621:27801   */\n    tag_464:\n        /* \"#utility.yul\":27669:27746   */\n      0x4e487b7100000000000000000000000000000000000000000000000000000000\n        /* \"#utility.yul\":27666:27667   */\n      0x00\n        /* \"#utility.yul\":27659:27747   */\n      mstore\n        /* \"#utility.yul\":27766:27770   */\n      0x11\n        /* \"#utility.yul\":27763:27764   */\n      0x04\n        /* \"#utility.yul\":27756:27771   */\n      mstore\n        /* \"#utility.yul\":27790:27794   */\n      0x24\n        /* \"#utility.yul\":27787:27788   */\n      0x00\n        /* \"#utility.yul\":27780:27795   */\n      revert\n        /* \"#utility.yul\":27807:27998   */\n    tag_170:\n        /* \"#utility.yul\":27845:27849   */\n      0x00\n        /* \"#utility.yul\":27865:27883   */\n      tag_766\n        /* \"#utility.yul\":27881:27882   */\n      dup3\n        /* \"#utility.yul\":27865:27883   */\n      tag_444\n      jump\t// in\n    tag_766:\n        /* \"#utility.yul\":27860:27883   */\n      swap2\n      pop\n        /* \"#utility.yul\":27897:27915   */\n      tag_767\n        /* \"#utility.yul\":27913:27914   */\n      dup4\n        /* \"#utility.yul\":27897:27915   */\n      tag_444\n      jump\t// in\n    tag_767:\n        /* \"#utility.yul\":27892:27915   */\n      swap3\n      pop\n        /* \"#utility.yul\":27939:27940   */\n      dup3\n        /* \"#utility.yul\":27936:27937   */\n      dup3\n        /* \"#utility.yul\":27932:27941   */\n      sub\n        /* \"#utility.yul\":27924:27941   */\n      swap1\n      pop\n        /* \"#utility.yul\":27963:27967   */\n      0xff\n        /* \"#utility.yul\":27957:27961   */\n      dup2\n        /* \"#utility.yul\":27954:27968   */\n      gt\n        /* \"#utility.yul\":27951:27991   */\n      iszero\n      tag_768\n      jumpi\n        /* \"#utility.yul\":27971:27989   */\n      tag_769\n      tag_464\n      jump\t// in\n    tag_769:\n        /* \"#utility.yul\":27951:27991   */\n    tag_768:\n        /* \"#utility.yul\":27807:27998   */\n      swap3\n      swap2\n      pop\n      pop\n      jump\t// out\n        /* \"#utility.yul\":28004:28151   */\n    tag_465:\n        /* \"#utility.yul\":28105:28116   */\n      0x00\n        /* \"#utility.yul\":28142:28145   */\n      dup2\n        /* \"#utility.yul\":28127:28145   */\n      swap1\n      pop\n        /* \"#utility.yul\":28004:28151   */\n      swap3\n      swap2\n      pop\n      pop\n      jump\t// out\n        /* \"#utility.yul\":28157:28271   */\n    tag_466:\n      pop\n      jump\t// out\n        /* \"#utility.yul\":28277:28675   */\n    tag_467:\n        /* \"#utility.yul\":28436:28439   */\n      0x00\n        /* \"#utility.yul\":28457:28540   */\n      tag_773\n        /* \"#utility.yul\":28538:28539   */\n      0x00\n        /* \"#utility.yul\":28533:28536   */\n      dup4\n        /* \"#utility.yul\":28457:28540   */\n      tag_465\n      jump\t// in\n    tag_773:\n        /* \"#utility.yul\":28450:28540   */\n      swap2\n      pop\n        /* \"#utility.yul\":28549:28642   */\n      tag_774\n        /* \"#utility.yul\":28638:28641   */\n      dup3\n        /* \"#utility.yul\":28549:28642   */\n      tag_466\n      jump\t// in\n    tag_774:\n        /* \"#utility.yul\":28667:28668   */\n      0x00\n        /* \"#utility.yul\":28662:28665   */\n      dup3\n        /* \"#utility.yul\":28658:28669   */\n      add\n        /* \"#utility.yul\":28651:28669   */\n      swap1\n      pop\n        /* \"#utility.yul\":28277:28675   */\n      swap2\n      swap1\n      pop\n      jump\t// out\n        /* \"#utility.yul\":28681:29060   */\n    tag_173:\n        /* \"#utility.yul\":28865:28868   */\n      0x00\n        /* \"#utility.yul\":28887:29034   */\n      tag_776\n        /* \"#utility.yul\":29030:29033   */\n      dup3\n        /* \"#utility.yul\":28887:29034   */\n      tag_467\n      jump\t// in\n    tag_776:\n        /* \"#utility.yul\":28880:29034   */\n      swap2\n      pop\n        /* \"#utility.yul\":29051:29054   */\n      dup2\n        /* \"#utility.yul\":29044:29054   */\n      swap1\n      pop\n        /* \"#utility.yul\":28681:29060   */\n      swap2\n      swap1\n      pop\n      jump\t// out\n        /* \"#utility.yul\":29066:29286   */\n    tag_468:\n        /* \"#utility.yul\":29206:29240   */\n      0x4661696c656420746f2073656e6420457468657220746f207468652075736572\n        /* \"#utility.yul\":29202:29203   */\n      0x00\n        /* \"#utility.yul\":29194:29200   */\n      dup3\n        /* \"#utility.yul\":29190:29204   */\n      add\n        /* \"#utility.yul\":29183:29241   */\n      mstore\n        /* \"#utility.yul\":29275:29278   */\n      0x2100000000000000000000000000000000000000000000000000000000000000\n        /* \"#utility.yul\":29270:29272   */\n      0x20\n        /* \"#utility.yul\":29262:29268   */\n      dup3\n        /* \"#utility.yul\":29258:29273   */\n      add\n        /* \"#utility.yul\":29251:29279   */\n      mstore\n        /* \"#utility.yul\":29066:29286   */\n      pop\n      jump\t// out\n        /* \"#utility.yul\":29292:29658   */\n    tag_469:\n        /* \"#utility.yul\":29434:29437   */\n      0x00\n        /* \"#utility.yul\":29455:29522   */\n      tag_779\n        /* \"#utility.yul\":29519:29521   */\n      0x21\n        /* \"#utility.yul\":29514:29517   */\n      dup4\n        /* \"#utility.yul\":29455:29522   */\n      tag_461\n      jump\t// in\n    tag_779:\n        /* \"#utility.yul\":29448:29522   */\n      swap2\n      pop\n        /* \"#utility.yul\":29531:29624   */\n      tag_780\n        /* \"#utility.yul\":29620:29623   */\n      dup3\n        /* \"#utility.yul\":29531:29624   */\n      tag_468\n      jump\t// in\n    tag_780:\n        /* \"#utility.yul\":29649:29651   */\n      0x40\n        /* \"#utility.yul\":29644:29647   */\n      dup3\n        /* \"#utility.yul\":29640:29652   */\n      add\n        /* \"#utility.yul\":29633:29652   */\n      swap1\n      pop\n        /* \"#utility.yul\":29292:29658   */\n      swap2\n      swap1\n      pop\n      jump\t// out\n        /* \"#utility.yul\":29664:30083   */\n    tag_179:\n        /* \"#utility.yul\":29830:29834   */\n      0x00\n        /* \"#utility.yul\":29868:29870   */\n      0x20\n        /* \"#utility.yul\":29857:29866   */\n      dup3\n        /* \"#utility.yul\":29853:29871   */\n      add\n        /* \"#utility.yul\":29845:29871   */\n      swap1\n      pop\n        /* \"#utility.yul\":29917:29926   */\n      dup2\n        /* \"#utility.yul\":29911:29915   */\n      dup2\n        /* \"#utility.yul\":29907:29927   */\n      sub\n        /* \"#utility.yul\":29903:29904   */\n      0x00\n        /* \"#utility.yul\":29892:29901   */\n      dup4\n        /* \"#utility.yul\":29888:29905   */\n      add\n        /* \"#utility.yul\":29881:29928   */\n      mstore\n        /* \"#utility.yul\":29945:30076   */\n      tag_782\n        /* \"#utility.yul\":30071:30075   */\n      dup2\n        /* \"#utility.yul\":29945:30076   */\n      tag_469\n      jump\t// in\n    tag_782:\n        /* \"#utility.yul\":29937:30076   */\n      swap1\n      pop\n        /* \"#utility.yul\":29664:30083   */\n      swap2\n      swap1\n      pop\n      jump\t// out\n        /* \"#utility.yul\":30089:30310   */\n    tag_470:\n        /* \"#utility.yul\":30229:30263   */\n      0x4661696c656420746f2073656e6420457468657220746f20746865206f776e65\n        /* \"#utility.yul\":30225:30226   */\n      0x00\n        /* \"#utility.yul\":30217:30223   */\n      dup3\n        /* \"#utility.yul\":30213:30227   */\n      add\n        /* \"#utility.yul\":30206:30264   */\n      mstore\n        /* \"#utility.yul\":30298:30302   */\n      0x7221000000000000000000000000000000000000000000000000000000000000\n        /* \"#utility.yul\":30293:30295   */\n      0x20\n        /* \"#utility.yul\":30285:30291   */\n      dup3\n        /* \"#utility.yul\":30281:30296   */\n      add\n        /* \"#utility.yul\":30274:30303   */\n      mstore\n        /* \"#utility.yul\":30089:30310   */\n      pop\n      jump\t// out\n        /* \"#utility.yul\":30316:30682   */\n    tag_471:\n        /* \"#utility.yul\":30458:30461   */\n      0x00\n        /* \"#utility.yul\":30479:30546   */\n      tag_785\n        /* \"#utility.yul\":30543:30545   */\n      0x22\n        /* \"#utility.yul\":30538:30541   */\n      dup4\n        /* \"#utility.yul\":30479:30546   */\n      tag_461\n      jump\t// in\n    tag_785:\n        /* \"#utility.yul\":30472:30546   */\n      swap2\n      pop\n        /* \"#utility.yul\":30555:30648   */\n      tag_786\n        /* \"#utility.yul\":30644:30647   */\n      dup3\n        /* \"#utility.yul\":30555:30648   */\n      tag_470\n      jump\t// in\n    tag_786:\n        /* \"#utility.yul\":30673:30675   */\n      0x40\n        /* \"#utility.yul\":30668:30671   */\n      dup3\n        /* \"#utility.yul\":30664:30676   */\n      add\n        /* \"#utility.yul\":30657:30676   */\n      swap1\n      pop\n        /* \"#utility.yul\":30316:30682   */\n      swap2\n      swap1\n      pop\n      jump\t// out\n        /* \"#utility.yul\":30688:31107   */\n    tag_188:\n        /* \"#utility.yul\":30854:30858   */\n      0x00\n        /* \"#utility.yul\":30892:30894   */\n      0x20\n        /* \"#utility.yul\":30881:30890   */\n      dup3\n        /* \"#utility.yul\":30877:30895   */\n      add\n        /* \"#utility.yul\":30869:30895   */\n      swap1\n      pop\n        /* \"#utility.yul\":30941:30950   */\n      dup2\n        /* \"#utility.yul\":30935:30939   */\n      dup2\n        /* \"#utility.yul\":30931:30951   */\n      sub\n        /* \"#utility.yul\":30927:30928   */\n      0x00\n        /* \"#utility.yul\":30916:30925   */\n      dup4\n        /* \"#utility.yul\":30912:30929   */\n      add\n        /* \"#utility.yul\":30905:30952   */\n      mstore\n        /* \"#utility.yul\":30969:31100   */\n      tag_788\n        /* \"#utility.yul\":31095:31099   */\n      dup2\n        /* \"#utility.yul\":30969:31100   */\n      tag_471\n      jump\t// in\n    tag_788:\n        /* \"#utility.yul\":30961:31100   */\n      swap1\n      pop\n        /* \"#utility.yul\":30688:31107   */\n      swap2\n      swap1\n      pop\n      jump\t// out\n        /* \"#utility.yul\":31113:31253   */\n    tag_472:\n        /* \"#utility.yul\":31161:31165   */\n      0x00\n        /* \"#utility.yul\":31184:31187   */\n      dup2\n        /* \"#utility.yul\":31176:31187   */\n      swap1\n      pop\n        /* \"#utility.yul\":31207:31210   */\n      dup2\n        /* \"#utility.yul\":31204:31205   */\n      0x00\n        /* \"#utility.yul\":31197:31211   */\n      mstore\n        /* \"#utility.yul\":31241:31245   */\n      0x20\n        /* \"#utility.yul\":31238:31239   */\n      0x00\n        /* \"#utility.yul\":31228:31246   */\n      keccak256\n        /* \"#utility.yul\":31220:31246   */\n      swap1\n      pop\n        /* \"#utility.yul\":31113:31253   */\n      swap2\n      swap1\n      pop\n      jump\t// out\n        /* \"#utility.yul\":31259:31352   */\n    tag_473:\n        /* \"#utility.yul\":31296:31302   */\n      0x00\n        /* \"#utility.yul\":31343:31345   */\n      0x20\n        /* \"#utility.yul\":31338:31340   */\n      0x1f\n        /* \"#utility.yul\":31331:31336   */\n      dup4\n        /* \"#utility.yul\":31327:31341   */\n      add\n        /* \"#utility.yul\":31323:31346   */\n      div\n        /* \"#utility.yul\":31313:31346   */\n      swap1\n      pop\n        /* \"#utility.yul\":31259:31352   */\n      swap2\n      swap1\n      pop\n      jump\t// out\n        /* \"#utility.yul\":31358:31465   */\n    tag_474:\n        /* \"#utility.yul\":31402:31410   */\n      0x00\n        /* \"#utility.yul\":31452:31457   */\n      dup3\n        /* \"#utility.yul\":31446:31450   */\n      dup3\n        /* \"#utility.yul\":31442:31458   */\n      shl\n        /* \"#utility.yul\":31421:31458   */\n      swap1\n      pop\n        /* \"#utility.yul\":31358:31465   */\n      swap3\n      swap2\n      pop\n      pop\n      jump\t// out\n        /* \"#utility.yul\":31471:31864   */\n    tag_475:\n        /* \"#utility.yul\":31540:31546   */\n      0x00\n        /* \"#utility.yul\":31590:31591   */\n      0x08\n        /* \"#utility.yul\":31578:31588   */\n      dup4\n        /* \"#utility.yul\":31574:31592   */\n      mul\n        /* \"#utility.yul\":31613:31710   */\n      tag_793\n        /* \"#utility.yul\":31643:31709   */\n      0xffffffffffffffffffffffffffffffffffffffffffffffffffffffffffffffff\n        /* \"#utility.yul\":31632:31641   */\n      dup3\n        /* \"#utility.yul\":31613:31710   */\n      tag_474\n      jump\t// in\n    tag_793:\n        /* \"#utility.yul\":31731:31770   */\n      tag_794\n        /* \"#utility.yul\":31761:31769   */\n      dup7\n        /* \"#utility.yul\":31750:31759   */\n      dup4\n        /* \"#utility.yul\":31731:31770   */\n      tag_474\n      jump\t// in\n    tag_794:\n        /* \"#utility.yul\":31719:31770   */\n      swap6\n      pop\n        /* \"#utility.yul\":31803:31807   */\n      dup1\n        /* \"#utility.yul\":31799:31808   */\n      not\n        /* \"#utility.yul\":31792:31797   */\n      dup5\n        /* \"#utility.yul\":31788:31809   */\n      and\n        /* \"#utility.yul\":31779:31809   */\n      swap4\n      pop\n        /* \"#utility.yul\":31852:31856   */\n      dup1\n        /* \"#utility.yul\":31842:31850   */\n      dup7\n        /* \"#utility.yul\":31838:31857   */\n      and\n        /* \"#utility.yul\":31831:31836   */\n      dup5\n        /* \"#utility.yul\":31828:31858   */\n      or\n        /* \"#utility.yul\":31818:31858   */\n      swap3\n      pop\n        /* \"#utility.yul\":31547:31864   */\n      pop\n      pop\n        /* \"#utility.yul\":31471:31864   */\n      swap4\n      swap3\n      pop\n      pop\n      pop\n      jump\t// out\n        /* \"#utility.yul\":31870:31930   */\n    tag_476:\n        /* \"#utility.yul\":31898:31901   */\n      0x00\n        /* \"#utility.yul\":31919:31924   */\n      dup2\n        /* \"#utility.yul\":31912:31924   */\n      swap1\n      pop\n        /* \"#utility.yul\":31870:31930   */\n      swap2\n      swap1\n      pop\n      jump\t// out\n        /* \"#utility.yul\":31936:32078   */\n    tag_477:\n        /* \"#utility.yul\":31986:31995   */\n      0x00\n        /* \"#utility.yul\":32019:32072   */\n      tag_797\n        /* \"#utility.yul\":32037:32071   */\n      tag_798\n        /* \"#utility.yul\":32046:32070   */\n      tag_799\n        /* \"#utility.yul\":32064:32069   */\n      dup5\n        /* \"#utility.yul\":32046:32070   */\n      tag_394\n      jump\t// in\n    tag_799:\n        /* \"#utility.yul\":32037:32071   */\n      tag_476\n      jump\t// in\n    tag_798:\n        /* \"#utility.yul\":32019:32072   */\n      tag_394\n      jump\t// in\n    tag_797:\n        /* \"#utility.yul\":32006:32072   */\n      swap1\n      pop\n        /* \"#utility.yul\":31936:32078   */\n      swap2\n      swap1\n      pop\n      jump\t// out\n        /* \"#utility.yul\":32084:32159   */\n    tag_478:\n        /* \"#utility.yul\":32127:32130   */\n      0x00\n        /* \"#utility.yul\":32148:32153   */\n      dup2\n        /* \"#utility.yul\":32141:32153   */\n      swap1\n      pop\n        /* \"#utility.yul\":32084:32159   */\n      swap2\n      swap1\n      pop\n      jump\t// out\n        /* \"#utility.yul\":32165:32434   */\n    tag_479:\n        /* \"#utility.yul\":32275:32314   */\n      tag_802\n        /* \"#utility.yul\":32306:32313   */\n      dup4\n        /* \"#utility.yul\":32275:32314   */\n      tag_477\n      jump\t// in\n    tag_802:\n        /* \"#utility.yul\":32336:32427   */\n      tag_803\n        /* \"#utility.yul\":32385:32426   */\n      tag_804\n        /* \"#utility.yul\":32409:32425   */\n      dup3\n        /* \"#utility.yul\":32385:32426   */\n      tag_478\n      jump\t// in\n    tag_804:\n        /* \"#utility.yul\":32377:32383   */\n      dup5\n        /* \"#utility.yul\":32370:32374   */\n      dup5\n        /* \"#utility.yul\":32364:32375   */\n      sload\n        /* \"#utility.yul\":32336:32427   */\n      tag_475\n      jump\t// in\n    tag_803:\n        /* \"#utility.yul\":32330:32334   */\n      dup3\n        /* \"#utility.yul\":32323:32428   */\n      sstore\n        /* \"#utility.yul\":32241:32434   */\n      pop\n        /* \"#utility.yul\":32165:32434   */\n      pop\n      pop\n      pop\n      jump\t// out\n        /* \"#utility.yul\":32440:32513   */\n    tag_480:\n        /* \"#utility.yul\":32485:32488   */\n      0x00\n        /* \"#utility.yul\":32506:32507   */\n      0x00\n        /* \"#utility.yul\":32499:32507   */\n      swap1\n      pop\n        /* \"#utility.yul\":32440:32513   */\n      swap1\n      jump\t// out\n        /* \"#utility.yul\":32519:32708   */\n    tag_481:\n        /* \"#utility.yul\":32596:32628   */\n      tag_807\n      tag_480\n      jump\t// in\n    tag_807:\n        /* \"#utility.yul\":32637:32702   */\n      tag_808\n        /* \"#utility.yul\":32695:32701   */\n      dup2\n        /* \"#utility.yul\":32687:32693   */\n      dup5\n        /* \"#utility.yul\":32681:32685   */\n      dup5\n        /* \"#utility.yul\":32637:32702   */\n      tag_479\n      jump\t// in\n    tag_808:\n        /* \"#utility.yul\":32572:32708   */\n      pop\n        /* \"#utility.yul\":32519:32708   */\n      pop\n      pop\n      jump\t// out\n        /* \"#utility.yul\":32714:32900   */\n    tag_482:\n        /* \"#utility.yul\":32774:32894   */\n    tag_810:\n        /* \"#utility.yul\":32791:32794   */\n      dup2\n        /* \"#utility.yul\":32784:32789   */\n      dup2\n        /* \"#utility.yul\":32781:32795   */\n      lt\n        /* \"#utility.yul\":32774:32894   */\n      iszero\n      tag_812\n      jumpi\n        /* \"#utility.yul\":32845:32884   */\n      tag_813\n        /* \"#utility.yul\":32882:32883   */\n      0x00\n        /* \"#utility.yul\":32875:32880   */\n      dup3\n        /* \"#utility.yul\":32845:32884   */\n      tag_481\n      jump\t// in\n    tag_813:\n        /* \"#utility.yul\":32818:32819   */\n      0x01\n        /* \"#utility.yul\":32811:32816   */\n      dup2\n        /* \"#utility.yul\":32807:32820   */\n      add\n        /* \"#utility.yul\":32798:32820   */\n      swap1\n      pop\n        /* \"#utility.yul\":32774:32894   */\n      jump(tag_810)\n    tag_812:\n        /* \"#utility.yul\":32714:32900   */\n      pop\n      pop\n      jump\t// out\n        /* \"#utility.yul\":32906:33447   */\n    tag_483:\n        /* \"#utility.yul\":33006:33008   */\n      0x1f\n        /* \"#utility.yul\":33001:33004   */\n      dup3\n        /* \"#utility.yul\":32998:33009   */\n      gt\n        /* \"#utility.yul\":32995:33440   */\n      iszero\n      tag_815\n      jumpi\n        /* \"#utility.yul\":33040:33077   */\n      tag_816\n        /* \"#utility.yul\":33071:33076   */\n      dup2\n        /* \"#utility.yul\":33040:33077   */\n      tag_472\n      jump\t// in\n    tag_816:\n        /* \"#utility.yul\":33123:33152   */\n      tag_817\n        /* \"#utility.yul\":33141:33151   */\n      dup5\n        /* \"#utility.yul\":33123:33152   */\n      tag_473\n      jump\t// in\n    tag_817:\n        /* \"#utility.yul\":33113:33121   */\n      dup2\n        /* \"#utility.yul\":33109:33153   */\n      add\n        /* \"#utility.yul\":33306:33308   */\n      0x20\n        /* \"#utility.yul\":33294:33304   */\n      dup6\n        /* \"#utility.yul\":33291:33309   */\n      lt\n        /* \"#utility.yul\":33288:33337   */\n      iszero\n      tag_818\n      jumpi\n        /* \"#utility.yul\":33327:33335   */\n      dup2\n        /* \"#utility.yul\":33312:33335   */\n      swap1\n      pop\n        /* \"#utility.yul\":33288:33337   */\n    tag_818:\n        /* \"#utility.yul\":33350:33430   */\n      tag_819\n        /* \"#utility.yul\":33406:33428   */\n      tag_820\n        /* \"#utility.yul\":33424:33427   */\n      dup6\n        /* \"#utility.yul\":33406:33428   */\n      tag_473\n      jump\t// in\n    tag_820:\n        /* \"#utility.yul\":33396:33404   */\n      dup4\n        /* \"#utility.yul\":33392:33429   */\n      add\n        /* \"#utility.yul\":33379:33390   */\n      dup3\n        /* \"#utility.yul\":33350:33430   */\n      tag_482\n      jump\t// in\n    tag_819:\n        /* \"#utility.yul\":33010:33440   */\n      pop\n      pop\n        /* \"#utility.yul\":32995:33440   */\n    tag_815:\n        /* \"#utility.yul\":32906:33447   */\n      pop\n      pop\n      pop\n      jump\t// out\n        /* \"#utility.yul\":33453:33570   */\n    tag_484:\n        /* \"#utility.yul\":33507:33515   */\n      0x00\n        /* \"#utility.yul\":33557:33562   */\n      dup3\n        /* \"#utility.yul\":33551:33555   */\n      dup3\n        /* \"#utility.yul\":33547:33563   */\n      shr\n        /* \"#utility.yul\":33526:33563   */\n      swap1\n      pop\n        /* \"#utility.yul\":33453:33570   */\n      swap3\n      swap2\n      pop\n      pop\n      jump\t// out\n        /* \"#utility.yul\":33576:33745   */\n    tag_485:\n        /* \"#utility.yul\":33620:33626   */\n      0x00\n        /* \"#utility.yul\":33653:33704   */\n      tag_823\n        /* \"#utility.yul\":33701:33702   */\n      0x00\n        /* \"#utility.yul\":33697:33703   */\n      not\n        /* \"#utility.yul\":33689:33694   */\n      dup5\n        /* \"#utility.yul\":33686:33687   */\n      0x08\n        /* \"#utility.yul\":33682:33695   */\n      mul\n        /* \"#utility.yul\":33653:33704   */\n      tag_484\n      jump\t// in\n    tag_823:\n        /* \"#utility.yul\":33649:33705   */\n      not\n        /* \"#utility.yul\":33734:33738   */\n      dup1\n        /* \"#utility.yul\":33728:33732   */\n      dup4\n        /* \"#utility.yul\":33724:33739   */\n      and\n        /* \"#utility.yul\":33714:33739   */\n      swap2\n      pop\n        /* \"#utility.yul\":33627:33745   */\n      pop\n        /* \"#utility.yul\":33576:33745   */\n      swap3\n      swap2\n      pop\n      pop\n      jump\t// out\n        /* \"#utility.yul\":33750:34045   */\n    tag_486:\n        /* \"#utility.yul\":33826:33830   */\n      0x00\n        /* \"#utility.yul\":33972:34001   */\n      tag_825\n        /* \"#utility.yul\":33997:34000   */\n      dup4\n        /* \"#utility.yul\":33991:33995   */\n      dup4\n        /* \"#utility.yul\":33972:34001   */\n      tag_485\n      jump\t// in\n    tag_825:\n        /* \"#utility.yul\":33964:34001   */\n      swap2\n      pop\n        /* \"#utility.yul\":34034:34037   */\n      dup3\n        /* \"#utility.yul\":34031:34032   */\n      0x02\n        /* \"#utility.yul\":34027:34038   */\n      mul\n        /* \"#utility.yul\":34021:34025   */\n      dup3\n        /* \"#utility.yul\":34018:34039   */\n      or\n        /* \"#utility.yul\":34010:34039   */\n      swap1\n      pop\n        /* \"#utility.yul\":33750:34045   */\n      swap3\n      swap2\n      pop\n      pop\n      jump\t// out\n        /* \"#utility.yul\":34050:35440   */\n    tag_192:\n        /* \"#utility.yul\":34165:34201   */\n      tag_827\n        /* \"#utility.yul\":34197:34200   */\n      dup3\n        /* \"#utility.yul\":34165:34201   */\n      tag_422\n      jump\t// in\n    tag_827:\n        /* \"#utility.yul\":34266:34284   */\n      0xffffffffffffffff\n        /* \"#utility.yul\":34258:34264   */\n      dup2\n        /* \"#utility.yul\":34255:34285   */\n      gt\n        /* \"#utility.yul\":34252:34308   */\n      iszero\n      tag_828\n      jumpi\n        /* \"#utility.yul\":34288:34306   */\n      tag_829\n      tag_409\n      jump\t// in\n    tag_829:\n        /* \"#utility.yul\":34252:34308   */\n    tag_828:\n        /* \"#utility.yul\":34332:34370   */\n      tag_830\n        /* \"#utility.yul\":34364:34368   */\n      dup3\n        /* \"#utility.yul\":34358:34369   */\n      sload\n        /* \"#utility.yul\":34332:34370   */\n      tag_150\n      jump\t// in\n    tag_830:\n        /* \"#utility.yul\":34417:34483   */\n      tag_831\n        /* \"#utility.yul\":34476:34482   */\n      dup3\n        /* \"#utility.yul\":34468:34474   */\n      dup3\n        /* \"#utility.yul\":34462:34466   */\n      dup6\n        /* \"#utility.yul\":34417:34483   */\n      tag_483\n      jump\t// in\n    tag_831:\n        /* \"#utility.yul\":34510:34511   */\n      0x00\n        /* \"#utility.yul\":34534:34538   */\n      0x20\n        /* \"#utility.yul\":34521:34538   */\n      swap1\n      pop\n        /* \"#utility.yul\":34566:34568   */\n      0x1f\n        /* \"#utility.yul\":34558:34564   */\n      dup4\n        /* \"#utility.yul\":34555:34569   */\n      gt\n        /* \"#utility.yul\":34583:34584   */\n      0x01\n        /* \"#utility.yul\":34578:35195   */\n      dup2\n      eq\n      tag_833\n      jumpi\n        /* \"#utility.yul\":35239:35240   */\n      0x00\n        /* \"#utility.yul\":35256:35262   */\n      dup5\n        /* \"#utility.yul\":35253:35330   */\n      iszero\n      tag_834\n      jumpi\n        /* \"#utility.yul\":35305:35314   */\n      dup3\n        /* \"#utility.yul\":35300:35303   */\n      dup8\n        /* \"#utility.yul\":35296:35315   */\n      add\n        /* \"#utility.yul\":35290:35316   */\n      mload\n        /* \"#utility.yul\":35281:35316   */\n      swap1\n      pop\n        /* \"#utility.yul\":35253:35330   */\n    tag_834:\n        /* \"#utility.yul\":35356:35423   */\n      tag_835\n        /* \"#utility.yul\":35416:35422   */\n      dup6\n        /* \"#utility.yul\":35409:35414   */\n      dup3\n        /* \"#utility.yul\":35356:35423   */\n      tag_486\n      jump\t// in\n    tag_835:\n        /* \"#utility.yul\":35350:35354   */\n      dup7\n        /* \"#utility.yul\":35343:35424   */\n      sstore\n        /* \"#utility.yul\":35212:35434   */\n      pop\n        /* \"#utility.yul\":34548:35434   */\n      jump(tag_832)\n        /* \"#utility.yul\":34578:35195   */\n    tag_833:\n        /* \"#utility.yul\":34630:34634   */\n      0x1f\n        /* \"#utility.yul\":34626:34635   */\n      not\n        /* \"#utility.yul\":34618:34624   */\n      dup5\n        /* \"#utility.yul\":34614:34636   */\n      and\n        /* \"#utility.yul\":34664:34700   */\n      tag_836\n        /* \"#utility.yul\":34695:34699   */\n      dup7\n        /* \"#utility.yul\":34664:34700   */\n      tag_472\n      jump\t// in\n    tag_836:\n        /* \"#utility.yul\":34722:34723   */\n      0x00\n        /* \"#utility.yul\":34736:34944   */\n    tag_837:\n        /* \"#utility.yul\":34750:34757   */\n      dup3\n        /* \"#utility.yul\":34747:34748   */\n      dup2\n        /* \"#utility.yul\":34744:34758   */\n      lt\n        /* \"#utility.yul\":34736:34944   */\n      iszero\n      tag_839\n      jumpi\n        /* \"#utility.yul\":34829:34838   */\n      dup5\n        /* \"#utility.yul\":34824:34827   */\n      dup10\n        /* \"#utility.yul\":34820:34839   */\n      add\n        /* \"#utility.yul\":34814:34840   */\n      mload\n        /* \"#utility.yul\":34806:34812   */\n      dup3\n        /* \"#utility.yul\":34799:34841   */\n      sstore\n        /* \"#utility.yul\":34880:34881   */\n      0x01\n        /* \"#utility.yul\":34872:34878   */\n      dup3\n        /* \"#utility.yul\":34868:34882   */\n      add\n        /* \"#utility.yul\":34858:34882   */\n      swap2\n      pop\n        /* \"#utility.yul\":34927:34929   */\n      0x20\n        /* \"#utility.yul\":34916:34925   */\n      dup6\n        /* \"#utility.yul\":34912:34930   */\n      add\n        /* \"#utility.yul\":34899:34930   */\n      swap5\n      pop\n        /* \"#utility.yul\":34773:34777   */\n      0x20\n        /* \"#utility.yul\":34770:34771   */\n      dup2\n        /* \"#utility.yul\":34766:34778   */\n      add\n        /* \"#utility.yul\":34761:34778   */\n      swap1\n      pop\n        /* \"#utility.yul\":34736:34944   */\n      jump(tag_837)\n    tag_839:\n        /* \"#utility.yul\":34972:34978   */\n      dup7\n        /* \"#utility.yul\":34963:34970   */\n      dup4\n        /* \"#utility.yul\":34960:34979   */\n      lt\n        /* \"#utility.yul\":34957:35136   */\n      iszero\n      tag_840\n      jumpi\n        /* \"#utility.yul\":35030:35039   */\n      dup5\n        /* \"#utility.yul\":35025:35028   */\n      dup10\n        /* \"#utility.yul\":35021:35040   */\n      add\n        /* \"#utility.yul\":35015:35041   */\n      mload\n        /* \"#utility.yul\":35073:35121   */\n      tag_841\n        /* \"#utility.yul\":35115:35119   */\n      0x1f\n        /* \"#utility.yul\":35107:35113   */\n      dup10\n        /* \"#utility.yul\":35103:35120   */\n      and\n        /* \"#utility.yul\":35092:35101   */\n      dup3\n        /* \"#utility.yul\":35073:35121   */\n      tag_485\n      jump\t// in\n    tag_841:\n        /* \"#utility.yul\":35065:35071   */\n      dup4\n        /* \"#utility.yul\":35058:35122   */\n      sstore\n        /* \"#utility.yul\":34980:35136   */\n      pop\n        /* \"#utility.yul\":34957:35136   */\n    tag_840:\n        /* \"#utility.yul\":35182:35183   */\n      0x01\n        /* \"#utility.yul\":35178:35179   */\n      0x02\n        /* \"#utility.yul\":35170:35176   */\n      dup9\n        /* \"#utility.yul\":35166:35180   */\n      mul\n        /* \"#utility.yul\":35162:35184   */\n      add\n        /* \"#utility.yul\":35156:35160   */\n      dup9\n        /* \"#utility.yul\":35149:35185   */\n      sstore\n        /* \"#utility.yul\":34585:35195   */\n      pop\n      pop\n      pop\n        /* \"#utility.yul\":34548:35434   */\n    tag_832:\n      pop\n        /* \"#utility.yul\":34140:35440   */\n      pop\n      pop\n      pop\n        /* \"#utility.yul\":34050:35440   */\n      pop\n      pop\n      jump\t// out\n        /* \"#utility.yul\":35446:35778   */\n    tag_197:\n        /* \"#utility.yul\":35567:35571   */\n      0x00\n        /* \"#utility.yul\":35605:35607   */\n      0x40\n        /* \"#utility.yul\":35594:35603   */\n      dup3\n        /* \"#utility.yul\":35590:35608   */\n      add\n        /* \"#utility.yul\":35582:35608   */\n      swap1\n      pop\n        /* \"#utility.yul\":35618:35689   */\n      tag_843\n        /* \"#utility.yul\":35686:35687   */\n      0x00\n        /* \"#utility.yul\":35675:35684   */\n      dup4\n        /* \"#utility.yul\":35671:35688   */\n      add\n        /* \"#utility.yul\":35662:35668   */\n      dup6\n        /* \"#utility.yul\":35618:35689   */\n      tag_395\n      jump\t// in\n    tag_843:\n        /* \"#utility.yul\":35699:35771   */\n      tag_844\n        /* \"#utility.yul\":35767:35769   */\n      0x20\n        /* \"#utility.yul\":35756:35765   */\n      dup4\n        /* \"#utility.yul\":35752:35770   */\n      add\n        /* \"#utility.yul\":35743:35749   */\n      dup5\n        /* \"#utility.yul\":35699:35771   */\n      tag_395\n      jump\t// in\n    tag_844:\n        /* \"#utility.yul\":35446:35778   */\n      swap4\n      swap3\n      pop\n      pop\n      pop\n      jump\t// out\n        /* \"#utility.yul\":35784:35940   */\n    tag_487:\n        /* \"#utility.yul\":35924:35932   */\n      0x4661696c65640000000000000000000000000000000000000000000000000000\n        /* \"#utility.yul\":35920:35921   */\n      0x00\n        /* \"#utility.yul\":35912:35918   */\n      dup3\n        /* \"#utility.yul\":35908:35922   */\n      add\n        /* \"#utility.yul\":35901:35933   */\n      mstore\n        /* \"#utility.yul\":35784:35940   */\n      pop\n      jump\t// out\n        /* \"#utility.yul\":35946:36311   */\n    tag_488:\n        /* \"#utility.yul\":36088:36091   */\n      0x00\n        /* \"#utility.yul\":36109:36175   */\n      tag_847\n        /* \"#utility.yul\":36173:36174   */\n      0x06\n        /* \"#utility.yul\":36168:36171   */\n      dup4\n        /* \"#utility.yul\":36109:36175   */\n      tag_461\n      jump\t// in\n    tag_847:\n        /* \"#utility.yul\":36102:36175   */\n      swap2\n      pop\n        /* \"#utility.yul\":36184:36277   */\n      tag_848\n        /* \"#utility.yul\":36273:36276   */\n      dup3\n        /* \"#utility.yul\":36184:36277   */\n      tag_487\n      jump\t// in\n    tag_848:\n        /* \"#utility.yul\":36302:36304   */\n      0x20\n        /* \"#utility.yul\":36297:36300   */\n      dup3\n        /* \"#utility.yul\":36293:36305   */\n      add\n        /* \"#utility.yul\":36286:36305   */\n      swap1\n      pop\n        /* \"#utility.yul\":35946:36311   */\n      swap2\n      swap1\n      pop\n      jump\t// out\n        /* \"#utility.yul\":36317:36736   */\n    tag_208:\n        /* \"#utility.yul\":36483:36487   */\n      0x00\n        /* \"#utility.yul\":36521:36523   */\n      0x20\n        /* \"#utility.yul\":36510:36519   */\n      dup3\n        /* \"#utility.yul\":36506:36524   */\n      add\n        /* \"#utility.yul\":36498:36524   */\n      swap1\n      pop\n        /* \"#utility.yul\":36570:36579   */\n      dup2\n        /* \"#utility.yul\":36564:36568   */\n      dup2\n        /* \"#utility.yul\":36560:36580   */\n      sub\n        /* \"#utility.yul\":36556:36557   */\n      0x00\n        /* \"#utility.yul\":36545:36554   */\n      dup4\n        /* \"#utility.yul\":36541:36558   */\n      add\n        /* \"#utility.yul\":36534:36581   */\n      mstore\n        /* \"#utility.yul\":36598:36729   */\n      tag_850\n        /* \"#utility.yul\":36724:36728   */\n      dup2\n        /* \"#utility.yul\":36598:36729   */\n      tag_488\n      jump\t// in\n    tag_850:\n        /* \"#utility.yul\":36590:36729   */\n      swap1\n      pop\n        /* \"#utility.yul\":36317:36736   */\n      swap2\n      swap1\n      pop\n      jump\t// out\n        /* \"#utility.yul\":36742:36883   */\n    tag_489:\n        /* \"#utility.yul\":36791:36795   */\n      0x00\n        /* \"#utility.yul\":36814:36817   */\n      dup2\n        /* \"#utility.yul\":36806:36817   */\n      swap1\n      pop\n        /* \"#utility.yul\":36837:36840   */\n      dup2\n        /* \"#utility.yul\":36834:36835   */\n      0x00\n        /* \"#utility.yul\":36827:36841   */\n      mstore\n        /* \"#utility.yul\":36871:36875   */\n      0x20\n        /* \"#utility.yul\":36868:36869   */\n      0x00\n        /* \"#utility.yul\":36858:36876   */\n      keccak256\n        /* \"#utility.yul\":36850:36876   */\n      swap1\n      pop\n        /* \"#utility.yul\":36742:36883   */\n      swap2\n      swap1\n      pop\n      jump\t// out\n        /* \"#utility.yul\":36889:37432   */\n    tag_490:\n        /* \"#utility.yul\":36990:36992   */\n      0x1f\n        /* \"#utility.yul\":36985:36988   */\n      dup3\n        /* \"#utility.yul\":36982:36993   */\n      gt\n        /* \"#utility.yul\":36979:37425   */\n      iszero\n      tag_853\n      jumpi\n        /* \"#utility.yul\":37024:37062   */\n      tag_854\n        /* \"#utility.yul\":37056:37061   */\n      dup2\n        /* \"#utility.yul\":37024:37062   */\n      tag_489\n      jump\t// in\n    tag_854:\n        /* \"#utility.yul\":37108:37137   */\n      tag_855\n        /* \"#utility.yul\":37126:37136   */\n      dup5\n        /* \"#utility.yul\":37108:37137   */\n      tag_473\n      jump\t// in\n    tag_855:\n        /* \"#utility.yul\":37098:37106   */\n      dup2\n        /* \"#utility.yul\":37094:37138   */\n      add\n        /* \"#utility.yul\":37291:37293   */\n      0x20\n        /* \"#utility.yul\":37279:37289   */\n      dup6\n        /* \"#utility.yul\":37276:37294   */\n      lt\n        /* \"#utility.yul\":37273:37322   */\n      iszero\n      tag_856\n      jumpi\n        /* \"#utility.yul\":37312:37320   */\n      dup2\n        /* \"#utility.yul\":37297:37320   */\n      swap1\n      pop\n        /* \"#utility.yul\":37273:37322   */\n    tag_856:\n        /* \"#utility.yul\":37335:37415   */\n      tag_857\n        /* \"#utility.yul\":37391:37413   */\n      tag_858\n        /* \"#utility.yul\":37409:37412   */\n      dup6\n        /* \"#utility.yul\":37391:37413   */\n      tag_473\n      jump\t// in\n    tag_858:\n        /* \"#utility.yul\":37381:37389   */\n      dup4\n        /* \"#utility.yul\":37377:37414   */\n      add\n        /* \"#utility.yul\":37364:37375   */\n      dup3\n        /* \"#utility.yul\":37335:37415   */\n      tag_482\n      jump\t// in\n    tag_857:\n        /* \"#utility.yul\":36994:37425   */\n      pop\n      pop\n        /* \"#utility.yul\":36979:37425   */\n    tag_853:\n        /* \"#utility.yul\":36889:37432   */\n      pop\n      pop\n      pop\n      jump\t// out\n        /* \"#utility.yul\":37438:38833   */\n    tag_238:\n        /* \"#utility.yul\":37555:37592   */\n      tag_860\n        /* \"#utility.yul\":37588:37591   */\n      dup3\n        /* \"#utility.yul\":37555:37592   */\n      tag_450\n      jump\t// in\n    tag_860:\n        /* \"#utility.yul\":37657:37675   */\n      0xffffffffffffffff\n        /* \"#utility.yul\":37649:37655   */\n      dup2\n        /* \"#utility.yul\":37646:37676   */\n      gt\n        /* \"#utility.yul\":37643:37699   */\n      iszero\n      tag_861\n      jumpi\n        /* \"#utility.yul\":37679:37697   */\n      tag_862\n      tag_409\n      jump\t// in\n    tag_862:\n        /* \"#utility.yul\":37643:37699   */\n    tag_861:\n        /* \"#utility.yul\":37723:37761   */\n      tag_863\n        /* \"#utility.yul\":37755:37759   */\n      dup3\n        /* \"#utility.yul\":37749:37760   */\n      sload\n        /* \"#utility.yul\":37723:37761   */\n      tag_150\n      jump\t// in\n    tag_863:\n        /* \"#utility.yul\":37808:37875   */\n      tag_864\n        /* \"#utility.yul\":37868:37874   */\n      dup3\n        /* \"#utility.yul\":37860:37866   */\n      dup3\n        /* \"#utility.yul\":37854:37858   */\n      dup6\n        /* \"#utility.yul\":37808:37875   */\n      tag_490\n      jump\t// in\n    tag_864:\n        /* \"#utility.yul\":37902:37903   */\n      0x00\n        /* \"#utility.yul\":37926:37930   */\n      0x20\n        /* \"#utility.yul\":37913:37930   */\n      swap1\n      pop\n        /* \"#utility.yul\":37958:37960   */\n      0x1f\n        /* \"#utility.yul\":37950:37956   */\n      dup4\n        /* \"#utility.yul\":37947:37961   */\n      gt\n        /* \"#utility.yul\":37975:37976   */\n      0x01\n        /* \"#utility.yul\":37970:38588   */\n      dup2\n      eq\n      tag_866\n      jumpi\n        /* \"#utility.yul\":38632:38633   */\n      0x00\n        /* \"#utility.yul\":38649:38655   */\n      dup5\n        /* \"#utility.yul\":38646:38723   */\n      iszero\n      tag_867\n      jumpi\n        /* \"#utility.yul\":38698:38707   */\n      dup3\n        /* \"#utility.yul\":38693:38696   */\n      dup8\n        /* \"#utility.yul\":38689:38708   */\n      add\n        /* \"#utility.yul\":38683:38709   */\n      mload\n        /* \"#utility.yul\":38674:38709   */\n      swap1\n      pop\n        /* \"#utility.yul\":38646:38723   */\n    tag_867:\n        /* \"#utility.yul\":38749:38816   */\n      tag_868\n        /* \"#utility.yul\":38809:38815   */\n      dup6\n        /* \"#utility.yul\":38802:38807   */\n      dup3\n        /* \"#utility.yul\":38749:38816   */\n      tag_486\n      jump\t// in\n    tag_868:\n        /* \"#utility.yul\":38743:38747   */\n      dup7\n        /* \"#utility.yul\":38736:38817   */\n      sstore\n        /* \"#utility.yul\":38605:38827   */\n      pop\n        /* \"#utility.yul\":37940:38827   */\n      jump(tag_865)\n        /* \"#utility.yul\":37970:38588   */\n    tag_866:\n        /* \"#utility.yul\":38022:38026   */\n      0x1f\n        /* \"#utility.yul\":38018:38027   */\n      not\n        /* \"#utility.yul\":38010:38016   */\n      dup5\n        /* \"#utility.yul\":38006:38028   */\n      and\n        /* \"#utility.yul\":38056:38093   */\n      tag_869\n        /* \"#utility.yul\":38088:38092   */\n      dup7\n        /* \"#utility.yul\":38056:38093   */\n      tag_489\n      jump\t// in\n    tag_869:\n        /* \"#utility.yul\":38115:38116   */\n      0x00\n        /* \"#utility.yul\":38129:38337   */\n    tag_870:\n        /* \"#utility.yul\":38143:38150   */\n      dup3\n        /* \"#utility.yul\":38140:38141   */\n      dup2\n        /* \"#utility.yul\":38137:38151   */\n      lt\n        /* \"#utility.yul\":38129:38337   */\n      iszero\n      tag_872\n      jumpi\n        /* \"#utility.yul\":38222:38231   */\n      dup5\n        /* \"#utility.yul\":38217:38220   */\n      dup10\n        /* \"#utility.yul\":38213:38232   */\n      add\n        /* \"#utility.yul\":38207:38233   */\n      mload\n        /* \"#utility.yul\":38199:38205   */\n      dup3\n        /* \"#utility.yul\":38192:38234   */\n      sstore\n        /* \"#utility.yul\":38273:38274   */\n      0x01\n        /* \"#utility.yul\":38265:38271   */\n      dup3\n        /* \"#utility.yul\":38261:38275   */\n      add\n        /* \"#utility.yul\":38251:38275   */\n      swap2\n      pop\n        /* \"#utility.yul\":38320:38322   */\n      0x20\n        /* \"#utility.yul\":38309:38318   */\n      dup6\n        /* \"#utility.yul\":38305:38323   */\n      add\n        /* \"#utility.yul\":38292:38323   */\n      swap5\n      pop\n        /* \"#utility.yul\":38166:38170   */\n      0x20\n        /* \"#utility.yul\":38163:38164   */\n      dup2\n        /* \"#utility.yul\":38159:38171   */\n      add\n        /* \"#utility.yul\":38154:38171   */\n      swap1\n      pop\n        /* \"#utility.yul\":38129:38337   */\n      jump(tag_870)\n    tag_872:\n        /* \"#utility.yul\":38365:38371   */\n      dup7\n        /* \"#utility.yul\":38356:38363   */\n      dup4\n        /* \"#utility.yul\":38353:38372   */\n      lt\n        /* \"#utility.yul\":38350:38529   */\n      iszero\n      tag_873\n      jumpi\n        /* \"#utility.yul\":38423:38432   */\n      dup5\n        /* \"#utility.yul\":38418:38421   */\n      dup10\n        /* \"#utility.yul\":38414:38433   */\n      add\n        /* \"#utility.yul\":38408:38434   */\n      mload\n        /* \"#utility.yul\":38466:38514   */\n      tag_874\n        /* \"#utility.yul\":38508:38512   */\n      0x1f\n        /* \"#utility.yul\":38500:38506   */\n      dup10\n        /* \"#utility.yul\":38496:38513   */\n      and\n        /* \"#utility.yul\":38485:38494   */\n      dup3\n        /* \"#utility.yul\":38466:38514   */\n      tag_485\n      jump\t// in\n    tag_874:\n        /* \"#utility.yul\":38458:38464   */\n      dup4\n        /* \"#utility.yul\":38451:38515   */\n      sstore\n        /* \"#utility.yul\":38373:38529   */\n      pop\n        /* \"#utility.yul\":38350:38529   */\n    tag_873:\n        /* \"#utility.yul\":38575:38576   */\n      0x01\n        /* \"#utility.yul\":38571:38572   */\n      0x02\n        /* \"#utility.yul\":38563:38569   */\n      dup9\n        /* \"#utility.yul\":38559:38573   */\n      mul\n        /* \"#utility.yul\":38555:38577   */\n      add\n        /* \"#utility.yul\":38549:38553   */\n      dup9\n        /* \"#utility.yul\":38542:38578   */\n      sstore\n        /* \"#utility.yul\":37977:38588   */\n      pop\n      pop\n      pop\n        /* \"#utility.yul\":37940:38827   */\n    tag_865:\n      pop\n        /* \"#utility.yul\":37530:38833   */\n      pop\n      pop\n      pop\n        /* \"#utility.yul\":37438:38833   */\n      pop\n      pop\n      jump\t// out\n        /* \"#utility.yul\":38839:38987   */\n    tag_491:\n        /* \"#utility.yul\":38941:38952   */\n      0x00\n        /* \"#utility.yul\":38978:38981   */\n      dup2\n        /* \"#utility.yul\":38963:38981   */\n      swap1\n      pop\n        /* \"#utility.yul\":38839:38987   */\n      swap3\n      swap2\n      pop\n      pop\n      jump\t// out\n        /* \"#utility.yul\":38993:39383   */\n    tag_492:\n        /* \"#utility.yul\":39099:39102   */\n      0x00\n        /* \"#utility.yul\":39127:39166   */\n      tag_877\n        /* \"#utility.yul\":39160:39165   */\n      dup3\n        /* \"#utility.yul\":39127:39166   */\n      tag_450\n      jump\t// in\n    tag_877:\n        /* \"#utility.yul\":39182:39271   */\n      tag_878\n        /* \"#utility.yul\":39264:39270   */\n      dup2\n        /* \"#utility.yul\":39259:39262   */\n      dup6\n        /* \"#utility.yul\":39182:39271   */\n      tag_491\n      jump\t// in\n    tag_878:\n        /* \"#utility.yul\":39175:39271   */\n      swap4\n      pop\n        /* \"#utility.yul\":39280:39345   */\n      tag_879\n        /* \"#utility.yul\":39338:39344   */\n      dup2\n        /* \"#utility.yul\":39333:39336   */\n      dup6\n        /* \"#utility.yul\":39326:39330   */\n      0x20\n        /* \"#utility.yul\":39319:39324   */\n      dup7\n        /* \"#utility.yul\":39315:39331   */\n      add\n        /* \"#utility.yul\":39280:39345   */\n      tag_424\n      jump\t// in\n    tag_879:\n        /* \"#utility.yul\":39370:39376   */\n      dup1\n        /* \"#utility.yul\":39365:39368   */\n      dup5\n        /* \"#utility.yul\":39361:39377   */\n      add\n        /* \"#utility.yul\":39354:39377   */\n      swap2\n      pop\n        /* \"#utility.yul\":39103:39383   */\n      pop\n        /* \"#utility.yul\":38993:39383   */\n      swap3\n      swap2\n      pop\n      pop\n      jump\t// out\n        /* \"#utility.yul\":39389:39664   */\n    tag_243:\n        /* \"#utility.yul\":39521:39524   */\n      0x00\n        /* \"#utility.yul\":39543:39638   */\n      tag_881\n        /* \"#utility.yul\":39634:39637   */\n      dup3\n        /* \"#utility.yul\":39625:39631   */\n      dup5\n        /* \"#utility.yul\":39543:39638   */\n      tag_492\n      jump\t// in\n    tag_881:\n        /* \"#utility.yul\":39536:39638   */\n      swap2\n      pop\n        /* \"#utility.yul\":39655:39658   */\n      dup2\n        /* \"#utility.yul\":39648:39658   */\n      swap1\n      pop\n        /* \"#utility.yul\":39389:39664   */\n      swap3\n      swap2\n      pop\n      pop\n      jump\t// out\n        /* \"#utility.yul\":39670:40191   */\n    tag_246:\n        /* \"#utility.yul\":39833:39837   */\n      0x00\n        /* \"#utility.yul\":39871:39873   */\n      0x60\n        /* \"#utility.yul\":39860:39869   */\n      dup3\n        /* \"#utility.yul\":39856:39874   */\n      add\n        /* \"#utility.yul\":39848:39874   */\n      swap1\n      pop\n        /* \"#utility.yul\":39920:39929   */\n      dup2\n        /* \"#utility.yul\":39914:39918   */\n      dup2\n        /* \"#utility.yul\":39910:39930   */\n      sub\n        /* \"#utility.yul\":39906:39907   */\n      0x00\n        /* \"#utility.yul\":39895:39904   */\n      dup4\n        /* \"#utility.yul\":39891:39908   */\n      add\n        /* \"#utility.yul\":39884:39931   */\n      mstore\n        /* \"#utility.yul\":39948:40026   */\n      tag_883\n        /* \"#utility.yul\":40021:40025   */\n      dup2\n        /* \"#utility.yul\":40012:40018   */\n      dup7\n        /* \"#utility.yul\":39948:40026   */\n      tag_462\n      jump\t// in\n    tag_883:\n        /* \"#utility.yul\":39940:40026   */\n      swap1\n      pop\n        /* \"#utility.yul\":40036:40108   */\n      tag_884\n        /* \"#utility.yul\":40104:40106   */\n      0x20\n        /* \"#utility.yul\":40093:40102   */\n      dup4\n        /* \"#utility.yul\":40089:40107   */\n      add\n        /* \"#utility.yul\":40080:40086   */\n      dup6\n        /* \"#utility.yul\":40036:40108   */\n      tag_395\n      jump\t// in\n    tag_884:\n        /* \"#utility.yul\":40118:40184   */\n      tag_885\n        /* \"#utility.yul\":40180:40182   */\n      0x40\n        /* \"#utility.yul\":40169:40178   */\n      dup4\n        /* \"#utility.yul\":40165:40183   */\n      add\n        /* \"#utility.yul\":40156:40162   */\n      dup5\n        /* \"#utility.yul\":40118:40184   */\n      tag_417\n      jump\t// in\n    tag_885:\n        /* \"#utility.yul\":39670:40191   */\n      swap5\n      swap4\n      pop\n      pop\n      pop\n      pop\n      jump\t// out\n        /* \"#utility.yul\":40197:40430   */\n    tag_326:\n        /* \"#utility.yul\":40236:40239   */\n      0x00\n        /* \"#utility.yul\":40259:40283   */\n      tag_887\n        /* \"#utility.yul\":40277:40282   */\n      dup3\n        /* \"#utility.yul\":40259:40283   */\n      tag_394\n      jump\t// in\n    tag_887:\n        /* \"#utility.yul\":40250:40283   */\n      swap2\n      pop\n        /* \"#utility.yul\":40305:40371   */\n      0xffffffffffffffffffffffffffffffffffffffffffffffffffffffffffffffff\n        /* \"#utility.yul\":40298:40303   */\n      dup3\n        /* \"#utility.yul\":40295:40372   */\n      sub\n        /* \"#utility.yul\":40292:40395   */\n      tag_888\n      jumpi\n        /* \"#utility.yul\":40375:40393   */\n      tag_889\n      tag_464\n      jump\t// in\n    tag_889:\n        /* \"#utility.yul\":40292:40395   */\n    tag_888:\n        /* \"#utility.yul\":40422:40423   */\n      0x01\n        /* \"#utility.yul\":40415:40420   */\n      dup3\n        /* \"#utility.yul\":40411:40424   */\n      add\n        /* \"#utility.yul\":40404:40424   */\n      swap1\n      pop\n        /* \"#utility.yul\":40197:40430   */\n      swap2\n      swap1\n      pop\n      jump\t// out\n        /* \"#utility.yul\":40436:40602   */\n    tag_493:\n        /* \"#utility.yul\":40576:40594   */\n      0x417070204964204e6f7420466f756e6400000000000000000000000000000000\n        /* \"#utility.yul\":40572:40573   */\n      0x00\n        /* \"#utility.yul\":40564:40570   */\n      dup3\n        /* \"#utility.yul\":40560:40574   */\n      add\n        /* \"#utility.yul\":40553:40595   */\n      mstore\n        /* \"#utility.yul\":40436:40602   */\n      pop\n      jump\t// out\n        /* \"#utility.yul\":40608:40974   */\n    tag_494:\n        /* \"#utility.yul\":40750:40753   */\n      0x00\n        /* \"#utility.yul\":40771:40838   */\n      tag_892\n        /* \"#utility.yul\":40835:40837   */\n      0x10\n        /* \"#utility.yul\":40830:40833   */\n      dup4\n        /* \"#utility.yul\":40771:40838   */\n      tag_461\n      jump\t// in\n    tag_892:\n        /* \"#utility.yul\":40764:40838   */\n      swap2\n      pop\n        /* \"#utility.yul\":40847:40940   */\n      tag_893\n        /* \"#utility.yul\":40936:40939   */\n      dup3\n        /* \"#utility.yul\":40847:40940   */\n      tag_493\n      jump\t// in\n    tag_893:\n        /* \"#utility.yul\":40965:40967   */\n      0x20\n        /* \"#utility.yul\":40960:40963   */\n      dup3\n        /* \"#utility.yul\":40956:40968   */\n      add\n        /* \"#utility.yul\":40949:40968   */\n      swap1\n      pop\n        /* \"#utility.yul\":40608:40974   */\n      swap2\n      swap1\n      pop\n      jump\t// out\n        /* \"#utility.yul\":40980:41399   */\n    tag_369:\n        /* \"#utility.yul\":41146:41150   */\n      0x00\n        /* \"#utility.yul\":41184:41186   */\n      0x20\n        /* \"#utility.yul\":41173:41182   */\n      dup3\n        /* \"#utility.yul\":41169:41187   */\n      add\n        /* \"#utility.yul\":41161:41187   */\n      swap1\n      pop\n        /* \"#utility.yul\":41233:41242   */\n      dup2\n        /* \"#utility.yul\":41227:41231   */\n      dup2\n        /* \"#utility.yul\":41223:41243   */\n      sub\n        /* \"#utility.yul\":41219:41220   */\n      0x00\n        /* \"#utility.yul\":41208:41217   */\n      dup4\n        /* \"#utility.yul\":41204:41221   */\n      add\n        /* \"#utility.yul\":41197:41244   */\n      mstore\n        /* \"#utility.yul\":41261:41392   */\n      tag_895\n        /* \"#utility.yul\":41387:41391   */\n      dup2\n        /* \"#utility.yul\":41261:41392   */\n      tag_494\n      jump\t// in\n    tag_895:\n        /* \"#utility.yul\":41253:41392   */\n      swap1\n      pop\n        /* \"#utility.yul\":40980:41399   */\n      swap2\n      swap1\n      pop\n      jump\t// out\n        /* \"#utility.yul\":41405:41815   */\n    tag_372:\n        /* \"#utility.yul\":41445:41452   */\n      0x00\n        /* \"#utility.yul\":41468:41488   */\n      tag_897\n        /* \"#utility.yul\":41486:41487   */\n      dup3\n        /* \"#utility.yul\":41468:41488   */\n      tag_394\n      jump\t// in\n    tag_897:\n        /* \"#utility.yul\":41463:41488   */\n      swap2\n      pop\n        /* \"#utility.yul\":41502:41522   */\n      tag_898\n        /* \"#utility.yul\":41520:41521   */\n      dup4\n        /* \"#utility.yul\":41502:41522   */\n      tag_394\n      jump\t// in\n    tag_898:\n        /* \"#utility.yul\":41497:41522   */\n      swap3\n      pop\n        /* \"#utility.yul\":41557:41558   */\n      dup3\n        /* \"#utility.yul\":41554:41555   */\n      dup3\n        /* \"#utility.yul\":41550:41559   */\n      mul\n        /* \"#utility.yul\":41579:41609   */\n      tag_899\n        /* \"#utility.yul\":41597:41608   */\n      dup2\n        /* \"#utility.yul\":41579:41609   */\n      tag_394\n      jump\t// in\n    tag_899:\n        /* \"#utility.yul\":41568:41609   */\n      swap2\n      pop\n        /* \"#utility.yul\":41758:41759   */\n      dup3\n        /* \"#utility.yul\":41749:41756   */\n      dup3\n        /* \"#utility.yul\":41745:41760   */\n      div\n        /* \"#utility.yul\":41742:41743   */\n      dup5\n        /* \"#utility.yul\":41739:41761   */\n      eq\n        /* \"#utility.yul\":41719:41720   */\n      dup4\n        /* \"#utility.yul\":41712:41721   */\n      iszero\n        /* \"#utility.yul\":41692:41775   */\n      or\n        /* \"#utility.yul\":41669:41808   */\n      tag_900\n      jumpi\n        /* \"#utility.yul\":41788:41806   */\n      tag_901\n      tag_464\n      jump\t// in\n    tag_901:\n        /* \"#utility.yul\":41669:41808   */\n    tag_900:\n        /* \"#utility.yul\":41453:41815   */\n      pop\n        /* \"#utility.yul\":41405:41815   */\n      swap3\n      swap2\n      pop\n      pop\n      jump\t// out\n        /* \"#utility.yul\":41821:42001   */\n    tag_495:\n        /* \"#utility.yul\":41869:41946   */\n      0x4e487b7100000000000000000000000000000000000000000000000000000000\n        /* \"#utility.yul\":41866:41867   */\n      0x00\n        /* \"#utility.yul\":41859:41947   */\n      mstore\n        /* \"#utility.yul\":41966:41970   */\n      0x12\n        /* \"#utility.yul\":41963:41964   */\n      0x04\n        /* \"#utility.yul\":41956:41971   */\n      mstore\n        /* \"#utility.yul\":41990:41994   */\n      0x24\n        /* \"#utility.yul\":41987:41988   */\n      0x00\n        /* \"#utility.yul\":41980:41995   */\n      revert\n        /* \"#utility.yul\":42007:42192   */\n    tag_376:\n        /* \"#utility.yul\":42047:42048   */\n      0x00\n        /* \"#utility.yul\":42064:42084   */\n      tag_904\n        /* \"#utility.yul\":42082:42083   */\n      dup3\n        /* \"#utility.yul\":42064:42084   */\n      tag_394\n      jump\t// in\n    tag_904:\n        /* \"#utility.yul\":42059:42084   */\n      swap2\n      pop\n        /* \"#utility.yul\":42098:42118   */\n      tag_905\n        /* \"#utility.yul\":42116:42117   */\n      dup4\n        /* \"#utility.yul\":42098:42118   */\n      tag_394\n      jump\t// in\n    tag_905:\n        /* \"#utility.yul\":42093:42118   */\n      swap3\n      pop\n        /* \"#utility.yul\":42137:42138   */\n      dup3\n        /* \"#utility.yul\":42127:42162   */\n      tag_906\n      jumpi\n        /* \"#utility.yul\":42142:42160   */\n      tag_907\n      tag_495\n      jump\t// in\n    tag_907:\n        /* \"#utility.yul\":42127:42162   */\n    tag_906:\n        /* \"#utility.yul\":42184:42185   */\n      dup3\n        /* \"#utility.yul\":42181:42182   */\n      dup3\n        /* \"#utility.yul\":42177:42186   */\n      div\n        /* \"#utility.yul\":42172:42186   */\n      swap1\n      pop\n        /* \"#utility.yul\":42007:42192   */\n      swap3\n      swap2\n      pop\n      pop\n      jump\t// out\n\n    auxdata: 0xa264697066735822122097d0db68017c7d91ccac17594ef93a2b76f45a81dfbc7f53400241121256f6b964736f6c634300081c0033\n}\n",
				"bytecode": {
					"linkReferences": {},
					"object": "608060405234801561000f575f5ffd5b5060405161333f38038061333f833981810160405281019061003191906101e6565b335f73ffffffffffffffffffffffffffffffffffffffff168173ffffffffffffffffffffffffffffffffffffffff16036100a2575f6040517f1e4fbdf70000000000000000000000000000000000000000000000000000000081526004016100999190610250565b60405180910390fd5b6100b1816100eb60201b60201c565b505f5f60146101000a81548160ff0219169083151502179055508060035f6101000a81548160ff021916908360ff16021790555050610269565b5f5f5f9054906101000a900473ffffffffffffffffffffffffffffffffffffffff169050815f5f6101000a81548173ffffffffffffffffffffffffffffffffffffffff021916908373ffffffffffffffffffffffffffffffffffffffff1602179055508173ffffffffffffffffffffffffffffffffffffffff168173ffffffffffffffffffffffffffffffffffffffff167f8be0079c531659141344cd1fd0a4f28419497f9722a3daafe3b4186f6b6457e060405160405180910390a35050565b5f5ffd5b5f60ff82169050919050565b6101c5816101b0565b81146101cf575f5ffd5b50565b5f815190506101e0816101bc565b92915050565b5f602082840312156101fb576101fa6101ac565b5b5f610208848285016101d2565b91505092915050565b5f73ffffffffffffffffffffffffffffffffffffffff82169050919050565b5f61023a82610211565b9050919050565b61024a81610230565b82525050565b5f6020820190506102635f830184610241565b92915050565b6130c9806102765f395ff3fe608060405260043610610129575f3560e01c806380de0ea7116100aa578063c019e8591161006e578063c019e8591461038f578063c4299885146103b9578063d2d41c2c146103f5578063ddca3f4314610431578063e0a1be301461045b578063f2fde38b1461049c57610129565b806380de0ea7146102d35780638456cb59146102fd5780638da5cb5b14610313578063949c09b81461033d578063af75c2e51461036557610129565b806356a6d9ef116100f157806356a6d9ef146101f35780635c975abb1461021b5780635da18d2214610245578063715018a61461028157806378b963e01461029757610129565b806312065fe01461012d5780631f15a20b146101575780633ccfd60b146101875780633f4ba83a1461019d5780634bc34927146101b3575b5f5ffd5b348015610138575f5ffd5b506101416104c4565b60405161014e9190611bdc565b60405180910390f35b610171600480360381019061016c9190611dcf565b6104d3565b60405161017e9190611e55565b60405180910390f35b348015610192575f5ffd5b5061019b610acc565b005b3480156101a8575f5ffd5b506101b1610b8b565b005b3480156101be575f5ffd5b506101d960048036038101906101d49190611e98565b610b9d565b6040516101ea959493929190611f54565b60405180910390f35b3480156101fe575f5ffd5b5061021960048036038101906102149190611fe7565b610c8e565b005b348015610226575f5ffd5b5061022f610d43565b60405161023c9190611e55565b60405180910390f35b348015610250575f5ffd5b5061026b600480360381019061026691906120c3565b610d58565b604051610278919061217b565b60405180910390f35b34801561028c575f5ffd5b50610295610ebc565b005b3480156102a2575f5ffd5b506102bd60048036038101906102b89190612194565b610ecf565b6040516102ca9190612362565b60405180910390f35b3480156102de575f5ffd5b506102e761106a565b6040516102f49190611bdc565b60405180910390f35b348015610308575f5ffd5b50610311611075565b005b34801561031e575f5ffd5b50610327611087565b6040516103349190612382565b60405180910390f35b348015610348575f5ffd5b50610363600480360381019061035e91906123d1565b6110ae565b005b348015610370575f5ffd5b5061037961112c565b60405161038691906125ac565b60405180910390f35b34801561039a575f5ffd5b506103a3611365565b6040516103b09190611bdc565b60405180910390f35b3480156103c4575f5ffd5b506103df60048036038101906103da91906125f6565b611370565b6040516103ec919061217b565b60405180910390f35b348015610400575f5ffd5b5061041b600480360381019061041691906126d3565b6114ec565b6040516104289190611bdc565b60405180910390f35b34801561043c575f5ffd5b506104456115ca565b6040516104529190612720565b60405180910390f35b348015610466575f5ffd5b50610481600480360381019061047c9190612739565b6115dc565b604051610493969594939291906127ac565b60405180910390f35b3480156104a7575f5ffd5b506104c260048036038101906104bd9190612194565b6117c1565b005b5f6104cd611845565b47905090565b5f6104dc6118cc565b8373ffffffffffffffffffffffffffffffffffffffff166104fb61190d565b73ffffffffffffffffffffffffffffffffffffffff160361051f5761051e612820565b5b5f61052984611914565b90505f600582815481106105405761053f61284d565b5b905f5260205f2090600602016040518060c00160405290815f8201548152602001600182018054610570906128a7565b80601f016020809104026020016040519081016040528092919081815260200182805461059c906128a7565b80156105e75780601f106105be576101008083540402835291602001916105e7565b820191905f5260205f20905b8154815290600101906020018083116105ca57829003601f168201915b50505050508152602001600282018054610600906128a7565b80601f016020809104026020016040519081016040528092919081815260200182805461062c906128a7565b80156106775780601f1061064e57610100808354040283529160200191610677565b820191905f5260205f20905b81548152906001019060200180831161065a57829003601f168201915b50505050508152602001600382018054610690906128a7565b80601f01602080910402602001604051908101604052809291908181526020018280546106bc906128a7565b80156107075780601f106106de57610100808354040283529160200191610707565b820191905f5260205f20905b8154815290600101906020018083116106ea57829003601f168201915b5050505050815260200160048201548152602001600582015f9054906101000a900460ff16151515158152505090505f8160800151111561092557806080015134101561078b57346040517f926653510000000000000000000000000000000000000000000000000000000081526004016107829190611bdc565b60405180910390fd5b5f8673ffffffffffffffffffffffffffffffffffffffff166107ca3460035f9054906101000a900460ff1660646107c29190612904565b60ff166119a7565b6040516107d690612965565b5f6040518083038185875af1925050503d805f8114610810576040519150601f19603f3d011682016040523d82523d5f602084013e610815565b606091505b5050905080610859576040517f08c379a0000000000000000000000000000000000000000000000000000000008152600401610850906129e9565b60405180910390fd5b5f610862611087565b73ffffffffffffffffffffffffffffffffffffffff166108933460035f9054906101000a900460ff1660ff166119a7565b60405161089f90612965565b5f6040518083038185875af1925050503d805f81146108d9576040519150601f19603f3d011682016040523d82523d5f602084013e6108de565b606091505b5050905080610922576040517f08c379a000000000000000000000000000000000000000000000000000000000815260040161091990612a77565b60405180910390fd5b50505b60045f8773ffffffffffffffffffffffffffffffffffffffff1673ffffffffffffffffffffffffffffffffffffffff1681526020019081526020015f206040518060a0016040528061097561190d565b73ffffffffffffffffffffffffffffffffffffffff16815260200187815260200134815260200186815260200142815250908060018154018082558091505060019003905f5260205f2090600502015f909190919091505f820151815f015f6101000a81548173ffffffffffffffffffffffffffffffffffffffff021916908373ffffffffffffffffffffffffffffffffffffffff16021790555060208201518160010155604082015181600201556060820151816003019081610a399190612c35565b50608082015181600401555050610a5060026119e0565b8573ffffffffffffffffffffffffffffffffffffffff16610a6f61190d565b73ffffffffffffffffffffffffffffffffffffffff16867ff7715e8651944fa7bb83dfa9c05d60953e1f5c39aa950c22ae6028b75c58fc7d3442604051610ab7929190612d04565b60405180910390a46001925050509392505050565b610ad4611845565b5f4790505f610ae1611087565b73ffffffffffffffffffffffffffffffffffffffff1682604051610b0490612965565b5f6040518083038185875af1925050503d805f8114610b3e576040519150601f19603f3d011682016040523d82523d5f602084013e610b43565b606091505b5050905080610b87576040517f08c379a0000000000000000000000000000000000000000000000000000000008152600401610b7e90612d75565b60405180910390fd5b5050565b610b93611845565b610b9b6119f4565b565b6004602052815f5260405f208181548110610bb6575f80fd5b905f5260205f2090600502015f9150915050805f015f9054906101000a900473ffffffffffffffffffffffffffffffffffffffff1690806001015490806002015490806003018054610c07906128a7565b80601f0160208091040260200160405190810160405280929190818152602001828054610c33906128a7565b8015610c7e5780601f10610c5557610100808354040283529160200191610c7e565b820191905f5260205f20905b815481529060010190602001808311610c6157829003601f168201915b5050505050908060040154905085565b610c96611845565b5f8273ffffffffffffffffffffffffffffffffffffffff1682604051610cbb90612965565b5f6040518083038185875af1925050503d805f8114610cf5576040519150601f19603f3d011682016040523d82523d5f602084013e610cfa565b606091505b5050905080610d3e576040517f08c379a0000000000000000000000000000000000000000000000000000000008152600401610d3590612d75565b60405180910390fd5b505050565b5f5f60149054906101000a900460ff16905090565b5f610d61611845565b5f610d6c6001611a55565b5f1b905060056040518060c0016040528083815260200188815260200187815260200186815260200185815260200160011515815250908060018154018082558091505060019003905f5260205f2090600602015f909190919091505f820151815f01556020820151816001019081610de59190612deb565b506040820151816002019081610dfb9190612deb565b506060820151816003019081610e119190612deb565b506080820151816004015560a0820151816005015f6101000a81548160ff0219169083151502179055505050610e4760016119e0565b83604051610e559190612ef4565b604051809103902085604051610e6b9190612ef4565b6040518091039020827f7f2c4a7e55c1d8e93ba4e1329a979e15cb06b5d3974df147d3b338ce84dd9cd989876001604051610ea893929190612f0a565b60405180910390a480915050949350505050565b610ec4611845565b610ecd5f611a61565b565b606060045f8373ffffffffffffffffffffffffffffffffffffffff1673ffffffffffffffffffffffffffffffffffffffff1681526020019081526020015f20805480602002602001604051908101604052809291908181526020015f905b8282101561105f578382905f5260205f2090600502016040518060a00160405290815f82015f9054906101000a900473ffffffffffffffffffffffffffffffffffffffff1673ffffffffffffffffffffffffffffffffffffffff1673ffffffffffffffffffffffffffffffffffffffff1681526020016001820154815260200160028201548152602001600382018054610fc6906128a7565b80601f0160208091040260200160405190810160405280929190818152602001828054610ff2906128a7565b801561103d5780601f106110145761010080835404028352916020019161103d565b820191905f5260205f20905b81548152906001019060200180831161102057829003601f168201915b5050505050815260200160048201548152505081526020019060010190610f2d565b505050509050919050565b6001805f0154905081565b61107d611845565b611085611b22565b565b5f5f5f9054906101000a900473ffffffffffffffffffffffffffffffffffffffff16905090565b6110b6611845565b606460035f9054906101000a900460ff1660ff16106110d8576110d7612820565b5b8060035f6101000a81548160ff021916908360ff1602179055507f3417887ae5fbc941092ff601511bc0f4e3f14ae835bb881189b4c8148c651269816040516111219190612720565b60405180910390a150565b60606005805480602002602001604051908101604052809291908181526020015f905b8282101561135c578382905f5260205f2090600602016040518060c00160405290815f8201548152602001600182018054611189906128a7565b80601f01602080910402602001604051908101604052809291908181526020018280546111b5906128a7565b80156112005780601f106111d757610100808354040283529160200191611200565b820191905f5260205f20905b8154815290600101906020018083116111e357829003601f168201915b50505050508152602001600282018054611219906128a7565b80601f0160208091040260200160405190810160405280929190818152602001828054611245906128a7565b80156112905780601f1061126757610100808354040283529160200191611290565b820191905f5260205f20905b81548152906001019060200180831161127357829003601f168201915b505050505081526020016003820180546112a9906128a7565b80601f01602080910402602001604051908101604052809291908181526020018280546112d5906128a7565b80156113205780601f106112f757610100808354040283529160200191611320565b820191905f5260205f20905b81548152906001019060200180831161130357829003601f168201915b5050505050815260200160048201548152602001600582015f9054906101000a900460ff1615151515815250508152602001906001019061114f565b50505050905090565b6002805f0154905081565b5f611379611845565b5f61138388611914565b9050866005828154811061139a5761139961284d565b5b905f5260205f20906006020160010190816113b59190612deb565b5085600582815481106113cb576113ca61284d565b5b905f5260205f20906006020160020190816113e69190612deb565b5084600582815481106113fc576113fb61284d565b5b905f5260205f20906006020160030190816114179190612deb565b50836005828154811061142d5761142c61284d565b5b905f5260205f2090600602016004018190555082600582815481106114555761145461284d565b5b905f5260205f2090600602016005015f6101000a81548160ff021916908315150217905550846040516114889190612ef4565b60405180910390208660405161149e9190612ef4565b6040518091039020897fbdff6d3212c3d1a7bee36a46dadc4a6ed6784717d4b4fad8247f2aaff5de598b876040516114d69190611bdc565b60405180910390a4879150509695505050505050565b5f5f5f90505f5f90505b60045f8673ffffffffffffffffffffffffffffffffffffffff1673ffffffffffffffffffffffffffffffffffffffff1681526020019081526020015f20805490508110156115bf578360045f8773ffffffffffffffffffffffffffffffffffffffff1673ffffffffffffffffffffffffffffffffffffffff1681526020019081526020015f20828154811061158e5761158d61284d565b5b905f5260205f20906005020160010154036115b25781806115ae90612f46565b9250505b80806001019150506114f6565b508091505092915050565b60035f9054906101000a900460ff1681565b600581815481106115eb575f80fd5b905f5260205f2090600602015f91509050805f015490806001018054611610906128a7565b80601f016020809104026020016040519081016040528092919081815260200182805461163c906128a7565b80156116875780601f1061165e57610100808354040283529160200191611687565b820191905f5260205f20905b81548152906001019060200180831161166a57829003601f168201915b50505050509080600201805461169c906128a7565b80601f01602080910402602001604051908101604052809291908181526020018280546116c8906128a7565b80156117135780601f106116ea57610100808354040283529160200191611713565b820191905f5260205f20905b8154815290600101906020018083116116f657829003601f168201915b505050505090806003018054611728906128a7565b80601f0160208091040260200160405190810160405280929190818152602001828054611754906128a7565b801561179f5780601f106117765761010080835404028352916020019161179f565b820191905f5260205f20905b81548152906001019060200180831161178257829003601f168201915b505050505090806004015490806005015f9054906101000a900460ff16905086565b6117c9611845565b5f73ffffffffffffffffffffffffffffffffffffffff168173ffffffffffffffffffffffffffffffffffffffff1603611839575f6040517f1e4fbdf70000000000000000000000000000000000000000000000000000000081526004016118309190612382565b60405180910390fd5b61184281611a61565b50565b61184d61190d565b73ffffffffffffffffffffffffffffffffffffffff1661186b611087565b73ffffffffffffffffffffffffffffffffffffffff16146118ca5761188e61190d565b6040517f118cdaa70000000000000000000000000000000000000000000000000000000081526004016118c19190612382565b60405180910390fd5b565b6118d4610d43565b1561190b576040517fd93c066500000000000000000000000000000000000000000000000000000000815260040160405180910390fd5b565b5f33905090565b5f5f5f90505b60058054905081101561196657826005828154811061193c5761193b61284d565b5b905f5260205f2090600602015f01540361195957809150506119a2565b808060010191505061191a565b506040517f08c379a000000000000000000000000000000000000000000000000000000000815260040161199990612fd7565b60405180910390fd5b919050565b5f606482846119b69190612ff5565b10156119c0575f5ffd5b606482846119ce9190612ff5565b6119d89190613063565b905092915050565b6001815f015f828254019250508190555050565b6119fc611b84565b5f5f60146101000a81548160ff0219169083151502179055507f5db9ee0a495bf2e6ff9c91a7834c1ba4fdd244a5e8aa4e537bd38aeae4b073aa611a3e61190d565b604051611a4b9190612382565b60405180910390a1565b5f815f01549050919050565b5f5f5f9054906101000a900473ffffffffffffffffffffffffffffffffffffffff169050815f5f6101000a81548173ffffffffffffffffffffffffffffffffffffffff021916908373ffffffffffffffffffffffffffffffffffffffff1602179055508173ffffffffffffffffffffffffffffffffffffffff168173ffffffffffffffffffffffffffffffffffffffff167f8be0079c531659141344cd1fd0a4f28419497f9722a3daafe3b4186f6b6457e060405160405180910390a35050565b611b2a6118cc565b60015f60146101000a81548160ff0219169083151502179055507f62e78cea01bee320cd4e420270b5ea74000d11b0c9f74754ebdbfc544b05a258611b6d61190d565b604051611b7a9190612382565b60405180910390a1565b611b8c610d43565b611bc2576040517f8dfc202b00000000000000000000000000000000000000000000000000000000815260040160405180910390fd5b565b5f819050919050565b611bd681611bc4565b82525050565b5f602082019050611bef5f830184611bcd565b92915050565b5f604051905090565b5f5ffd5b5f5ffd5b5f73ffffffffffffffffffffffffffffffffffffffff82169050919050565b5f611c2f82611c06565b9050919050565b611c3f81611c25565b8114611c49575f5ffd5b50565b5f81359050611c5a81611c36565b92915050565b5f819050919050565b611c7281611c60565b8114611c7c575f5ffd5b50565b5f81359050611c8d81611c69565b92915050565b5f5ffd5b5f5ffd5b5f601f19601f8301169050919050565b7f4e487b71000000000000000000000000000000000000000000000000000000005f52604160045260245ffd5b611ce182611c9b565b810181811067ffffffffffffffff82111715611d0057611cff611cab565b5b80604052505050565b5f611d12611bf5565b9050611d1e8282611cd8565b919050565b5f67ffffffffffffffff821115611d3d57611d3c611cab565b5b611d4682611c9b565b9050602081019050919050565b828183375f83830152505050565b5f611d73611d6e84611d23565b611d09565b905082815260208101848484011115611d8f57611d8e611c97565b5b611d9a848285611d53565b509392505050565b5f82601f830112611db657611db5611c93565b5b8135611dc6848260208601611d61565b91505092915050565b5f5f5f60608486031215611de657611de5611bfe565b5b5f611df386828701611c4c565b9350506020611e0486828701611c7f565b925050604084013567ffffffffffffffff811115611e2557611e24611c02565b5b611e3186828701611da2565b9150509250925092565b5f8115159050919050565b611e4f81611e3b565b82525050565b5f602082019050611e685f830184611e46565b92915050565b611e7781611bc4565b8114611e81575f5ffd5b50565b5f81359050611e9281611e6e565b92915050565b5f5f60408385031215611eae57611ead611bfe565b5b5f611ebb85828601611c4c565b9250506020611ecc85828601611e84565b9150509250929050565b611edf81611c25565b82525050565b611eee81611c60565b82525050565b5f81519050919050565b5f82825260208201905092915050565b8281835e5f83830152505050565b5f611f2682611ef4565b611f308185611efe565b9350611f40818560208601611f0e565b611f4981611c9b565b840191505092915050565b5f60a082019050611f675f830188611ed6565b611f746020830187611ee5565b611f816040830186611bcd565b8181036060830152611f938185611f1c565b9050611fa26080830184611bcd565b9695505050505050565b5f611fb682611c06565b9050919050565b611fc681611fac565b8114611fd0575f5ffd5b50565b5f81359050611fe181611fbd565b92915050565b5f5f60408385031215611ffd57611ffc611bfe565b5b5f61200a85828601611fd3565b925050602061201b85828601611e84565b9150509250929050565b5f67ffffffffffffffff82111561203f5761203e611cab565b5b61204882611c9b565b9050602081019050919050565b5f61206761206284612025565b611d09565b90508281526020810184848401111561208357612082611c97565b5b61208e848285611d53565b509392505050565b5f82601f8301126120aa576120a9611c93565b5b81356120ba848260208601612055565b91505092915050565b5f5f5f5f608085870312156120db576120da611bfe565b5b5f85013567ffffffffffffffff8111156120f8576120f7611c02565b5b61210487828801612096565b945050602085013567ffffffffffffffff81111561212557612124611c02565b5b61213187828801612096565b935050604085013567ffffffffffffffff81111561215257612151611c02565b5b61215e87828801612096565b925050606061216f87828801611e84565b91505092959194509250565b5f60208201905061218e5f830184611ee5565b92915050565b5f602082840312156121a9576121a8611bfe565b5b5f6121b684828501611c4c565b91505092915050565b5f81519050919050565b5f82825260208201905092915050565b5f819050602082019050919050565b6121f181611c25565b82525050565b61220081611c60565b82525050565b61220f81611bc4565b82525050565b5f82825260208201905092915050565b5f61222f82611ef4565b6122398185612215565b9350612249818560208601611f0e565b61225281611c9b565b840191505092915050565b5f60a083015f8301516122725f8601826121e8565b50602083015161228560208601826121f7565b5060408301516122986040860182612206565b50606083015184820360608601526122b08282612225565b91505060808301516122c56080860182612206565b508091505092915050565b5f6122db838361225d565b905092915050565b5f602082019050919050565b5f6122f9826121bf565b61230381856121c9565b935083602082028501612315856121d9565b805f5b85811015612350578484038952815161233185826122d0565b945061233c836122e3565b925060208a01995050600181019050612318565b50829750879550505050505092915050565b5f6020820190508181035f83015261237a81846122ef565b905092915050565b5f6020820190506123955f830184611ed6565b92915050565b5f60ff82169050919050565b6123b08161239b565b81146123ba575f5ffd5b50565b5f813590506123cb816123a7565b92915050565b5f602082840312156123e6576123e5611bfe565b5b5f6123f3848285016123bd565b91505092915050565b5f81519050919050565b5f82825260208201905092915050565b5f819050602082019050919050565b5f81519050919050565b5f82825260208201905092915050565b5f61244982612425565b612453818561242f565b9350612463818560208601611f0e565b61246c81611c9b565b840191505092915050565b61248081611e3b565b82525050565b5f60c083015f83015161249b5f8601826121f7565b50602083015184820360208601526124b3828261243f565b915050604083015184820360408601526124cd828261243f565b915050606083015184820360608601526124e7828261243f565b91505060808301516124fc6080860182612206565b5060a083015161250f60a0860182612477565b508091505092915050565b5f6125258383612486565b905092915050565b5f602082019050919050565b5f612543826123fc565b61254d8185612406565b93508360208202850161255f85612416565b805f5b8581101561259a578484038952815161257b858261251a565b94506125868361252d565b925060208a01995050600181019050612562565b50829750879550505050505092915050565b5f6020820190508181035f8301526125c48184612539565b905092915050565b6125d581611e3b565b81146125df575f5ffd5b50565b5f813590506125f0816125cc565b92915050565b5f5f5f5f5f5f60c087890312156126105761260f611bfe565b5b5f61261d89828a01611c7f565b965050602087013567ffffffffffffffff81111561263e5761263d611c02565b5b61264a89828a01612096565b955050604087013567ffffffffffffffff81111561266b5761266a611c02565b5b61267789828a01612096565b945050606087013567ffffffffffffffff81111561269857612697611c02565b5b6126a489828a01612096565b93505060806126b589828a01611e84565b92505060a06126c689828a016125e2565b9150509295509295509295565b5f5f604083850312156126e9576126e8611bfe565b5b5f6126f685828601611c4c565b925050602061270785828601611c7f565b9150509250929050565b61271a8161239b565b82525050565b5f6020820190506127335f830184612711565b92915050565b5f6020828403121561274e5761274d611bfe565b5b5f61275b84828501611e84565b91505092915050565b5f82825260208201905092915050565b5f61277e82612425565b6127888185612764565b9350612798818560208601611f0e565b6127a181611c9b565b840191505092915050565b5f60c0820190506127bf5f830189611ee5565b81810360208301526127d18188612774565b905081810360408301526127e58187612774565b905081810360608301526127f98186612774565b90506128086080830185611bcd565b61281560a0830184611e46565b979650505050505050565b7f4e487b71000000000000000000000000000000000000000000000000000000005f52600160045260245ffd5b7f4e487b71000000000000000000000000000000000000000000000000000000005f52603260045260245ffd5b7f4e487b71000000000000000000000000000000000000000000000000000000005f52602260045260245ffd5b5f60028204905060018216806128be57607f821691505b6020821081036128d1576128d061287a565b5b50919050565b7f4e487b71000000000000000000000000000000000000000000000000000000005f52601160045260245ffd5b5f61290e8261239b565b91506129198361239b565b9250828203905060ff811115612932576129316128d7565b5b92915050565b5f81905092915050565b50565b5f6129505f83612938565b915061295b82612942565b5f82019050919050565b5f61296f82612945565b9150819050919050565b7f4661696c656420746f2073656e6420457468657220746f2074686520757365725f8201527f2100000000000000000000000000000000000000000000000000000000000000602082015250565b5f6129d3602183612764565b91506129de82612979565b604082019050919050565b5f6020820190508181035f830152612a00816129c7565b9050919050565b7f4661696c656420746f2073656e6420457468657220746f20746865206f776e655f8201527f7221000000000000000000000000000000000000000000000000000000000000602082015250565b5f612a61602283612764565b9150612a6c82612a07565b604082019050919050565b5f6020820190508181035f830152612a8e81612a55565b9050919050565b5f819050815f5260205f209050919050565b5f6020601f8301049050919050565b5f82821b905092915050565b5f60088302612af17fffffffffffffffffffffffffffffffffffffffffffffffffffffffffffffffff82612ab6565b612afb8683612ab6565b95508019841693508086168417925050509392505050565b5f819050919050565b5f612b36612b31612b2c84611bc4565b612b13565b611bc4565b9050919050565b5f819050919050565b612b4f83612b1c565b612b63612b5b82612b3d565b848454612ac2565b825550505050565b5f5f905090565b612b7a612b6b565b612b85818484612b46565b505050565b5b81811015612ba857612b9d5f82612b72565b600181019050612b8b565b5050565b601f821115612bed57612bbe81612a95565b612bc784612aa7565b81016020851015612bd6578190505b612bea612be285612aa7565b830182612b8a565b50505b505050565b5f82821c905092915050565b5f612c0d5f1984600802612bf2565b1980831691505092915050565b5f612c258383612bfe565b9150826002028217905092915050565b612c3e82611ef4565b67ffffffffffffffff811115612c5757612c56611cab565b5b612c6182546128a7565b612c6c828285612bac565b5f60209050601f831160018114612c9d575f8415612c8b578287015190505b612c958582612c1a565b865550612cfc565b601f198416612cab86612a95565b5f5b82811015612cd257848901518255600182019150602085019450602081019050612cad565b86831015612cef5784890151612ceb601f891682612bfe565b8355505b6001600288020188555050505b505050505050565b5f604082019050612d175f830185611bcd565b612d246020830184611bcd565b9392505050565b7f4661696c656400000000000000000000000000000000000000000000000000005f82015250565b5f612d5f600683612764565b9150612d6a82612d2b565b602082019050919050565b5f6020820190508181035f830152612d8c81612d53565b9050919050565b5f819050815f5260205f209050919050565b601f821115612de657612db781612d93565b612dc084612aa7565b81016020851015612dcf578190505b612de3612ddb85612aa7565b830182612b8a565b50505b505050565b612df482612425565b67ffffffffffffffff811115612e0d57612e0c611cab565b5b612e1782546128a7565b612e22828285612da5565b5f60209050601f831160018114612e53575f8415612e41578287015190505b612e4b8582612c1a565b865550612eb2565b601f198416612e6186612d93565b5f5b82811015612e8857848901518255600182019150602085019450602081019050612e63565b86831015612ea55784890151612ea1601f891682612bfe565b8355505b6001600288020188555050505b505050505050565b5f81905092915050565b5f612ece82612425565b612ed88185612eba565b9350612ee8818560208601611f0e565b80840191505092915050565b5f612eff8284612ec4565b915081905092915050565b5f6060820190508181035f830152612f228186612774565b9050612f316020830185611bcd565b612f3e6040830184611e46565b949350505050565b5f612f5082611bc4565b91507fffffffffffffffffffffffffffffffffffffffffffffffffffffffffffffffff8203612f8257612f816128d7565b5b600182019050919050565b7f417070204964204e6f7420466f756e64000000000000000000000000000000005f82015250565b5f612fc1601083612764565b9150612fcc82612f8d565b602082019050919050565b5f6020820190508181035f830152612fee81612fb5565b9050919050565b5f612fff82611bc4565b915061300a83611bc4565b925082820261301881611bc4565b9150828204841483151761302f5761302e6128d7565b5b5092915050565b7f4e487b71000000000000000000000000000000000000000000000000000000005f52601260045260245ffd5b5f61306d82611bc4565b915061307883611bc4565b92508261308857613087613036565b5b82820490509291505056fea264697066735822122097d0db68017c7d91ccac17594ef93a2b76f45a81dfbc7f53400241121256f6b964736f6c634300081c0033",
					"opcodes": "PUSH1 0x80 PUSH1 0x40 MSTORE CALLVALUE DUP1 ISZERO PUSH2 0xF JUMPI PUSH0 PUSH0 REVERT JUMPDEST POP PUSH1 0x40 MLOAD PUSH2 0x333F CODESIZE SUB DUP1 PUSH2 0x333F DUP4 CODECOPY DUP2 DUP2 ADD PUSH1 0x40 MSTORE DUP2 ADD SWAP1 PUSH2 0x31 SWAP2 SWAP1 PUSH2 0x1E6 JUMP JUMPDEST CALLER PUSH0 PUSH20 0xFFFFFFFFFFFFFFFFFFFFFFFFFFFFFFFFFFFFFFFF AND DUP2 PUSH20 0xFFFFFFFFFFFFFFFFFFFFFFFFFFFFFFFFFFFFFFFF AND SUB PUSH2 0xA2 JUMPI PUSH0 PUSH1 0x40 MLOAD PUSH32 0x1E4FBDF700000000000000000000000000000000000000000000000000000000 DUP2 MSTORE PUSH1 0x4 ADD PUSH2 0x99 SWAP2 SWAP1 PUSH2 0x250 JUMP JUMPDEST PUSH1 0x40 MLOAD DUP1 SWAP2 SUB SWAP1 REVERT JUMPDEST PUSH2 0xB1 DUP2 PUSH2 0xEB PUSH1 0x20 SHL PUSH1 0x20 SHR JUMP JUMPDEST POP PUSH0 PUSH0 PUSH1 0x14 PUSH2 0x100 EXP DUP2 SLOAD DUP2 PUSH1 0xFF MUL NOT AND SWAP1 DUP4 ISZERO ISZERO MUL OR SWAP1 SSTORE POP DUP1 PUSH1 0x3 PUSH0 PUSH2 0x100 EXP DUP2 SLOAD DUP2 PUSH1 0xFF MUL NOT AND SWAP1 DUP4 PUSH1 0xFF AND MUL OR SWAP1 SSTORE POP POP PUSH2 0x269 JUMP JUMPDEST PUSH0 PUSH0 PUSH0 SWAP1 SLOAD SWAP1 PUSH2 0x100 EXP SWAP1 DIV PUSH20 0xFFFFFFFFFFFFFFFFFFFFFFFFFFFFFFFFFFFFFFFF AND SWAP1 POP DUP2 PUSH0 PUSH0 PUSH2 0x100 EXP DUP2 SLOAD DUP2 PUSH20 0xFFFFFFFFFFFFFFFFFFFFFFFFFFFFFFFFFFFFFFFF MUL NOT AND SWAP1 DUP4 PUSH20 0xFFFFFFFFFFFFFFFFFFFFFFFFFFFFFFFFFFFFFFFF AND MUL OR SWAP1 SSTORE POP DUP2 PUSH20 0xFFFFFFFFFFFFFFFFFFFFFFFFFFFFFFFFFFFFFFFF AND DUP2 PUSH20 0xFFFFFFFFFFFFFFFFFFFFFFFFFFFFFFFFFFFFFFFF AND PUSH32 0x8BE0079C531659141344CD1FD0A4F28419497F9722A3DAAFE3B4186F6B6457E0 PUSH1 0x40 MLOAD PUSH1 0x40 MLOAD DUP1 SWAP2 SUB SWAP1 LOG3 POP POP JUMP JUMPDEST PUSH0 PUSH0 REVERT JUMPDEST PUSH0 PUSH1 0xFF DUP3 AND SWAP1 POP SWAP2 SWAP1 POP JUMP JUMPDEST PUSH2 0x1C5 DUP2 PUSH2 0x1B0 JUMP JUMPDEST DUP2 EQ PUSH2 0x1CF JUMPI PUSH0 PUSH0 REVERT JUMPDEST POP JUMP JUMPDEST PUSH0 DUP2 MLOAD SWAP1 POP PUSH2 0x1E0 DUP2 PUSH2 0x1BC JUMP JUMPDEST SWAP3 SWAP2 POP POP JUMP JUMPDEST PUSH0 PUSH1 0x20 DUP3 DUP5 SUB SLT ISZERO PUSH2 0x1FB JUMPI PUSH2 0x1FA PUSH2 0x1AC JUMP JUMPDEST JUMPDEST PUSH0 PUSH2 0x208 DUP5 DUP3 DUP6 ADD PUSH2 0x1D2 JUMP JUMPDEST SWAP2 POP POP SWAP3 SWAP2 POP POP JUMP JUMPDEST PUSH0 PUSH20 0xFFFFFFFFFFFFFFFFFFFFFFFFFFFFFFFFFFFFFFFF DUP3 AND SWAP1 POP SWAP2 SWAP1 POP JUMP JUMPDEST PUSH0 PUSH2 0x23A DUP3 PUSH2 0x211 JUMP JUMPDEST SWAP1 POP SWAP2 SWAP1 POP JUMP JUMPDEST PUSH2 0x24A DUP2 PUSH2 0x230 JUMP JUMPDEST DUP3 MSTORE POP POP JUMP JUMPDEST PUSH0 PUSH1 0x20 DUP3 ADD SWAP1 POP PUSH2 0x263 PUSH0 DUP4 ADD DUP5 PUSH2 0x241 JUMP JUMPDEST SWAP3 SWAP2 POP POP JUMP JUMPDEST PUSH2 0x30C9 DUP1 PUSH2 0x276 PUSH0 CODECOPY PUSH0 RETURN INVALID PUSH1 0x80 PUSH1 0x40 MSTORE PUSH1 0x4 CALLDATASIZE LT PUSH2 0x129 JUMPI PUSH0 CALLDATALOAD PUSH1 0xE0 SHR DUP1 PUSH4 0x80DE0EA7 GT PUSH2 0xAA JUMPI DUP1 PUSH4 0xC019E859 GT PUSH2 0x6E JUMPI DUP1 PUSH4 0xC019E859 EQ PUSH2 0x38F JUMPI DUP1 PUSH4 0xC4299885 EQ PUSH2 0x3B9 JUMPI DUP1 PUSH4 0xD2D41C2C EQ PUSH2 0x3F5 JUMPI DUP1 PUSH4 0xDDCA3F43 EQ PUSH2 0x431 JUMPI DUP1 PUSH4 0xE0A1BE30 EQ PUSH2 0x45B JUMPI DUP1 PUSH4 0xF2FDE38B EQ PUSH2 0x49C JUMPI PUSH2 0x129 JUMP JUMPDEST DUP1 PUSH4 0x80DE0EA7 EQ PUSH2 0x2D3 JUMPI DUP1 PUSH4 0x8456CB59 EQ PUSH2 0x2FD JUMPI DUP1 PUSH4 0x8DA5CB5B EQ PUSH2 0x313 JUMPI DUP1 PUSH4 0x949C09B8 EQ PUSH2 0x33D JUMPI DUP1 PUSH4 0xAF75C2E5 EQ PUSH2 0x365 JUMPI PUSH2 0x129 JUMP JUMPDEST DUP1 PUSH4 0x56A6D9EF GT PUSH2 0xF1 JUMPI DUP1 PUSH4 0x56A6D9EF EQ PUSH2 0x1F3 JUMPI DUP1 PUSH4 0x5C975ABB EQ PUSH2 0x21B JUMPI DUP1 PUSH4 0x5DA18D22 EQ PUSH2 0x245 JUMPI DUP1 PUSH4 0x715018A6 EQ PUSH2 0x281 JUMPI DUP1 PUSH4 0x78B963E0 EQ PUSH2 0x297 JUMPI PUSH2 0x129 JUMP JUMPDEST DUP1 PUSH4 0x12065FE0 EQ PUSH2 0x12D JUMPI DUP1 PUSH4 0x1F15A20B EQ PUSH2 0x157 JUMPI DUP1 PUSH4 0x3CCFD60B EQ PUSH2 0x187 JUMPI DUP1 PUSH4 0x3F4BA83A EQ PUSH2 0x19D JUMPI DUP1 PUSH4 0x4BC34927 EQ PUSH2 0x1B3 JUMPI JUMPDEST PUSH0 PUSH0 REVERT JUMPDEST CALLVALUE DUP1 ISZERO PUSH2 0x138 JUMPI PUSH0 PUSH0 REVERT JUMPDEST POP PUSH2 0x141 PUSH2 0x4C4 JUMP JUMPDEST PUSH1 0x40 MLOAD PUSH2 0x14E SWAP2 SWAP1 PUSH2 0x1BDC JUMP JUMPDEST PUSH1 0x40 MLOAD DUP1 SWAP2 SUB SWAP1 RETURN JUMPDEST PUSH2 0x171 PUSH1 0x4 DUP1 CALLDATASIZE SUB DUP2 ADD SWAP1 PUSH2 0x16C SWAP2 SWAP1 PUSH2 0x1DCF JUMP JUMPDEST PUSH2 0x4D3 JUMP JUMPDEST PUSH1 0x40 MLOAD PUSH2 0x17E SWAP2 SWAP1 PUSH2 0x1E55 JUMP JUMPDEST PUSH1 0x40 MLOAD DUP1 SWAP2 SUB SWAP1 RETURN JUMPDEST CALLVALUE DUP1 ISZERO PUSH2 0x192 JUMPI PUSH0 PUSH0 REVERT JUMPDEST POP PUSH2 0x19B PUSH2 0xACC JUMP JUMPDEST STOP JUMPDEST CALLVALUE DUP1 ISZERO PUSH2 0x1A8 JUMPI PUSH0 PUSH0 REVERT JUMPDEST POP PUSH2 0x1B1 PUSH2 0xB8B JUMP JUMPDEST STOP JUMPDEST CALLVALUE DUP1 ISZERO PUSH2 0x1BE JUMPI PUSH0 PUSH0 REVERT JUMPDEST POP PUSH2 0x1D9 PUSH1 0x4 DUP1 CALLDATASIZE SUB DUP2 ADD SWAP1 PUSH2 0x1D4 SWAP2 SWAP1 PUSH2 0x1E98 JUMP JUMPDEST PUSH2 0xB9D JUMP JUMPDEST PUSH1 0x40 MLOAD PUSH2 0x1EA SWAP6 SWAP5 SWAP4 SWAP3 SWAP2 SWAP1 PUSH2 0x1F54 JUMP JUMPDEST PUSH1 0x40 MLOAD DUP1 SWAP2 SUB SWAP1 RETURN JUMPDEST CALLVALUE DUP1 ISZERO PUSH2 0x1FE JUMPI PUSH0 PUSH0 REVERT JUMPDEST POP PUSH2 0x219 PUSH1 0x4 DUP1 CALLDATASIZE SUB DUP2 ADD SWAP1 PUSH2 0x214 SWAP2 SWAP1 PUSH2 0x1FE7 JUMP JUMPDEST PUSH2 0xC8E JUMP JUMPDEST STOP JUMPDEST CALLVALUE DUP1 ISZERO PUSH2 0x226 JUMPI PUSH0 PUSH0 REVERT JUMPDEST POP PUSH2 0x22F PUSH2 0xD43 JUMP JUMPDEST PUSH1 0x40 MLOAD PUSH2 0x23C SWAP2 SWAP1 PUSH2 0x1E55 JUMP JUMPDEST PUSH1 0x40 MLOAD DUP1 SWAP2 SUB SWAP1 RETURN JUMPDEST CALLVALUE DUP1 ISZERO PUSH2 0x250 JUMPI PUSH0 PUSH0 REVERT JUMPDEST POP PUSH2 0x26B PUSH1 0x4 DUP1 CALLDATASIZE SUB DUP2 ADD SWAP1 PUSH2 0x266 SWAP2 SWAP1 PUSH2 0x20C3 JUMP JUMPDEST PUSH2 0xD58 JUMP JUMPDEST PUSH1 0x40 MLOAD PUSH2 0x278 SWAP2 SWAP1 PUSH2 0x217B JUMP JUMPDEST PUSH1 0x40 MLOAD DUP1 SWAP2 SUB SWAP1 RETURN JUMPDEST CALLVALUE DUP1 ISZERO PUSH2 0x28C JUMPI PUSH0 PUSH0 REVERT JUMPDEST POP PUSH2 0x295 PUSH2 0xEBC JUMP JUMPDEST STOP JUMPDEST CALLVALUE DUP1 ISZERO PUSH2 0x2A2 JUMPI PUSH0 PUSH0 REVERT JUMPDEST POP PUSH2 0x2BD PUSH1 0x4 DUP1 CALLDATASIZE SUB DUP2 ADD SWAP1 PUSH2 0x2B8 SWAP2 SWAP1 PUSH2 0x2194 JUMP JUMPDEST PUSH2 0xECF JUMP JUMPDEST PUSH1 0x40 MLOAD PUSH2 0x2CA SWAP2 SWAP1 PUSH2 0x2362 JUMP JUMPDEST PUSH1 0x40 MLOAD DUP1 SWAP2 SUB SWAP1 RETURN JUMPDEST CALLVALUE DUP1 ISZERO PUSH2 0x2DE JUMPI PUSH0 PUSH0 REVERT JUMPDEST POP PUSH2 0x2E7 PUSH2 0x106A JUMP JUMPDEST PUSH1 0x40 MLOAD PUSH2 0x2F4 SWAP2 SWAP1 PUSH2 0x1BDC JUMP JUMPDEST PUSH1 0x40 MLOAD DUP1 SWAP2 SUB SWAP1 RETURN JUMPDEST CALLVALUE DUP1 ISZERO PUSH2 0x308 JUMPI PUSH0 PUSH0 REVERT JUMPDEST POP PUSH2 0x311 PUSH2 0x1075 JUMP JUMPDEST STOP JUMPDEST CALLVALUE DUP1 ISZERO PUSH2 0x31E JUMPI PUSH0 PUSH0 REVERT JUMPDEST POP PUSH2 0x327 PUSH2 0x1087 JUMP JUMPDEST PUSH1 0x40 MLOAD PUSH2 0x334 SWAP2 SWAP1 PUSH2 0x2382 JUMP JUMPDEST PUSH1 0x40 MLOAD DUP1 SWAP2 SUB SWAP1 RETURN JUMPDEST CALLVALUE DUP1 ISZERO PUSH2 0x348 JUMPI PUSH0 PUSH0 REVERT JUMPDEST POP PUSH2 0x363 PUSH1 0x4 DUP1 CALLDATASIZE SUB DUP2 ADD SWAP1 PUSH2 0x35E SWAP2 SWAP1 PUSH2 0x23D1 JUMP JUMPDEST PUSH2 0x10AE JUMP JUMPDEST STOP JUMPDEST CALLVALUE DUP1 ISZERO PUSH2 0x370 JUMPI PUSH0 PUSH0 REVERT JUMPDEST POP PUSH2 0x379 PUSH2 0x112C JUMP JUMPDEST PUSH1 0x40 MLOAD PUSH2 0x386 SWAP2 SWAP1 PUSH2 0x25AC JUMP JUMPDEST PUSH1 0x40 MLOAD DUP1 SWAP2 SUB SWAP1 RETURN JUMPDEST CALLVALUE DUP1 ISZERO PUSH2 0x39A JUMPI PUSH0 PUSH0 REVERT JUMPDEST POP PUSH2 0x3A3 PUSH2 0x1365 JUMP JUMPDEST PUSH1 0x40 MLOAD PUSH2 0x3B0 SWAP2 SWAP1 PUSH2 0x1BDC JUMP JUMPDEST PUSH1 0x40 MLOAD DUP1 SWAP2 SUB SWAP1 RETURN JUMPDEST CALLVALUE DUP1 ISZERO PUSH2 0x3C4 JUMPI PUSH0 PUSH0 REVERT JUMPDEST POP PUSH2 0x3DF PUSH1 0x4 DUP1 CALLDATASIZE SUB DUP2 ADD SWAP1 PUSH2 0x3DA SWAP2 SWAP1 PUSH2 0x25F6 JUMP JUMPDEST PUSH2 0x1370 JUMP JUMPDEST PUSH1 0x40 MLOAD PUSH2 0x3EC SWAP2 SWAP1 PUSH2 0x217B JUMP JUMPDEST PUSH1 0x40 MLOAD DUP1 SWAP2 SUB SWAP1 RETURN JUMPDEST CALLVALUE DUP1 ISZERO PUSH2 0x400 JUMPI PUSH0 PUSH0 REVERT JUMPDEST POP PUSH2 0x41B PUSH1 0x4 DUP1 CALLDATASIZE SUB DUP2 ADD SWAP1 PUSH2 0x416 SWAP2 SWAP1 PUSH2 0x26D3 JUMP JUMPDEST PUSH2 0x14EC JUMP JUMPDEST PUSH1 0x40 MLOAD PUSH2 0x428 SWAP2 SWAP1 PUSH2 0x1BDC JUMP JUMPDEST PUSH1 0x40 MLOAD DUP1 SWAP2 SUB SWAP1 RETURN JUMPDEST CALLVALUE DUP1 ISZERO PUSH2 0x43C JUMPI PUSH0 PUSH0 REVERT JUMPDEST POP PUSH2 0x445 PUSH2 0x15CA JUMP JUMPDEST PUSH1 0x40 MLOAD PUSH2 0x452 SWAP2 SWAP1 PUSH2 0x2720 JUMP JUMPDEST PUSH1 0x40 MLOAD DUP1 SWAP2 SUB SWAP1 RETURN JUMPDEST CALLVALUE DUP1 ISZERO PUSH2 0x466 JUMPI PUSH0 PUSH0 REVERT JUMPDEST POP PUSH2 0x481 PUSH1 0x4 DUP1 CALLDATASIZE SUB DUP2 ADD SWAP1 PUSH2 0x47C SWAP2 SWAP1 PUSH2 0x2739 JUMP JUMPDEST PUSH2 0x15DC JUMP JUMPDEST PUSH1 0x40 MLOAD PUSH2 0x493 SWAP7 SWAP6 SWAP5 SWAP4 SWAP3 SWAP2 SWAP1 PUSH2 0x27AC JUMP JUMPDEST PUSH1 0x40 MLOAD DUP1 SWAP2 SUB SWAP1 RETURN JUMPDEST CALLVALUE DUP1 ISZERO PUSH2 0x4A7 JUMPI PUSH0 PUSH0 REVERT JUMPDEST POP PUSH2 0x4C2 PUSH1 0x4 DUP1 CALLDATASIZE SUB DUP2 ADD SWAP1 PUSH2 0x4BD SWAP2 SWAP1 PUSH2 0x2194 JUMP JUMPDEST PUSH2 0x17C1 JUMP JUMPDEST STOP JUMPDEST PUSH0 PUSH2 0x4CD PUSH2 0x1845 JUMP JUMPDEST SELFBALANCE SWAP1 POP SWAP1 JUMP JUMPDEST PUSH0 PUSH2 0x4DC PUSH2 0x18CC JUMP JUMPDEST DUP4 PUSH20 0xFFFFFFFFFFFFFFFFFFFFFFFFFFFFFFFFFFFFFFFF AND PUSH2 0x4FB PUSH2 0x190D JUMP JUMPDEST PUSH20 0xFFFFFFFFFFFFFFFFFFFFFFFFFFFFFFFFFFFFFFFF AND SUB PUSH2 0x51F JUMPI PUSH2 0x51E PUSH2 0x2820 JUMP JUMPDEST JUMPDEST PUSH0 PUSH2 0x529 DUP5 PUSH2 0x1914 JUMP JUMPDEST SWAP1 POP PUSH0 PUSH1 0x5 DUP3 DUP2 SLOAD DUP2 LT PUSH2 0x540 JUMPI PUSH2 0x53F PUSH2 0x284D JUMP JUMPDEST JUMPDEST SWAP1 PUSH0 MSTORE PUSH1 0x20 PUSH0 KECCAK256 SWAP1 PUSH1 0x6 MUL ADD PUSH1 0x40 MLOAD DUP1 PUSH1 0xC0 ADD PUSH1 0x40 MSTORE SWAP1 DUP2 PUSH0 DUP3 ADD SLOAD DUP2 MSTORE PUSH1 0x20 ADD PUSH1 0x1 DUP3 ADD DUP1 SLOAD PUSH2 0x570 SWAP1 PUSH2 0x28A7 JUMP JUMPDEST DUP1 PUSH1 0x1F ADD PUSH1 0x20 DUP1 SWAP2 DIV MUL PUSH1 0x20 ADD PUSH1 0x40 MLOAD SWAP1 DUP2 ADD PUSH1 0x40 MSTORE DUP1 SWAP3 SWAP2 SWAP1 DUP2 DUP2 MSTORE PUSH1 0x20 ADD DUP3 DUP1 SLOAD PUSH2 0x59C SWAP1 PUSH2 0x28A7 JUMP JUMPDEST DUP1 ISZERO PUSH2 0x5E7 JUMPI DUP1 PUSH1 0x1F LT PUSH2 0x5BE JUMPI PUSH2 0x100 DUP1 DUP4 SLOAD DIV MUL DUP4 MSTORE SWAP2 PUSH1 0x20 ADD SWAP2 PUSH2 0x5E7 JUMP JUMPDEST DUP3 ADD SWAP2 SWAP1 PUSH0 MSTORE PUSH1 0x20 PUSH0 KECCAK256 SWAP1 JUMPDEST DUP2 SLOAD DUP2 MSTORE SWAP1 PUSH1 0x1 ADD SWAP1 PUSH1 0x20 ADD DUP1 DUP4 GT PUSH2 0x5CA JUMPI DUP3 SWAP1 SUB PUSH1 0x1F AND DUP3 ADD SWAP2 JUMPDEST POP POP POP POP POP DUP2 MSTORE PUSH1 0x20 ADD PUSH1 0x2 DUP3 ADD DUP1 SLOAD PUSH2 0x600 SWAP1 PUSH2 0x28A7 JUMP JUMPDEST DUP1 PUSH1 0x1F ADD PUSH1 0x20 DUP1 SWAP2 DIV MUL PUSH1 0x20 ADD PUSH1 0x40 MLOAD SWAP1 DUP2 ADD PUSH1 0x40 MSTORE DUP1 SWAP3 SWAP2 SWAP1 DUP2 DUP2 MSTORE PUSH1 0x20 ADD DUP3 DUP1 SLOAD PUSH2 0x62C SWAP1 PUSH2 0x28A7 JUMP JUMPDEST DUP1 ISZERO PUSH2 0x677 JUMPI DUP1 PUSH1 0x1F LT PUSH2 0x64E JUMPI PUSH2 0x100 DUP1 DUP4 SLOAD DIV MUL DUP4 MSTORE SWAP2 PUSH1 0x20 ADD SWAP2 PUSH2 0x677 JUMP JUMPDEST DUP3 ADD SWAP2 SWAP1 PUSH0 MSTORE PUSH1 0x20 PUSH0 KECCAK256 SWAP1 JUMPDEST DUP2 SLOAD DUP2 MSTORE SWAP1 PUSH1 0x1 ADD SWAP1 PUSH1 0x20 ADD DUP1 DUP4 GT PUSH2 0x65A JUMPI DUP3 SWAP1 SUB PUSH1 0x1F AND DUP3 ADD SWAP2 JUMPDEST POP POP POP POP POP DUP2 MSTORE PUSH1 0x20 ADD PUSH1 0x3 DUP3 ADD DUP1 SLOAD PUSH2 0x690 SWAP1 PUSH2 0x28A7 JUMP JUMPDEST DUP1 PUSH1 0x1F ADD PUSH1 0x20 DUP1 SWAP2 DIV MUL PUSH1 0x20 ADD PUSH1 0x40 MLOAD SWAP1 DUP2 ADD PUSH1 0x40 MSTORE DUP1 SWAP3 SWAP2 SWAP1 DUP2 DUP2 MSTORE PUSH1 0x20 ADD DUP3 DUP1 SLOAD PUSH2 0x6BC SWAP1 PUSH2 0x28A7 JUMP JUMPDEST DUP1 ISZERO PUSH2 0x707 JUMPI DUP1 PUSH1 0x1F LT PUSH2 0x6DE JUMPI PUSH2 0x100 DUP1 DUP4 SLOAD DIV MUL DUP4 MSTORE SWAP2 PUSH1 0x20 ADD SWAP2 PUSH2 0x707 JUMP JUMPDEST DUP3 ADD SWAP2 SWAP1 PUSH0 MSTORE PUSH1 0x20 PUSH0 KECCAK256 SWAP1 JUMPDEST DUP2 SLOAD DUP2 MSTORE SWAP1 PUSH1 0x1 ADD SWAP1 PUSH1 0x20 ADD DUP1 DUP4 GT PUSH2 0x6EA JUMPI DUP3 SWAP1 SUB PUSH1 0x1F AND DUP3 ADD SWAP2 JUMPDEST POP POP POP POP POP DUP2 MSTORE PUSH1 0x20 ADD PUSH1 0x4 DUP3 ADD SLOAD DUP2 MSTORE PUSH1 0x20 ADD PUSH1 0x5 DUP3 ADD PUSH0 SWAP1 SLOAD SWAP1 PUSH2 0x100 EXP SWAP1 DIV PUSH1 0xFF AND ISZERO ISZERO ISZERO ISZERO DUP2 MSTORE POP POP SWAP1 POP PUSH0 DUP2 PUSH1 0x80 ADD MLOAD GT ISZERO PUSH2 0x925 JUMPI DUP1 PUSH1 0x80 ADD MLOAD CALLVALUE LT ISZERO PUSH2 0x78B JUMPI CALLVALUE PUSH1 0x40 MLOAD PUSH32 0x9266535100000000000000000000000000000000000000000000000000000000 DUP2 MSTORE PUSH1 0x4 ADD PUSH2 0x782 SWAP2 SWAP1 PUSH2 0x1BDC JUMP JUMPDEST PUSH1 0x40 MLOAD DUP1 SWAP2 SUB SWAP1 REVERT JUMPDEST PUSH0 DUP7 PUSH20 0xFFFFFFFFFFFFFFFFFFFFFFFFFFFFFFFFFFFFFFFF AND PUSH2 0x7CA CALLVALUE PUSH1 0x3 PUSH0 SWAP1 SLOAD SWAP1 PUSH2 0x100 EXP SWAP1 DIV PUSH1 0xFF AND PUSH1 0x64 PUSH2 0x7C2 SWAP2 SWAP1 PUSH2 0x2904 JUMP JUMPDEST PUSH1 0xFF AND PUSH2 0x19A7 JUMP JUMPDEST PUSH1 0x40 MLOAD PUSH2 0x7D6 SWAP1 PUSH2 0x2965 JUMP JUMPDEST PUSH0 PUSH1 0x40 MLOAD DUP1 DUP4 SUB DUP2 DUP6 DUP8 GAS CALL SWAP3 POP POP POP RETURNDATASIZE DUP1 PUSH0 DUP2 EQ PUSH2 0x810 JUMPI PUSH1 0x40 MLOAD SWAP2 POP PUSH1 0x1F NOT PUSH1 0x3F RETURNDATASIZE ADD AND DUP3 ADD PUSH1 0x40 MSTORE RETURNDATASIZE DUP3 MSTORE RETURNDATASIZE PUSH0 PUSH1 0x20 DUP5 ADD RETURNDATACOPY PUSH2 0x815 JUMP JUMPDEST PUSH1 0x60 SWAP2 POP JUMPDEST POP POP SWAP1 POP DUP1 PUSH2 0x859 JUMPI PUSH1 0x40 MLOAD PUSH32 0x8C379A000000000000000000000000000000000000000000000000000000000 DUP2 MSTORE PUSH1 0x4 ADD PUSH2 0x850 SWAP1 PUSH2 0x29E9 JUMP JUMPDEST PUSH1 0x40 MLOAD DUP1 SWAP2 SUB SWAP1 REVERT JUMPDEST PUSH0 PUSH2 0x862 PUSH2 0x1087 JUMP JUMPDEST PUSH20 0xFFFFFFFFFFFFFFFFFFFFFFFFFFFFFFFFFFFFFFFF AND PUSH2 0x893 CALLVALUE PUSH1 0x3 PUSH0 SWAP1 SLOAD SWAP1 PUSH2 0x100 EXP SWAP1 DIV PUSH1 0xFF AND PUSH1 0xFF AND PUSH2 0x19A7 JUMP JUMPDEST PUSH1 0x40 MLOAD PUSH2 0x89F SWAP1 PUSH2 0x2965 JUMP JUMPDEST PUSH0 PUSH1 0x40 MLOAD DUP1 DUP4 SUB DUP2 DUP6 DUP8 GAS CALL SWAP3 POP POP POP RETURNDATASIZE DUP1 PUSH0 DUP2 EQ PUSH2 0x8D9 JUMPI PUSH1 0x40 MLOAD SWAP2 POP PUSH1 0x1F NOT PUSH1 0x3F RETURNDATASIZE ADD AND DUP3 ADD PUSH1 0x40 MSTORE RETURNDATASIZE DUP3 MSTORE RETURNDATASIZE PUSH0 PUSH1 0x20 DUP5 ADD RETURNDATACOPY PUSH2 0x8DE JUMP JUMPDEST PUSH1 0x60 SWAP2 POP JUMPDEST POP POP SWAP1 POP DUP1 PUSH2 0x922 JUMPI PUSH1 0x40 MLOAD PUSH32 0x8C379A000000000000000000000000000000000000000000000000000000000 DUP2 MSTORE PUSH1 0x4 ADD PUSH2 0x919 SWAP1 PUSH2 0x2A77 JUMP JUMPDEST PUSH1 0x40 MLOAD DUP1 SWAP2 SUB SWAP1 REVERT JUMPDEST POP POP JUMPDEST PUSH1 0x4 PUSH0 DUP8 PUSH20 0xFFFFFFFFFFFFFFFFFFFFFFFFFFFFFFFFFFFFFFFF AND PUSH20 0xFFFFFFFFFFFFFFFFFFFFFFFFFFFFFFFFFFFFFFFF AND DUP2 MSTORE PUSH1 0x20 ADD SWAP1 DUP2 MSTORE PUSH1 0x20 ADD PUSH0 KECCAK256 PUSH1 0x40 MLOAD DUP1 PUSH1 0xA0 ADD PUSH1 0x40 MSTORE DUP1 PUSH2 0x975 PUSH2 0x190D JUMP JUMPDEST PUSH20 0xFFFFFFFFFFFFFFFFFFFFFFFFFFFFFFFFFFFFFFFF AND DUP2 MSTORE PUSH1 0x20 ADD DUP8 DUP2 MSTORE PUSH1 0x20 ADD CALLVALUE DUP2 MSTORE PUSH1 0x20 ADD DUP7 DUP2 MSTORE PUSH1 0x20 ADD TIMESTAMP DUP2 MSTORE POP SWAP1 DUP1 PUSH1 0x1 DUP2 SLOAD ADD DUP1 DUP3 SSTORE DUP1 SWAP2 POP POP PUSH1 0x1 SWAP1 SUB SWAP1 PUSH0 MSTORE PUSH1 0x20 PUSH0 KECCAK256 SWAP1 PUSH1 0x5 MUL ADD PUSH0 SWAP1 SWAP2 SWAP1 SWAP2 SWAP1 SWAP2 POP PUSH0 DUP3 ADD MLOAD DUP2 PUSH0 ADD PUSH0 PUSH2 0x100 EXP DUP2 SLOAD DUP2 PUSH20 0xFFFFFFFFFFFFFFFFFFFFFFFFFFFFFFFFFFFFFFFF MUL NOT AND SWAP1 DUP4 PUSH20 0xFFFFFFFFFFFFFFFFFFFFFFFFFFFFFFFFFFFFFFFF AND MUL OR SWAP1 SSTORE POP PUSH1 0x20 DUP3 ADD MLOAD DUP2 PUSH1 0x1 ADD SSTORE PUSH1 0x40 DUP3 ADD MLOAD DUP2 PUSH1 0x2 ADD SSTORE PUSH1 0x60 DUP3 ADD MLOAD DUP2 PUSH1 0x3 ADD SWAP1 DUP2 PUSH2 0xA39 SWAP2 SWAP1 PUSH2 0x2C35 JUMP JUMPDEST POP PUSH1 0x80 DUP3 ADD MLOAD DUP2 PUSH1 0x4 ADD SSTORE POP POP PUSH2 0xA50 PUSH1 0x2 PUSH2 0x19E0 JUMP JUMPDEST DUP6 PUSH20 0xFFFFFFFFFFFFFFFFFFFFFFFFFFFFFFFFFFFFFFFF AND PUSH2 0xA6F PUSH2 0x190D JUMP JUMPDEST PUSH20 0xFFFFFFFFFFFFFFFFFFFFFFFFFFFFFFFFFFFFFFFF AND DUP7 PUSH32 0xF7715E8651944FA7BB83DFA9C05D60953E1F5C39AA950C22AE6028B75C58FC7D CALLVALUE TIMESTAMP PUSH1 0x40 MLOAD PUSH2 0xAB7 SWAP3 SWAP2 SWAP1 PUSH2 0x2D04 JUMP JUMPDEST PUSH1 0x40 MLOAD DUP1 SWAP2 SUB SWAP1 LOG4 PUSH1 0x1 SWAP3 POP POP POP SWAP4 SWAP3 POP POP POP JUMP JUMPDEST PUSH2 0xAD4 PUSH2 0x1845 JUMP JUMPDEST PUSH0 SELFBALANCE SWAP1 POP PUSH0 PUSH2 0xAE1 PUSH2 0x1087 JUMP JUMPDEST PUSH20 0xFFFFFFFFFFFFFFFFFFFFFFFFFFFFFFFFFFFFFFFF AND DUP3 PUSH1 0x40 MLOAD PUSH2 0xB04 SWAP1 PUSH2 0x2965 JUMP JUMPDEST PUSH0 PUSH1 0x40 MLOAD DUP1 DUP4 SUB DUP2 DUP6 DUP8 GAS CALL SWAP3 POP POP POP RETURNDATASIZE DUP1 PUSH0 DUP2 EQ PUSH2 0xB3E JUMPI PUSH1 0x40 MLOAD SWAP2 POP PUSH1 0x1F NOT PUSH1 0x3F RETURNDATASIZE ADD AND DUP3 ADD PUSH1 0x40 MSTORE RETURNDATASIZE DUP3 MSTORE RETURNDATASIZE PUSH0 PUSH1 0x20 DUP5 ADD RETURNDATACOPY PUSH2 0xB43 JUMP JUMPDEST PUSH1 0x60 SWAP2 POP JUMPDEST POP POP SWAP1 POP DUP1 PUSH2 0xB87 JUMPI PUSH1 0x40 MLOAD PUSH32 0x8C379A000000000000000000000000000000000000000000000000000000000 DUP2 MSTORE PUSH1 0x4 ADD PUSH2 0xB7E SWAP1 PUSH2 0x2D75 JUMP JUMPDEST PUSH1 0x40 MLOAD DUP1 SWAP2 SUB SWAP1 REVERT JUMPDEST POP POP JUMP JUMPDEST PUSH2 0xB93 PUSH2 0x1845 JUMP JUMPDEST PUSH2 0xB9B PUSH2 0x19F4 JUMP JUMPDEST JUMP JUMPDEST PUSH1 0x4 PUSH1 0x20 MSTORE DUP2 PUSH0 MSTORE PUSH1 0x40 PUSH0 KECCAK256 DUP2 DUP2 SLOAD DUP2 LT PUSH2 0xBB6 JUMPI PUSH0 DUP1 REVERT JUMPDEST SWAP1 PUSH0 MSTORE PUSH1 0x20 PUSH0 KECCAK256 SWAP1 PUSH1 0x5 MUL ADD PUSH0 SWAP2 POP SWAP2 POP POP DUP1 PUSH0 ADD PUSH0 SWAP1 SLOAD SWAP1 PUSH2 0x100 EXP SWAP1 DIV PUSH20 0xFFFFFFFFFFFFFFFFFFFFFFFFFFFFFFFFFFFFFFFF AND SWAP1 DUP1 PUSH1 0x1 ADD SLOAD SWAP1 DUP1 PUSH1 0x2 ADD SLOAD SWAP1 DUP1 PUSH1 0x3 ADD DUP1 SLOAD PUSH2 0xC07 SWAP1 PUSH2 0x28A7 JUMP JUMPDEST DUP1 PUSH1 0x1F ADD PUSH1 0x20 DUP1 SWAP2 DIV MUL PUSH1 0x20 ADD PUSH1 0x40 MLOAD SWAP1 DUP2 ADD PUSH1 0x40 MSTORE DUP1 SWAP3 SWAP2 SWAP1 DUP2 DUP2 MSTORE PUSH1 0x20 ADD DUP3 DUP1 SLOAD PUSH2 0xC33 SWAP1 PUSH2 0x28A7 JUMP JUMPDEST DUP1 ISZERO PUSH2 0xC7E JUMPI DUP1 PUSH1 0x1F LT PUSH2 0xC55 JUMPI PUSH2 0x100 DUP1 DUP4 SLOAD DIV MUL DUP4 MSTORE SWAP2 PUSH1 0x20 ADD SWAP2 PUSH2 0xC7E JUMP JUMPDEST DUP3 ADD SWAP2 SWAP1 PUSH0 MSTORE PUSH1 0x20 PUSH0 KECCAK256 SWAP1 JUMPDEST DUP2 SLOAD DUP2 MSTORE SWAP1 PUSH1 0x1 ADD SWAP1 PUSH1 0x20 ADD DUP1 DUP4 GT PUSH2 0xC61 JUMPI DUP3 SWAP1 SUB PUSH1 0x1F AND DUP3 ADD SWAP2 JUMPDEST POP POP POP POP POP SWAP1 DUP1 PUSH1 0x4 ADD SLOAD SWAP1 POP DUP6 JUMP JUMPDEST PUSH2 0xC96 PUSH2 0x1845 JUMP JUMPDEST PUSH0 DUP3 PUSH20 0xFFFFFFFFFFFFFFFFFFFFFFFFFFFFFFFFFFFFFFFF AND DUP3 PUSH1 0x40 MLOAD PUSH2 0xCBB SWAP1 PUSH2 0x2965 JUMP JUMPDEST PUSH0 PUSH1 0x40 MLOAD DUP1 DUP4 SUB DUP2 DUP6 DUP8 GAS CALL SWAP3 POP POP POP RETURNDATASIZE DUP1 PUSH0 DUP2 EQ PUSH2 0xCF5 JUMPI PUSH1 0x40 MLOAD SWAP2 POP PUSH1 0x1F NOT PUSH1 0x3F RETURNDATASIZE ADD AND DUP3 ADD PUSH1 0x40 MSTORE RETURNDATASIZE DUP3 MSTORE RETURNDATASIZE PUSH0 PUSH1 0x20 DUP5 ADD RETURNDATACOPY PUSH2 0xCFA JUMP JUMPDEST PUSH1 0x60 SWAP2 POP JUMPDEST POP POP SWAP1 POP DUP1 PUSH2 0xD3E JUMPI PUSH1 0x40 MLOAD PUSH32 0x8C379A000000000000000000000000000000000000000000000000000000000 DUP2 MSTORE PUSH1 0x4 ADD PUSH2 0xD35 SWAP1 PUSH2 0x2D75 JUMP JUMPDEST PUSH1 0x40 MLOAD DUP1 SWAP2 SUB SWAP1 REVERT JUMPDEST POP POP POP JUMP JUMPDEST PUSH0 PUSH0 PUSH1 0x14 SWAP1 SLOAD SWAP1 PUSH2 0x100 EXP SWAP1 DIV PUSH1 0xFF AND SWAP1 POP SWAP1 JUMP JUMPDEST PUSH0 PUSH2 0xD61 PUSH2 0x1845 JUMP JUMPDEST PUSH0 PUSH2 0xD6C PUSH1 0x1 PUSH2 0x1A55 JUMP JUMPDEST PUSH0 SHL SWAP1 POP PUSH1 0x5 PUSH1 0x40 MLOAD DUP1 PUSH1 0xC0 ADD PUSH1 0x40 MSTORE DUP1 DUP4 DUP2 MSTORE PUSH1 0x20 ADD DUP9 DUP2 MSTORE PUSH1 0x20 ADD DUP8 DUP2 MSTORE PUSH1 0x20 ADD DUP7 DUP2 MSTORE PUSH1 0x20 ADD DUP6 DUP2 MSTORE PUSH1 0x20 ADD PUSH1 0x1 ISZERO ISZERO DUP2 MSTORE POP SWAP1 DUP1 PUSH1 0x1 DUP2 SLOAD ADD DUP1 DUP3 SSTORE DUP1 SWAP2 POP POP PUSH1 0x1 SWAP1 SUB SWAP1 PUSH0 MSTORE PUSH1 0x20 PUSH0 KECCAK256 SWAP1 PUSH1 0x6 MUL ADD PUSH0 SWAP1 SWAP2 SWAP1 SWAP2 SWAP1 SWAP2 POP PUSH0 DUP3 ADD MLOAD DUP2 PUSH0 ADD SSTORE PUSH1 0x20 DUP3 ADD MLOAD DUP2 PUSH1 0x1 ADD SWAP1 DUP2 PUSH2 0xDE5 SWAP2 SWAP1 PUSH2 0x2DEB JUMP JUMPDEST POP PUSH1 0x40 DUP3 ADD MLOAD DUP2 PUSH1 0x2 ADD SWAP1 DUP2 PUSH2 0xDFB SWAP2 SWAP1 PUSH2 0x2DEB JUMP JUMPDEST POP PUSH1 0x60 DUP3 ADD MLOAD DUP2 PUSH1 0x3 ADD SWAP1 DUP2 PUSH2 0xE11 SWAP2 SWAP1 PUSH2 0x2DEB JUMP JUMPDEST POP PUSH1 0x80 DUP3 ADD MLOAD DUP2 PUSH1 0x4 ADD SSTORE PUSH1 0xA0 DUP3 ADD MLOAD DUP2 PUSH1 0x5 ADD PUSH0 PUSH2 0x100 EXP DUP2 SLOAD DUP2 PUSH1 0xFF MUL NOT AND SWAP1 DUP4 ISZERO ISZERO MUL OR SWAP1 SSTORE POP POP POP PUSH2 0xE47 PUSH1 0x1 PUSH2 0x19E0 JUMP JUMPDEST DUP4 PUSH1 0x40 MLOAD PUSH2 0xE55 SWAP2 SWAP1 PUSH2 0x2EF4 JUMP JUMPDEST PUSH1 0x40 MLOAD DUP1 SWAP2 SUB SWAP1 KECCAK256 DUP6 PUSH1 0x40 MLOAD PUSH2 0xE6B SWAP2 SWAP1 PUSH2 0x2EF4 JUMP JUMPDEST PUSH1 0x40 MLOAD DUP1 SWAP2 SUB SWAP1 KECCAK256 DUP3 PUSH32 0x7F2C4A7E55C1D8E93BA4E1329A979E15CB06B5D3974DF147D3B338CE84DD9CD9 DUP10 DUP8 PUSH1 0x1 PUSH1 0x40 MLOAD PUSH2 0xEA8 SWAP4 SWAP3 SWAP2 SWAP1 PUSH2 0x2F0A JUMP JUMPDEST PUSH1 0x40 MLOAD DUP1 SWAP2 SUB SWAP1 LOG4 DUP1 SWAP2 POP POP SWAP5 SWAP4 POP POP POP POP JUMP JUMPDEST PUSH2 0xEC4 PUSH2 0x1845 JUMP JUMPDEST PUSH2 0xECD PUSH0 PUSH2 0x1A61 JUMP JUMPDEST JUMP JUMPDEST PUSH1 0x60 PUSH1 0x4 PUSH0 DUP4 PUSH20 0xFFFFFFFFFFFFFFFFFFFFFFFFFFFFFFFFFFFFFFFF AND PUSH20 0xFFFFFFFFFFFFFFFFFFFFFFFFFFFFFFFFFFFFFFFF AND DUP2 MSTORE PUSH1 0x20 ADD SWAP1 DUP2 MSTORE PUSH1 0x20 ADD PUSH0 KECCAK256 DUP1 SLOAD DUP1 PUSH1 0x20 MUL PUSH1 0x20 ADD PUSH1 0x40 MLOAD SWAP1 DUP2 ADD PUSH1 0x40 MSTORE DUP1 SWAP3 SWAP2 SWAP1 DUP2 DUP2 MSTORE PUSH1 0x20 ADD PUSH0 SWAP1 JUMPDEST DUP3 DUP3 LT ISZERO PUSH2 0x105F JUMPI DUP4 DUP3 SWAP1 PUSH0 MSTORE PUSH1 0x20 PUSH0 KECCAK256 SWAP1 PUSH1 0x5 MUL ADD PUSH1 0x40 MLOAD DUP1 PUSH1 0xA0 ADD PUSH1 0x40 MSTORE SWAP1 DUP2 PUSH0 DUP3 ADD PUSH0 SWAP1 SLOAD SWAP1 PUSH2 0x100 EXP SWAP1 DIV PUSH20 0xFFFFFFFFFFFFFFFFFFFFFFFFFFFFFFFFFFFFFFFF AND PUSH20 0xFFFFFFFFFFFFFFFFFFFFFFFFFFFFFFFFFFFFFFFF AND PUSH20 0xFFFFFFFFFFFFFFFFFFFFFFFFFFFFFFFFFFFFFFFF AND DUP2 MSTORE PUSH1 0x20 ADD PUSH1 0x1 DUP3 ADD SLOAD DUP2 MSTORE PUSH1 0x20 ADD PUSH1 0x2 DUP3 ADD SLOAD DUP2 MSTORE PUSH1 0x20 ADD PUSH1 0x3 DUP3 ADD DUP1 SLOAD PUSH2 0xFC6 SWAP1 PUSH2 0x28A7 JUMP JUMPDEST DUP1 PUSH1 0x1F ADD PUSH1 0x20 DUP1 SWAP2 DIV MUL PUSH1 0x20 ADD PUSH1 0x40 MLOAD SWAP1 DUP2 ADD PUSH1 0x40 MSTORE DUP1 SWAP3 SWAP2 SWAP1 DUP2 DUP2 MSTORE PUSH1 0x20 ADD DUP3 DUP1 SLOAD PUSH2 0xFF2 SWAP1 PUSH2 0x28A7 JUMP JUMPDEST DUP1 ISZERO PUSH2 0x103D JUMPI DUP1 PUSH1 0x1F LT PUSH2 0x1014 JUMPI PUSH2 0x100 DUP1 DUP4 SLOAD DIV MUL DUP4 MSTORE SWAP2 PUSH1 0x20 ADD SWAP2 PUSH2 0x103D JUMP JUMPDEST DUP3 ADD SWAP2 SWAP1 PUSH0 MSTORE PUSH1 0x20 PUSH0 KECCAK256 SWAP1 JUMPDEST DUP2 SLOAD DUP2 MSTORE SWAP1 PUSH1 0x1 ADD SWAP1 PUSH1 0x20 ADD DUP1 DUP4 GT PUSH2 0x1020 JUMPI DUP3 SWAP1 SUB PUSH1 0x1F AND DUP3 ADD SWAP2 JUMPDEST POP POP POP POP POP DUP2 MSTORE PUSH1 0x20 ADD PUSH1 0x4 DUP3 ADD SLOAD DUP2 MSTORE POP POP DUP2 MSTORE PUSH1 0x20 ADD SWAP1 PUSH1 0x1 ADD SWAP1 PUSH2 0xF2D JUMP JUMPDEST POP POP POP POP SWAP1 POP SWAP2 SWAP1 POP JUMP JUMPDEST PUSH1 0x1 DUP1 PUSH0 ADD SLOAD SWAP1 POP DUP2 JUMP JUMPDEST PUSH2 0x107D PUSH2 0x1845 JUMP JUMPDEST PUSH2 0x1085 PUSH2 0x1B22 JUMP JUMPDEST JUMP JUMPDEST PUSH0 PUSH0 PUSH0 SWAP1 SLOAD SWAP1 PUSH2 0x100 EXP SWAP1 DIV PUSH20 0xFFFFFFFFFFFFFFFFFFFFFFFFFFFFFFFFFFFFFFFF AND SWAP1 POP SWAP1 JUMP JUMPDEST PUSH2 0x10B6 PUSH2 0x1845 JUMP JUMPDEST PUSH1 0x64 PUSH1 0x3 PUSH0 SWAP1 SLOAD SWAP1 PUSH2 0x100 EXP SWAP1 DIV PUSH1 0xFF AND PUSH1 0xFF AND LT PUSH2 0x10D8 JUMPI PUSH2 0x10D7 PUSH2 0x2820 JUMP JUMPDEST JUMPDEST DUP1 PUSH1 0x3 PUSH0 PUSH2 0x100 EXP DUP2 SLOAD DUP2 PUSH1 0xFF MUL NOT AND SWAP1 DUP4 PUSH1 0xFF AND MUL OR SWAP1 SSTORE POP PUSH32 0x3417887AE5FBC941092FF601511BC0F4E3F14AE835BB881189B4C8148C651269 DUP2 PUSH1 0x40 MLOAD PUSH2 0x1121 SWAP2 SWAP1 PUSH2 0x2720 JUMP JUMPDEST PUSH1 0x40 MLOAD DUP1 SWAP2 SUB SWAP1 LOG1 POP JUMP JUMPDEST PUSH1 0x60 PUSH1 0x5 DUP1 SLOAD DUP1 PUSH1 0x20 MUL PUSH1 0x20 ADD PUSH1 0x40 MLOAD SWAP1 DUP2 ADD PUSH1 0x40 MSTORE DUP1 SWAP3 SWAP2 SWAP1 DUP2 DUP2 MSTORE PUSH1 0x20 ADD PUSH0 SWAP1 JUMPDEST DUP3 DUP3 LT ISZERO PUSH2 0x135C JUMPI DUP4 DUP3 SWAP1 PUSH0 MSTORE PUSH1 0x20 PUSH0 KECCAK256 SWAP1 PUSH1 0x6 MUL ADD PUSH1 0x40 MLOAD DUP1 PUSH1 0xC0 ADD PUSH1 0x40 MSTORE SWAP1 DUP2 PUSH0 DUP3 ADD SLOAD DUP2 MSTORE PUSH1 0x20 ADD PUSH1 0x1 DUP3 ADD DUP1 SLOAD PUSH2 0x1189 SWAP1 PUSH2 0x28A7 JUMP JUMPDEST DUP1 PUSH1 0x1F ADD PUSH1 0x20 DUP1 SWAP2 DIV MUL PUSH1 0x20 ADD PUSH1 0x40 MLOAD SWAP1 DUP2 ADD PUSH1 0x40 MSTORE DUP1 SWAP3 SWAP2 SWAP1 DUP2 DUP2 MSTORE PUSH1 0x20 ADD DUP3 DUP1 SLOAD PUSH2 0x11B5 SWAP1 PUSH2 0x28A7 JUMP JUMPDEST DUP1 ISZERO PUSH2 0x1200 JUMPI DUP1 PUSH1 0x1F LT PUSH2 0x11D7 JUMPI PUSH2 0x100 DUP1 DUP4 SLOAD DIV MUL DUP4 MSTORE SWAP2 PUSH1 0x20 ADD SWAP2 PUSH2 0x1200 JUMP JUMPDEST DUP3 ADD SWAP2 SWAP1 PUSH0 MSTORE PUSH1 0x20 PUSH0 KECCAK256 SWAP1 JUMPDEST DUP2 SLOAD DUP2 MSTORE SWAP1 PUSH1 0x1 ADD SWAP1 PUSH1 0x20 ADD DUP1 DUP4 GT PUSH2 0x11E3 JUMPI DUP3 SWAP1 SUB PUSH1 0x1F AND DUP3 ADD SWAP2 JUMPDEST POP POP POP POP POP DUP2 MSTORE PUSH1 0x20 ADD PUSH1 0x2 DUP3 ADD DUP1 SLOAD PUSH2 0x1219 SWAP1 PUSH2 0x28A7 JUMP JUMPDEST DUP1 PUSH1 0x1F ADD PUSH1 0x20 DUP1 SWAP2 DIV MUL PUSH1 0x20 ADD PUSH1 0x40 MLOAD SWAP1 DUP2 ADD PUSH1 0x40 MSTORE DUP1 SWAP3 SWAP2 SWAP1 DUP2 DUP2 MSTORE PUSH1 0x20 ADD DUP3 DUP1 SLOAD PUSH2 0x1245 SWAP1 PUSH2 0x28A7 JUMP JUMPDEST DUP1 ISZERO PUSH2 0x1290 JUMPI DUP1 PUSH1 0x1F LT PUSH2 0x1267 JUMPI PUSH2 0x100 DUP1 DUP4 SLOAD DIV MUL DUP4 MSTORE SWAP2 PUSH1 0x20 ADD SWAP2 PUSH2 0x1290 JUMP JUMPDEST DUP3 ADD SWAP2 SWAP1 PUSH0 MSTORE PUSH1 0x20 PUSH0 KECCAK256 SWAP1 JUMPDEST DUP2 SLOAD DUP2 MSTORE SWAP1 PUSH1 0x1 ADD SWAP1 PUSH1 0x20 ADD DUP1 DUP4 GT PUSH2 0x1273 JUMPI DUP3 SWAP1 SUB PUSH1 0x1F AND DUP3 ADD SWAP2 JUMPDEST POP POP POP POP POP DUP2 MSTORE PUSH1 0x20 ADD PUSH1 0x3 DUP3 ADD DUP1 SLOAD PUSH2 0x12A9 SWAP1 PUSH2 0x28A7 JUMP JUMPDEST DUP1 PUSH1 0x1F ADD PUSH1 0x20 DUP1 SWAP2 DIV MUL PUSH1 0x20 ADD PUSH1 0x40 MLOAD SWAP1 DUP2 ADD PUSH1 0x40 MSTORE DUP1 SWAP3 SWAP2 SWAP1 DUP2 DUP2 MSTORE PUSH1 0x20 ADD DUP3 DUP1 SLOAD PUSH2 0x12D5 SWAP1 PUSH2 0x28A7 JUMP JUMPDEST DUP1 ISZERO PUSH2 0x1320 JUMPI DUP1 PUSH1 0x1F LT PUSH2 0x12F7 JUMPI PUSH2 0x100 DUP1 DUP4 SLOAD DIV MUL DUP4 MSTORE SWAP2 PUSH1 0x20 ADD SWAP2 PUSH2 0x1320 JUMP JUMPDEST DUP3 ADD SWAP2 SWAP1 PUSH0 MSTORE PUSH1 0x20 PUSH0 KECCAK256 SWAP1 JUMPDEST DUP2 SLOAD DUP2 MSTORE SWAP1 PUSH1 0x1 ADD SWAP1 PUSH1 0x20 ADD DUP1 DUP4 GT PUSH2 0x1303 JUMPI DUP3 SWAP1 SUB PUSH1 0x1F AND DUP3 ADD SWAP2 JUMPDEST POP POP POP POP POP DUP2 MSTORE PUSH1 0x20 ADD PUSH1 0x4 DUP3 ADD SLOAD DUP2 MSTORE PUSH1 0x20 ADD PUSH1 0x5 DUP3 ADD PUSH0 SWAP1 SLOAD SWAP1 PUSH2 0x100 EXP SWAP1 DIV PUSH1 0xFF AND ISZERO ISZERO ISZERO ISZERO DUP2 MSTORE POP POP DUP2 MSTORE PUSH1 0x20 ADD SWAP1 PUSH1 0x1 ADD SWAP1 PUSH2 0x114F JUMP JUMPDEST POP POP POP POP SWAP1 POP SWAP1 JUMP JUMPDEST PUSH1 0x2 DUP1 PUSH0 ADD SLOAD SWAP1 POP DUP2 JUMP JUMPDEST PUSH0 PUSH2 0x1379 PUSH2 0x1845 JUMP JUMPDEST PUSH0 PUSH2 0x1383 DUP9 PUSH2 0x1914 JUMP JUMPDEST SWAP1 POP DUP7 PUSH1 0x5 DUP3 DUP2 SLOAD DUP2 LT PUSH2 0x139A JUMPI PUSH2 0x1399 PUSH2 0x284D JUMP JUMPDEST JUMPDEST SWAP1 PUSH0 MSTORE PUSH1 0x20 PUSH0 KECCAK256 SWAP1 PUSH1 0x6 MUL ADD PUSH1 0x1 ADD SWAP1 DUP2 PUSH2 0x13B5 SWAP2 SWAP1 PUSH2 0x2DEB JUMP JUMPDEST POP DUP6 PUSH1 0x5 DUP3 DUP2 SLOAD DUP2 LT PUSH2 0x13CB JUMPI PUSH2 0x13CA PUSH2 0x284D JUMP JUMPDEST JUMPDEST SWAP1 PUSH0 MSTORE PUSH1 0x20 PUSH0 KECCAK256 SWAP1 PUSH1 0x6 MUL ADD PUSH1 0x2 ADD SWAP1 DUP2 PUSH2 0x13E6 SWAP2 SWAP1 PUSH2 0x2DEB JUMP JUMPDEST POP DUP5 PUSH1 0x5 DUP3 DUP2 SLOAD DUP2 LT PUSH2 0x13FC JUMPI PUSH2 0x13FB PUSH2 0x284D JUMP JUMPDEST JUMPDEST SWAP1 PUSH0 MSTORE PUSH1 0x20 PUSH0 KECCAK256 SWAP1 PUSH1 0x6 MUL ADD PUSH1 0x3 ADD SWAP1 DUP2 PUSH2 0x1417 SWAP2 SWAP1 PUSH2 0x2DEB JUMP JUMPDEST POP DUP4 PUSH1 0x5 DUP3 DUP2 SLOAD DUP2 LT PUSH2 0x142D JUMPI PUSH2 0x142C PUSH2 0x284D JUMP JUMPDEST JUMPDEST SWAP1 PUSH0 MSTORE PUSH1 0x20 PUSH0 KECCAK256 SWAP1 PUSH1 0x6 MUL ADD PUSH1 0x4 ADD DUP2 SWAP1 SSTORE POP DUP3 PUSH1 0x5 DUP3 DUP2 SLOAD DUP2 LT PUSH2 0x1455 JUMPI PUSH2 0x1454 PUSH2 0x284D JUMP JUMPDEST JUMPDEST SWAP1 PUSH0 MSTORE PUSH1 0x20 PUSH0 KECCAK256 SWAP1 PUSH1 0x6 MUL ADD PUSH1 0x5 ADD PUSH0 PUSH2 0x100 EXP DUP2 SLOAD DUP2 PUSH1 0xFF MUL NOT AND SWAP1 DUP4 ISZERO ISZERO MUL OR SWAP1 SSTORE POP DUP5 PUSH1 0x40 MLOAD PUSH2 0x1488 SWAP2 SWAP1 PUSH2 0x2EF4 JUMP JUMPDEST PUSH1 0x40 MLOAD DUP1 SWAP2 SUB SWAP1 KECCAK256 DUP7 PUSH1 0x40 MLOAD PUSH2 0x149E SWAP2 SWAP1 PUSH2 0x2EF4 JUMP JUMPDEST PUSH1 0x40 MLOAD DUP1 SWAP2 SUB SWAP1 KECCAK256 DUP10 PUSH32 0xBDFF6D3212C3D1A7BEE36A46DADC4A6ED6784717D4B4FAD8247F2AAFF5DE598B DUP8 PUSH1 0x40 MLOAD PUSH2 0x14D6 SWAP2 SWAP1 PUSH2 0x1BDC JUMP JUMPDEST PUSH1 0x40 MLOAD DUP1 SWAP2 SUB SWAP1 LOG4 DUP8 SWAP2 POP POP SWAP7 SWAP6 POP POP POP POP POP POP JUMP JUMPDEST PUSH0 PUSH0 PUSH0 SWAP1 POP PUSH0 PUSH0 SWAP1 POP JUMPDEST PUSH1 0x4 PUSH0 DUP7 PUSH20 0xFFFFFFFFFFFFFFFFFFFFFFFFFFFFFFFFFFFFFFFF AND PUSH20 0xFFFFFFFFFFFFFFFFFFFFFFFFFFFFFFFFFFFFFFFF AND DUP2 MSTORE PUSH1 0x20 ADD SWAP1 DUP2 MSTORE PUSH1 0x20 ADD PUSH0 KECCAK256 DUP1 SLOAD SWAP1 POP DUP2 LT ISZERO PUSH2 0x15BF JUMPI DUP4 PUSH1 0x4 PUSH0 DUP8 PUSH20 0xFFFFFFFFFFFFFFFFFFFFFFFFFFFFFFFFFFFFFFFF AND PUSH20 0xFFFFFFFFFFFFFFFFFFFFFFFFFFFFFFFFFFFFFFFF AND DUP2 MSTORE PUSH1 0x20 ADD SWAP1 DUP2 MSTORE PUSH1 0x20 ADD PUSH0 KECCAK256 DUP3 DUP2 SLOAD DUP2 LT PUSH2 0x158E JUMPI PUSH2 0x158D PUSH2 0x284D JUMP JUMPDEST JUMPDEST SWAP1 PUSH0 MSTORE PUSH1 0x20 PUSH0 KECCAK256 SWAP1 PUSH1 0x5 MUL ADD PUSH1 0x1 ADD SLOAD SUB PUSH2 0x15B2 JUMPI DUP2 DUP1 PUSH2 0x15AE SWAP1 PUSH2 0x2F46 JUMP JUMPDEST SWAP3 POP POP JUMPDEST DUP1 DUP1 PUSH1 0x1 ADD SWAP2 POP POP PUSH2 0x14F6 JUMP JUMPDEST POP DUP1 SWAP2 POP POP SWAP3 SWAP2 POP POP JUMP JUMPDEST PUSH1 0x3 PUSH0 SWAP1 SLOAD SWAP1 PUSH2 0x100 EXP SWAP1 DIV PUSH1 0xFF AND DUP2 JUMP JUMPDEST PUSH1 0x5 DUP2 DUP2 SLOAD DUP2 LT PUSH2 0x15EB JUMPI PUSH0 DUP1 REVERT JUMPDEST SWAP1 PUSH0 MSTORE PUSH1 0x20 PUSH0 KECCAK256 SWAP1 PUSH1 0x6 MUL ADD PUSH0 SWAP2 POP SWAP1 POP DUP1 PUSH0 ADD SLOAD SWAP1 DUP1 PUSH1 0x1 ADD DUP1 SLOAD PUSH2 0x1610 SWAP1 PUSH2 0x28A7 JUMP JUMPDEST DUP1 PUSH1 0x1F ADD PUSH1 0x20 DUP1 SWAP2 DIV MUL PUSH1 0x20 ADD PUSH1 0x40 MLOAD SWAP1 DUP2 ADD PUSH1 0x40 MSTORE DUP1 SWAP3 SWAP2 SWAP1 DUP2 DUP2 MSTORE PUSH1 0x20 ADD DUP3 DUP1 SLOAD PUSH2 0x163C SWAP1 PUSH2 0x28A7 JUMP JUMPDEST DUP1 ISZERO PUSH2 0x1687 JUMPI DUP1 PUSH1 0x1F LT PUSH2 0x165E JUMPI PUSH2 0x100 DUP1 DUP4 SLOAD DIV MUL DUP4 MSTORE SWAP2 PUSH1 0x20 ADD SWAP2 PUSH2 0x1687 JUMP JUMPDEST DUP3 ADD SWAP2 SWAP1 PUSH0 MSTORE PUSH1 0x20 PUSH0 KECCAK256 SWAP1 JUMPDEST DUP2 SLOAD DUP2 MSTORE SWAP1 PUSH1 0x1 ADD SWAP1 PUSH1 0x20 ADD DUP1 DUP4 GT PUSH2 0x166A JUMPI DUP3 SWAP1 SUB PUSH1 0x1F AND DUP3 ADD SWAP2 JUMPDEST POP POP POP POP POP SWAP1 DUP1 PUSH1 0x2 ADD DUP1 SLOAD PUSH2 0x169C SWAP1 PUSH2 0x28A7 JUMP JUMPDEST DUP1 PUSH1 0x1F ADD PUSH1 0x20 DUP1 SWAP2 DIV MUL PUSH1 0x20 ADD PUSH1 0x40 MLOAD SWAP1 DUP2 ADD PUSH1 0x40 MSTORE DUP1 SWAP3 SWAP2 SWAP1 DUP2 DUP2 MSTORE PUSH1 0x20 ADD DUP3 DUP1 SLOAD PUSH2 0x16C8 SWAP1 PUSH2 0x28A7 JUMP JUMPDEST DUP1 ISZERO PUSH2 0x1713 JUMPI DUP1 PUSH1 0x1F LT PUSH2 0x16EA JUMPI PUSH2 0x100 DUP1 DUP4 SLOAD DIV MUL DUP4 MSTORE SWAP2 PUSH1 0x20 ADD SWAP2 PUSH2 0x1713 JUMP JUMPDEST DUP3 ADD SWAP2 SWAP1 PUSH0 MSTORE PUSH1 0x20 PUSH0 KECCAK256 SWAP1 JUMPDEST DUP2 SLOAD DUP2 MSTORE SWAP1 PUSH1 0x1 ADD SWAP1 PUSH1 0x20 ADD DUP1 DUP4 GT PUSH2 0x16F6 JUMPI DUP3 SWAP1 SUB PUSH1 0x1F AND DUP3 ADD SWAP2 JUMPDEST POP POP POP POP POP SWAP1 DUP1 PUSH1 0x3 ADD DUP1 SLOAD PUSH2 0x1728 SWAP1 PUSH2 0x28A7 JUMP JUMPDEST DUP1 PUSH1 0x1F ADD PUSH1 0x20 DUP1 SWAP2 DIV MUL PUSH1 0x20 ADD PUSH1 0x40 MLOAD SWAP1 DUP2 ADD PUSH1 0x40 MSTORE DUP1 SWAP3 SWAP2 SWAP1 DUP2 DUP2 MSTORE PUSH1 0x20 ADD DUP3 DUP1 SLOAD PUSH2 0x1754 SWAP1 PUSH2 0x28A7 JUMP JUMPDEST DUP1 ISZERO PUSH2 0x179F JUMPI DUP1 PUSH1 0x1F LT PUSH2 0x1776 JUMPI PUSH2 0x100 DUP1 DUP4 SLOAD DIV MUL DUP4 MSTORE SWAP2 PUSH1 0x20 ADD SWAP2 PUSH2 0x179F JUMP JUMPDEST DUP3 ADD SWAP2 SWAP1 PUSH0 MSTORE PUSH1 0x20 PUSH0 KECCAK256 SWAP1 JUMPDEST DUP2 SLOAD DUP2 MSTORE SWAP1 PUSH1 0x1 ADD SWAP1 PUSH1 0x20 ADD DUP1 DUP4 GT PUSH2 0x1782 JUMPI DUP3 SWAP1 SUB PUSH1 0x1F AND DUP3 ADD SWAP2 JUMPDEST POP POP POP POP POP SWAP1 DUP1 PUSH1 0x4 ADD SLOAD SWAP1 DUP1 PUSH1 0x5 ADD PUSH0 SWAP1 SLOAD SWAP1 PUSH2 0x100 EXP SWAP1 DIV PUSH1 0xFF AND SWAP1 POP DUP7 JUMP JUMPDEST PUSH2 0x17C9 PUSH2 0x1845 JUMP JUMPDEST PUSH0 PUSH20 0xFFFFFFFFFFFFFFFFFFFFFFFFFFFFFFFFFFFFFFFF AND DUP2 PUSH20 0xFFFFFFFFFFFFFFFFFFFFFFFFFFFFFFFFFFFFFFFF AND SUB PUSH2 0x1839 JUMPI PUSH0 PUSH1 0x40 MLOAD PUSH32 0x1E4FBDF700000000000000000000000000000000000000000000000000000000 DUP2 MSTORE PUSH1 0x4 ADD PUSH2 0x1830 SWAP2 SWAP1 PUSH2 0x2382 JUMP JUMPDEST PUSH1 0x40 MLOAD DUP1 SWAP2 SUB SWAP1 REVERT JUMPDEST PUSH2 0x1842 DUP2 PUSH2 0x1A61 JUMP JUMPDEST POP JUMP JUMPDEST PUSH2 0x184D PUSH2 0x190D JUMP JUMPDEST PUSH20 0xFFFFFFFFFFFFFFFFFFFFFFFFFFFFFFFFFFFFFFFF AND PUSH2 0x186B PUSH2 0x1087 JUMP JUMPDEST PUSH20 0xFFFFFFFFFFFFFFFFFFFFFFFFFFFFFFFFFFFFFFFF AND EQ PUSH2 0x18CA JUMPI PUSH2 0x188E PUSH2 0x190D JUMP JUMPDEST PUSH1 0x40 MLOAD PUSH32 0x118CDAA700000000000000000000000000000000000000000000000000000000 DUP2 MSTORE PUSH1 0x4 ADD PUSH2 0x18C1 SWAP2 SWAP1 PUSH2 0x2382 JUMP JUMPDEST PUSH1 0x40 MLOAD DUP1 SWAP2 SUB SWAP1 REVERT JUMPDEST JUMP JUMPDEST PUSH2 0x18D4 PUSH2 0xD43 JUMP JUMPDEST ISZERO PUSH2 0x190B JUMPI PUSH1 0x40 MLOAD PUSH32 0xD93C066500000000000000000000000000000000000000000000000000000000 DUP2 MSTORE PUSH1 0x4 ADD PUSH1 0x40 MLOAD DUP1 SWAP2 SUB SWAP1 REVERT JUMPDEST JUMP JUMPDEST PUSH0 CALLER SWAP1 POP SWAP1 JUMP JUMPDEST PUSH0 PUSH0 PUSH0 SWAP1 POP JUMPDEST PUSH1 0x5 DUP1 SLOAD SWAP1 POP DUP2 LT ISZERO PUSH2 0x1966 JUMPI DUP3 PUSH1 0x5 DUP3 DUP2 SLOAD DUP2 LT PUSH2 0x193C JUMPI PUSH2 0x193B PUSH2 0x284D JUMP JUMPDEST JUMPDEST SWAP1 PUSH0 MSTORE PUSH1 0x20 PUSH0 KECCAK256 SWAP1 PUSH1 0x6 MUL ADD PUSH0 ADD SLOAD SUB PUSH2 0x1959 JUMPI DUP1 SWAP2 POP POP PUSH2 0x19A2 JUMP JUMPDEST DUP1 DUP1 PUSH1 0x1 ADD SWAP2 POP POP PUSH2 0x191A JUMP JUMPDEST POP PUSH1 0x40 MLOAD PUSH32 0x8C379A000000000000000000000000000000000000000000000000000000000 DUP2 MSTORE PUSH1 0x4 ADD PUSH2 0x1999 SWAP1 PUSH2 0x2FD7 JUMP JUMPDEST PUSH1 0x40 MLOAD DUP1 SWAP2 SUB SWAP1 REVERT JUMPDEST SWAP2 SWAP1 POP JUMP JUMPDEST PUSH0 PUSH1 0x64 DUP3 DUP5 PUSH2 0x19B6 SWAP2 SWAP1 PUSH2 0x2FF5 JUMP JUMPDEST LT ISZERO PUSH2 0x19C0 JUMPI PUSH0 PUSH0 REVERT JUMPDEST PUSH1 0x64 DUP3 DUP5 PUSH2 0x19CE SWAP2 SWAP1 PUSH2 0x2FF5 JUMP JUMPDEST PUSH2 0x19D8 SWAP2 SWAP1 PUSH2 0x3063 JUMP JUMPDEST SWAP1 POP SWAP3 SWAP2 POP POP JUMP JUMPDEST PUSH1 0x1 DUP2 PUSH0 ADD PUSH0 DUP3 DUP3 SLOAD ADD SWAP3 POP POP DUP2 SWAP1 SSTORE POP POP JUMP JUMPDEST PUSH2 0x19FC PUSH2 0x1B84 JUMP JUMPDEST PUSH0 PUSH0 PUSH1 0x14 PUSH2 0x100 EXP DUP2 SLOAD DUP2 PUSH1 0xFF MUL NOT AND SWAP1 DUP4 ISZERO ISZERO MUL OR SWAP1 SSTORE POP PUSH32 0x5DB9EE0A495BF2E6FF9C91A7834C1BA4FDD244A5E8AA4E537BD38AEAE4B073AA PUSH2 0x1A3E PUSH2 0x190D JUMP JUMPDEST PUSH1 0x40 MLOAD PUSH2 0x1A4B SWAP2 SWAP1 PUSH2 0x2382 JUMP JUMPDEST PUSH1 0x40 MLOAD DUP1 SWAP2 SUB SWAP1 LOG1 JUMP JUMPDEST PUSH0 DUP2 PUSH0 ADD SLOAD SWAP1 POP SWAP2 SWAP1 POP JUMP JUMPDEST PUSH0 PUSH0 PUSH0 SWAP1 SLOAD SWAP1 PUSH2 0x100 EXP SWAP1 DIV PUSH20 0xFFFFFFFFFFFFFFFFFFFFFFFFFFFFFFFFFFFFFFFF AND SWAP1 POP DUP2 PUSH0 PUSH0 PUSH2 0x100 EXP DUP2 SLOAD DUP2 PUSH20 0xFFFFFFFFFFFFFFFFFFFFFFFFFFFFFFFFFFFFFFFF MUL NOT AND SWAP1 DUP4 PUSH20 0xFFFFFFFFFFFFFFFFFFFFFFFFFFFFFFFFFFFFFFFF AND MUL OR SWAP1 SSTORE POP DUP2 PUSH20 0xFFFFFFFFFFFFFFFFFFFFFFFFFFFFFFFFFFFFFFFF AND DUP2 PUSH20 0xFFFFFFFFFFFFFFFFFFFFFFFFFFFFFFFFFFFFFFFF AND PUSH32 0x8BE0079C531659141344CD1FD0A4F28419497F9722A3DAAFE3B4186F6B6457E0 PUSH1 0x40 MLOAD PUSH1 0x40 MLOAD DUP1 SWAP2 SUB SWAP1 LOG3 POP POP JUMP JUMPDEST PUSH2 0x1B2A PUSH2 0x18CC JUMP JUMPDEST PUSH1 0x1 PUSH0 PUSH1 0x14 PUSH2 0x100 EXP DUP2 SLOAD DUP2 PUSH1 0xFF MUL NOT AND SWAP1 DUP4 ISZERO ISZERO MUL OR SWAP1 SSTORE POP PUSH32 0x62E78CEA01BEE320CD4E420270B5EA74000D11B0C9F74754EBDBFC544B05A258 PUSH2 0x1B6D PUSH2 0x190D JUMP JUMPDEST PUSH1 0x40 MLOAD PUSH2 0x1B7A SWAP2 SWAP1 PUSH2 0x2382 JUMP JUMPDEST PUSH1 0x40 MLOAD DUP1 SWAP2 SUB SWAP1 LOG1 JUMP JUMPDEST PUSH2 0x1B8C PUSH2 0xD43 JUMP JUMPDEST PUSH2 0x1BC2 JUMPI PUSH1 0x40 MLOAD PUSH32 0x8DFC202B00000000000000000000000000000000000000000000000000000000 DUP2 MSTORE PUSH1 0x4 ADD PUSH1 0x40 MLOAD DUP1 SWAP2 SUB SWAP1 REVERT JUMPDEST JUMP JUMPDEST PUSH0 DUP2 SWAP1 POP SWAP2 SWAP1 POP JUMP JUMPDEST PUSH2 0x1BD6 DUP2 PUSH2 0x1BC4 JUMP JUMPDEST DUP3 MSTORE POP POP JUMP JUMPDEST PUSH0 PUSH1 0x20 DUP3 ADD SWAP1 POP PUSH2 0x1BEF PUSH0 DUP4 ADD DUP5 PUSH2 0x1BCD JUMP JUMPDEST SWAP3 SWAP2 POP POP JUMP JUMPDEST PUSH0 PUSH1 0x40 MLOAD SWAP1 POP SWAP1 JUMP JUMPDEST PUSH0 PUSH0 REVERT JUMPDEST PUSH0 PUSH0 REVERT JUMPDEST PUSH0 PUSH20 0xFFFFFFFFFFFFFFFFFFFFFFFFFFFFFFFFFFFFFFFF DUP3 AND SWAP1 POP SWAP2 SWAP1 POP JUMP JUMPDEST PUSH0 PUSH2 0x1C2F DUP3 PUSH2 0x1C06 JUMP JUMPDEST SWAP1 POP SWAP2 SWAP1 POP JUMP JUMPDEST PUSH2 0x1C3F DUP2 PUSH2 0x1C25 JUMP JUMPDEST DUP2 EQ PUSH2 0x1C49 JUMPI PUSH0 PUSH0 REVERT JUMPDEST POP JUMP JUMPDEST PUSH0 DUP2 CALLDATALOAD SWAP1 POP PUSH2 0x1C5A DUP2 PUSH2 0x1C36 JUMP JUMPDEST SWAP3 SWAP2 POP POP JUMP JUMPDEST PUSH0 DUP2 SWAP1 POP SWAP2 SWAP1 POP JUMP JUMPDEST PUSH2 0x1C72 DUP2 PUSH2 0x1C60 JUMP JUMPDEST DUP2 EQ PUSH2 0x1C7C JUMPI PUSH0 PUSH0 REVERT JUMPDEST POP JUMP JUMPDEST PUSH0 DUP2 CALLDATALOAD SWAP1 POP PUSH2 0x1C8D DUP2 PUSH2 0x1C69 JUMP JUMPDEST SWAP3 SWAP2 POP POP JUMP JUMPDEST PUSH0 PUSH0 REVERT JUMPDEST PUSH0 PUSH0 REVERT JUMPDEST PUSH0 PUSH1 0x1F NOT PUSH1 0x1F DUP4 ADD AND SWAP1 POP SWAP2 SWAP1 POP JUMP JUMPDEST PUSH32 0x4E487B7100000000000000000000000000000000000000000000000000000000 PUSH0 MSTORE PUSH1 0x41 PUSH1 0x4 MSTORE PUSH1 0x24 PUSH0 REVERT JUMPDEST PUSH2 0x1CE1 DUP3 PUSH2 0x1C9B JUMP JUMPDEST DUP2 ADD DUP2 DUP2 LT PUSH8 0xFFFFFFFFFFFFFFFF DUP3 GT OR ISZERO PUSH2 0x1D00 JUMPI PUSH2 0x1CFF PUSH2 0x1CAB JUMP JUMPDEST JUMPDEST DUP1 PUSH1 0x40 MSTORE POP POP POP JUMP JUMPDEST PUSH0 PUSH2 0x1D12 PUSH2 0x1BF5 JUMP JUMPDEST SWAP1 POP PUSH2 0x1D1E DUP3 DUP3 PUSH2 0x1CD8 JUMP JUMPDEST SWAP2 SWAP1 POP JUMP JUMPDEST PUSH0 PUSH8 0xFFFFFFFFFFFFFFFF DUP3 GT ISZERO PUSH2 0x1D3D JUMPI PUSH2 0x1D3C PUSH2 0x1CAB JUMP JUMPDEST JUMPDEST PUSH2 0x1D46 DUP3 PUSH2 0x1C9B JUMP JUMPDEST SWAP1 POP PUSH1 0x20 DUP2 ADD SWAP1 POP SWAP2 SWAP1 POP JUMP JUMPDEST DUP3 DUP2 DUP4 CALLDATACOPY PUSH0 DUP4 DUP4 ADD MSTORE POP POP POP JUMP JUMPDEST PUSH0 PUSH2 0x1D73 PUSH2 0x1D6E DUP5 PUSH2 0x1D23 JUMP JUMPDEST PUSH2 0x1D09 JUMP JUMPDEST SWAP1 POP DUP3 DUP2 MSTORE PUSH1 0x20 DUP2 ADD DUP5 DUP5 DUP5 ADD GT ISZERO PUSH2 0x1D8F JUMPI PUSH2 0x1D8E PUSH2 0x1C97 JUMP JUMPDEST JUMPDEST PUSH2 0x1D9A DUP5 DUP3 DUP6 PUSH2 0x1D53 JUMP JUMPDEST POP SWAP4 SWAP3 POP POP POP JUMP JUMPDEST PUSH0 DUP3 PUSH1 0x1F DUP4 ADD SLT PUSH2 0x1DB6 JUMPI PUSH2 0x1DB5 PUSH2 0x1C93 JUMP JUMPDEST JUMPDEST DUP2 CALLDATALOAD PUSH2 0x1DC6 DUP5 DUP3 PUSH1 0x20 DUP7 ADD PUSH2 0x1D61 JUMP JUMPDEST SWAP2 POP POP SWAP3 SWAP2 POP POP JUMP JUMPDEST PUSH0 PUSH0 PUSH0 PUSH1 0x60 DUP5 DUP7 SUB SLT ISZERO PUSH2 0x1DE6 JUMPI PUSH2 0x1DE5 PUSH2 0x1BFE JUMP JUMPDEST JUMPDEST PUSH0 PUSH2 0x1DF3 DUP7 DUP3 DUP8 ADD PUSH2 0x1C4C JUMP JUMPDEST SWAP4 POP POP PUSH1 0x20 PUSH2 0x1E04 DUP7 DUP3 DUP8 ADD PUSH2 0x1C7F JUMP JUMPDEST SWAP3 POP POP PUSH1 0x40 DUP5 ADD CALLDATALOAD PUSH8 0xFFFFFFFFFFFFFFFF DUP2 GT ISZERO PUSH2 0x1E25 JUMPI PUSH2 0x1E24 PUSH2 0x1C02 JUMP JUMPDEST JUMPDEST PUSH2 0x1E31 DUP7 DUP3 DUP8 ADD PUSH2 0x1DA2 JUMP JUMPDEST SWAP2 POP POP SWAP3 POP SWAP3 POP SWAP3 JUMP JUMPDEST PUSH0 DUP2 ISZERO ISZERO SWAP1 POP SWAP2 SWAP1 POP JUMP JUMPDEST PUSH2 0x1E4F DUP2 PUSH2 0x1E3B JUMP JUMPDEST DUP3 MSTORE POP POP JUMP JUMPDEST PUSH0 PUSH1 0x20 DUP3 ADD SWAP1 POP PUSH2 0x1E68 PUSH0 DUP4 ADD DUP5 PUSH2 0x1E46 JUMP JUMPDEST SWAP3 SWAP2 POP POP JUMP JUMPDEST PUSH2 0x1E77 DUP2 PUSH2 0x1BC4 JUMP JUMPDEST DUP2 EQ PUSH2 0x1E81 JUMPI PUSH0 PUSH0 REVERT JUMPDEST POP JUMP JUMPDEST PUSH0 DUP2 CALLDATALOAD SWAP1 POP PUSH2 0x1E92 DUP2 PUSH2 0x1E6E JUMP JUMPDEST SWAP3 SWAP2 POP POP JUMP JUMPDEST PUSH0 PUSH0 PUSH1 0x40 DUP4 DUP6 SUB SLT ISZERO PUSH2 0x1EAE JUMPI PUSH2 0x1EAD PUSH2 0x1BFE JUMP JUMPDEST JUMPDEST PUSH0 PUSH2 0x1EBB DUP6 DUP3 DUP7 ADD PUSH2 0x1C4C JUMP JUMPDEST SWAP3 POP POP PUSH1 0x20 PUSH2 0x1ECC DUP6 DUP3 DUP7 ADD PUSH2 0x1E84 JUMP JUMPDEST SWAP2 POP POP SWAP3 POP SWAP3 SWAP1 POP JUMP JUMPDEST PUSH2 0x1EDF DUP2 PUSH2 0x1C25 JUMP JUMPDEST DUP3 MSTORE POP POP JUMP JUMPDEST PUSH2 0x1EEE DUP2 PUSH2 0x1C60 JUMP JUMPDEST DUP3 MSTORE POP POP JUMP JUMPDEST PUSH0 DUP2 MLOAD SWAP1 POP SWAP2 SWAP1 POP JUMP JUMPDEST PUSH0 DUP3 DUP3 MSTORE PUSH1 0x20 DUP3 ADD SWAP1 POP SWAP3 SWAP2 POP POP JUMP JUMPDEST DUP3 DUP2 DUP4 MCOPY PUSH0 DUP4 DUP4 ADD MSTORE POP POP POP JUMP JUMPDEST PUSH0 PUSH2 0x1F26 DUP3 PUSH2 0x1EF4 JUMP JUMPDEST PUSH2 0x1F30 DUP2 DUP6 PUSH2 0x1EFE JUMP JUMPDEST SWAP4 POP PUSH2 0x1F40 DUP2 DUP6 PUSH1 0x20 DUP7 ADD PUSH2 0x1F0E JUMP JUMPDEST PUSH2 0x1F49 DUP2 PUSH2 0x1C9B JUMP JUMPDEST DUP5 ADD SWAP2 POP POP SWAP3 SWAP2 POP POP JUMP JUMPDEST PUSH0 PUSH1 0xA0 DUP3 ADD SWAP1 POP PUSH2 0x1F67 PUSH0 DUP4 ADD DUP9 PUSH2 0x1ED6 JUMP JUMPDEST PUSH2 0x1F74 PUSH1 0x20 DUP4 ADD DUP8 PUSH2 0x1EE5 JUMP JUMPDEST PUSH2 0x1F81 PUSH1 0x40 DUP4 ADD DUP7 PUSH2 0x1BCD JUMP JUMPDEST DUP2 DUP2 SUB PUSH1 0x60 DUP4 ADD MSTORE PUSH2 0x1F93 DUP2 DUP6 PUSH2 0x1F1C JUMP JUMPDEST SWAP1 POP PUSH2 0x1FA2 PUSH1 0x80 DUP4 ADD DUP5 PUSH2 0x1BCD JUMP JUMPDEST SWAP7 SWAP6 POP POP POP POP POP POP JUMP JUMPDEST PUSH0 PUSH2 0x1FB6 DUP3 PUSH2 0x1C06 JUMP JUMPDEST SWAP1 POP SWAP2 SWAP1 POP JUMP JUMPDEST PUSH2 0x1FC6 DUP2 PUSH2 0x1FAC JUMP JUMPDEST DUP2 EQ PUSH2 0x1FD0 JUMPI PUSH0 PUSH0 REVERT JUMPDEST POP JUMP JUMPDEST PUSH0 DUP2 CALLDATALOAD SWAP1 POP PUSH2 0x1FE1 DUP2 PUSH2 0x1FBD JUMP JUMPDEST SWAP3 SWAP2 POP POP JUMP JUMPDEST PUSH0 PUSH0 PUSH1 0x40 DUP4 DUP6 SUB SLT ISZERO PUSH2 0x1FFD JUMPI PUSH2 0x1FFC PUSH2 0x1BFE JUMP JUMPDEST JUMPDEST PUSH0 PUSH2 0x200A DUP6 DUP3 DUP7 ADD PUSH2 0x1FD3 JUMP JUMPDEST SWAP3 POP POP PUSH1 0x20 PUSH2 0x201B DUP6 DUP3 DUP7 ADD PUSH2 0x1E84 JUMP JUMPDEST SWAP2 POP POP SWAP3 POP SWAP3 SWAP1 POP JUMP JUMPDEST PUSH0 PUSH8 0xFFFFFFFFFFFFFFFF DUP3 GT ISZERO PUSH2 0x203F JUMPI PUSH2 0x203E PUSH2 0x1CAB JUMP JUMPDEST JUMPDEST PUSH2 0x2048 DUP3 PUSH2 0x1C9B JUMP JUMPDEST SWAP1 POP PUSH1 0x20 DUP2 ADD SWAP1 POP SWAP2 SWAP1 POP JUMP JUMPDEST PUSH0 PUSH2 0x2067 PUSH2 0x2062 DUP5 PUSH2 0x2025 JUMP JUMPDEST PUSH2 0x1D09 JUMP JUMPDEST SWAP1 POP DUP3 DUP2 MSTORE PUSH1 0x20 DUP2 ADD DUP5 DUP5 DUP5 ADD GT ISZERO PUSH2 0x2083 JUMPI PUSH2 0x2082 PUSH2 0x1C97 JUMP JUMPDEST JUMPDEST PUSH2 0x208E DUP5 DUP3 DUP6 PUSH2 0x1D53 JUMP JUMPDEST POP SWAP4 SWAP3 POP POP POP JUMP JUMPDEST PUSH0 DUP3 PUSH1 0x1F DUP4 ADD SLT PUSH2 0x20AA JUMPI PUSH2 0x20A9 PUSH2 0x1C93 JUMP JUMPDEST JUMPDEST DUP2 CALLDATALOAD PUSH2 0x20BA DUP5 DUP3 PUSH1 0x20 DUP7 ADD PUSH2 0x2055 JUMP JUMPDEST SWAP2 POP POP SWAP3 SWAP2 POP POP JUMP JUMPDEST PUSH0 PUSH0 PUSH0 PUSH0 PUSH1 0x80 DUP6 DUP8 SUB SLT ISZERO PUSH2 0x20DB JUMPI PUSH2 0x20DA PUSH2 0x1BFE JUMP JUMPDEST JUMPDEST PUSH0 DUP6 ADD CALLDATALOAD PUSH8 0xFFFFFFFFFFFFFFFF DUP2 GT ISZERO PUSH2 0x20F8 JUMPI PUSH2 0x20F7 PUSH2 0x1C02 JUMP JUMPDEST JUMPDEST PUSH2 0x2104 DUP8 DUP3 DUP9 ADD PUSH2 0x2096 JUMP JUMPDEST SWAP5 POP POP PUSH1 0x20 DUP6 ADD CALLDATALOAD PUSH8 0xFFFFFFFFFFFFFFFF DUP2 GT ISZERO PUSH2 0x2125 JUMPI PUSH2 0x2124 PUSH2 0x1C02 JUMP JUMPDEST JUMPDEST PUSH2 0x2131 DUP8 DUP3 DUP9 ADD PUSH2 0x2096 JUMP JUMPDEST SWAP4 POP POP PUSH1 0x40 DUP6 ADD CALLDATALOAD PUSH8 0xFFFFFFFFFFFFFFFF DUP2 GT ISZERO PUSH2 0x2152 JUMPI PUSH2 0x2151 PUSH2 0x1C02 JUMP JUMPDEST JUMPDEST PUSH2 0x215E DUP8 DUP3 DUP9 ADD PUSH2 0x2096 JUMP JUMPDEST SWAP3 POP POP PUSH1 0x60 PUSH2 0x216F DUP8 DUP3 DUP9 ADD PUSH2 0x1E84 JUMP JUMPDEST SWAP2 POP POP SWAP3 SWAP6 SWAP2 SWAP5 POP SWAP3 POP JUMP JUMPDEST PUSH0 PUSH1 0x20 DUP3 ADD SWAP1 POP PUSH2 0x218E PUSH0 DUP4 ADD DUP5 PUSH2 0x1EE5 JUMP JUMPDEST SWAP3 SWAP2 POP POP JUMP JUMPDEST PUSH0 PUSH1 0x20 DUP3 DUP5 SUB SLT ISZERO PUSH2 0x21A9 JUMPI PUSH2 0x21A8 PUSH2 0x1BFE JUMP JUMPDEST JUMPDEST PUSH0 PUSH2 0x21B6 DUP5 DUP3 DUP6 ADD PUSH2 0x1C4C JUMP JUMPDEST SWAP2 POP POP SWAP3 SWAP2 POP POP JUMP JUMPDEST PUSH0 DUP2 MLOAD SWAP1 POP SWAP2 SWAP1 POP JUMP JUMPDEST PUSH0 DUP3 DUP3 MSTORE PUSH1 0x20 DUP3 ADD SWAP1 POP SWAP3 SWAP2 POP POP JUMP JUMPDEST PUSH0 DUP2 SWAP1 POP PUSH1 0x20 DUP3 ADD SWAP1 POP SWAP2 SWAP1 POP JUMP JUMPDEST PUSH2 0x21F1 DUP2 PUSH2 0x1C25 JUMP JUMPDEST DUP3 MSTORE POP POP JUMP JUMPDEST PUSH2 0x2200 DUP2 PUSH2 0x1C60 JUMP JUMPDEST DUP3 MSTORE POP POP JUMP JUMPDEST PUSH2 0x220F DUP2 PUSH2 0x1BC4 JUMP JUMPDEST DUP3 MSTORE POP POP JUMP JUMPDEST PUSH0 DUP3 DUP3 MSTORE PUSH1 0x20 DUP3 ADD SWAP1 POP SWAP3 SWAP2 POP POP JUMP JUMPDEST PUSH0 PUSH2 0x222F DUP3 PUSH2 0x1EF4 JUMP JUMPDEST PUSH2 0x2239 DUP2 DUP6 PUSH2 0x2215 JUMP JUMPDEST SWAP4 POP PUSH2 0x2249 DUP2 DUP6 PUSH1 0x20 DUP7 ADD PUSH2 0x1F0E JUMP JUMPDEST PUSH2 0x2252 DUP2 PUSH2 0x1C9B JUMP JUMPDEST DUP5 ADD SWAP2 POP POP SWAP3 SWAP2 POP POP JUMP JUMPDEST PUSH0 PUSH1 0xA0 DUP4 ADD PUSH0 DUP4 ADD MLOAD PUSH2 0x2272 PUSH0 DUP7 ADD DUP3 PUSH2 0x21E8 JUMP JUMPDEST POP PUSH1 0x20 DUP4 ADD MLOAD PUSH2 0x2285 PUSH1 0x20 DUP7 ADD DUP3 PUSH2 0x21F7 JUMP JUMPDEST POP PUSH1 0x40 DUP4 ADD MLOAD PUSH2 0x2298 PUSH1 0x40 DUP7 ADD DUP3 PUSH2 0x2206 JUMP JUMPDEST POP PUSH1 0x60 DUP4 ADD MLOAD DUP5 DUP3 SUB PUSH1 0x60 DUP7 ADD MSTORE PUSH2 0x22B0 DUP3 DUP3 PUSH2 0x2225 JUMP JUMPDEST SWAP2 POP POP PUSH1 0x80 DUP4 ADD MLOAD PUSH2 0x22C5 PUSH1 0x80 DUP7 ADD DUP3 PUSH2 0x2206 JUMP JUMPDEST POP DUP1 SWAP2 POP POP SWAP3 SWAP2 POP POP JUMP JUMPDEST PUSH0 PUSH2 0x22DB DUP4 DUP4 PUSH2 0x225D JUMP JUMPDEST SWAP1 POP SWAP3 SWAP2 POP POP JUMP JUMPDEST PUSH0 PUSH1 0x20 DUP3 ADD SWAP1 POP SWAP2 SWAP1 POP JUMP JUMPDEST PUSH0 PUSH2 0x22F9 DUP3 PUSH2 0x21BF JUMP JUMPDEST PUSH2 0x2303 DUP2 DUP6 PUSH2 0x21C9 JUMP JUMPDEST SWAP4 POP DUP4 PUSH1 0x20 DUP3 MUL DUP6 ADD PUSH2 0x2315 DUP6 PUSH2 0x21D9 JUMP JUMPDEST DUP1 PUSH0 JUMPDEST DUP6 DUP2 LT ISZERO PUSH2 0x2350 JUMPI DUP5 DUP5 SUB DUP10 MSTORE DUP2 MLOAD PUSH2 0x2331 DUP6 DUP3 PUSH2 0x22D0 JUMP JUMPDEST SWAP5 POP PUSH2 0x233C DUP4 PUSH2 0x22E3 JUMP JUMPDEST SWAP3 POP PUSH1 0x20 DUP11 ADD SWAP10 POP POP PUSH1 0x1 DUP2 ADD SWAP1 POP PUSH2 0x2318 JUMP JUMPDEST POP DUP3 SWAP8 POP DUP8 SWAP6 POP POP POP POP POP POP SWAP3 SWAP2 POP POP JUMP JUMPDEST PUSH0 PUSH1 0x20 DUP3 ADD SWAP1 POP DUP2 DUP2 SUB PUSH0 DUP4 ADD MSTORE PUSH2 0x237A DUP2 DUP5 PUSH2 0x22EF JUMP JUMPDEST SWAP1 POP SWAP3 SWAP2 POP POP JUMP JUMPDEST PUSH0 PUSH1 0x20 DUP3 ADD SWAP1 POP PUSH2 0x2395 PUSH0 DUP4 ADD DUP5 PUSH2 0x1ED6 JUMP JUMPDEST SWAP3 SWAP2 POP POP JUMP JUMPDEST PUSH0 PUSH1 0xFF DUP3 AND SWAP1 POP SWAP2 SWAP1 POP JUMP JUMPDEST PUSH2 0x23B0 DUP2 PUSH2 0x239B JUMP JUMPDEST DUP2 EQ PUSH2 0x23BA JUMPI PUSH0 PUSH0 REVERT JUMPDEST POP JUMP JUMPDEST PUSH0 DUP2 CALLDATALOAD SWAP1 POP PUSH2 0x23CB DUP2 PUSH2 0x23A7 JUMP JUMPDEST SWAP3 SWAP2 POP POP JUMP JUMPDEST PUSH0 PUSH1 0x20 DUP3 DUP5 SUB SLT ISZERO PUSH2 0x23E6 JUMPI PUSH2 0x23E5 PUSH2 0x1BFE JUMP JUMPDEST JUMPDEST PUSH0 PUSH2 0x23F3 DUP5 DUP3 DUP6 ADD PUSH2 0x23BD JUMP JUMPDEST SWAP2 POP POP SWAP3 SWAP2 POP POP JUMP JUMPDEST PUSH0 DUP2 MLOAD SWAP1 POP SWAP2 SWAP1 POP JUMP JUMPDEST PUSH0 DUP3 DUP3 MSTORE PUSH1 0x20 DUP3 ADD SWAP1 POP SWAP3 SWAP2 POP POP JUMP JUMPDEST PUSH0 DUP2 SWAP1 POP PUSH1 0x20 DUP3 ADD SWAP1 POP SWAP2 SWAP1 POP JUMP JUMPDEST PUSH0 DUP2 MLOAD SWAP1 POP SWAP2 SWAP1 POP JUMP JUMPDEST PUSH0 DUP3 DUP3 MSTORE PUSH1 0x20 DUP3 ADD SWAP1 POP SWAP3 SWAP2 POP POP JUMP JUMPDEST PUSH0 PUSH2 0x2449 DUP3 PUSH2 0x2425 JUMP JUMPDEST PUSH2 0x2453 DUP2 DUP6 PUSH2 0x242F JUMP JUMPDEST SWAP4 POP PUSH2 0x2463 DUP2 DUP6 PUSH1 0x20 DUP7 ADD PUSH2 0x1F0E JUMP JUMPDEST PUSH2 0x246C DUP2 PUSH2 0x1C9B JUMP JUMPDEST DUP5 ADD SWAP2 POP POP SWAP3 SWAP2 POP POP JUMP JUMPDEST PUSH2 0x2480 DUP2 PUSH2 0x1E3B JUMP JUMPDEST DUP3 MSTORE POP POP JUMP JUMPDEST PUSH0 PUSH1 0xC0 DUP4 ADD PUSH0 DUP4 ADD MLOAD PUSH2 0x249B PUSH0 DUP7 ADD DUP3 PUSH2 0x21F7 JUMP JUMPDEST POP PUSH1 0x20 DUP4 ADD MLOAD DUP5 DUP3 SUB PUSH1 0x20 DUP7 ADD MSTORE PUSH2 0x24B3 DUP3 DUP3 PUSH2 0x243F JUMP JUMPDEST SWAP2 POP POP PUSH1 0x40 DUP4 ADD MLOAD DUP5 DUP3 SUB PUSH1 0x40 DUP7 ADD MSTORE PUSH2 0x24CD DUP3 DUP3 PUSH2 0x243F JUMP JUMPDEST SWAP2 POP POP PUSH1 0x60 DUP4 ADD MLOAD DUP5 DUP3 SUB PUSH1 0x60 DUP7 ADD MSTORE PUSH2 0x24E7 DUP3 DUP3 PUSH2 0x243F JUMP JUMPDEST SWAP2 POP POP PUSH1 0x80 DUP4 ADD MLOAD PUSH2 0x24FC PUSH1 0x80 DUP7 ADD DUP3 PUSH2 0x2206 JUMP JUMPDEST POP PUSH1 0xA0 DUP4 ADD MLOAD PUSH2 0x250F PUSH1 0xA0 DUP7 ADD DUP3 PUSH2 0x2477 JUMP JUMPDEST POP DUP1 SWAP2 POP POP SWAP3 SWAP2 POP POP JUMP JUMPDEST PUSH0 PUSH2 0x2525 DUP4 DUP4 PUSH2 0x2486 JUMP JUMPDEST SWAP1 POP SWAP3 SWAP2 POP POP JUMP JUMPDEST PUSH0 PUSH1 0x20 DUP3 ADD SWAP1 POP SWAP2 SWAP1 POP JUMP JUMPDEST PUSH0 PUSH2 0x2543 DUP3 PUSH2 0x23FC JUMP JUMPDEST PUSH2 0x254D DUP2 DUP6 PUSH2 0x2406 JUMP JUMPDEST SWAP4 POP DUP4 PUSH1 0x20 DUP3 MUL DUP6 ADD PUSH2 0x255F DUP6 PUSH2 0x2416 JUMP JUMPDEST DUP1 PUSH0 JUMPDEST DUP6 DUP2 LT ISZERO PUSH2 0x259A JUMPI DUP5 DUP5 SUB DUP10 MSTORE DUP2 MLOAD PUSH2 0x257B DUP6 DUP3 PUSH2 0x251A JUMP JUMPDEST SWAP5 POP PUSH2 0x2586 DUP4 PUSH2 0x252D JUMP JUMPDEST SWAP3 POP PUSH1 0x20 DUP11 ADD SWAP10 POP POP PUSH1 0x1 DUP2 ADD SWAP1 POP PUSH2 0x2562 JUMP JUMPDEST POP DUP3 SWAP8 POP DUP8 SWAP6 POP POP POP POP POP POP SWAP3 SWAP2 POP POP JUMP JUMPDEST PUSH0 PUSH1 0x20 DUP3 ADD SWAP1 POP DUP2 DUP2 SUB PUSH0 DUP4 ADD MSTORE PUSH2 0x25C4 DUP2 DUP5 PUSH2 0x2539 JUMP JUMPDEST SWAP1 POP SWAP3 SWAP2 POP POP JUMP JUMPDEST PUSH2 0x25D5 DUP2 PUSH2 0x1E3B JUMP JUMPDEST DUP2 EQ PUSH2 0x25DF JUMPI PUSH0 PUSH0 REVERT JUMPDEST POP JUMP JUMPDEST PUSH0 DUP2 CALLDATALOAD SWAP1 POP PUSH2 0x25F0 DUP2 PUSH2 0x25CC JUMP JUMPDEST SWAP3 SWAP2 POP POP JUMP JUMPDEST PUSH0 PUSH0 PUSH0 PUSH0 PUSH0 PUSH0 PUSH1 0xC0 DUP8 DUP10 SUB SLT ISZERO PUSH2 0x2610 JUMPI PUSH2 0x260F PUSH2 0x1BFE JUMP JUMPDEST JUMPDEST PUSH0 PUSH2 0x261D DUP10 DUP3 DUP11 ADD PUSH2 0x1C7F JUMP JUMPDEST SWAP7 POP POP PUSH1 0x20 DUP8 ADD CALLDATALOAD PUSH8 0xFFFFFFFFFFFFFFFF DUP2 GT ISZERO PUSH2 0x263E JUMPI PUSH2 0x263D PUSH2 0x1C02 JUMP JUMPDEST JUMPDEST PUSH2 0x264A DUP10 DUP3 DUP11 ADD PUSH2 0x2096 JUMP JUMPDEST SWAP6 POP POP PUSH1 0x40 DUP8 ADD CALLDATALOAD PUSH8 0xFFFFFFFFFFFFFFFF DUP2 GT ISZERO PUSH2 0x266B JUMPI PUSH2 0x266A PUSH2 0x1C02 JUMP JUMPDEST JUMPDEST PUSH2 0x2677 DUP10 DUP3 DUP11 ADD PUSH2 0x2096 JUMP JUMPDEST SWAP5 POP POP PUSH1 0x60 DUP8 ADD CALLDATALOAD PUSH8 0xFFFFFFFFFFFFFFFF DUP2 GT ISZERO PUSH2 0x2698 JUMPI PUSH2 0x2697 PUSH2 0x1C02 JUMP JUMPDEST JUMPDEST PUSH2 0x26A4 DUP10 DUP3 DUP11 ADD PUSH2 0x2096 JUMP JUMPDEST SWAP4 POP POP PUSH1 0x80 PUSH2 0x26B5 DUP10 DUP3 DUP11 ADD PUSH2 0x1E84 JUMP JUMPDEST SWAP3 POP POP PUSH1 0xA0 PUSH2 0x26C6 DUP10 DUP3 DUP11 ADD PUSH2 0x25E2 JUMP JUMPDEST SWAP2 POP POP SWAP3 SWAP6 POP SWAP3 SWAP6 POP SWAP3 SWAP6 JUMP JUMPDEST PUSH0 PUSH0 PUSH1 0x40 DUP4 DUP6 SUB SLT ISZERO PUSH2 0x26E9 JUMPI PUSH2 0x26E8 PUSH2 0x1BFE JUMP JUMPDEST JUMPDEST PUSH0 PUSH2 0x26F6 DUP6 DUP3 DUP7 ADD PUSH2 0x1C4C JUMP JUMPDEST SWAP3 POP POP PUSH1 0x20 PUSH2 0x2707 DUP6 DUP3 DUP7 ADD PUSH2 0x1C7F JUMP JUMPDEST SWAP2 POP POP SWAP3 POP SWAP3 SWAP1 POP JUMP JUMPDEST PUSH2 0x271A DUP2 PUSH2 0x239B JUMP JUMPDEST DUP3 MSTORE POP POP JUMP JUMPDEST PUSH0 PUSH1 0x20 DUP3 ADD SWAP1 POP PUSH2 0x2733 PUSH0 DUP4 ADD DUP5 PUSH2 0x2711 JUMP JUMPDEST SWAP3 SWAP2 POP POP JUMP JUMPDEST PUSH0 PUSH1 0x20 DUP3 DUP5 SUB SLT ISZERO PUSH2 0x274E JUMPI PUSH2 0x274D PUSH2 0x1BFE JUMP JUMPDEST JUMPDEST PUSH0 PUSH2 0x275B DUP5 DUP3 DUP6 ADD PUSH2 0x1E84 JUMP JUMPDEST SWAP2 POP POP SWAP3 SWAP2 POP POP JUMP JUMPDEST PUSH0 DUP3 DUP3 MSTORE PUSH1 0x20 DUP3 ADD SWAP1 POP SWAP3 SWAP2 POP POP JUMP JUMPDEST PUSH0 PUSH2 0x277E DUP3 PUSH2 0x2425 JUMP JUMPDEST PUSH2 0x2788 DUP2 DUP6 PUSH2 0x2764 JUMP JUMPDEST SWAP4 POP PUSH2 0x2798 DUP2 DUP6 PUSH1 0x20 DUP7 ADD PUSH2 0x1F0E JUMP JUMPDEST PUSH2 0x27A1 DUP2 PUSH2 0x1C9B JUMP JUMPDEST DUP5 ADD SWAP2 POP POP SWAP3 SWAP2 POP POP JUMP JUMPDEST PUSH0 PUSH1 0xC0 DUP3 ADD SWAP1 POP PUSH2 0x27BF PUSH0 DUP4 ADD DUP10 PUSH2 0x1EE5 JUMP JUMPDEST DUP2 DUP2 SUB PUSH1 0x20 DUP4 ADD MSTORE PUSH2 0x27D1 DUP2 DUP9 PUSH2 0x2774 JUMP JUMPDEST SWAP1 POP DUP2 DUP2 SUB PUSH1 0x40 DUP4 ADD MSTORE PUSH2 0x27E5 DUP2 DUP8 PUSH2 0x2774 JUMP JUMPDEST SWAP1 POP DUP2 DUP2 SUB PUSH1 0x60 DUP4 ADD MSTORE PUSH2 0x27F9 DUP2 DUP7 PUSH2 0x2774 JUMP JUMPDEST SWAP1 POP PUSH2 0x2808 PUSH1 0x80 DUP4 ADD DUP6 PUSH2 0x1BCD JUMP JUMPDEST PUSH2 0x2815 PUSH1 0xA0 DUP4 ADD DUP5 PUSH2 0x1E46 JUMP JUMPDEST SWAP8 SWAP7 POP POP POP POP POP POP POP JUMP JUMPDEST PUSH32 0x4E487B7100000000000000000000000000000000000000000000000000000000 PUSH0 MSTORE PUSH1 0x1 PUSH1 0x4 MSTORE PUSH1 0x24 PUSH0 REVERT JUMPDEST PUSH32 0x4E487B7100000000000000000000000000000000000000000000000000000000 PUSH0 MSTORE PUSH1 0x32 PUSH1 0x4 MSTORE PUSH1 0x24 PUSH0 REVERT JUMPDEST PUSH32 0x4E487B7100000000000000000000000000000000000000000000000000000000 PUSH0 MSTORE PUSH1 0x22 PUSH1 0x4 MSTORE PUSH1 0x24 PUSH0 REVERT JUMPDEST PUSH0 PUSH1 0x2 DUP3 DIV SWAP1 POP PUSH1 0x1 DUP3 AND DUP1 PUSH2 0x28BE JUMPI PUSH1 0x7F DUP3 AND SWAP2 POP JUMPDEST PUSH1 0x20 DUP3 LT DUP2 SUB PUSH2 0x28D1 JUMPI PUSH2 0x28D0 PUSH2 0x287A JUMP JUMPDEST JUMPDEST POP SWAP2 SWAP1 POP JUMP JUMPDEST PUSH32 0x4E487B7100000000000000000000000000000000000000000000000000000000 PUSH0 MSTORE PUSH1 0x11 PUSH1 0x4 MSTORE PUSH1 0x24 PUSH0 REVERT JUMPDEST PUSH0 PUSH2 0x290E DUP3 PUSH2 0x239B JUMP JUMPDEST SWAP2 POP PUSH2 0x2919 DUP4 PUSH2 0x239B JUMP JUMPDEST SWAP3 POP DUP3 DUP3 SUB SWAP1 POP PUSH1 0xFF DUP2 GT ISZERO PUSH2 0x2932 JUMPI PUSH2 0x2931 PUSH2 0x28D7 JUMP JUMPDEST JUMPDEST SWAP3 SWAP2 POP POP JUMP JUMPDEST PUSH0 DUP2 SWAP1 POP SWAP3 SWAP2 POP POP JUMP JUMPDEST POP JUMP JUMPDEST PUSH0 PUSH2 0x2950 PUSH0 DUP4 PUSH2 0x2938 JUMP JUMPDEST SWAP2 POP PUSH2 0x295B DUP3 PUSH2 0x2942 JUMP JUMPDEST PUSH0 DUP3 ADD SWAP1 POP SWAP2 SWAP1 POP JUMP JUMPDEST PUSH0 PUSH2 0x296F DUP3 PUSH2 0x2945 JUMP JUMPDEST SWAP2 POP DUP2 SWAP1 POP SWAP2 SWAP1 POP JUMP JUMPDEST PUSH32 0x4661696C656420746F2073656E6420457468657220746F207468652075736572 PUSH0 DUP3 ADD MSTORE PUSH32 0x2100000000000000000000000000000000000000000000000000000000000000 PUSH1 0x20 DUP3 ADD MSTORE POP JUMP JUMPDEST PUSH0 PUSH2 0x29D3 PUSH1 0x21 DUP4 PUSH2 0x2764 JUMP JUMPDEST SWAP2 POP PUSH2 0x29DE DUP3 PUSH2 0x2979 JUMP JUMPDEST PUSH1 0x40 DUP3 ADD SWAP1 POP SWAP2 SWAP1 POP JUMP JUMPDEST PUSH0 PUSH1 0x20 DUP3 ADD SWAP1 POP DUP2 DUP2 SUB PUSH0 DUP4 ADD MSTORE PUSH2 0x2A00 DUP2 PUSH2 0x29C7 JUMP JUMPDEST SWAP1 POP SWAP2 SWAP1 POP JUMP JUMPDEST PUSH32 0x4661696C656420746F2073656E6420457468657220746F20746865206F776E65 PUSH0 DUP3 ADD MSTORE PUSH32 0x7221000000000000000000000000000000000000000000000000000000000000 PUSH1 0x20 DUP3 ADD MSTORE POP JUMP JUMPDEST PUSH0 PUSH2 0x2A61 PUSH1 0x22 DUP4 PUSH2 0x2764 JUMP JUMPDEST SWAP2 POP PUSH2 0x2A6C DUP3 PUSH2 0x2A07 JUMP JUMPDEST PUSH1 0x40 DUP3 ADD SWAP1 POP SWAP2 SWAP1 POP JUMP JUMPDEST PUSH0 PUSH1 0x20 DUP3 ADD SWAP1 POP DUP2 DUP2 SUB PUSH0 DUP4 ADD MSTORE PUSH2 0x2A8E DUP2 PUSH2 0x2A55 JUMP JUMPDEST SWAP1 POP SWAP2 SWAP1 POP JUMP JUMPDEST PUSH0 DUP2 SWAP1 POP DUP2 PUSH0 MSTORE PUSH1 0x20 PUSH0 KECCAK256 SWAP1 POP SWAP2 SWAP1 POP JUMP JUMPDEST PUSH0 PUSH1 0x20 PUSH1 0x1F DUP4 ADD DIV SWAP1 POP SWAP2 SWAP1 POP JUMP JUMPDEST PUSH0 DUP3 DUP3 SHL SWAP1 POP SWAP3 SWAP2 POP POP JUMP JUMPDEST PUSH0 PUSH1 0x8 DUP4 MUL PUSH2 0x2AF1 PUSH32 0xFFFFFFFFFFFFFFFFFFFFFFFFFFFFFFFFFFFFFFFFFFFFFFFFFFFFFFFFFFFFFFFF DUP3 PUSH2 0x2AB6 JUMP JUMPDEST PUSH2 0x2AFB DUP7 DUP4 PUSH2 0x2AB6 JUMP JUMPDEST SWAP6 POP DUP1 NOT DUP5 AND SWAP4 POP DUP1 DUP7 AND DUP5 OR SWAP3 POP POP POP SWAP4 SWAP3 POP POP POP JUMP JUMPDEST PUSH0 DUP2 SWAP1 POP SWAP2 SWAP1 POP JUMP JUMPDEST PUSH0 PUSH2 0x2B36 PUSH2 0x2B31 PUSH2 0x2B2C DUP5 PUSH2 0x1BC4 JUMP JUMPDEST PUSH2 0x2B13 JUMP JUMPDEST PUSH2 0x1BC4 JUMP JUMPDEST SWAP1 POP SWAP2 SWAP1 POP JUMP JUMPDEST PUSH0 DUP2 SWAP1 POP SWAP2 SWAP1 POP JUMP JUMPDEST PUSH2 0x2B4F DUP4 PUSH2 0x2B1C JUMP JUMPDEST PUSH2 0x2B63 PUSH2 0x2B5B DUP3 PUSH2 0x2B3D JUMP JUMPDEST DUP5 DUP5 SLOAD PUSH2 0x2AC2 JUMP JUMPDEST DUP3 SSTORE POP POP POP POP JUMP JUMPDEST PUSH0 PUSH0 SWAP1 POP SWAP1 JUMP JUMPDEST PUSH2 0x2B7A PUSH2 0x2B6B JUMP JUMPDEST PUSH2 0x2B85 DUP2 DUP5 DUP5 PUSH2 0x2B46 JUMP JUMPDEST POP POP POP JUMP JUMPDEST JUMPDEST DUP2 DUP2 LT ISZERO PUSH2 0x2BA8 JUMPI PUSH2 0x2B9D PUSH0 DUP3 PUSH2 0x2B72 JUMP JUMPDEST PUSH1 0x1 DUP2 ADD SWAP1 POP PUSH2 0x2B8B JUMP JUMPDEST POP POP JUMP JUMPDEST PUSH1 0x1F DUP3 GT ISZERO PUSH2 0x2BED JUMPI PUSH2 0x2BBE DUP2 PUSH2 0x2A95 JUMP JUMPDEST PUSH2 0x2BC7 DUP5 PUSH2 0x2AA7 JUMP JUMPDEST DUP2 ADD PUSH1 0x20 DUP6 LT ISZERO PUSH2 0x2BD6 JUMPI DUP2 SWAP1 POP JUMPDEST PUSH2 0x2BEA PUSH2 0x2BE2 DUP6 PUSH2 0x2AA7 JUMP JUMPDEST DUP4 ADD DUP3 PUSH2 0x2B8A JUMP JUMPDEST POP POP JUMPDEST POP POP POP JUMP JUMPDEST PUSH0 DUP3 DUP3 SHR SWAP1 POP SWAP3 SWAP2 POP POP JUMP JUMPDEST PUSH0 PUSH2 0x2C0D PUSH0 NOT DUP5 PUSH1 0x8 MUL PUSH2 0x2BF2 JUMP JUMPDEST NOT DUP1 DUP4 AND SWAP2 POP POP SWAP3 SWAP2 POP POP JUMP JUMPDEST PUSH0 PUSH2 0x2C25 DUP4 DUP4 PUSH2 0x2BFE JUMP JUMPDEST SWAP2 POP DUP3 PUSH1 0x2 MUL DUP3 OR SWAP1 POP SWAP3 SWAP2 POP POP JUMP JUMPDEST PUSH2 0x2C3E DUP3 PUSH2 0x1EF4 JUMP JUMPDEST PUSH8 0xFFFFFFFFFFFFFFFF DUP2 GT ISZERO PUSH2 0x2C57 JUMPI PUSH2 0x2C56 PUSH2 0x1CAB JUMP JUMPDEST JUMPDEST PUSH2 0x2C61 DUP3 SLOAD PUSH2 0x28A7 JUMP JUMPDEST PUSH2 0x2C6C DUP3 DUP3 DUP6 PUSH2 0x2BAC JUMP JUMPDEST PUSH0 PUSH1 0x20 SWAP1 POP PUSH1 0x1F DUP4 GT PUSH1 0x1 DUP2 EQ PUSH2 0x2C9D JUMPI PUSH0 DUP5 ISZERO PUSH2 0x2C8B JUMPI DUP3 DUP8 ADD MLOAD SWAP1 POP JUMPDEST PUSH2 0x2C95 DUP6 DUP3 PUSH2 0x2C1A JUMP JUMPDEST DUP7 SSTORE POP PUSH2 0x2CFC JUMP JUMPDEST PUSH1 0x1F NOT DUP5 AND PUSH2 0x2CAB DUP7 PUSH2 0x2A95 JUMP JUMPDEST PUSH0 JUMPDEST DUP3 DUP2 LT ISZERO PUSH2 0x2CD2 JUMPI DUP5 DUP10 ADD MLOAD DUP3 SSTORE PUSH1 0x1 DUP3 ADD SWAP2 POP PUSH1 0x20 DUP6 ADD SWAP5 POP PUSH1 0x20 DUP2 ADD SWAP1 POP PUSH2 0x2CAD JUMP JUMPDEST DUP7 DUP4 LT ISZERO PUSH2 0x2CEF JUMPI DUP5 DUP10 ADD MLOAD PUSH2 0x2CEB PUSH1 0x1F DUP10 AND DUP3 PUSH2 0x2BFE JUMP JUMPDEST DUP4 SSTORE POP JUMPDEST PUSH1 0x1 PUSH1 0x2 DUP9 MUL ADD DUP9 SSTORE POP POP POP JUMPDEST POP POP POP POP POP POP JUMP JUMPDEST PUSH0 PUSH1 0x40 DUP3 ADD SWAP1 POP PUSH2 0x2D17 PUSH0 DUP4 ADD DUP6 PUSH2 0x1BCD JUMP JUMPDEST PUSH2 0x2D24 PUSH1 0x20 DUP4 ADD DUP5 PUSH2 0x1BCD JUMP JUMPDEST SWAP4 SWAP3 POP POP POP JUMP JUMPDEST PUSH32 0x4661696C65640000000000000000000000000000000000000000000000000000 PUSH0 DUP3 ADD MSTORE POP JUMP JUMPDEST PUSH0 PUSH2 0x2D5F PUSH1 0x6 DUP4 PUSH2 0x2764 JUMP JUMPDEST SWAP2 POP PUSH2 0x2D6A DUP3 PUSH2 0x2D2B JUMP JUMPDEST PUSH1 0x20 DUP3 ADD SWAP1 POP SWAP2 SWAP1 POP JUMP JUMPDEST PUSH0 PUSH1 0x20 DUP3 ADD SWAP1 POP DUP2 DUP2 SUB PUSH0 DUP4 ADD MSTORE PUSH2 0x2D8C DUP2 PUSH2 0x2D53 JUMP JUMPDEST SWAP1 POP SWAP2 SWAP1 POP JUMP JUMPDEST PUSH0 DUP2 SWAP1 POP DUP2 PUSH0 MSTORE PUSH1 0x20 PUSH0 KECCAK256 SWAP1 POP SWAP2 SWAP1 POP JUMP JUMPDEST PUSH1 0x1F DUP3 GT ISZERO PUSH2 0x2DE6 JUMPI PUSH2 0x2DB7 DUP2 PUSH2 0x2D93 JUMP JUMPDEST PUSH2 0x2DC0 DUP5 PUSH2 0x2AA7 JUMP JUMPDEST DUP2 ADD PUSH1 0x20 DUP6 LT ISZERO PUSH2 0x2DCF JUMPI DUP2 SWAP1 POP JUMPDEST PUSH2 0x2DE3 PUSH2 0x2DDB DUP6 PUSH2 0x2AA7 JUMP JUMPDEST DUP4 ADD DUP3 PUSH2 0x2B8A JUMP JUMPDEST POP POP JUMPDEST POP POP POP JUMP JUMPDEST PUSH2 0x2DF4 DUP3 PUSH2 0x2425 JUMP JUMPDEST PUSH8 0xFFFFFFFFFFFFFFFF DUP2 GT ISZERO PUSH2 0x2E0D JUMPI PUSH2 0x2E0C PUSH2 0x1CAB JUMP JUMPDEST JUMPDEST PUSH2 0x2E17 DUP3 SLOAD PUSH2 0x28A7 JUMP JUMPDEST PUSH2 0x2E22 DUP3 DUP3 DUP6 PUSH2 0x2DA5 JUMP JUMPDEST PUSH0 PUSH1 0x20 SWAP1 POP PUSH1 0x1F DUP4 GT PUSH1 0x1 DUP2 EQ PUSH2 0x2E53 JUMPI PUSH0 DUP5 ISZERO PUSH2 0x2E41 JUMPI DUP3 DUP8 ADD MLOAD SWAP1 POP JUMPDEST PUSH2 0x2E4B DUP6 DUP3 PUSH2 0x2C1A JUMP JUMPDEST DUP7 SSTORE POP PUSH2 0x2EB2 JUMP JUMPDEST PUSH1 0x1F NOT DUP5 AND PUSH2 0x2E61 DUP7 PUSH2 0x2D93 JUMP JUMPDEST PUSH0 JUMPDEST DUP3 DUP2 LT ISZERO PUSH2 0x2E88 JUMPI DUP5 DUP10 ADD MLOAD DUP3 SSTORE PUSH1 0x1 DUP3 ADD SWAP2 POP PUSH1 0x20 DUP6 ADD SWAP5 POP PUSH1 0x20 DUP2 ADD SWAP1 POP PUSH2 0x2E63 JUMP JUMPDEST DUP7 DUP4 LT ISZERO PUSH2 0x2EA5 JUMPI DUP5 DUP10 ADD MLOAD PUSH2 0x2EA1 PUSH1 0x1F DUP10 AND DUP3 PUSH2 0x2BFE JUMP JUMPDEST DUP4 SSTORE POP JUMPDEST PUSH1 0x1 PUSH1 0x2 DUP9 MUL ADD DUP9 SSTORE POP POP POP JUMPDEST POP POP POP POP POP POP JUMP JUMPDEST PUSH0 DUP2 SWAP1 POP SWAP3 SWAP2 POP POP JUMP JUMPDEST PUSH0 PUSH2 0x2ECE DUP3 PUSH2 0x2425 JUMP JUMPDEST PUSH2 0x2ED8 DUP2 DUP6 PUSH2 0x2EBA JUMP JUMPDEST SWAP4 POP PUSH2 0x2EE8 DUP2 DUP6 PUSH1 0x20 DUP7 ADD PUSH2 0x1F0E JUMP JUMPDEST DUP1 DUP5 ADD SWAP2 POP POP SWAP3 SWAP2 POP POP JUMP JUMPDEST PUSH0 PUSH2 0x2EFF DUP3 DUP5 PUSH2 0x2EC4 JUMP JUMPDEST SWAP2 POP DUP2 SWAP1 POP SWAP3 SWAP2 POP POP JUMP JUMPDEST PUSH0 PUSH1 0x60 DUP3 ADD SWAP1 POP DUP2 DUP2 SUB PUSH0 DUP4 ADD MSTORE PUSH2 0x2F22 DUP2 DUP7 PUSH2 0x2774 JUMP JUMPDEST SWAP1 POP PUSH2 0x2F31 PUSH1 0x20 DUP4 ADD DUP6 PUSH2 0x1BCD JUMP JUMPDEST PUSH2 0x2F3E PUSH1 0x40 DUP4 ADD DUP5 PUSH2 0x1E46 JUMP JUMPDEST SWAP5 SWAP4 POP POP POP POP JUMP JUMPDEST PUSH0 PUSH2 0x2F50 DUP3 PUSH2 0x1BC4 JUMP JUMPDEST SWAP2 POP PUSH32 0xFFFFFFFFFFFFFFFFFFFFFFFFFFFFFFFFFFFFFFFFFFFFFFFFFFFFFFFFFFFFFFFF DUP3 SUB PUSH2 0x2F82 JUMPI PUSH2 0x2F81 PUSH2 0x28D7 JUMP JUMPDEST JUMPDEST PUSH1 0x1 DUP3 ADD SWAP1 POP SWAP2 SWAP1 POP JUMP JUMPDEST PUSH32 0x417070204964204E6F7420466F756E6400000000000000000000000000000000 PUSH0 DUP3 ADD MSTORE POP JUMP JUMPDEST PUSH0 PUSH2 0x2FC1 PUSH1 0x10 DUP4 PUSH2 0x2764 JUMP JUMPDEST SWAP2 POP PUSH2 0x2FCC DUP3 PUSH2 0x2F8D JUMP JUMPDEST PUSH1 0x20 DUP3 ADD SWAP1 POP SWAP2 SWAP1 POP JUMP JUMPDEST PUSH0 PUSH1 0x20 DUP3 ADD SWAP1 POP DUP2 DUP2 SUB PUSH0 DUP4 ADD MSTORE PUSH2 0x2FEE DUP2 PUSH2 0x2FB5 JUMP JUMPDEST SWAP1 POP SWAP2 SWAP1 POP JUMP JUMPDEST PUSH0 PUSH2 0x2FFF DUP3 PUSH2 0x1BC4 JUMP JUMPDEST SWAP2 POP PUSH2 0x300A DUP4 PUSH2 0x1BC4 JUMP JUMPDEST SWAP3 POP DUP3 DUP3 MUL PUSH2 0x3018 DUP2 PUSH2 0x1BC4 JUMP JUMPDEST SWAP2 POP DUP3 DUP3 DIV DUP5 EQ DUP4 ISZERO OR PUSH2 0x302F JUMPI PUSH2 0x302E PUSH2 0x28D7 JUMP JUMPDEST JUMPDEST POP SWAP3 SWAP2 POP POP JUMP JUMPDEST PUSH32 0x4E487B7100000000000000000000000000000000000000000000000000000000 PUSH0 MSTORE PUSH1 0x12 PUSH1 0x4 MSTORE PUSH1 0x24 PUSH0 REVERT JUMPDEST PUSH0 PUSH2 0x306D DUP3 PUSH2 0x1BC4 JUMP JUMPDEST SWAP2 POP PUSH2 0x3078 DUP4 PUSH2 0x1BC4 JUMP JUMPDEST SWAP3 POP DUP3 PUSH2 0x3088 JUMPI PUSH2 0x3087 PUSH2 0x3036 JUMP JUMPDEST JUMPDEST DUP3 DUP3 DIV SWAP1 POP SWAP3 SWAP2 POP POP JUMP INVALID LOG2 PUSH5 0x6970667358 0x22 SLT KECCAK256 SWAP8 0xD0 0xDB PUSH9 0x17C7D91CCAC17594E 0xF9 GASPRICE 0x2B PUSH23 0xF45A81DFBC7F53400241121256F6B964736F6C63430008 SHR STOP CALLER "
				},
				"gasEstimates": {
					"creation": {
						"codeDepositCost": "2497800",
						"executionCost": "infinite",
						"totalCost": "infinite"
					},
					"external": {
						"_emojiCounter()": "2461",
						"_reactionCounter()": "2460",
						"addEmoji(string,string,string,uint256)": "infinite",
						"emojiPool(uint256)": "infinite",
						"fee()": "2554",
						"getAllEmoji()": "infinite",
						"getAllUserReaction(address)": "infinite",
						"getBalance()": "infinite",
						"owner()": "2581",
						"pause()": "infinite",
						"paused()": "2568",
						"react(address,bytes32,bytes)": "infinite",
						"reactPool(address,uint256)": "infinite",
						"renounceOwnership()": "infinite",
						"totalOfEmojiReaction(address,bytes32)": "infinite",
						"transferBalance(address,uint256)": "infinite",
						"transferOwnership(address)": "infinite",
						"unpause()": "infinite",
						"updateEmoji(bytes32,string,string,string,uint256,bool)": "infinite",
						"updateFee(uint8)": "infinite",
						"withdraw()": "infinite"
					},
					"internal": {
						"_getEmojiDetail(bytes32)": "infinite",
						"calcPercentage(uint256,uint256)": "infinite"
					}
				},
				"methodIdentifiers": {
					"_emojiCounter()": "80de0ea7",
					"_reactionCounter()": "c019e859",
					"addEmoji(string,string,string,uint256)": "5da18d22",
					"emojiPool(uint256)": "e0a1be30",
					"fee()": "ddca3f43",
					"getAllEmoji()": "af75c2e5",
					"getAllUserReaction(address)": "78b963e0",
					"getBalance()": "12065fe0",
					"owner()": "8da5cb5b",
					"pause()": "8456cb59",
					"paused()": "5c975abb",
					"react(address,bytes32,bytes)": "1f15a20b",
					"reactPool(address,uint256)": "4bc34927",
					"renounceOwnership()": "715018a6",
					"totalOfEmojiReaction(address,bytes32)": "d2d41c2c",
					"transferBalance(address,uint256)": "56a6d9ef",
					"transferOwnership(address)": "f2fde38b",
					"unpause()": "3f4ba83a",
					"updateEmoji(bytes32,string,string,string,uint256,bool)": "c4299885",
					"updateFee(uint8)": "949c09b8",
					"withdraw()": "3ccfd60b"
				}
			},
			"storageLayout": {
				"storage": [
					{
						"astId": 1962,
						"contract": "Giftmoji.sol:EmojiGift",
						"label": "_owner",
						"offset": 0,
						"slot": "0",
						"type": "t_address"
					},
					{
						"astId": 2110,
						"contract": "Giftmoji.sol:EmojiGift",
						"label": "_paused",
						"offset": 20,
						"slot": "0",
						"type": "t_bool"
					},
					{
						"astId": 1325,
						"contract": "Giftmoji.sol:EmojiGift",
						"label": "_emojiCounter",
						"offset": 0,
						"slot": "1",
						"type": "t_struct(Counter)35_storage"
					},
					{
						"astId": 1328,
						"contract": "Giftmoji.sol:EmojiGift",
						"label": "_reactionCounter",
						"offset": 0,
						"slot": "2",
						"type": "t_struct(Counter)35_storage"
					},
					{
						"astId": 1330,
						"contract": "Giftmoji.sol:EmojiGift",
						"label": "fee",
						"offset": 0,
						"slot": "3",
						"type": "t_uint8"
					},
					{
						"astId": 1347,
						"contract": "Giftmoji.sol:EmojiGift",
						"label": "reactPool",
						"offset": 0,
						"slot": "4",
						"type": "t_mapping(t_address,t_array(t_struct(ReactStruct)1341_storage)dyn_storage)"
					},
					{
						"astId": 1364,
						"contract": "Giftmoji.sol:EmojiGift",
						"label": "emojiPool",
						"offset": 0,
						"slot": "5",
						"type": "t_array(t_struct(EmojiStruct)1360_storage)dyn_storage"
					}
				],
				"types": {
					"t_address": {
						"encoding": "inplace",
						"label": "address",
						"numberOfBytes": "20"
					},
					"t_array(t_struct(EmojiStruct)1360_storage)dyn_storage": {
						"base": "t_struct(EmojiStruct)1360_storage",
						"encoding": "dynamic_array",
						"label": "struct EmojiGift.EmojiStruct[]",
						"numberOfBytes": "32"
					},
					"t_array(t_struct(ReactStruct)1341_storage)dyn_storage": {
						"base": "t_struct(ReactStruct)1341_storage",
						"encoding": "dynamic_array",
						"label": "struct EmojiGift.ReactStruct[]",
						"numberOfBytes": "32"
					},
					"t_bool": {
						"encoding": "inplace",
						"label": "bool",
						"numberOfBytes": "1"
					},
					"t_bytes32": {
						"encoding": "inplace",
						"label": "bytes32",
						"numberOfBytes": "32"
					},
					"t_bytes_storage": {
						"encoding": "bytes",
						"label": "bytes",
						"numberOfBytes": "32"
					},
					"t_mapping(t_address,t_array(t_struct(ReactStruct)1341_storage)dyn_storage)": {
						"encoding": "mapping",
						"key": "t_address",
						"label": "mapping(address => struct EmojiGift.ReactStruct[])",
						"numberOfBytes": "32",
						"value": "t_array(t_struct(ReactStruct)1341_storage)dyn_storage"
					},
					"t_string_storage": {
						"encoding": "bytes",
						"label": "string",
						"numberOfBytes": "32"
					},
					"t_struct(Counter)35_storage": {
						"encoding": "inplace",
						"label": "struct Counters.Counter",
						"members": [
							{
								"astId": 34,
								"contract": "Giftmoji.sol:EmojiGift",
								"label": "_value",
								"offset": 0,
								"slot": "0",
								"type": "t_uint256"
							}
						],
						"numberOfBytes": "32"
					},
					"t_struct(EmojiStruct)1360_storage": {
						"encoding": "inplace",
						"label": "struct EmojiGift.EmojiStruct",
						"members": [
							{
								"astId": 1349,
								"contract": "Giftmoji.sol:EmojiGift",
								"label": "emojiId",
								"offset": 0,
								"slot": "0",
								"type": "t_bytes32"
							},
							{
								"astId": 1351,
								"contract": "Giftmoji.sol:EmojiGift",
								"label": "metadata",
								"offset": 0,
								"slot": "1",
								"type": "t_string_storage"
							},
							{
								"astId": 1353,
								"contract": "Giftmoji.sol:EmojiGift",
								"label": "name",
								"offset": 0,
								"slot": "2",
								"type": "t_string_storage"
							},
							{
								"astId": 1355,
								"contract": "Giftmoji.sol:EmojiGift",
								"label": "emoji",
								"offset": 0,
								"slot": "3",
								"type": "t_string_storage"
							},
							{
								"astId": 1357,
								"contract": "Giftmoji.sol:EmojiGift",
								"label": "price",
								"offset": 0,
								"slot": "4",
								"type": "t_uint256"
							},
							{
								"astId": 1359,
								"contract": "Giftmoji.sol:EmojiGift",
								"label": "status",
								"offset": 0,
								"slot": "5",
								"type": "t_bool"
							}
						],
						"numberOfBytes": "192"
					},
					"t_struct(ReactStruct)1341_storage": {
						"encoding": "inplace",
						"label": "struct EmojiGift.ReactStruct",
						"members": [
							{
								"astId": 1332,
								"contract": "Giftmoji.sol:EmojiGift",
								"label": "sender",
								"offset": 0,
								"slot": "0",
								"type": "t_address"
							},
							{
								"astId": 1334,
								"contract": "Giftmoji.sol:EmojiGift",
								"label": "emojiId",
								"offset": 0,
								"slot": "1",
								"type": "t_bytes32"
							},
							{
								"astId": 1336,
								"contract": "Giftmoji.sol:EmojiGift",
								"label": "price",
								"offset": 0,
								"slot": "2",
								"type": "t_uint256"
							},
							{
								"astId": 1338,
								"contract": "Giftmoji.sol:EmojiGift",
								"label": "message",
								"offset": 0,
								"slot": "3",
								"type": "t_bytes_storage"
							},
							{
								"astId": 1340,
								"contract": "Giftmoji.sol:EmojiGift",
								"label": "dt",
								"offset": 0,
								"slot": "4",
								"type": "t_uint256"
							}
						],
						"numberOfBytes": "160"
					},
					"t_uint256": {
						"encoding": "inplace",
						"label": "uint256",
						"numberOfBytes": "32"
					},
					"t_uint8": {
						"encoding": "inplace",
						"label": "uint8",
						"numberOfBytes": "1"
					}
				}
			},
			"userdoc": {
				"kind": "user",
				"methods": {
					"getAllEmoji()": {
						"notice": "Get all emojies"
					},
					"getAllUserReaction(address)": {
						"notice": "Get all user reactions"
					},
					"getBalance()": {
						"notice": "Return the balance of this contract"
					},
					"pause()": {
						"notice": "Pause mint"
					},
					"react(address,bytes32,bytes)": {
						"notice": "Gift emoji"
					},
					"totalOfEmojiReaction(address,bytes32)": {
						"notice": "Get all reactions of a emoji"
					},
					"transferBalance(address,uint256)": {
						"notice": "Transfer balance from this contract to input address"
					},
					"unpause()": {
						"notice": "Unpause mint"
					},
					"updateFee(uint8)": {
						"notice": "Update fee"
					},
					"withdraw()": {
						"notice": "Withdraw the balance from this contract to the owner's address"
					}
				},
				"notice": "Giftmoji contract v1.0",
				"version": 1
			}
		}
	}
}